:020000040001F9
:1080000050E80020B19C01007D1B0200859C01000E
:10801000859C0100859C0100859C0100859C0100D8
:108020000000000000000000000000009195010029
:10803000859C01000000000021950100859C010045
:108040002196010021960100219601002196010050
:108050002196010021960100219601002196010040
:108060002196010021960100219601002196010030
:108070002196010021960100219601002196010020
:108080002196010021960100219601002196010010
:108090002196010021960100219601002196010000
:1080A00021960100219601002196010021960100F0
:1080B00021960100219601002196010021960100E0
:1080C00021960100219601002196010021960100D0
:1080D00021960100219601002196010021960100C0
:1080E00021960100219601002196010021960100B0
:1080F00021960100219601002196010021960100A0
:10810000219601002196010021960100219601008F
:10811000219601002196010021960100219601007F
:10812000219601002196010021960100219601006F
:10813000219601002196010021960100219601005F
:1081400021960100FFFFFFFF7BB972B90029BEBF76
:1081500000204FF0004106E008BF00281CBF6FF070
:1081600000414FF0FF3000F057B8ADF1080C6DE959
:1081700004CE002909DB002B1ADB00F04FF8DDF8F4
:1081800004E0DDE9022304B07047404261EB4101A5
:10819000002B1BDB00F042F8DDF804E0DDE90223F0
:1081A00004B0404261EB4101524263EB430370472C
:1081B000524263EB430300F031F8DDF804E0DDE9FF
:1081C000022304B0404261EB41017047524263EB2D
:1081D000430300F023F8DDF804E0DDE9022304B0F6
:1081E000524263EB4303704753B94AB9002908BFB1
:1081F00000281CBF4FF0FF314FF0FF3000F00CB8EB
:10820000ADF1080C6DE904CE00F008F8DDF804E0EB
:10821000DDE9022304B07047704700BF2DE9F04745
:1082200086468C460846089E154674461946002B1D
:1082300040F0C1808542B2FA82F245D94AB1C2F11A
:10824000200300FA02FC954094402EFA03F343EA1F
:108250000C0C4FEA154EA8B2230CBCFBFEF80EFB2B
:1082600018CC08FB00F943EA0C43994528D9EB18D0
:1082700008F1FF3704D2994502D9A8F102072B442F
:10828000A3EB0903A4B2B3FBFEFC0EFB1C330CFBF7
:1082900000F044EA0344A04214D92C190CF1FF3336
:1082A00004D2A04202D9ACF102032C44241A43EABE
:1082B00007401EB1D440002334607360BDE8F087EE
:1082C0004746DDE76346F1E792BB431B01214FEAD6
:1082D000154EAFB2200CB3FBFEFC0EFB1C330CFBA7
:1082E00007F840EA0343984561D9EB180CF1FF30D9
:1082F00004D2984502D9ACF102002B44A3EB080349
:10830000A4B2B3FBFEFC0EFB1C330CFB07F744EAE4
:108310000344A7424DD92C190CF1FF3304D2A742D4
:1083200002D9ACF102032C44E41B43EA0040C0E74D
:10833000C2F120039540944020FA03F12EFA03F392
:108340004FEA154E9040AFB20343B1FBFEFC0EFB6B
:108350001C10190C0CFB07F841EA0041884522D992
:1083600069180CF1FF3004D2884502D9ACF1020043
:108370002944A1EB08019BB2B1FBFEFC0EFB1C11D2
:108380000CFB07F743EA01439F420ED9EB180CF1AF
:10839000FF3104D29F4202D9ACF102012B44DB1B16
:1083A00041EA004193E76046E3E76146F7E760464C
:1083B000A4E76346B8E7834206D916B90021084608
:1083C0007CE7C6E900E0F9E7B3FA83F78FB98342A7
:1083D00001D3724508D8BEEB020460EB0303012011
:1083E0009C461EB9002169E73846FAE7C6E9004C09
:1083F000F8E7C7F1200CBB400EFA07F522FA0CF49F
:108400002EFA0CF1BA401C4320FA0CF3B8404FEAA4
:10841000144901431FFA84FEB3FBF9F809FB183035
:108420000B0C08FB0EFA43EA00439A4540D9E318C7
:1084300008F1FF3004D29A4502D9A8F10200234482
:10844000A3EB0A0389B2B3FBF9F809FB183308FB65
:108450000EFE41EA03418E452CD9611808F1FF3325
:1084600004D28E4502D9A8F10203214443EA004018
:10847000A1EB0E01A0FB02984145CE46434602D334
:1084800006D14D4504D20138B9EB020E68EB040366
:10849000002EA7D0B5EB0E0261EB030101FA0CFC34
:1084A00022FA07F3F9404CEA0303C6E9003199E7E1
:1084B0004046C5E74346D9E7034613F8012B002A97
:1084C000FBD1181A01387047022A70B504460D46D0
:1084D000184611D8DAB1022D19886DD8B1F5006FA0
:1084E0006AD2022A4FF0020314BF232220226068BE
:1084F000BDE8704009F08BBF052A04D003291CD9C0
:108500006FF085005AE0022325220188EFE7032956
:10851000F6D84FF47A711D885B6893FBF1F39BB238
:1085200055EA0301ECD02849088885423AD2204612
:10853000BDE87040D1B209F095BF072AE0D15B6871
:1085400005682248D917C5FB0031012B71F10002E3
:108550001CDB00F56E1000F65D70181841F100018B
:1085600017A3D3E90023FFF7EFFD80B2022815D946
:10857000042815D90828C3D80222154B2046BDE887
:10858000704003EB8203997809F04DBF1148181829
:1085900061F100010AA3D3E90023E4E70022ECE73C
:1085A0000122EAE702D148889842C0D20132062A65
:1085B00001F10401B8D1A3E76FF0150070BD00BF51
:1085C0003AA3950000000000C247020040420F009D
:1085D000B6470200632EB5FF10B5054C204608F0E3
:1085E0008AFE00214FF4004007F0E8F9F6E700BFEB
:1085F000DA4702002DE9F04F91B0009302F0040336
:108600000293C2F3C2030133840705460E46DDF828
:1086100068900392059340F0BB81041D30B1072997
:1086200009D86FF01B0011B0BDE8F08F01F007060C
:10863000341DC6F10806009B4FF000084FF0040AF5
:10864000591E4FF0FF3347460193C3465346CDF8BA
:1086500010800DB1009A22600598002800F3E88090
:108660009848009A824203D397488242C0F0E08043
:10867000039AA4EB050E92074FEA9E0000F10381D6
:108680000F2F00F2B180002D00F0058107F14002AC
:108690000DEB020C019A0CF8200C0CF8102C04982D
:1086A00001300490E7E07A285DD84B280ED847289F
:1086B00059D829282DD8252852D054D820287AD006
:1086C0002338D0F1000B4BEB000B74E04C382E2814
:1086D00049D8DFE800F070484848484848484848CA
:1086E00048484B484848484848484859484B4B59DF
:1086F0005959704B6D487048184B184848827F4B49
:1087000048484B487F0000204FF0000B4FF0040A10
:1087100038E001222A38C0B202FA00F010EA0E0F47
:1087200049D110F0625C2FD110EA020B43D06046B1
:10873000013C5444B4FBFAF40AFB04F4002D61D06C
:10874000A3EB050CA4446645FFF46BAF002868D189
:10875000042B47D159F8043B2360042304342AE056
:10876000019A013A01924FF0000B24E011F8010C3C
:108770006C2834D1002011F8023C83466C2BC5D103
:108780004FF0080A5346D3E709F1070929F0070912
:10879000073424F00704F9E802AB35B10698204409
:1087A000B0423FF63EAFC4E900AB4FF0000B0834D7
:1087B0004FF0080A534611F8010F002878D0BBF19A
:1087C000000F7FF470AF2528F5D14FF0010B019B0E
:1087D000013301934FF0040AECE7584694E7002078
:1087E0008346A5E7082B02D06FF015001BE709F1BF
:1087F000070929F00709F9E80223C4E9002308233F
:108800000834D8E768B9042B02D109F10409A4E7B8
:10881000082BE9D109F1070929F0070909F108092D
:10882000EDE7059A013A059259F8042B009210E7FA
:10883000039A900720D54FF0010CA4EB050E4FEAE8
:108840009E00BEF5007FCFD20F2FCDD8F5B107F136
:1088500040020DEB020E019AC0B20EF8200C0EF889
:10886000102CBCF1000F3FF41AAF60F07F000EF83F
:10887000200C08F101080137C5F108024FF6DA7E35
:108880000434069297E74FF0000CDAE7BCF1000FD2
:1088900001D00136EFE7029802360028EBD10098AC
:1088A000CDE90631FFF708FEDDE906310644E2E7CF
:1088B000631BB3F5806F97D245B9A6F10804E018A1
:1088C000B1E600BF9039020068560200029A9B0888
:1088D00028602B709DF81030C2B1EB7085F80280D3
:1088E000B8F1000F05D0002208A8C5F1010C97428D
:1088F0000ED14FF0000AC5F101030DF120090193DB
:108900000DF1300B574512D1601B8CE66B70E5E71B
:1089100010F8013B190608D504EB0C0E764503F060
:108920007F03FFF47EAE04F8013B0132DFE7B8F1CC
:10893000000F03D099F90020002A17DB029BD3B166
:108940001AF80B2004F8012B0022019B98182044F0
:108950008642FFF466AE99F80000009904F8010B16
:10896000204603920AF0EDFF039A14440AF1010A2B
:1089700009F10109C6E799F8002055F82230009363
:10898000029B009845F82230FFF796FD421CDCE779
:108990006FF00D0047E600BF014B1860704700BF45
:1089A00080C5002080B505460E461746984607F05C
:1089B0001FF803460AF0E2FF0446DFF8189042462B
:1089C00049F8003039463046A84754F8090001F00C
:1089D000E9F900BF080000002DE9F047058B0446C7
:1089E0002807904611D4022905F0070540F0CD80F4
:1089F000204608F03AFF78B10138218B042811D8BD
:108A0000DFE800F0C3106D85950001290CBF45F02B
:108A1000100545F02005258388F31188BFF36F8F7B
:108A2000BDE8F08701F0070AAA4500F0A6800027FC
:108A3000B9463E46A368002B00F0BD8041F0080116
:108A4000218388F31188BFF36F8FA168002900F09C
:108A5000BB800D68002900F0B7803346524620469F
:108A6000D1F80480C047002D76D02B6829461D46DA
:108A7000F0E701F007035A1F012A1BD8002221F05A
:108A80000701062B276889B2C4E9002209D13B46B9
:108A900003E0628B013262831B68002BF9D141F045
:108AA00002012046218308F0E0FE00287BD041F03F
:108AB000200177E0042B0AD121F0070189B220467A
:108AC000218308F0D2FE10B141F020012183218BD7
:108AD00001F0070AAA4550D00027B946AAE7236942
:108AE00021F0070141F00601062DD3F80090218303
:108AF0002DD1B9F1000F40D041F00801218388F356
:108B00001188BFF36F8F20463949C84729E021F00B
:108B10000701236941F0040189B2042DD3F80490C0
:108B20002183E6D000274FF0040A3E4682E721F079
:108B30000701236941F0050189B2052DD3F808909A
:108B40002183D6D000274FF0050A3E4672E7002762
:108B50004FF0060A3E466DE72B4687E7B9F1000F56
:108B6000D1D14FF02003EFF3118883F31288BFF3C4
:108B70006F8F238B23F008032383258BEA062ED5E2
:108B800025F01003238305F007056669218B002E6D
:108B9000BFF66FAF00232768C4E9003321F0070157
:108BA00041F001012183218B4FF0000901F0070AF8
:108BB000AA457FF43FAF002F9BD041F008012183ED
:108BC00088F31188BFF36F8F002FC7D03D683946F7
:108BD00033465246204608F074FE2F46F4E7AB06B3
:108BE0007FF51AAF25F02003238305F00705FFE684
:108BF000EF1802000122024B0020C3F84025704705
:108C00000090034020B1034B800143F0010318475B
:108C1000704700BF103E020009F033BF2DE9F84F46
:108C200081462F480F4608F0FEFE064670B92D4CCF
:108C30000546A0464FF0010BDFF8ACA0544507D322
:108C4000B9F1000F02D04FF0010AE5B9BDE8F88F85
:108C5000237B73B12368DB680BB1204698472368F8
:108C60001B6943B9636804222046196800F0C4F800
:108C700001361034E2E7204698470028F2D00BFA7C
:108C800006F31D43F4E7A94695FAA5F4B4FA84F473
:108C90000AFA04F3260108EB04146FEA030B25EA31
:108CA0000305237B63B158F806301B6993B946442A
:108CB000736804222046196809EA0B0900F09CF841
:108CC000002DE1D127B14FF4A470002106F076FE0B
:108CD0004D46BAE7204698470028F1D1E7E700BFA4
:108CE00060C80020E43D0200F43D0200014B53F84F
:108CF00020007047A840020008B5034608462BB183
:108D0000044A136000F07EFA002008BD6FF01500E1
:108D1000FBE700BF84C500200023054A4FF4004153
:108D20001370044A04481360044A1360FFF7E4BF59
:108D3000E2CE002058C80020231A02005CC80020A0
:108D400070B50B4D297841B90120FFF767FF094C39
:108D5000094EB44202D301232B7070BD63685B7966
:108D60001BB1236820469B6898471034F1E700BF89
:108D7000E2CE0020E43D0200F43D020010B50446BE
:108D8000064808F050FE3CB1054BD3E8EF1F01390F
:108D9000C3E8E21F002AF8D110BD00BF58C8002068
:108DA0005CC8002070B50A4B05461B689847094C03
:108DB000094EA860B44200D370BD63685B7923B1EB
:108DC0002368294620461B6898471034F2E700BF05
:108DD00084C50020E43D0200F43D0200044A054B36
:108DE0009B1AB1EBD30F34BF52F83100002070470B
:108DF000143D0200E43D0200084B10B4C31A44685D
:108E00001B110133237143689A7101224368196071
:108E100043685A7110BC08F024BE00BFE43D020054
:108E20002DE9F04F85B002AF0446D7E90EA90E46F2
:108E3000934698463D6BBAF1000F33D0C7F80490C3
:108E4000CDF800901021534600207A6BFFF7D2FB3B
:108E50000146154A04F007040BF0070BE40044EA4E
:108E60008B1402EA4122144344EA055417350D4499
:108E700025F00705ADEB050D02ADBAF1000F07D0E7
:108E8000CDF8009053467A6B05F11000FFF7B2FB66
:108E9000434622463146284608F0E6FD0C37BD46DB
:108EA000BDE8F08F5146D4E700FE0F000EB403B5C5
:108EB00003AB53F8042B01460448019301F048F931
:108EC00002B05DF804EB03B0704700BF9B1A0200CC
:108ED000CA0605D48B064CBF02490349FFF7E6BF1B
:108EE000704700BF44540200435402002DE9F04F84
:108EF00089B09A46DDE914739DF84CB00593169B32
:108F000004460D46179E06920493BBF1000F00F035
:108F1000858006F00803079308F0A4FD06F0020917
:108F20000246002849D020468549FFF7BFFF80460A
:108F3000B9F1000F08D016F0440F40D12A46204660
:108F40008049FFF7B3FF804406F0010353B17E4B25
:108F5000204653F82B207D4B7D49002A08BF1A4636
:108F6000FFF7A4FF06F00803002B54D0794B2046EE
:108F700053F82B207849FFF799FF0546069B2BB144
:108F80001A4620467549FFF791FF0544BAF1000FD4
:108F900005D0524620467249FFF788FF05444544F4
:108FA000002F49D1049B002B4FD1F30700F1C18062
:108FB00031462046FFF78CFFB5E08046B8E7694BA5
:108FC00018680028BFD0684B4FF47A791B684FF4BB
:108FD0006161B5FBF3F5B5FBF0F300FB135509FB3D
:108FE00005F5B3FBF1F2B5FBF0FE4FF03C0C01FBD5
:108FF000123100FB1E55B1FBFCF309FB05F5B5FB77
:10900000F0F50CFB131120460091CDE901E557491D
:10901000FFF74CFF97E706F00805AFE7BAF1010F3D
:1090200006D1002F65D1049B002B7CD000250CE0DD
:10903000002FF8D04E485DE04E483B4622464E4950
:1090400008F026F9049B002B69D0DFF83081DFF8A7
:109050003091049F3146102F204628BF10274FF033
:10906000000AFFF735FF554546DC059B494620467B
:109070001A78FFF71BFF4FF0010A1AF0070F03D110
:1090800041462046FFF712FF57453CD9059B49460C
:10909000204613F80A20FFF709FF0AF1010ABAF186
:1090A000100FEAD14FF0000A20463649FFF7FEFEC6
:1090B0005246059B20469A5C334B995C11F0970F02
:1090C00008BF2E223149FFF7F1FE0AF1010ABAF179
:1090D000100F1DD01AF0070F03D141462046FFF7AD
:1090E000E5FE57455246E4D841462046FFF7DEFEEE
:1090F000EBE720485D46A0E741462046FFF7D6FE55
:109100000AF1010AAFE720462149FFF7CFFEC4E785
:10911000059B3B440593049BDB1B049399D1BBF156
:10912000000F7FF442AF204609B0BDE8F04F08F0D1
:10913000DDBC2046054A0649FFF7B8FE38E700BF08
:10914000264802002A480200B840020021480200D6
:10915000B44E0200CC4002004F48020055480200C5
:109160005948020068C8002064C800203348020043
:10917000B71A02009B1A020051A1010066480200C2
:109180005E48020068480200535502006A48020027
:10919000644802002DE9F0410F884B6805460C46F3
:1091A00090468E6886B0C7F382175BB1144A9B1A4B
:1091B00043F3CF01002920DB2078C0F3C200FFF782
:1091C0000DFE0346214651F8102B6088C2F34A2257
:1091D000002A01EB020408BF00210022C0F30B109B
:1091E000CDE90408CDE902142846314601970092E2
:1091F000FFF77CFE06B0BDE8F0810023E2E700BF88
:10920000143D020000210123064A904206D8064A76
:1092100001B901231360054B186070470121400814
:109220005B00F2E740420F0064C8002068C80020DD
:10923000014B00201960704780C800200122024BBA
:1092400002481A7008F052BCE4CE0020FC40020034
:1092500010B5064B0C461868FFF748FD2146BDE8DF
:10926000104003460F220248184700BF80C8002064
:10927000FC400200F8B50D460446064F4618B442BD
:1092800001D12846F8BD14F8011BBB6801485B6892
:109290009847F4E76C3A0200034610B588B08DF8A1
:1092A00007300DF1070302930123094ACDE90513A5
:1092B00010680393002207238DF810208DF81C30CE
:1092C000836802229C6802A94623A04708B010BD0B
:1092D00084C8002070B586B00E460DF10701054622
:1092E0001446FFF7D9FFC8B99DF807308DF808502C
:1092F00023EA06010A4B44EA0102186802AB039311
:1093000002238DF807208DF8092004938DF814307E
:10931000836801229C6803A94623A04706B070BD5C
:1093200084C8002010B5044609F0CFFF18B1002012
:10933000024B1C6010BD6FF01200FBE784C80020D8
:10934000014910220A60704710ED00E072B64040FB
:1093500080F31188BFF36F8FBFF34F8F30BF62B6BA
:10936000BFF36F8F704700BF72B6494081F3118819
:10937000BFF34F8F20BF80F3118862B6704700BFE4
:1093800070B506460D4686B0002938D000248B689B
:10939000012205934B68204604930B681B490393F5
:1093A0001B4BCDE900440293234608F0CFFB6B69C9
:1093B000012205932B6920460493EB68134903931C
:1093C000144B0094CDE90143234608F0BFFBEB6941
:1093D00001220393104B2046CDE901430B4923465C
:1093E000009408F0B3FBAB69012203930B4B2046BA
:1093F000CDE9014305492346009408F0A7FB29461F
:10940000304606B0BDE8704005F0EABCC43D02003D
:10941000A7480200D648020005490200144902008C
:1094200040B2002807DB01234109034A00F01F0076
:10943000834042F82130704700E100E040B200284C
:109440000CDB01220649430900F01F008240203353
:1094500041F82320BFF34F8FBFF36F8F704700BFDA
:1094600000E100E0054B420953F82220012300F0FF
:109470001F0003FA00F01040704700BF00E100E059
:1094800040B2002801F10101ACBF00F16040064B81
:109490004FEA4111C9B2ABBF00F5614000F00F00C7
:1094A00080F800131954704714ED00E030BFFFF747
:1094B000FDBF00BF0B4A08B50B4B22F07F029A603C
:1094C000BFF34F8FBFF36F8FD3F8882022F4700261
:1094D000C3F8882005F028FD06F0F0FA00F0DCFB68
:1094E00005F06CFD0080010000ED00E0094A0A492A
:1094F000936809685867996708494B6843F0805337
:109500004B60002383F31188BFF36F8F9368986FCC
:10951000704700BFA4CE0020D846020000ED00E056
:1095200018498A6882F87DE04FF030001044EFF36C
:10953000098C80E8F01F202080F31288BFF36F8F22
:10954000114F4FF000664A698A603E604FF0700428
:10955000141920680D4C206092F97DE0506F0023B3
:10956000536780F3118802F1300090E8F01F8CF30C
:10957000098802F1000004B508F007FBBDE80440CB
:1095800070470000A4CE002004ED00E088C8002051
:109590001EF0040F0CBFEFF30880EFF30980816920
:1095A00011F8021C0229FFD001B508F0DFFA01BD55
:1095B00042F8203C009B0C4942F81C3C019B21F0E6
:1095C000010142F8183C029B42F8081C42F8143C86
:1095D0004FF0807342F8043C002343674FF43C4350
:1095E000203A0265C3677047A58901000A4B046FE2
:1095F00098600A4B1C60036E83F30B88104681F35E
:109600000988002163B681F31188BFF36F8F0022B0
:109610000023FFF7C7F900BFA4CE002088C80020B0
:1096200001B5EFF30580A0F110004FEAC000044936
:10963000014409C99847BDE80140024908470000B4
:109640000C3B0200A5960100114B124A2DE9F04196
:10965000D518013DB5FBF3F5DFF83C805D430F4BBA
:10966000074608EB0304013CB4FBF3F403FB04548A
:109670000E1B30460A490AF064F97019424600216F
:10968000083E0AF06BF93E6704F10800BDE8F0817E
:1096900001000000000000000800000004000000BD
:1096A000F43D0200044B99685869884203D003498D
:1096B0004FF080520A607047A4CE002004ED00E015
:1096C000F0B50024414B85B00293074623460E4671
:1096D00001222046CDE900443D4908F05AFA3D4BAD
:1096E0009B6ADD066FD53C4B2046CDE90143012244
:1096F00023463749009408F04CFA1120354B9B6AF9
:109700001C070AD5354B0122029300233049184625
:10971000CDE9003308F03DFA12202E4DAB6A9907CF
:109720001FD500242E4B0122029320462346CDE96B
:109730000044274908F02DFA6B6BAA6A12060FD570
:109740000393284B0122CDE90143204623462049BB
:10975000009408F01EFA1FB1AB6A23F08003AB62DD
:1097600013201C4B9B6ADD070AD51F4B0122029375
:10977000002317491846CDE9003308F00AFA1420EF
:10978000144B9B6A9C060AD5184B012202930023B6
:109790000F491846CDE9003308F0FBF915200D4BB1
:1097A0009A6AD10658BF9A6A9A6A920642BF5A6A62
:1097B00022F400525A629A6A42F0FF029A6200232F
:1097C000337005B0F0BD102098E700BF4249020099
:1097D000C43D020000ED00E0584902008B49020040
:1097E0009E490200B6490200CC490200EB49020042
:1097F000F0B50024434B85B00293074623460E463E
:1098000001222046CDE900443F4908F0C2F93F4B10
:109810009B6ADB0465D53E4B2046CDE9014301221E
:1098200023463949009408F0B4F91720374B9B6A56
:109830001D050AD5374B01220293002332491846F1
:10984000CDE9003308F0A5F91820304DAB6A9C052E
:109850001FD50024304B012220460293CDE900445D
:109860002346294908F095F9AB6BAA6A10040FD575
:1098700003932A4B0122CDE9014320462346224986
:10988000009408F086F91FB1AB6A23F40043AB6281
:1098900019201E4B9B6A59050AD5214B01220293C0
:1098A000002319491846CDE9003308F072F91A204F
:1098B000164A936A13F4807315D01A4B012202934F
:1098C000002311491846CDE9003308F062F91B2046
:1098D0000E4A936A43F47F4393620023337005B0CA
:1098E000F0BD1620A2E7926A9204F1D50E4A1846FE
:1098F000CDE9013204490122009308F04AF91C2005
:10990000E6E700BF1A4A0200C43D020000ED00E095
:10991000304A02008B490200414A02005A4A0200C2
:109920006F4A02008A4A0200EB4902001FB5002478
:109930003E4B3F490293012223462046CDE9004495
:1099400008F027F93B4B9B6A99016DD53A4B2046AD
:10995000CDE90143012223463549009408F019F965
:109960001E20344B9B6ADA010AD5344B0122029344
:1099700000232F491846CDE9003308F00AF91F20CB
:109980002C4B9B6ADB020AD52D4B0122029300234C
:1099900027491846CDE9003308F0FBF80220254B93
:1099A0009B6A1C030AD5274B0122029300232049FE
:1099B0001846CDE9003308F0ECF821201D4B9B6AD6
:1099C00059030AD5204B0122029300231849184657
:1099D000CDE9003308F0DDF82220164B9B6A9A038C
:1099E0000AD51A4B01220293002311491846CDE9EA
:1099F000003308F0CEF823200E4B9B6ADB030AD518
:109A0000134B01220293002309491846CDE9003384
:109A100008F0BFF82420074A936A6FEA03436FEA0D
:109A20001343936204B010BD1D209AE7A24A0200BE
:109A3000C43D020000ED00E0BA4A0200CD4A020037
:109A4000E74A0200114B02002F4B0200544B020068
:109A50006E4B02002DE9F043784B0446D3F80480A6
:109A600089461646002591B0C8F3080785F311888A
:109A7000BFF36F8F02F07F43B3F17F4F25D112F018
:109A8000010322D1510603D432070DD401250DE084
:109A90006B4A1846CDE901326A490122009308F069
:109AA00078F816F0040600D04C4600254FF0000967
:109AB000FB1E8DF81F90092B00F2A680DFE803F053
:109AC000079A9E96A4A4A4A4A4A22C46EEE75E4BFB
:109AD0000122CDE9019300235A491846574FCDF88A
:109AE000009008F056F88DF81F90FE6A16F00206F6
:109AF00005D0564BCDE90193CDF8009006E0FB6A06
:109B0000002B0BDA524B0096CDE9016300230122B2
:109B100018464C4908F03DF8002330E0FB6A5B0032
:109B2000FAD54C4B0122CDE9016330463346454915
:109B3000009608F02EF87B69A26943F480737B617C
:109B4000BFF34F8FBFF36F8F7B6932F8022C23F482
:109B500080737B61BFF34F8FBFF36F8F4DF602733E
:109B60009A422CD12368012203933B4B3046CDE926
:109B7000016334493346009608F00BF823689DF8DA
:109B80001F20CAB908AE04F1200732462068616878
:109B9000083403C2BC421646F7D10F9A002D47D0B5
:109BA000C2F3080121B96FEA52226FEA42220F92F2
:109BB000184608A9FFF7E4FB11B0BDE8F083BB6AC3
:109BC000DBB22BB101200DF11F01FFF779FD0FE092
:109BD000BB6A13F47F4F05D001200DF11F01FFF781
:109BE00007FE05E0BB6AB3F5803F95D3FFF79EFE05
:109BF0000346C4E700200DF11F01E6E700200DF148
:109C00001F01ECE7154B75E7154A18F4F87F154B63
:109C100018BF1346103FCDE90337134B01220293BF
:109C2000002308491846CDE9003307F0B2FF73E777
:109C300022F4FF7222F00102B9E700BF00ED00E05C
:109C4000C74B0200C43D0200EA4B0200014C020077
:109C5000224C0200304C02004F4C02006B4C0200C0
:109C6000AE4B0200994B02008F4C0200044B5A6924
:109C700042F010025A615A6942F480625A61704798
:109C800000ED00E0EFF30880EFF3098101B57246C3
:109C9000FFF7E0FE01BD00BF002320210348C218EA
:109CA0000133412B82F80013F9D1704700E100E045
:109CB000002080F31488BFF36F8F002080F30A88A0
:109CC00080F30B88FEF7A8FF00200E490860BFF361
:109CD0004F8F0D4880F3088800F03EF8202080F375
:109CE00011880A484FF40061401880F30988EFF3A7
:109CF00014800221084380F31488BFF36F8FFFF7AD
:109D0000D9FB000094ED00E050E8002010CF0020C7
:109D1000BFF34F8F0549064BCA6802F4E062134354
:109D2000CB60BFF34F8F00BFFDE700BF00ED00E049
:109D30000400FA05002318460649D1F89020C2F322
:109D40000722934200DB7047C1F89830C1F8A000A9
:109D50000133F6E700ED00E010B572B6002484F39D
:109D60001388FFF7E7FF23464FF0FF300C4A03F15B
:109D700020010133102B42F82100F8D100234FF0CD
:109D8000FF30074A03F160010133102B42F8210034
:109D9000F8D162B6BFF34F8FBFF36F8F10BD00BF16
:109DA00000E100E0084B9B6883420BD1EFF3058391
:109DB00043B1064B5A6842F080525A605A6A22F404
:109DC00000425A6205F01ABEA4CE002000ED00E069
:109DD0001FB5094C094A23460121094800F018F92A
:109DE00000230393074B0121E41A01A80193029475
:109DF00000F018F904B010BD0000042080C5002058
:109E00000C41020018C7002010B50C7A0B6804F052
:109E10001F0223F01F031A43CB68640923F01F03BA
:109E2000054943EA440343F00103C1F89800C1F82F
:109E30009C20C1F8A03010BD00ED00E00F281FB538
:109E400004460FD9094B03900293002301221846C0
:109E5000CDE90033064907F0B7FE6FF01504204640
:109E600004B010BDFFF7D0FFF9E700BFA64C020019
:109E7000B43D02002DE9F04F8946144606464FF0E6
:109E80000008544D89B0C8452DDAD6F804A0BAF1BF
:109E9000000F4AD0BAF11F0F17D91AF01F0F14D1B3
:109EA000D6F800B01BF01F0F0FD1584607F083FE05
:109EB00007460AEB0B00013807F07DFE874216D0FB
:109EC0006FF01507444B039702E0444BCDF80C802C
:109ED0000293002301221846CDE90033404907F0E0
:109EE00073FE6FF01504204609B0BDE8F08F17F13E
:109EF000160FE7D0BC42E5DDC5F89870D5F89C1088
:109F0000C5F89870D5F8A03021F01F0143F01F0B61
:109F1000D6E900321A44994202F1FF3A1DD1D345E5
:109F200007D13146F8B207F05FFE08F101080C36A0
:109F3000A9E73146C5F89870D5F89C3022F01F0289
:109F400003F01F031343C5F89C30E0B207F04CFE4A
:109F500010F1160FC5D0441CE7E7C5F89870D5F886
:109F6000A020013B23F01F0302F01F021343D3453F
:109F70003146E0B2C5F8A030E8D007F035FE10F168
:109F8000160FAED0C5F89870D5F89C209DF8183003
:109F90000BF1FF3B62F304038DF81830D5F8A030C5
:109FA0009DF818205B0863F347128DF81820D6E956
:109FB00000321344049323F01F035B44A3EB0A0312
:109FC000013023F01F0304A9C0B20793FFF736FF47
:109FD000BEE700BF00ED00E0EF4C0200CC4C0200F9
:109FE000B43D02000522044BC3F89420BFF34F8F09
:109FF000BFF36F8F704700BF00ED00E0BFF35F8FCE
:10A000000022024BC3F89420704700BF00ED00E02F
:10A0100010B5034C2278FFF72DFF207010BD00BF54
:10A02000E5CE00202DE9F74F294D8A4606464FF030
:10A030000008AB46274FD0451BDAD6F80490B9F19B
:10A04000000F3FD031680846019107F0B4FD019937
:10A05000044609EB0100013807F0ADFD84424FF0E2
:10A0600014021D4B08D002FB08F36FF015024BF8E9
:10A07000032003B0BDE8F08F14F1160F2C60F8D068
:10A080001978A142F5DD02FB08B0C7F89840C7F87F
:10A090009840D7F89C4000F10801007B64F304006D
:10A0A0000871D7F8A0000C79400860F347140C71D0
:10A0B000D7F89C1021F01F016960D7F8A01021F09B
:10A0C0001F01296108F1010814350C36B3E700BF00
:10A0D0008CC8002000ED00E0E5CE002038B50E4D24
:10A0E0002C68102C15D80020FFF788FF0B4B0C4A6A
:10A0F000C3F8C020844205D10A4B00201C70FFF732
:10A1000071FF38BD696801EB0011FFF77DFE01307A
:10A11000F0E74FF0FF30F4E71841020000ED00E0F7
:10A12000AAFF4400E5CE002008B5024B1B68984703
:10A13000002008BDA0C80020034B044A1860937893
:10A1400043F0020393707047A0C8002088C5002028
:10A15000F0B587B007460E46144600211022684627
:10A160001D4609F0FBFB02238DF80230054B2A4601
:10A1700021466846CDE90476019305F00FFF07B04C
:10A18000F0BD00BF1B1C020008B50649064821F0BF
:10A190000701C1F1005202F5802207F00EFB0020FA
:10A1A00008BD00BF63EA002050EA00201FB5244824
:10A1B000FFF7B8F80446C0B1224B03900293002386
:10A1C00001221846CDE900331F4907F031FD1F4B2E
:10A1D0000122029300231C491846CDE90033039461
:10A1E00007F026FD204604B010BD072007F092FCC2
:10A1F000044610B1164B0390E0E71F2007F084FCE3
:10A20000044610B1134B0390D8E7072007F08DFCEC
:10A21000044610B1104B0390D0E7012007F080FCFA
:10A22000044610B10D4B0390C8E70121084607F022
:10A2300083FC04460028D5D0094B0390BEE700BF3D
:10A24000803A0200214D02005C3D0200154E0200E2
:10A250004A4D0200774D0200A24D0200D64D020089
:10A26000F54D0200084B70B5C31A0D4607499B1007
:10A27000044659434022064807F006FD2B46014696
:10A280002046BDE870401847B8C80020B76DDBB65F
:10A29000303A0200402373B50B4C0093041B0B466D
:10A2A0000D460A49A41061430646094A094807F0C9
:10A2B00017FD011E05DA30462B4602B0BDE870409E
:10A2C000184702B070BD00BFB8C80020B76DDBB63C
:10A2D0004B1D0200303A020070B5002201210446F5
:10A2E0000520FFF7CDF80F4802F064FC0E4B9842B2
:10A2F00015D102F06FFC26690C49304607F005FBCA
:10A3000000280BDB012535642469084904F11C0091
:10A3100007F0FBFA002801DB0020E56470BD6FF058
:10A320000400FBE765A301000000AD0B4041020003
:10A3300001460C2300224B4370B50848C418403333
:10A340001844D4E90E56A26307F08BFC2DB13246B7
:10A350002B46BDE870400248184770BDB8C80020C1
:10A36000303A020010B1012804D07047034B1B6C37
:10A370005B0701D1FFF7DCBF704700BFB8C8002002
:10A3800008B54FF02003EFF3118183F31288BFF378
:10A390006F8F114A136843F002001060DA0708D487
:10A3A00081F31188BFF36F8FBDE80840012002F0F0
:10A3B00021BC0A4BD3F80C24D3F80C34DB07EFD5BF
:10A3C000074807F04EFC81F31188BFF36F8FBDE89B
:10A3D00008400020FFF7ACBF08C900200050004033
:10A3E000F8C800201FB500220123CDE902236B46E7
:10A3F000084ACDF800D0CDF804D007F09FFC002823
:10A4000005DB4FF480420023684604F0CFFF05B01F
:10A410005DF804FB691D020010B54FF02003EFF357
:10A42000118483F31288BFF36F8F074A136823F0F8
:10A430000201DB07116002D4012008F02DFB84F338
:10A440001188BFF36F8F10BD08C900202DE9F041BE
:10A45000012207463549D1E8EF3FC1E8E02F002847
:10A46000F9D133B9324933484B60CB608A6007F089
:10A470005FFA7B1E012B28D8012F06D12E4BD3F873
:10A480001C3403F00303022B1FD008F0AFFF054676
:10A49000E8B92A4B1B78D3B102220646264BC3F8F3
:10A4A0000823254CDFF89880D4F81824D4F8183401
:10A4B000D20316D503F00303022B01D0012F10D1D4
:10A4C00075B386F31188BFF36F8FBDE8F0814FF04D
:10A4D0002003EFF3118683F31288BFF36F8F0125FA
:10A4E000DFE7C5B13046FEF73FFFD4F81835DBB2E1
:10A4F000012BD9D1D4F80421002AD5D00022C4F8E8
:10A500000421D4F804210222C4F818252022C8F816
:10A510008021A360C8E70021212005F04FFAE4E77D
:10A520000222054BC3F80423CFE700BFB4C80020C4
:10A53000A4C80020D4C80020005000400CCF002048
:10A5400000E100E008B5074808F0BFFE38B1064852
:10A55000FFF7F2FD0448FEF71FFA002008BD6FF078
:10A560001200FBE76C3A02006DA501000A2838B51D
:10A570000446074D04D1AB680D2128465B68984717
:10A58000AB6803485B68E1B29847204638BD00BF1E
:10A590006C3A020030B5406801F01F04057BB2F54B
:10A5A000001F85B044EA451405D1204602F00AFE9A
:10A5B000002005B030BD0025B2F5800FCDE9025571
:10A5C00014D1B3F1007F0CBF042305238DF80830AC
:10A5D00000232046194602AA02F024FC204B984290
:10A5E00038D10121204602F0A3FDE1E7B3F1C06FAD
:10A5F00025D0B3F1007F14BF012302238DF808306A
:10A60000836823FA01F111F00101E1D1B2F1A07FD9
:10A61000DED104F01F03620903F180031DD1114A4A
:10A6200052F82330DB07D3D40DF107052946204625
:10A6300002F02AFD0C4B984203D00395C8E7032390
:10A64000DCE7284602F06EFD054B9842F5D06FF02E
:10A650000B00AEE76FF01500ABE751F82330FFDEDB
:10A660000000AD0B002584400400AD0B10B502F0D6
:10A6700049FD044668B902F01DFD084B98420AD115
:10A680002146074802F0FAFC224605213120FEF758
:10A69000F7FE002010BD6FF00400FBE70000AD0BDB
:10A6A000A5A60100430970B507D10B4B596821B12C
:10A6B00001250C68094E854001B970BD8A682A40A1
:10A6C00002D030464B6898471CB1236821461C468F
:10A6D000F2E72346FAE700BF0CC90020443A020023
:10A6E0002DE9FF41476801F01F053B7B144645EA11
:10A6F00043150E4628460DF1070102F0C5FC14F47F
:10A70000403F80460DD1284602F082FD3C4B9845E3
:10A7100003D19DF8070002F0FFFC002004B0BDE863
:10A72000F08100232846194602AACDE9023302F03F
:10A7300079FB334B984214D1804503D19DF8070033
:10A7400002F0EAFCA3034CD540F206332340B3F5F4
:10A75000837F1AD00DD8062B18D005D8B3B1022BA1
:10A7600032D06FF01500D9E7B3F5807FF9D101231E
:10A770000CE040F20222934228D0B3F5407F27D06C
:10A78000B3F5007FEDD1022300E007238DF80830F8
:10A7900084F48033C3F30043E0068DF809304CBFE6
:10A7A0000323C4F3401321038DF80A3012D501238B
:10A7B0007A68B34093600022284602A902F0E6FBC3
:10A7C0000F4B9842A9D0CCE70423DFE70523DDE750
:10A7D0000323DBE7620341BF01237A68B340D36000
:10A7E000E9E7E3064FF000034CBF0324C4F3401431
:10A7F0001A46284602A98DF8084002F013FBDFE74D
:10A800000000AD0B1FB511F0010342680ED1C1F37A
:10A81000420101290DD0022914D00C4A1846CDE975
:10A8200001320B490122009307F005FB6FF0150080
:10A8300005E013684FF0CC720020C3F8242505B062
:10A840005DF804FB13684FF0C862F5E7854E02001F
:10A85000843D02007FB544680546E3690669984770
:10A86000206A07F0F8FA002817DB334620460E4A24
:10A8700004F1080103F0DCF80C4B98420FD02B6870
:10A88000012203930A4B0B49029300231846CDE99A
:10A89000003307F0D0FA6FF0040004B070BD20461A
:10A8A00003F028F90020F8E7F5A801000000AD0B3F
:10A8B000974E0200843D020070B54468236820462C
:10A8C000D3F80855D3F80C6503F024F9314628462F
:10A8D00003F0B6FB0546206A07F0BDFA204603F0F8
:10A8E00009F9034B9D4214BF6FF00F00002070BDAB
:10A8F0000000AD0B0378012B08D0022B08D04BB918
:10A90000054B0B6201F1100004F02CBD034BF8E77E
:10A91000034BF6E7034BF4E70000AD0B0100AE0B71
:10A920000200AE0B0100AD0B2DE9F04F1D46436850
:10A9300093B0D0F8108008931B8B07460C469246C4
:10A94000002114220DA8D8F82490099309F006F8E4
:10A950008DF835504FF0FF324FF0FF33404604F092
:10A9600025FD08F110030A9300260022002308F1B8
:10A97000100004F01BFD3546564501D3002434E099
:10A98000207A020700F1A78006F1010BD345216868
:10A990000AD2830708D4237D80EA030202F0010271
:10A9A00003F004031A4307D025B901F06043B3F163
:10A9B000005F2FD0002300E001236268DDF824E06F
:10A9C00005EB020CF44517D93B6844490693444B08
:10A9D000CDE9042E0293002301221846CDE900336D
:10A9E000039507F028FA6FF01B04404604F0BAFC08
:10A9F000204613B0BDE8F08FC00705D409EB050071
:10AA00000B9308F09EFF0B9B62682A4495B2002BC3
:10AA10004DD1DDB90025236810936368227A0E9327
:10AA200002F0010382F00202C2F3400208985201D0
:10AA30000DA98DF8343003F08BF82A4B984209D0D9
:10AA40000B3398421CD16FF00F04CEE72B46CDF8A4
:10AA50004090E3E700234FF480420A9804F0A6FCFC
:10AA6000034680B1204B0122029300231B49184664
:10AA7000CDE90033039607F0DEF93846FFF71CFFF7
:10AA80006FF00404B1E7D8F8202016498A420AD0B2
:10AA9000CDE90326154A1149CDE9010200900122B2
:10AAA00007F0C9F9ECE7237ADB0703D400255E46FB
:10AAB0000C3461E7109B4B45F8D1264606E0A91AF5
:10AAC0008DB2F06819FA81F108F03BFF72680C3E14
:10AAD0009542F4D2EAE76FF0850486E7843D0200F0
:10AAE000B74E02000000AD0B824F0200AC4F0200D7
:10AAF0002DE9F041534D544E00EB8101814202D1CA
:10AB00000020BDE8F081046804F07F03C4F343270C
:10AB10007F2B4FEA144408BF4FF0FF33192C00F28B
:10AB20008280DFE804F00D13191C1F251C80808033
:10AB300080365F80808080808080808062777A7DB0
:10AB4000C2F80C355C1C5AD10430D7E7C2F8143572
:10AB50005C1CF9D000245BE0C2F80835F2E7C2F8CB
:10AB60001035F5E75C1CC2F80835EDD0002404E090
:10AB70005C1CC2F80C35E7D001245FEA531C55D1A8
:10AB80004FF0010EDFF8BCC00EFA03F8CCF80C80D1
:10AB900008E0C2F80835002FDAD15C1CD4D00024BC
:10ABA0000627A646D0F8008008F4005CBCF1000F30
:10ABB0001CBF01244FF0000E03F01F0C5B093BD1BA
:10ABC00005EB8C0CDCF80032C8F3C118334043EAC3
:10ABD000880343EA072343EA0E0343EA4403CCF81D
:10ABE0000032B1E7C2F80C35D5E7C2F86035B3F1F1
:10ABF000FF3F0468A8D0C4F38034002CBCD05C09AB
:10AC000017D10124DFF83CC004FA03FECCF808E0B9
:10AC1000A646C7E7C2F86435E9E7C2F86835E6E753
:10AC2000C2F86C35E3E76FF085006AE70023DB606C
:10AC3000FFDE00239B60FBE700230CF1800C53F840
:10AC40002C30F5E700258440F0F8FCFF022ACCBF49
:10AC50006FF01502094B10B5D8BF33F91220044626
:10AC60000748D31781FB0001FDF76EFA054A90FBF8
:10AC7000F2F3236002FB1303636010BDB0470200D0
:10AC80003AA3950040420F000023F0B5456887B015
:10AC900004468DF81630286808F017FB20B96FF0CD
:10ACA0001505284607B0F0BDE868A8B901231F22A2
:10ACB0005221606807F0ABFB054690B14D4B012275
:10ACC00002930023CDE90033039018464A4907F068
:10ACD00069FB6FF01205E4E708F0F7FA0028E5D108
:10ACE000DDE701270021A42004F068FE00970DF1A4
:10ACF000160302220B21606807F064FB9DF81630F2
:10AD0000F22B07D003933D4B3A46CDE90153009512
:10AD10002B46DAE76668022320224FF47A71304628
:10AD200007F075FB002860D13B4622223946606857
:10AD300007F06DFB002858D1009727220B2160688F
:10AD40000DF1170307F03EFB00284ED19DF81710B8
:10AD50003B4601F0FD012722606841F0010107F048
:10AD600056FB002841D1022323226421606807F0AA
:10AD70004EFB002839D1022325223946606807F0AE
:10AD800046FB90BB009727220B2160680DF117034B
:10AD900007F018FB48BB9DF817103B4601F0F70180
:10ADA0002722606841F0040107F031FBE8B9012374
:10ADB00028220821606807F02AFBB0B90146012368
:10ADC0002922606807F023FB78B90146204607F086
:10ADD0002AFB50B90146204607F044FB28B901235D
:10ADE0002D22317E606807F012FB0028BFF659AFB4
:10ADF0006FE700BFF74F0200143D02001F50020032
:10AE00002DE9F04F436889B09B6905469847041EB9
:10AE10000DDA204B0122029300231F491846CDE989
:10AE2000003307F0A8FB204609B0BDE8F08FD5F845
:10AE300010800021D8F8083028469B680DF11E02CA
:10AE40006E6898470446002840F06781D8F80830BB
:10AE5000022128469B680DF11F02984704460028EE
:10AE600040F05B819DF81E309DF81F20AD2B01D175
:10AE7000FA2A15D0CDE90332084B012202930023B0
:10AE800005491846CDE9003307F075FB6FF0120451
:10AE9000C9E700BF435002001C3D0200635002009E
:10AEA0000223014688F81030284607F04DFB04467F
:10AEB000002840F03281014628462F6907F044FB04
:10AEC0000446002840F02981BB68522241212846CF
:10AED0005B68984704462120002104F06FFD002C98
:10AEE00040F01B81777FD5F81090391FD9F80820E2
:10AEF0004B424B41D4683F21042228469B00A04787
:10AF00000446002840F00981D9F808303821284645
:10AF10005B6807F0030298470446002840F0FD8074
:10AF2000377FD5F81090A7F10C0253425341D9F85E
:10AF300008203F21D46828460822DB00A0470446A9
:10AF4000002840F0EA80D9F808300722DC683E216A
:10AF5000284607F00703A0470446002840F0DD809C
:10AF60002846B17F07F0FBFA0446002840F0D58060
:10AF70002A6996F8323092689B00D4683D211C22E1
:10AF8000284603F01C03A0470446002840F0C58073
:10AF90002A6996F8203092689B01D4683E214022AD
:10AFA000284603F0C003A0470446002840F0B580BF
:10AFB0002A6996F8333092685B01D4683F212022D9
:10AFC000284603F02003A0470446002840F0A5804F
:10AFD0002321284606F1220207F0A5FA044600289C
:10AFE00040F09B802A21284606F12A0207F09BFAAE
:10AFF0000446002840F091802B6929219B6828464F
:10B000005B6896F8382098470446002840F0858011
:10B01000D5F81090F78ED9F80830302128465B68B3
:10B020003A0A98470446002877D1D9F808303121E8
:10B0300028465B68FAB29847044600286DD12A6911
:10B0400096F8343092681B01D4683F2110222846BC
:10B0500003F01003A047044600285ED1B6F83090F4
:10B0600096F82EA0B9F5007F96F82FB02F693FF61D
:10B070000DAF0146284607F067FA044600284CD178
:10B080004FEACB024FEA4A0303F0060302F038020C
:10B090001A43BB68B9F1FF0F88BF42F001023A21A1
:10B0A00028465B6898470446002836D1BB6839219A
:10B0B00028465B685FFA89F29847044668BB87F8C0
:10B0C0000DB087F80CA0A7F80E902F693B21BB6844
:10B0D00028465B6896F8392096F83A9098470446D7
:10B0E000D8B9BB684A463C2128465B689847044665
:10B0F00098B9284696F8351007F026FA044660B944
:10B100002A6998F8103092681B01D4683E213022D9
:10B11000284603F03003A0470446002CFFF6B6AEE5
:10B12000002480E6F0B505460E46144687B02AB1E5
:10B13000013A012A25D96FF085004EE01B68B3F56E
:10B14000C86F16D008DCB3F5C87F14D0B3F5487FBC
:10B1500013D06FF0150040E0B3F5486F0FD0B3F592
:10B16000C85FF6D10421284607B0BDE8F04007F0DB
:10B17000F6B90221F7E71146F5E70121F3E70321CC
:10B18000F1E747685868D3F800E0DFF880C0C117DE
:10B1900000231F4ACEFB0C01FCF7D6FF0029034613
:10B1A0000A4602DA434261EB4102B3F5006F72F1E5
:10B1B0000002CEDAADF81430BB8C022C14BF2A2169
:10B1C0002321ADF81630032E14D8DFE806F002086C
:10B1D0000B0E05AA284607F079F907B0F0BD05AABD
:10B1E0000231F7E705AA0431F4E7284605AA07F07B
:10B1F0009AF9F2E7074B0122029300230649184609
:10B20000CDE9003307F0B7F995E700BF40420F00E2
:10B21000B9F60E00815002001C3D020030B50369F2
:10B22000032936D8DFE801F002101316B3F9003015
:10B230004EF66B714B43184893FBF0F100FB113352
:10B2400011605360002030BDB3F90230F0E7B3F96C
:10B250000430EDE74EF66B74B3F900000E4960431D
:10B2600090FBF1F501FB150015605060B3F9020089
:10B27000604390FBF1F501FB15009560D060B3F9D8
:10B280000430634393FBF1F001FB10331061536111
:10B29000D8E76FF08500D6E740420F0010B5094AA5
:10B2A000036944689A60206808F00FF838B1E068D4
:10B2B00008B9002010BD08F008F80028F9D16FF097
:10B2C0001200F7E76C4302002DE9FF4700236A46AE
:10B2D0000293CDE90033CDF80B301D210F23064634
:10B2E000046907F00CFA0028C0F241819DF8003093
:10B2F00023F07F0284F838209DF80E201B0602F010
:10B30000100184F8391040F12B819DF807109DF849
:10B3100006500909B4F80EC041EA05119DF8055020
:10B320004FEA4C0C41EA0531CCEBD10C4FEAEC75FD
:10B330004FEA5C0141EAC5714D43A1FB011A0AEBDA
:10B34000450A94F91250090B41EA0A514FEA0519CE
:10B35000ED174D434FEA2A3A09FB0A55A1FB099123
:10B360002944B4F910504FEA993985FB0C5CED0A79
:10B3700049EA814945EA4C554D44E56305EB8501B1
:10B380006D10A5F57A454FEAA50A0AFB0AFA94F969
:10B390001EC04FEAEA290CFB09F9B4F91CC09DF85C
:10B3A00004309DF8038005FB0CFC9DF802E01B09AE
:10B3B00043EA081343EA0E33B4F91AE04FEA4C0C9F
:10B3C0000CEBA90C4FEA0E4E0EEBAC0CC3F5801340
:10B3D000A3EB2C3340F6354CB4F916904FEA6A3A99
:10B3E00005FB09F994F918500CFB03F36D010AFBF6
:10B3F00005F5ED1005EB6905AD14B4F8149005F5ED
:10B40000004509FB05F5B3F1804F4FEAE535ADBFC7
:10B4100093FBF5F35B0093FBF5F35B00DD106D43ED
:10B420004FEA653CB4F92250B4F9208005FB0CFCCE
:10B430009D1008FB05F54FEA232E6D1305EB2C3507
:10B440000EFB0EFC0EFB0CFC94F824E080310EFB8E
:10B450000CFC05EB6C4594F91FC0091205EBCC15EB
:10B4600003EB25136425E36294F9063094F905C0D3
:10B470004B4393FBF5F34B4301FB0CFC9B119CFBF3
:10B48000F5FC93FBF5F3BDF808006344B4F802C083
:10B4900003F580430CFB03F340BAB4F800C080B25C
:10B4A000A0EB0C1094F904C09B1201FB0CFC9CFB5C
:10B4B000F5FCA0EB6C00434394F90800A162414302
:10B4C00091FBF5F1E0794FF0050C01EBC0119813F9
:10B4D00040430911801248434FF47A7103EB600333
:10B4E0009B124B4323491B1323EAE3738B42D4BFC4
:10B4F0002363216340F23C5500239DF80D7094F9BD
:10B50000271002F00F00CCFB01531B49920951F8A0
:10B51000201042EA8702A5FB015C01FB03C12D0C50
:10B52000D20345EA014512F17F4263EB030352194E
:10B5300043EB21434FEA214C10495F1051F82000A2
:10B54000A0FB055100FB0C116D0A500845EAC155DE
:10B5500040EAC370281847EB6121FCF7F5FD6063F2
:10B5600055227421304607F0D1F800EAE07004B0AB
:10B57000BDE8F087A0860100BC4302007C430200C6
:10B58000F0B505460669406891B083681B68984726
:10B59000041E0EDA2B6801220393824B8249029328
:10B5A00000231846CDE9003307F0E9F8204611B032
:10B5B000F0BD0123D021284606F1400207F09FF894
:10B5C000041EF3DB96F84030612B0DD00393774BCC
:10B5D00001220293002374491846CDE9003307F095
:10B5E000CEF86FF08504E1E717238A21284605AAE3
:10B5F0002F6907F084F8041ED8DB0E23E1212846CA
:10B600000DF12B0207F07BF8041ECFDB0523002190
:10B6100028460DF1390207F072F8041EC6DBBDF8AA
:10B6200033307221FB81BDF8143028463B829DF8EF
:10B630001630BB74069B7B619DF81C303B76BDF8D1
:10B640001E309DF82D207B83BDF82030BB83BDF8D4
:10B6500022305BBAFB83BDF826303B84BDF828302E
:10B660007B849DF82A3087F824309DF82C3003F035
:10B670000F0343EA02133B809DF82C309DF82B20EA
:10B680001B0943EA02137B809DF82E3001223B7197
:10B690009DF82F307B719DF83030BB719DF83130B3
:10B6A000FB719DF832303B729DF837307B72BDF8EC
:10B6B00035307B819DF838303B739DF8393087F801
:10B6C00026309DF83B30C3F3011387F825309DF9F0
:10B6D0003D301B1187F8273007F018F8041EFFF6DD
:10B6E00065AF00227521284607F010F8041EFFF60A
:10B6F0005DAF10227121284607F008F8041EFFF6FE
:10B7000055AF4FF4A072B6F90A30284603F5163348
:10B7100003F2991302FB03F11423B1FBF3F10A23A3
:10B7200001F54811B1FBF3F196F9093003F54473C3
:10B73000594396F90C3003EB830303EB83024FF478
:10B740007A7392FBF3F2120202EB6102832196F804
:10B7500025300433B2FBF3F296F926304B4303F560
:10B760008033B2FBF3F22223FA3A5A436423323293
:10B7700092FBF3F25A21D2B206F0C8FF041EFFF684
:10B7800015AF71226421284606F0C0FF041EFFF6A3
:10B790000DAF55227421284611B0BDE8F04006F0E7
:10B7A000B5BF00BFBC500200543D0200D3500200A0
:10B7B0007FB50BAB05930393054B01220293002346
:10B7C0001846CDE90033FDF72BFB07B05DF804FB0D
:10B7D000FD500200F0B54B79012B26D0032B21D16F
:10B7E00010258B79032B1DD1CE790EB1012E19D1E5
:10B7F0000A7912B1022A15D10E220B684468B3F5FA
:10B80000164F276867D02DD8B3F5165F66D016D8C7
:10B81000B3F5966F64D00AD8B3F5967F63D0B3F5CD
:10B82000167F63D06FF0850054E00025D9E7B3F5AB
:10B83000166F5ED0B3F5965FF4D1384B3CE0B3F5AC
:10B84000E14F59D007D8B3F5615F57D0B3F5964FA4
:10B85000E8D1334B30E047F61224A342E2D14FF453
:10B86000000329E0B3F5613F4AD013D8B3F5963F02
:10B8700049D009D84DF6C024A34246D0B3F5614F54
:10B88000D0D14FF46B0317E0B3F5E13FCAD14FF0CD
:10B89000EB7311E0B3F5612F3AD008D8214CA342E5
:10B8A00039D0B3F5E12FBDD14FF0E86304E01E4C71
:10B8B000A342B7D14FF080530469C7F824354368D9
:10B8C00035431B682A43C3F86C25231D03C983E84D
:10B8D00003000020F0BD4FF41D03EDE7134BEBE731
:10B8E0004FF49E23E8E74FF4A033E5E74FF41C3311
:10B8F000E2E74FF41D23DFE70D4BDDE70D4BDBE700
:10B900004FF06C73D8E70C4BD6E74FF46503D3E7E1
:10B910004FF07063D0E74FF08063CDE700B01300C5
:10B9200000A04E0090D0030040420F0000502700BE
:10B9300000C0750000F03A0000903A012DE9F04394
:10B94000804687B0002201210820FDF799FD0820DC
:10B95000FDF766FD0021D8F80470D8F810603D6846
:10B9600005AAC5F80015C6F80080D7F80C9048461F
:10B9700006F081FA041E24DB059BD9F80020197912
:10B980001868FFF7B5F8041E1BDB4046311DFFF7B2
:10B9900021FF0446A8B97B68990722D506F1180053
:10B9A00001F09AF9234B98420FD0234B2046CDE962
:10B9B00001430094234601222049FFF7F9FE6FF06E
:10B9C0000404204607B0BDE8F083307E05F10C0288
:10B9D00005F5907107F059F80120337E984001F089
:10B9E0008BF80823C5F800353B7A53B9C5F81031F8
:10B9F000D5F810317369C5F834350123C5F83835E9
:10BA00002B607B689A075CBF4FF48073C5F80433E2
:10BA10007B68DB0644BF4FF48003C5F80433336909
:10BA2000C5F844350023C5F848350123AB60EB6009
:10BA3000C7E700BF0000AD0BFD500200DC3D020077
:10BA4000F8B504460D46076907F0D0FCB0B92E4B97
:10BA50001B789BB16426606806F0FFFE00BB0120E6
:10BA600007F011F8013EF6D10021212003F0A6FFD6
:10BA7000F0E786F31188BFF36F8FF5E74FF02003EF
:10BA8000EFF3118683F31288BFF36F8F606831463E
:10BA900006F0E3FE90B986F31188BFF36F8FEDE7F0
:10BAA0004FF02003EFF3118683F31288BFF36F8FFB
:10BAB0006068314606F0D1FE0028DAD03B691D707F
:10BAC000626838691368C3F844050120C3F8480563
:10BAD0000020C3F82001D3F82051C3F85801526860
:10BAE000D3F85801D20608D5082062681268C2F857
:10BAF00000054FF48002C3F8042301229A6081F309
:10BB00001188BFF36F8FF8BD0CCF00202DE9F041F5
:10BB1000456888B06F6B06690021384607AA06F0B1
:10BB2000AAF9041E1CDB079B3A6819791868FEF70E
:10BB3000DFFF041E14DBA86B441C22D000F00AFBBC
:10BB400010F1130F04460FD1304B01220293002352
:10BB50002F491846CDE9003306F0E0FE6FF01204DD
:10BB6000204608B0BDE8F081411D0AD1294B0122D1
:10BB70000293002326491846CDE9003306F0CEFE95
:10BB8000EEE70127EB6A9847B568D6E9023203EB86
:10BB9000C2039D4204D3304606F0E3FE0024DFE7F3
:10BBA000286807F092FB034668B92A79184904927D
:10BBB0002A68126800900392174ACDE90102012217
:10BBC00006F0ACFECAE728682979EB88D0F810C0E7
:10BBD000DA07DCF8004054BF43F4B01383F4D01309
:10BBE00023F4801207FA01FEDB07D0F808804CBF6F
:10BBF00044EA0E0424EA0E04CCF80040D8F80030E1
:10BC00009847041EACDB0835BFE700BF3651020081
:10BC1000D43D0200615102007E510200F0B504697A
:10BC20000646A56C4768236D85B03DB96BBB1946C8
:10BC3000306905B0BDE8F04006F0BDBE616C03BBE5
:10BC400031BB3A8E636CAA4228BF2A460091A26596
:10BC50001BB1A36C002B18BF13460193E36C029336
:10BC60001BB1236D002B18BF1346002269463846CE
:10BC7000039301F0E3FD0E4B984217D06FF00401DF
:10BC8000D6E79D4228BF1D46DAE71D46616CD8E71E
:10BC900001F06043B3F1005FD3D0082D28BF082521
:10BCA000206E2A4607F04DFE216ECAE705B0F0BDB2
:10BCB0000000AD0B1FB503780C46002B5ED1896DDB
:10BCC00041B96FF07301636D186904B0BDE81040AD
:10BCD00006F071BEA26C52B191421DD9284A184695
:10BCE000CDE9013227490122009306F017FE236DAA
:10BCF000A26D5BB19A4228D9214B01220293002305
:10BD000020491846CDE9003306F008FE606D04B006
:10BD1000BDE81040FFF782BF521AA2647AB9636B84
:10BD200004F1480208336363A36B04F13801013B5B
:10BD3000A36304F1340006F0DEFD6064D7E7636CB2
:10BD4000002BD4D00B446364D1E79B1A23657BB9E5
:10BD5000E36B04F150020833E363236C04F1400108
:10BD6000013B236404F13C0006F0C5FDE064CDE72F
:10BD7000E36C002BCAD01344E364C7E704B010BDE2
:10BD8000A2510200D43D02002DE9F04F91B005937D
:10BD90004368884606938B8807469904924604694F
:10BDA00037D44FF0FF324FF0FF3304F1100003F0AF
:10BDB000FDFAC4F80480D7F804B0D7F81090DBF887
:10BDC0000830079399F85D3023B1D9F800309845D1
:10BDD00000F0D280B8F8045015F4006320D0B34BC3
:10BDE000012202930023B2491846CDE9003306F040
:10BDF00095FD6FF0850523689B8813F4005304D1EB
:10BE0000636004F1100003F0ADFA284611B0BDE8FC
:10BE1000F08FA369002BC4D163689845C1D1CAE7EC
:10BE200015F001020DD03A6818460392A14AA049C4
:10BE3000CDE901320093012206F070FD6FF0150587
:10BE4000D9E715F008030AD09B4B0092CDE90123F6
:10BE5000134601221846964906F060FDEEE7C5F349
:10BE60004512082A04D0954ACDE901320093F0E743
:10BE7000D8F800E0924A964501D8924AF4E708AE15
:10BE80000BF10C0CBCE80F000FC69CE80F0086E815
:10BE90000F00079B734528BF73469E468A4B9E45FD
:10BEA00011D28A4B9E4550D8894B9E454FD8894B1D
:10BEB0009E454ED8884B9E454DD88849884B894A27
:10BEC0008E4588BF1346AA070D9305F0040344D599
:10BED000002B14BF032302238DF83830C5F3001361
:10BEE0008DF83930DBF8003015F0020FD3F8082553
:10BEF000C5F340014FF001037B484FEA521530D1A2
:10BF0000002D40F022819340C36099F85D302BB141
:10BF1000584601F057FC002389F85D304B465846DF
:10BF2000724A08A901F020FC714B98421FD0714B56
:10BF300003900293002301221846CDE900335C49A7
:10BF400006F0ECFC6FF0040555E76B4BBBE76B4B61
:10BF5000B9E76B4BB7E76B4BB5E7003B18BF012365
:10BF6000BAE7002D40F0F38093408360CDE70123D2
:10BF7000C9F8008089F85D30012384F85C30069BA5
:10BF8000986B431C0DD000F00FF9743009D15E4B53
:10BF900002220293002346491846CDE9003306F0F9
:10BFA000BDFCBAF1000F79D1C4F834A00023A3631B
:10BFB00004F1480204F1380104F1340006F09BFC5E
:10BFC000059B6064002B40F0A380E363002323649F
:10BFD00004F1500204F1400104F13C0006F08BFC36
:10BFE0000023E0642068236348B183683BB10121EA
:10BFF000083006F0A2FC2368186907F061F938469A
:10C00000FFF70CFE00221346A06B834240F08980AC
:10C0100000231946256CA94240F08A80934238BF1C
:10C02000134626464FF4FA524FF0000802FB03F580
:10C0300056F8203B4FF4004C1B684146B5FBF3F526
:10C0400040F2E730C8354FF47A720023E5FB0C016B
:10C05000FCF7CAF802460B46304603F0A7F9002861
:10C060006DD02A4B0122CDE9018340464346104959
:10C07000CDF8008006F052FC00250698A56501F079
:10C08000A1FB84F85D506FF07301386906F093FCF2
:10C09000304603F0B3F96FF07305ACE6DAF8003020
:10C0A0006363002B82D0DAF8043080E7C0510200CD
:10C0B000D43D0200DA510200FC5102001B52020082
:10C0C00047E801004A52020000127A00FF083D00D2
:10C0D0007F841E003F420F001FA107008FD0030086
:10C0E00048E8010090D0030000258440B5BC010061
:10C0F0000000AD0B7B52020000093D0080841E0051
:10C1000040420F0020A10700A2520200CC520200C0
:10C11000059B1B68E363002B3FF458AF059B5B68EE
:10C1200055E7616B01EBC301496801330A446CE7D1
:10C13000E06B00EBC1004068013103446BE7256B05
:10C1400015F1740F7FF457AE96E7C960FFDE002348
:10C150009B60FBE7012330B585B08DF804300223E6
:10C1600005460DF107008DF80830039000F0DAFF66
:10C170000C4B044698420FD10023284602AA01A97D
:10C1800000F050FEA0420AD09DF8070000F0C4FF66
:10C190006FF0040005B030BD6FF01200FAE7002028
:10C1A000F8E700BF0000AD0BF8B5064606F0CEFC80
:10C1B00000210546304600F0BBFF730906F01F045E
:10C1C00029D1174B05F1804503EB8404D4F80022F4
:10C1D000144B05F54435134043F00C03C4F800320A
:10C1E00006F011FC07462B686BB10025304600F0C5
:10C1F000E9FFD4F800220B4B2846134043F0040318
:10C20000C4F80032F8BD06F0FEFBC01B0628EAD9D0
:10C210006FF07305EAE70023803453F82430FFDE23
:10C2200000258440F0F8FCFF0123834070B5DC4317
:10C230000B4AD2E8EF1F01EA0405C2E8E65F002ED0
:10C24000F7D14FF4803282400648C0F80823BFF38C
:10C250005F8FBFF36F8F0B4214BF0120002070BDB2
:10C26000A4C900200050014070B40E4922F07F465E
:10C27000D1E90034D01AC31844F10004C1E90034F4
:10C28000A6F50013B3F5400F09D2074B1B681A0A35
:10C290001B069C19054B42F10005C3E9004570BC23
:10C2A00003F0E2BC28C70020A8C9002030C7002046
:10C2B000D9B101230D4A8340D2E8EFCF4CEA030CF9
:10C2C000C2E8E1CF0029F7D14FF48033084A834018
:10C2D000C2F80433074BD3E8AF3FC340DB0742BF8C
:10C2E0004FF40012044BC3F800217047A4C900208A
:10C2F00000500140A0C9002000E100E00D4B18688B
:10C30000010A0006BFF35F8F0B4BD3F804351818F2
:10C3100041F10001B3F5801F0AD2084BD3E9002395
:10C32000904271EB030303D210F1807041F10001E0
:10C33000704700BFA8C900200050014030C700204E
:10C340002DE9F04F85B016461F4604469DF840A0E3
:10C35000FFF76AFF0190FFF7D1FFB04271EB0703CF
:10C3600052D23B4B301A67EB0101984271F1000148
:10C370004DD2384B03EB0413D3E902239F4208BF8D
:10C38000964258D04FF48038334908FA04F82046D2
:10C3900026F07F4BC1F8488306F029FB4FF00309D4
:10C3A000584604F15005AD00ADB205F1804504F5E5
:10C3B000A87305F5A8350293029A20F07F4341F84F
:10C3C0002230C1F84483D1F80435244AC01A033816
:10C3D00020F07F4090422ED9286868B1D1F804350A
:10C3E000A3EB0B0020F07F40B0F5000F039322D9A0
:10C3F000204606F0FCFA039BBAF1000F07D109EBC7
:10C40000030009F10109D7E7BAF1000F09D06FF075
:10C41000150520460199FFF74BFF284605B0BDE8FA
:10C42000F08F01230E4AA340D2E8EF0F1843C2E871
:10C43000E10F0029F8D107490E982301C8500F9B3E
:10C4400001EB04120025C2E902675360E1E700BF77
:10C450000100800018C7002000500140FDFF7F0050
:10C46000A0C900207FB500254FF0FF304FF0FF310D
:10C47000194C1A4B0226C4F80833C4F84833184B39
:10C48000C4F80855C3E902014FF480334FF4001299
:10C49000C4F80433134B0121C4F804631520C3F816
:10C4A00080212A46FCF7ECFF1520FCF7B9FF012399
:10C4B0000D4AA360236013600C4B0D4A009328467D
:10C4C0000023CDE90155FFF73BFF3046FDF7BEFFE6
:10C4D000284604B070BD00BF0050014003000F00AB
:10C4E00018C7002000E100E0A4C9002069C20100D3
:10C4F000FFFF7F002DE9F7432E4BD3F8042390076D
:10C500000BD5D3F8042142B10022C3F804212A4AF2
:10C51000D3F80431136801331360264AD2F8043388
:10C52000D90327D5254BD3E8EF1F21F00100C3E83D
:10C53000E40F002CF7D1CB0702D4D2F84031CBB1B5
:10C5400000251C4CC4F84051D4F84031FFF7D6FE0A
:10C550004FF02003EFF3118283F31288BFF36F8F44
:10C56000174BD3E90267B042B94106D282F3118872
:10C57000BFF36F8F03B0BDE8F0834FF0FF38D3E90E
:10C5800000104FF0FF391D60C3E902894FF480337A
:10C59000C4F84833C4F84051D4F8403182F31188CC
:10C5A000BFF36F8F0029E5D0009032463B46284606
:10C5B0008847DFE700500140A8C90020A0C900203B
:10C5C00018C700201FB5431C22D0012822DD124AC3
:10C5D000124B9042D4BF04461C46FFF78FFE104B0F
:10C5E0000E49D3E90023801AB0F5000F28BF0024BC
:10C5F00004448C4228BF0C4600200A49A218CDE909
:10C600000100009143F10003FFF79AFE04B010BD52
:10C61000024CE2E70124E0E7FEFF7F00FFFF7F001E
:10C6200028C7002069C2010008B5FFF767FE024B6A
:10C630001B68C01A08BD00BF28C70020F0B50F4B0B
:10C6400001461A680E4B0B25002618461F46B842B5
:10C6500001D3013D04D11846013A19605A60F0BD7A
:10C6600004688C42FBD03CB14468141BA642BCBF9A
:10C67000034626460830EAE70346ECE71CCA0020DA
:10C6800028CA00200020054BC3E90000044BD3E872
:10C69000EF2FC3E8E10F0029F9D1704720CA00202D
:10C6A0001CCA00202DE9F04F87B005460E4606F063
:10C6B00005FE20B96FF06D0007B0BDE8F08F06F001
:10C6C000A8FF33680446002B0F4604D103F0F4F8AA
:10C6D0006FF00A00F0E7BCBF4FF0FF333360012278
:10C6E000002101A806F0A5FEE84605954FF02003BD
:10C6F000EFF3118B83F31288BFF36F8F07F03EF9CE
:10C70000DFF828A1DFF828915AF80000FFF796FF1C
:10C71000D9F8003042689A426FD10023454D00930A
:10C720006B68002B70D1C5E900888BF31188BFF3CB
:10C730006F8F33685A1C6CD04FF4004E40F2E730D4
:10C74000002123EAE37C4FF47A720023CCFB0E0134
:10C75000FBF74AFD02460B4601A802F027FE4FF008
:10C760002003EFF3118B83F31288BFF36F8F002246
:10C770002B685BB1434556D10099002A4DD16A68B8
:10C7800029609A4200D169600023009307F0F6F80F
:10C790005AF80000FFF752FFD9F8003043608BF3DE
:10C7A0001188BFF36F8F06F089FD002882D03568AD
:10C7B0006B1C27D006F02DFF4FF47A7EA0FB0E32C3
:10C7C0000EFB0121A4FB0E420EFB0722DB0BE40B48
:10C7D00043EA414344EA42441B1B4FEAD1314FEA4A
:10C7E000E57C61EBD231ED1A6CEB010CBCF1000F72
:10C7F000B8BF002535602DB96AE743608BF3118817
:10C80000BFF36F8F002057E7C3F80080C5F804809E
:10C810008BE74FF0FF3213469EE71160696899423B
:10C8200008BF6A60B0E71A461B68A2E7080000006C
:10C830001CCA002020CA0020024600B507F09EF85E
:10C84000014B1A505DF804FB0C00000070B4046842
:10C85000094B2CB19C4203D303F17005AC4206D3C3
:10C86000064D2C78661C03EB04132E7003600068E1
:10C8700070BC06F0DEBD00BFACC9002000CF0020B8
:10C8800038B505460A4BD3E8EF1F0131C3E8E21F74
:10C89000002AF8D1074B1C6804B938BD6369AB4264
:10C8A00000D015B9201D02F05DFD2468F4E700BF3B
:10C8B0001CCA002020CA0020014600220023014893
:10C8C00006F06DBD78CA00200146014806F071BD32
:10C8D00078CA0020014600220023014806F05FBD0F
:10C8E0008CCA00200146014806F063BD8CCA0020B6
:10C8F0007FB50BAB05930393054B012202930023F5
:10C900001846CDE90033FCF78BFA07B05DF804FB5D
:10C91000135302001FB50024FCF712FA064B204601
:10C92000029301222346CDE900440449FFF7E0FFCA
:10C930002046FDF7EDF900BF13530200743D0200DD
:10C940001FB50446F8B91149114801F06BFF50B109
:10C95000104B0390CDE901430122234620460E49A6
:10C96000009406F07AF80D49094801F05BFF50B1D8
:10C970000B4B03900293002301221846CDE90033AC
:10C98000054906F06AF804B010BD00BF305302003C
:10C99000B44E02008D530200AC3D0200BA530200B7
:10C9A000D25302002DE9F0411F46154B044693F87F
:10C9B00000800D461646A2B0B8F1000F15D16846AA
:10C9C00005F0F7F83A4631462846289BA04704462A
:10C9D000684605F0EFF8B8F1000F02D0094802F000
:10C9E00085FC204622B0BDE8F0814FF0FF324FF0C9
:10C9F000FF33044802F000FC0028E0D01F24F0E7D9
:10CA00000CCF002004C7002070B5302692B006ABD2
:10CA100005460C4632460021184606F09FFFCDE938
:10CA20000454CDE9020654B1012304AA0092002166
:10CA30000448019302AA00F007F812B070BD204626
:10CA4000FBE700BF0001004030B401F50045B5F53B
:10CA5000803F039C0DD243EA0405FF2D09D844EA28
:10CA60000324134644EA0142014630BC0348FFF761
:10CA700099BF6FF0800030BC704700BF217C01007F
:10CA800030B50468ACB1B4FA84F30122C3F11F03DA
:10CA9000DBB29A4024EA0202D0E8EF5FA54204D15B
:10CAA000C0E8EC2FBCF1000FF6D1EAD102480B70C0
:10CAB00030BD0248FCE700BF0000AD0B0200AD0B2B
:10CAC00010B50368CB40DB0710D401238B4002680C
:10CAD00043EA0201D0E8EF4F944204D1C0E8EC1FD2
:10CAE000BCF1000FF6D1F2D1014810BD0148FCE7BE
:10CAF0000000AD0B0400AD0B014BC3F804057047FB
:10CB000000700140F7B5044618B1012822D003B0E7
:10CB1000F0BD0222264B0646C3F80823C3F80401E1
:10CB2000D3F804210122DA60012342F21075204F6C
:10CB30008DF80730D4B1012CE9D1D7F80C3403F4C7
:10CB4000803386BB002BE2D0012005F09CFF013D25
:10CB5000F3D1DCE70022164B0DF10706C3F80803FA
:10CB6000C3F80021D3F800215860DDE7D7F8183466
:10CB700003F480333EB9002BC9D0012005F083FFB8
:10CB8000013DF3D1C3E7D7F8182402F00302327055
:10CB9000002BBCD09DF807000128B8D105F073FF29
:10CBA000013DC7D1B3E7D7F80C2402F00102EEE74C
:10CBB00000500040044B1A7922B9012218601A7102
:10CBC0000248704702487047A0CA00200000AD0B21
:10CBD0000C00AD0B08B50520FCF744FC10B905208E
:10CBE000FCF71EFC0122024BC3F8182508BD00BF4C
:10CBF0000050004008B510B101282ED008BD1C4AD5
:10CC0000D2F81814D2F81834C90317D503F0030367
:10CC1000022B05D0012B02D00020FFF773FF012368
:10CC2000134AC2F818350023C2F80431D2F804318F
:10CC30000223C2F8043301239360DFE7D2F81434EF
:10CC4000DB07ECD5D2F81C3403F00303013B012BC6
:10CC5000E2D80223C2F80433D0E70022044BC3F821
:10CC60000021D3F80021C3F804031860C6E700BF11
:10CC70000050004010B5164BD3F8002152B10020EF
:10CC8000C3F80001D3F800210122C3F80823114B97
:10CC90001B6898470E4BD3F8042182B10022C3F8D9
:10CCA0000421D3F80421D3F81824D3F8182402213E
:10CCB00002F00302012A03D1C3F818159A6010BDCF
:10CCC000C3F80813034B0120BDE810401B68184748
:10CCD00000500040A0CA002001460148FFF7D0BE26
:10CCE00040C60020036803F01F025B09026002488F
:10CCF00018BF0020704700BF00258440034BC0B21E
:10CD0000083033F81000C0F34010704744C60020CC
:10CD1000034BC0B2083033F81000C0F34000704736
:10CD200044C60020034BC0B2083033F81000400B5B
:10CD3000704700BF44C6002070B50D4C00F10803D9
:10CD400034F813300546DA050E4607D5C3F34323FE
:10CD500004EBC302526854F833309847A3682BB1F0
:10CD600031462846E268BDE87040184770BD00BFF4
:10CD700044C6002010B4124AC0B2083032F8103055
:10CD8000D9051BD5C3F3432123F4F85322F81030FF
:10CD9000002002F10E0434F8023F13F4807F03D028
:10CDA000C3F34323994209D001302028F3D1002353
:10CDB00042F83130034810BCFFF782BE10BC704708
:10CDC00044C6002098C6002001460020F0B5012688
:10CDD0000746104B104D114C5A19920806FA02F2F0
:10CDE000114208D0D3F800C0BCF1000F03D01F607F
:10CDF000D3F800C010430433A342EDD1084BD3F85D
:10CE00007C2132B10022C3F87C21D3F87C3140F080
:10CE10000040F0BD0011034000EFFCBF20110340B3
:10CE2000001003402DE9FF41044690461D4601B322
:10CE3000FFF76EFF18B12046FFF760FF28BB002305
:10CE40000DF10F02CDE900338DF80E308DF80F3063
:10CE500020460B460DF10E0105F020FE4749E3B2D6
:10CE6000083331F8132022F0020242F0010221F8C7
:10CE70001320B8F1000F32D0204698F80060D8F89F
:10CE80000420FFF745FF10B1F2B13D4829E03B4FC8
:10CE9000E0B2083037F8101021F02001C904C90CA5
:10CEA00027F8101082B1032EEFD8D8F8043093F889
:10CEB00000C06246920002F1804202F544329EB9FF
:10CEC000C2F81065C2F810652C49E3B2083331F896
:10CED000132022F01C0242EA860221F813201DBB17
:10CEE000284804B0BDE8F081D2F8103541EA4C3151
:10CEF00023F00303C2F81035D2F8103541F02001B9
:10CF000023F4473323F44073C2F81035D2F810E508
:10CF1000230203F4F85343EA0E0343EA0643C2F83C
:10CF2000103527F81010CFE72046D5E90067FFF746
:10CF300021FF002ED4D0114DD5E90023964201D116
:10CF40009F4219D010480DF10F01FFF799FD0D4BCD
:10CF50009842C6D19DF80F20E0B205EBC20308301D
:10CF60005F6035F8103045F8326043EA422343F4FD
:10CF7000807325F81030B3E70022EDE744C60020A7
:10CF80000400AD0B0000AD0B98C60020F0B50446C0
:10CF9000164685B029B3FFF7BBFE20B92046FFF740
:10CFA000ADFE002862D1324FE5B2083537F81530B2
:10CFB00013F01C0F02D04B78012B57D001238DF8B2
:10CFC0000F3000234A1CCDE9001320468B1C0DF1C5
:10CFD0000F0105F063FD37F8153043F0030327F820
:10CFE000153016B9234805B0F0BD2046FFF790FE76
:10CFF00000283BD096F800C0002361461C4FE5B2E4
:10D00000083537F81500890020F0200001F1804133
:10D01000C00401F54431C00CC1F8103527F81500E3
:10D02000C1F810357278002ADCD0D1F81035B67806
:10D0300023F4981323F4F853C1F810351204230293
:10D04000D1F810E502F4403203F4F85313433205EB
:10D0500043EA0E0302F4801240EA4C30134340F0DE
:10D060002000C1F8103527F81500BBE70248BAE7E1
:10D0700044C600200000AD0B0400AD0B014BC3E91A
:10D080000201704744C6002008B50246FFF736FE8D
:10D0900040B1054BD2B2083233F8123003485B0B73
:10D0A0000B7008BD0248FCE744C600200000AD0B31
:10D0B0000400AD0B70B50F4C94F85860BEB90E4D1E
:10D0C0004022314604F1100006F048FC3120C5F83A
:10D0D0007C61D5F87C31FCF7A3F94FF00043C5F82B
:10D0E00004330123054884F85830636570BD044853
:10D0F000FCE700BF44C60020001003400000AD0B59
:10D100000500AD0B034B93F85800003818BF012001
:10D11000704700BF44C6002001460148FFF7D0BC5D
:10D1200094C6002001460148FFF7AABC94C600201F
:10D1300037B50446FFF7E2FDF0B12046FFF7E8FD02
:10D140000546C8B92046FFF7EDFD1B4A03B29B0018
:10D15000D550D25803F1804303F54433D3F810255A
:10D1600042F00102C3F8102521B10123134A834084
:10D17000C2F8043303B030BD114AE3B2083332F8C9
:10D180001330C3F38203042B11D0052B11D001A857
:10D190000194FFF7A7FD019B0169D94001F001014E
:10D1A0000231204603B0BDE8304005F0C0BC032189
:10D1B000F7E70221F5E700BF00110340001003402C
:10D1C00044C6002008B50246FFF798FDC0B11046DE
:10D1D000FFF79EFDA0B91046FFF7A4FD01230B4AFF
:10D1E0008340C2F8083303B29B0003F1804303F588
:10D1F0004433D3F8102522F00302C3F8102508BDEC
:10D200000021BDE80840104605F091BC0010034025
:10D2100073B51B4EC5B2083536F815300446DB072A
:10D220002BD5FFF7CFFF2046FFF768FD68B12046FA
:10D23000FFF778FD002203B29B0003F1804303F562
:10D240004433C3F81025C3F810252046FFF792FD9C
:10D25000002301A826F815300194FFF743FD019B38
:10D2600000EB8300D0F80022064B134043F002038A
:10D27000C0F80032044802B070BD0448FBE700BFAC
:10D2800044C60020F0F8FCFF0000AD0B0400AD0B1D
:10D290002DE9F74F4E4BD3F80403C0B240F00040E5
:10D2A000FFF792FD051E14DA4A4FDFF82C913B6A16
:10D2B00000933B624FF00108009C84B94FF000409E
:10D2C000FFF782FD3B6A00933B62002BF2D125F011
:10D2D00000450124002D63D103B0BDE8F08F94FA1E
:10D2E000A4F4B4FA84F4E00804F1080339F813A0B4
:10D2F00004F007021DF8003008FA02F223EA0203E4
:10D300000DF8003001A80194FFF7ECFC019B4FEAF7
:10D310009A01803350F82360CAF3820B4B07DA4638
:10D32000C6F3014621D520465946FFF705FD01A861
:10D330000194FFF7D7FC019BF6B2803350F82330FD
:10D34000C3F301439E4207D10021204605F0EFFBC5
:10D350003146204605F0EBFB01A80194FFF7C2FC23
:10D36000019B08FA03F30362A6E7022E0CD1032106
:10D37000204605F0DCFB0BF00503012BECD15146F8
:10D380002046FFF7D9FCE7E70221204605F0CFFB56
:10D39000BBF1030FF3D0032EDED1BBF1020FEDE79B
:10D3A00095FAA5F3B3FA83F304FA03F29B0003F1B1
:10D3B000804303F54433D3F81005D3F81015C0F3B8
:10D3C0000420C1F3014125EA0205FFF7B5FC81E71E
:10D3D000001003400025844044C6002070B5084C6E
:10D3E0000E462379154643B92A20FCF719F8012384
:10D3F000044823712660A56070BD0348FCE700BFA8
:10D40000A8CA00200000AD0B0C00AD0B002330B506
:10D410000D4A50F8234003F5A2710133082B42F85E
:10D420002140F6D10023084A00F11C0103F5B27433
:10D4300051F8045F0133082B42F82450F6D1036CF5
:10D44000C2F8043330BD00BF00A0024000234FF0FB
:10D45000FF31134AC2F81035C2F81435C2F8183536
:10D46000C2F81C35C2F82035C2F82435C2F8283578
:10D47000C2F82C35C2F89035C2F89435C2F8983508
:10D48000C2F89C35C2F8A035C2F8A435C2F8A83558
:10D49000C2F8AC35C2F80813024A1371704700BFD6
:10D4A00000A00240A8CA00200123024A8340C2F81B
:10D4B0000433704700A002400123024A8340C2F8AF
:10D4C0000833704700A00240F8B5012600270B4B37
:10D4D0000B4DD3F80C4304B9F8BD94FAA4F0B0FA9C
:10D4E00080F006FA00F324EA0304064B82009F5002
:10D4F0002B68002BEFD0A9689847ECE700A002400A
:10D50000A8CA002000A10240430904D10123034A14
:10D5100083409360704700239B60FFDE00258440BA
:10D520000C4B984213D00AD80B4B98420FD00B4BA0
:10D5300098420CD00A4BC31A584258417047094BC5
:10D54000984204D0084B984201D0084BF3E70120E1
:10D55000704700BF40420F0090D0030020A1070099
:10D5600048E8010000093D0000127A0080841E0096
:10D57000431C14D000F01F0340090BD1084A02EBF2
:10D580008302D2F80012074B0B4043F00203C2F8AB
:10D59000003270470022803352F82330FFDE70479C
:10D5A00000258440F0F8FCFF430904D10123034A1D
:10D5B0008340D36070470023DB60FFDE002584409A
:10D5C00038B51446421C054616D0012902D1A3B134
:10D5D000FFF79AFF05F01F036D0911D10B4A41EACD
:10D5E000840402EB8303D3F80002094A0240144387
:10D5F00044EA4101C3F8001238BDFFF7D5FFE9E75F
:10D600000022803352F82330FFDE00BF0025844023
:10D61000F0F8FCFF2DE9F8434C4B4D6907469D425D
:10D620000C4690F804907DD071D8494B9D427CD037
:10D63000484B9D427CD0484B9D420CBF4FF000753B
:10D640004FF080452422DFF81481E07E02FB09833D
:10D65000997F60F3000199773B79217C02FB03837A
:10D66000D977E67EEEB9237E3246012B94BF0023A4
:10D67000012301212068FFF7A3FF33463246012131
:10D680006068FFF79DFF33463146A27EA068FFF732
:10D6900097FF237C32460121E06883F00103FFF706
:10D6A0008FFF242202FB0989E368C9F82030237C1C
:10D6B00089F81F30267FA07C217E637E3A6846B9B8
:10D6C000D4E900C6A468C2F808C5C2F80C65C2F85F
:10D6D0001045003B18BF01230229C2F8C005C2F85B
:10D6E00024552BD003292CD0012901D143F002036A
:10D6F000C2F8543524223B79534358F803301BB306
:10D700003868BDE8F84340F30730FBF789BE144B97
:10D710009D4210D0134B9D420CBF4FF000454FF07F
:10D7200080458FE74FF080558CE74FF0806589E7A3
:10D730004FF0006586E74FF0005583E743F00403A0
:10D74000D6E743F00603D3E7BDE8F88340420F0075
:10D7500090D0030020A1070048E80100B4CA0020CF
:10D7600080841E0000127A00F8B5054624262F7921
:10D77000104C7E4304EB060C9CF81CE0BEF1000F3D
:10D7800013D1A251CCF8043031B14869FFF7C8FE7B
:10D7900068B12846FFF73EFF242303FB074400231C
:10D7A0006377012304482377F8BD0448FCE7044865
:10D7B000FAE700BFB4CA00200000AD0B0500AD0BB6
:10D7C0000400AD0B2DE9F041044606790068194DBF
:10D7D00040F30730FBF732FE24237343EB5853B179
:10D7E0002368154A06EBC601C3F80823206805EB39
:10D7F000810105F00FFA2368242404FB0654D3F8B2
:10D800000805D3F80C75D3F81085A37FDB070AD47D
:10D81000FFF7AEFE4046FFF7ABFE3846FFF7A8FE27
:10D82000206AFFF7A5FE242303FB065500232B7770
:10D83000BDE8F081B4CA00205201080024232DE97C
:10D84000F0430779524D7B439046EA180E46517FCC
:10D85000814685B0002940F09880EB5823B118F03C
:10D86000140F04BF01235377242496E80F0004FB10
:10D87000075404F10C0C8CE80F00206A431C03D001
:10D88000E37FD3B1FFF740FE3368D9F8004023B1FE
:10D8900003F06043B3F1005F06D1B36883B103F0D6
:10D8A0006043B3F1005F0BD02423002203FB075336
:10D8B00038485A7705B0BDE8F083FFF775FEE3E717
:10D8C00018F0010318BF0123C4F8503518F0020303
:10D8D00018BF0123EC46C4F8403596E80F008CE8E9
:10D8E0000F00039BC4F84405C4F84815C4F8342558
:10D8F000C4F838350023C4F81831D4F81831072398
:10D90000C4F8003524237B4318F0080F05EB03020D
:10D910001DD10121E858216158B9D4F81831002BE4
:10D92000FBD062464021204605F036F924237B4394
:10D93000EA18EB5803BB106A411C12D107EBC7076A
:10D94000204605EB870105F065F91348B2E7EB586F
:10D9500093B9106A431CF8D0D37F53B1FFF724FE6C
:10D96000F3E7D37F13B1FFF71FFEE7E7FFF7CCFD27
:10D97000E4E7FFF7C9FDE8E7402318F0040F14BF00
:10D98000C4F80833C4F80433DFE7044892E700BF63
:10D99000B4CA00200A00AD0B0000AD0B0B00AD0BAC
:10D9A00010B540210F4A104805F0F6F8C0B10F4CF1
:10D9B000206A431C03D0E37F7BB1FFF7F5FD637F53
:10D9C0001BB10A49084805F025F9002323720848CD
:10D9D000D4E90031BDE810401847FFF795FDEEE7A8
:10D9E00010BD00BFC0CA002000B00040B4CA002073
:10D9F000BCCA002010B4CC7B8A6803682CB9D1E97A
:10DA00000041C3F80845C3F80C15C3F824252822A3
:10DA100003795343054AD3582BB1006810BC40F337
:10DA20000730FBF7FDBC10BC704700BFD8CA002010
:10DA30004FF0280CF8B50679294C0CFB06FC04EBDA
:10DA40000C0595F82270002F3FD1AF6044F80C20F0
:10DA50006B6085F8257085F8247071B38F7B85F82D
:10DA6000277017BB0A6802F01F0352092FD140F23A
:10DA70000C6C1C4DDFF870E005EB8303D3F80072EB
:10DA800007EA0E0747EA0C07C3F800724F6807F071
:10DA90001F037F091FD105EB8303D3F8002202EA9D
:10DAA0000E0242EA0C02C3F80022282303FB0643BD
:10DAB0004A7B83F82620FFF79DFF282303FB0644BB
:10DAC00001230A4884F82230F8BD0948FCE7803376
:10DAD00057F82330FFDE803352F82330FAE700BFD7
