:020000040001F9
:1080000090F2002075A701009F2F020049A70100F0
:1080100049A7010049A7010049A7010049A701009C
:10802000000000000000000000000000B59F0100FB
:1080300049A7010000000000119F010049A70100AD
:10804000ADA00100ADA00100ADA00100ADA00100F8
:10805000ADA00100ADA00100ADA00100ADA00100E8
:10806000ADA00100ADA00100ADA00100ADA00100D8
:10807000ADA00100ADA00100ADA00100ADA00100C8
:10808000ADA00100ADA00100ADA00100ADA00100B8
:10809000ADA00100ADA00100ADA00100ADA00100A8
:1080A000ADA00100ADA00100ADA00100ADA0010098
:1080B000ADA00100ADA00100ADA00100ADA0010088
:1080C000ADA00100ADA00100ADA00100ADA0010078
:1080D000ADA00100ADA00100ADA00100ADA0010068
:1080E000ADA00100ADA00100ADA00100ADA0010058
:1080F000ADA00100ADA00100ADA00100ADA0010048
:10810000ADA00100ADA00100ADA00100ADA0010037
:10811000ADA00100ADA00100ADA00100ADA0010027
:10812000ADA00100ADA00100ADA00100ADA0010017
:10813000ADA00100ADA00100ADA00100ADA0010007
:10814000ADA00100FFFFFFFF7BB972B90029BEBFE0
:1081500000204FF0004106E008BF00281CBF6FF070
:1081600000414FF0FF3000F057B8ADF1080C6DE959
:1081700004CE002909DB002B1ADB00F04FF8DDF8F4
:1081800004E0DDE9022304B07047404261EB4101A5
:10819000002B1BDB00F042F8DDF804E0DDE90223F0
:1081A00004B0404261EB4101524263EB430370472C
:1081B000524263EB430300F031F8DDF804E0DDE9FF
:1081C000022304B0404261EB41017047524263EB2D
:1081D000430300F023F8DDF804E0DDE9022304B0F6
:1081E000524263EB4303704753B94AB9002908BFB1
:1081F00000281CBF4FF0FF314FF0FF3000F00CB8EB
:10820000ADF1080C6DE904CE00F008F8DDF804E0EB
:10821000DDE9022304B07047704700BF2DE9F04745
:1082200086468C460846089E154674461946002B1D
:1082300040F0C1808542B2FA82F245D94AB1C2F11A
:10824000200300FA02FC954094402EFA03F343EA1F
:108250000C0C4FEA154EA8B2230CBCFBFEF80EFB2B
:1082600018CC08FB00F943EA0C43994528D9EB18D0
:1082700008F1FF3704D2994502D9A8F102072B442F
:10828000A3EB0903A4B2B3FBFEFC0EFB1C330CFBF7
:1082900000F044EA0344A04214D92C190CF1FF3336
:1082A00004D2A04202D9ACF102032C44241A43EABE
:1082B00007401EB1D440002334607360BDE8F087EE
:1082C0004746DDE76346F1E792BB431B01214FEAD6
:1082D000154EAFB2200CB3FBFEFC0EFB1C330CFBA7
:1082E00007F840EA0343984561D9EB180CF1FF30D9
:1082F00004D2984502D9ACF102002B44A3EB080349
:10830000A4B2B3FBFEFC0EFB1C330CFB07F744EAE4
:108310000344A7424DD92C190CF1FF3304D2A742D4
:1083200002D9ACF102032C44E41B43EA0040C0E74D
:10833000C2F120039540944020FA03F12EFA03F392
:108340004FEA154E9040AFB20343B1FBFEFC0EFB6B
:108350001C10190C0CFB07F841EA0041884522D992
:1083600069180CF1FF3004D2884502D9ACF1020043
:108370002944A1EB08019BB2B1FBFEFC0EFB1C11D2
:108380000CFB07F743EA01439F420ED9EB180CF1AF
:10839000FF3104D29F4202D9ACF102012B44DB1B16
:1083A00041EA004193E76046E3E76146F7E760464C
:1083B000A4E76346B8E7834206D916B90021084608
:1083C0007CE7C6E900E0F9E7B3FA83F78FB98342A7
:1083D00001D3724508D8BEEB020460EB0303012011
:1083E0009C461EB9002169E73846FAE7C6E9004C09
:1083F000F8E7C7F1200CBB400EFA07F522FA0CF49F
:108400002EFA0CF1BA401C4320FA0CF3B8404FEAA4
:10841000144901431FFA84FEB3FBF9F809FB183035
:108420000B0C08FB0EFA43EA00439A4540D9E318C7
:1084300008F1FF3004D29A4502D9A8F10200234482
:10844000A3EB0A0389B2B3FBF9F809FB183308FB65
:108450000EFE41EA03418E452CD9611808F1FF3325
:1084600004D28E4502D9A8F10203214443EA004018
:10847000A1EB0E01A0FB02984145CE46434602D334
:1084800006D14D4504D20138B9EB020E68EB040366
:10849000002EA7D0B5EB0E0261EB030101FA0CFC34
:1084A00022FA07F3F9404CEA0303C6E9003199E7E1
:1084B0004046C5E74346D9E7034613F8012B002A97
:1084C000FBD1181A01387047022A70B504460D46D0
:1084D000184611D8DAB1022D19886DD8B1F5006FA0
:1084E0006AD2022A4FF0020314BF232220226068BE
:1084F000BDE870400BF087B9052A04D003291CD9C8
:108500006FF085005AE0022325220188EFE7032956
:10851000F6D84FF47A711D885B6893FBF1F39BB238
:1085200055EA0301ECD02849088885423AD2204612
:10853000BDE87040D1B20BF091B9072AE0D15B6879
:1085400005682248D917C5FB0031012B71F10002E3
:108550001CDB00F56E1000F65D70181841F100018B
:1085600017A3D3E90023FFF7EFFD80B2022815D946
:10857000042815D90828C3D80222154B2046BDE887
:10858000704003EB820399780BF049B91148181831
:1085900061F100010AA3D3E90023E4E70022ECE73C
:1085A0000122EAE702D148889842C0D20132062A65
:1085B00001F10401B8D1A3E76FF0150070BD00BF51
:1085C0003AA39500000000008664020040420F00BC
:1085D0007A640200632EB5FF07B500F01FF8012290
:1085E0000DF10601002000F02BF89DF80610094857
:1085F00009F021FE01220DF10701022000F020F810
:108600009DF80710044809F016FE002003B05DF83D
:1086100004FB00BF9E640200AF64020038B5064D43
:1086200028460CF018F8044620B90448296809F0D7
:1086300002FE204638BD00BFF04E0200BE640200BC
:108640002DE9F0478CB00DF1070302930123154685
:1086500002AACDE9042308AA0024069202220646B3
:108660000F46CDE90724DFF84080DFF84090039300
:1086700009930B93A54203DC00200CB0BDE8F08702
:10868000331963F07F038DF807303B190A93D8F84C
:1086900008304946D3F800A0034806AB04AAD047E7
:1086A0000028EAD10134E5E7F04E0200985B0200B1
:1086B00038B5044C044DAC4200D338BD54F8043BEB
:1086C0009847F8E7405102004C51020038B5054C7C
:1086D000256804EB850405B938BD54F80439013D1B
:1086E0009847F8E7345102002DE9F04F91B000931C
:1086F00002F004030293C2F3C20301338407054668
:108700000E46DDF868900392059340F0BB81041D8E
:1087100030B1072909D86FF01B0011B0BDE8F08F08
:1087200001F00706341DC6F10806009B4FF0000853
:108730004FF0040A591E4FF0FF3347460193C346DA
:108740005346CDF810800DB10098206005980028A0
:1087500000F3E8809848009A824203D39748824207
:10876000C0F0E080039AA4EB050E92074FEA9E004A
:1087700000F103810F2F00F2B180002D00F0058180
:1087800007F140020DEB020C019A0CF8200C0CF8DA
:10879000102C049801300490E7E07A285DD84B282B
:1087A0000ED8472859D829282DD8252852D054D852
:1087B00020287AD02338D0F1000B4BEB000B74E06B
:1087C0004C382E2849D8DFE800F07048484848481F
:1087D0004848484848484B48484848484848485905
:1087E000484B4B595959704B6D487048184B1848B5
:1087F00048827F4B48484B487F0000204FF0000BD9
:108800004FF0040A38E001222A38C0B202FA00F020
:1088100010EA0E0F49D110F0625C2FD110EA020B62
:1088200043D06046013C5444B4FBFAF40AFB04F420
:10883000002D61D0A3EB050CA4446645FFF46BAF9B
:10884000002868D1042B47D159F8043B2360042346
:1088500004342AE0019A013A01924FF0000B24E01F
:1088600011F8010C6C2834D1002011F8023C834629
:108870006C2BC5D14FF0080A5346D3E709F107091D
:1088800029F00709073424F00704F9E802AB35B1F1
:1088900006982044B0423FF63EAFC4E900AB4FF02B
:1088A000000B08344FF0080A534611F8010F002856
:1088B00078D0BBF1000F7FF470AF2528F5D14FF0D1
:1088C000010B019B013301934FF0040AECE758467A
:1088D00094E700208346A5E7082B02D06FF015002F
:1088E0001BE709F1070929F00709B9EC027B84EDC0
:1088F000007B08230834D8E768B9042B02D109F1BA
:108900000409A4E7082BE9D109F1070929F00709AF
:1089100009F10809EDE705980138059059F8040BAD
:10892000009010E7039A900720D54FF0010CA4EBBC
:10893000050E4FEA9E00BEF5007FCFD20F2FCDD897
:10894000F5B107F140020DEB020E019AC0B20EF82C
:10895000200C0EF8102CBCF1000F3FF41AAF60F0A1
:108960007F000EF8200C08F101080137C5F108025C
:108970004FF6DA7E0434069297E74FF0000CDAE700
:10898000BCF1000F01D00136EFE7029A0236002A4F
:10899000EBD10098CDE90631FFF78EFDDDE9063118
:1089A0000644E2E7631BB3F5806F97D245B9A6F1A1
:1089B0000804E018B1E600BFB04D020030750200B7
:1089C000029A9B0828602B709DF81030C2B1EB70A2
:1089D00085F80280B8F1000F05D0002208A8C5F183
:1089E000010C97420ED14FF0000AC5F101030DF1C1
:1089F000200901930DF1300B574512D1601B8CE615
:108A00006B70E5E710F8013B190608D504EB0C0E76
:108A1000764503F07F03FFF47EAE04F8013B01329C
:108A2000DFE7B8F1000F03D099F90020002A17DB27
:108A3000029BD3B11AF80B2004F8012B0022019BF2
:108A4000981820448642FFF466AE99F80000009919
:108A500004F8010B204603920CF083F9039A1444A6
:108A60000AF1010A09F10109C6E799F8002055F851
:108A700022300093029B009845F82230FFF71CFD3E
:108A8000421CDCE76FF00D0047E600BF2DE9F04F18
:108A900095B000AFBB61BB6F0446C3F3C0038A4609
:108AA00090F802B07A623B6141B9457800780BEBEF
:108AB00080002044554517D8A0EB040AE3787B6179
:108AC000BBF1000F02D0BB6FD80716D47B6953BB34
:108AD0007B6A1BB151462046BA69984755462846DD
:108AE0005437BD46BDE8F08F461C3046FFF7E4FC26
:108AF000013030440AF1010ADCE7237862683B6206
:108B00009B00FB603B6AFA6104EB83097B6A002BE4
:108B100040F0FF80C8460026554609EB0B0AD045B9
:108B200051D1D94413E0BB6F9907D1D52378994629
:108B30003B629B00FB60636804EB8909FB617B6A15
:108B4000002B7AD15546BBF1000F4FD15E46BB6F6B
:108B500013F0050F0CBF4FF0020B4FF0010B7B69B8
:108B600009EB430ABB6F03F002037B62D145B6D029
:108B700019F8021B19F8013C54F82380AB4B9845B7
:108B800002D3AB4B984538D33B69002B42D0F869F0
:108B900009F02AFB00283DD0E8468AB06A46A54B7A
:108BA0005361FB69C2E906314FF400731384A24B91
:108BB00042F8103F00234FF41251A04800F010FD7E
:108BC000023DC546D2E718F8013B54F82300FFF7F1
:108BD00073FCFB6F01303BB1D7F880309E423EBF43
:108BE000FB6F23F816000136054498E7BB6F13F0BE
:108BF00004061CBF7E6AD944A9E73B6923B1F86922
:108C000009F0F2FA0028C7D1BB6FDA0705D4A5EB4B
:108C10000B05ABE77B6A002BA8D04046FFF74CFC66
:108C2000FB6F43B1D7F880309E423FBFFA6F431CC1
:108C300022F816300136054498E7BBF1000F6ED0DC
:108C4000BB6F13F004066DD0D846002607F1400034
:108C50005A4649460CF085F87B69D9445B007B6035
:108C60007B6909EB4303BB60BB6F03F002033B600E
:108C7000BB684B4558D1B96F6378B86F890748BF57
:108C8000002106EB030258BF4FEA5801C507D2B2D4
:108C900000F19A8010F0040F14BF40460020FB61E1
:108CA0006270A070E1702046BA69F9687B6A9847E3
:108CB000051EFFF614AF3B6A41462370FB69BA6993
:108CC00063707B6984F802B0E37007F140007B6A4F
:108CD0009847B0F10008C0F2A480FB68AAEB0B0132
:108CE000C91A7B684846C91ABA697B6A984700283E
:108CF000C0F299804FF0000BA84408EB000507F183
:108D0000300AB34562D30021BA6908467B6A9847A6
:108D1000E5E65E464FF0000807F1300098E75E4652
:108D2000D84699E7B04697E719F8021B3F4B19F868
:108D3000015C54F82500984202D33D4B98421DD364
:108D40003B6923B1F86909F04FFA002890D13B68DC
:108D5000FBB908F1280307F1280208F1010003EB31
:108D6000020C07F1500308F1020853FA80F00CF8E6
:108D7000101C5FFA88F800F8105C79E73B692BB1AA
:108D8000F86909F031FA00287FF472AFBB6FDB0796
:108D900009D506F1280307F12802711C9E1806F870
:108DA000205CCEB264E7BB6F58077FF561AF08F176
:108DB000280307F1280208F1010103EB020808F873
:108DC000105C5FFA81F853E7002068E71BF80A306F
:108DD00054F8239087F82F30FB6FFBB133F81B80DA
:108DE0000121BA697B6A07F12F00984700281ADB36
:108DF0000544B8F1000F06D14846FFF75DFB00F1CE
:108E000001081FFA88F841464846BA697B6A9847C4
:108E1000002808DB05440BF1010B72E7D7F87C80D2
:108E2000DEE745465BE6054659E600BFB04D020069
:108E300030750200E6640200040000019451020053
:108E4000014B1860704700BF8CC5002080B50546F7
:108E50000E461746984607F035FC03460BF09EFF7A
:108E60000446DFF81890424649F80030394630464B
:108E7000A84754F8090001F0F7FC00BF0800000003
:108E80002DE9F047858B04462807904611D4022926
:108E900005F0070540F0CD80204609F086FC78B14A
:108EA0000138A18B042811D8DFE800F0C3106D85CC
:108EB000950001290CBF45F0100545F02005A5835C
:108EC00088F31188BFF36F8FBDE8F08701F0070AC0
:108ED000AA4500F0A6800027B9463E46A368002BAD
:108EE00000F0BD8041F00801A18388F31188BFF331
:108EF0006F8FA168002900F0BB800D68002900F089
:108F0000B780334652462046D1F80480C047002D32
:108F100076D02B6829461D46F0E701F007035A1F5B
:108F2000012A1BD8002221F00701062B276889B2ED
:108F3000C4E9002209D13B4603E0E28B0132E2831F
:108F40001B68002BF9D141F002012046A18309F0F2
:108F50002CFC00287BD041F0200177E0042B0AD1C3
:108F600021F0070189B22046A18309F01EFC10B14F
:108F700041F02001A183A18B01F0070AAA4550D03E
:108F80000027B946AAE7236921F0070141F006014D
:108F9000062DD3F80090A1832DD1B9F1000F40D058
:108FA00041F00801A18388F31188BFF36F8F204639
:108FB0003949C84729E021F00701236941F004013C
:108FC00089B2042DD3F80490A183E6D000274FF096
:108FD000040A3E4682E721F00701236941F00501BA
:108FE00089B2052DD3F80890A183D6D000274FF081
:108FF000050A3E4672E700274FF0060A3E466DE737
:109000002B4687E7B9F1000FD1D14FF02003EFF3E2
:10901000118883F31288BFF36F8FA38B23F00803AB
:10902000A383A58BEA062ED525F01003A38305F0B4
:109030000705A669A18B002EBFF66FAF0023276836
:10904000C4E9003321F0070141F00101A183A18BA4
:109050004FF0000901F0070AAA457FF43FAF002F47
:109060009BD041F00801A18388F31188BFF36F8F73
:10907000002FC7D03D68394633465246204609F096
:10908000C0FB2F46F4E7AB067FF51AAF25F02003AF
:10909000A38305F00705FFE62F2802000122024BFB
:1090A0000020C3F8402570470090034020B1034BD7
:1090B000800143F001031847704700BF405202008F
:1090C00004F0ECBA2DE9F047044607464FF00109D9
:1090D000DFF8508014B93846BDE8F08794FAA4F55B
:1090E000B5FA85F509FA05F32E0108EB05156FEAC7
:1090F000030A24EA03042B7B002BEBD058F806303C
:109100001B694BB94644736804222846196807EA6C
:109110000A0700F051FADDE7284698470028D9D120
:10912000F0E700BF1C52020030B5002289B00F49A1
:109130000F480BF098FC002200230024CDE9062301
:109140000E230C4DCDE903344FF440722846CDE98F
:109150000144094B0949009406F030FE08492846AD
:109160000BF001FB204609B030BD00BF8591010026
:1091700058CD002090C800205D94010050D60020FA
:109180009E650200014806F057BF00BF80C800205E
:109190002DE9F04780461F480F4609F04BFE064672
:1091A000002830D000252846BDE8F087237B73B126
:1091B0002368DB680BB12046984723681B69D3B945
:1091C000636804222046196800F0F6F9013610346D
:1091D0004C45EBD3B8F1000FE5D0002DE2D0284686
:1091E000FFF770FF0546002FF7D000214FF4A47061
:1091F00007F04EFAF1E7204698470028E0D00AFA37
:1092000006F31D43E2E705464FF0010A024CDFF882
:109210000C90DDE764CF00201C5202002C520200AB
:10922000014B53F820007047C05B020008B50346AD
:1092300008462BB1044A136000F074FC002008BDFE
:109240006FF01500FBE700BF90C5002010B5044C7F
:10925000237813B9034806F0EFFE0123237010BDF5
:109260001ED6002080C8002010B50446064809F02C
:10927000E1FD3CB1054BD3E8EF1F0139C3E8E21F24
:10928000002AF8D110BD00BF5CCF002060CF0020C5
:1092900000200146034BD3E8EF0FC3E8E21F002A8A
:1092A000F9D170475CCF002070B5FFF7F1FF05469C
:1092B000074C084EB44200D370BD63685B792BB194
:1092C00023685B6813B12946204698471034F1E7BC
:1092D0001C5202002C52020010B5044C04492046D6
:1092E00009F039FC034B1C6010BD00BF14C80020FE
:1092F000AC5B020054CF002008B50023074A4FF4AE
:1093000000411370064A07481360074A1360FFF7CD
:109310008DFFBDE80840FFF7DFBF00BF1FD600206C
:109320005CCF0020312E020060CF002001460022D9
:109330000023014809F030BC14C80020014809F09E
:10934000C9BC00BF14C80020024B0146186809F0D0
:1093500013BD00BF54CF0020014809F049BD00BF34
:1093600014C8002070B5264B1878002847D0FFF7A6
:10937000E5FF054670B1234BD3E8EF1F0139C3E881
:10938000E21F002AF8D1204C204EB4422DD32846AB
:10939000FFF7DAFF1E4B1F4C1B68002B19DD0BF08B
:1093A0001BFB4FF47A72A0FB020302FB0131C30BDB
:1093B00043EA4143D4E900209B1A40F2E9324FEAE4
:1093C000D13161EB0001934271F1000101D3FFF74C
:1093D0006BFFD4E9003213F57A7342F10002C4E95D
:1093E0000032BDE87040FFF7B7BF63685B7923B117
:1093F0002368294620461B6898471034C5E770BD8E
:109400001ED6002060CF00201C5202002C52020009
:109410005CCF002050CD002070B50D4D297861B98A
:109420000120FFF7B5FE0B4C0B4EB44206D3FFF7FD
:1094300099FF0028FBD101232B7070BD63685B7915
:109440001BB1236820469B6898471034EDE700BFA6
:109450001FD600201C5202002C52020000212DE9D0
:10946000F0470846FFF794FE044658B340F2676899
:109470004FF000090BF092FC1B4B1C4A1B58136069
:1094800033B11B4B1B68092B02DD1A4806F0D4FDD3
:109490000025194FDFF85CA044B12046FFF712FE0B
:1094A000044618B94FF0FF384FF0FF39FFF75AFF65
:1094B000064628B9B5B942464B46504606F0E0FD8F
:1094C0003546E9E74FF0FF384FF0FF39D2E72B6818
:1094D0009B691BB100222846114698471035BD42B2
:1094E000F5D3E8E7054DFAE70800000058CF002063
:1094F00060CF002080C800202C5202001C520200C5
:1095000013B5184809F096FC174B1B787BB14FF048
:109510002003EFF3118483F31288BFF36F8FFFF7FB
:1095200021FF84F31188BFF36F8F02B010BD0F4B82
:109530001B68002BF9D050B9002200230C48CDE95C
:1095400000234FF40042002307F0F2FAEDE7092868
:10955000EBD107480BF093FA064802B0BDE8104083
:1095600006F06ABD60CF00201FD6002058CF002033
:1095700058CD002080C8002010B5064B04461B685B
:1095800098472146A060044809F084FBBDE81040DC
:10959000FFF7B6BF90C5002014C80020044A054B51
:1095A0009B1AB1EBD30F34BF52F831000020704743
:1095B0004C5102001C520200084B10B4C31A4468FC
:1095C0001B110133237143689A71012243681960AA
:1095D00043685A715DF8044BFFF738BE1C52020015
:1095E0002DE9F04F8FB0C1F34A2804AF0D469146E4
:1095F000B8607B600C0DB8F1000F63D000264FF00F
:10960000040B4FF00A0A07F11403C7F80C80C7E9EE
:1096100007667E620193CDF808B0CDF800A007F18F
:109620001C0332464846F968FFF730FAB0F5006F80
:1096300003461CD36C468AB0D9F8041004AB264804
:109640001A46C3E9050140F2FF71D9614FF4007178
:109650001984224B42F8103F4FF4125133462048F0
:10966000FFF7BEFFA5462C37BD46BDE8F08FC0F31F
:109670000A0804F11700184420F0070080083B6036
:10968000FFF754FE68F35325044690B13B6800F1A0
:109690001001C7E9083607F11403F961CDE900A309
:1096A000CDF808B048460F4AF96807F11C03FFF7E8
:1096B000EDF968F353252A4620467B68B96809F01E
:1096C000EBFBD0E704F1170020F007008008FFF75C
:1096D0002DFE0446EDE700BFB36502000400000163
:1096E000C45102006D2E02002DE9F04F87B00446F0
:1096F000DDE9105ADDE912690F4693469846A6B394
:109700001021334652460020CDF80090CDF8149039
:10971000FEF7EAFF014605F117000844144B04F078
:1097200007040BF0070BE40020F0070003EA4123D5
:1097300044EA8B1480081C430391FFF7F7FD44EAC9
:109740000554054640B13EB1334652460399CDF823
:1097500000901030FEF7C8FF43462246394628469F
:1097600007B0BDE8F04F09F097BB3146D3E700BF23
:1097700000FE0F000EB403B503AB53F8042B0146F3
:109780000448019301F058FA02B05DF804EB03B00D
:10979000704700BFFF2E0200CA0605D48B064CBFDF
:1097A00002490349FFF7E6BF704700BF0873020094
:1097B000077302002DE9F04F8BB09A46DDE916736E
:1097C0009DF854B00693189B04460D46199E0892C6
:1097D0000593BBF1000F00F0858006F001030993AB
:1097E00006F00803079309F03FFB06F00209024662
:1097F000002847D020468449FFF7BCFF8046B9F1D6
:10980000000F08D016F0440F3ED12A4620467F496B
:10981000FFF7B0FF8044099B53B17D4B204653F8BE
:109820002B207C4B7C49002A08BF1A46FFF7A2FF79
:10983000079B002B54D0794B204653F82B207849B6
:10984000FFF798FF0546089B2BB11A46204675493D
:10985000FFF790FF0544BAF1000F05D052462046AD
:109860007149FFF787FF05444544002F48D1059B08
:10987000002B4ED1F30700F1C08031462046FFF7A0
:109880008BFFB4E08046BAE7684B18680028C1D067
:10989000674B4FF47A791B684FF46161B5FBF3F5C0
:1098A000B5FBF0F300FB135509FB05F5B3FBF1F233
:1098B000B5FBF0FE4FF03C0C01FB123100FB1E55D6
:1098C000B1FBFCF309FB05F5B5FBF0F50CFB13113F
:1098D00020460091CDE901E55649FFF74BFF99E796
:1098E000079DB0E7BAF1010F06D1002F65D1059BA6
:1098F000002B7CD000250CE0002FF8D04E485DE016
:109900004E483B4622464E4908F03DFC059B002B45
:1099100069D0DFF84081DFF84091059F3146102F74
:10992000204628BF10274FF0000AFFF735FF5545A6
:1099300046DC069B494620461A78FFF71BFF4FF08E
:10994000010A1AF0070F03D141462046FFF712FF24
:1099500057453CD9069B4946204613F80A20FFF795
:1099600009FF0AF1010ABAF1100FEAD14FF0000A1B
:1099700020463449FFF7FEFE5246069B20469A5C7D
:10998000314B995C11F0970F08BF2E222F49FFF73A
:10999000F1FE0AF1010ABAF1100F1DD01AF0070FFB
:1099A00003D141462046FFF7E5FE57455246E4D82D
:1099B00041462046FFF7DEFEEBE720485D46A0E784
:1099C00041462046FFF7D6FE0AF1010AAFE72046DE
:1099D0001F49FFF7CFFEC4E7069B3B440693059B58
:1099E000DB1B059399D1BBF1000F7FF443AF2046F9
:1099F0000BB0BDE8F04F09F075BA2046054A06499C
:109A0000FFF7B8FE39E700BFF7650200FB6502000B
:109A1000D05B0200F2650200ED6C0200E45B020024
:109A200020660200266602002A6602006CCF002033
:109A300068CF0020046602002D2F0200FF2E0200D6
:109A400039AC0100396602001C7402003B6602005A
:109A500035660200376602002F6602002DE9F041EC
:109A60000F884B6805460C4690468E6886B0C7F353
:109A700082175BB1144A9B1A43F3CF01002920DB04
:109A80002078C0F3C200FFF789FD0346214651F854
:109A9000102B6088C2F34A22002A01EB020408BF9F
:109AA00000210022C0F30B10CDE90408CDE9021417
:109AB0002846314601970092FFF77CFE06B0BDE8CC
:109AC000F0810023E2E700BF4C51020042F20F7325
:109AD00073B58B4228BF0B460568044605216846CE
:109AE0000D4A07F095F80646636828460B225B6826
:109AF0000A4909F0EAF963683246694628465B6814
:109B000009F0E3F963681B2228465B68044909F001
:109B1000DCF902B070BD00BF796E02005A66020027
:109B20003E66020000210123064A904206D8064AFA
:109B300001B901231360054B1860704701214008EB
:109B40005B00F2E740420F0068CF00206CCF00209E
:109B5000014B00201960704784CF00200122024B86
:109B600002481A7009F0BEB921D60020145C020028
:109B70000148FFF7ABBF00BF145C020010B5064BF5
:109B80000C461868FFF74CFB2146BDE81040034621
:109B90000F220248184700BF84CF0020145C020047
:109BA000F8B50D460446064F4618B44201D1284682
:109BB000F8BD14F8011BBB6801485B689847F4E7DF
:109BC0008C4E0200034610B588B08DF807300DF1B9
:109BD000070302930123094ACDE905131068039393
:109BE000002207238DF810208DF81C308368022294
:109BF0009C6802A94623A04708B010BD88CF00206A
:109C000070B586B00E460DF1070105461446FFF704
:109C1000D9FFC8B99DF807308DF8085023EA06012E
:109C20000A4B44EA0102186802AB039302238DF841
:109C300007208DF8092004938DF8143083680122E1
:109C40009C6803A94623A04706B070BD88CF0020BA
:109C500010B504460AF0FFFC18B10020024B1C604E
:109C600010BD6FF01200FBE788CF002001491022E1
:109C70000A60704710ED00E072B6404080F3118832
:109C8000BFF36F8FBFF34F8F30BF62B6BFF36F8FDD
:109C9000704700BF72B6494081F31188BFF34F8F00
:109CA00020BF80F3118862B6704700BF2DE9F84FDE
:109CB00080460C4600AF002900F08380D1E90012F5
:109CC000E9468AB0A3686D464FF0050A2E46404823
:109CD000C5E90723C5E9050146F810AF0023324660
:109CE0004FF421513B48FFF77BFCD4E90312CD46EA
:109CF0006369AD463848C5E90723C5E90501C5F8DC
:109D000010A0002332464FF421513248FFF768FC7F
:109D1000CD4688B0E3696A463049C2E9051303239A
:109D200042F8103F00234FF4C2512A48FFF758FC75
:109D30002646CD4600254FF00A0ADFF8ACB0E946CA
:109D4000D6E908E0D6E90A138EB06A46C2F81CE0EC
:109D500005F1010EC2E908E0A81CC2E90A01E91CEC
:109D6000C2E905B5C2E90C1342F810AF002345F271
:109D7000400118480435FFF733FC102DCD4606F19D
:109D80001006DCD188B0236E6A4603251449C2E967
:109D9000051342F8105F00234FF4C2510D48FFF73E
:109DA0001FFCCD4688B0A3696A460E49C2E9051377
:109DB00042F8105F00234FF4C2510648FFF710FC31
:109DC000CD462146404605F02BFEBD46BDE8F88F46
:109DD000A0660200FC510200CF660200FE6602008F
:109DE000506702005F6702000D67020040B2002862
:109DF00007DB01234109034A00F01F00834042F8BA
:109E00002130704700E100E040B200280CDB012265
:109E10000649430900F01F008240203341F8232007
:109E2000BFF34F8FBFF36F8F704700BF00E100E0BB
:109E3000054B420953F82220012300F01F0003FACA
:109E400000F01040704700BF00E100E040B2002881
:109E500001F10101ACBF00F16040064B4FEA411136
:109E6000C9B2ABBF00F5614000F00F0080F80013ED
:109E70001954704714ED00E030BFFFF7FDBF00BF7D
:109E8000144A08B5144B22F07F029A60BFF34F8F3B
:109E9000BFF36F8FD3F8882022F47002C3F88820B4
:109EA000D3F8882042F4A002C3F888204FF0404243
:109EB000C3F83422BFF34F8FBFF36F8F0023E1EE5F
:109EC000103A05F06FFE06F067FC00F047FC05F065
:109ED000B3FE00BF0080010000ED00E0094A0A491E
:109EE000936809685867996708494B6843F080533D
:109EF0004B60002383F31188BFF36F8F9368986FD3
:109F0000704700BFB8D50020F061020000ED00E00E
:109F100025498A6882F8BDE04FF030001044EFF325
:109F2000098C80E8F01F1EF0100F03D102F17C00B5
:109F300080EC108A202080F31288BFF36F8F1B4FB4
:109F40004FF000668A698A603E604FF07004141911
:109F50002068174C206092F9BDE0506F00235367D2
:109F600080F311881EF0100F03D00023E1EE103AA9
:109F700003E002F17C0090EC108AEFF3148323F0ED
:109F8000040383F31488BFF36F8F02F1300090E86D
:109F9000F01F8CF3098802F1000004B509F006F8FF
:109FA000BDE8044070470000B8D5002004ED00E093
:109FB0008CCF00201EF0040F0CBFEFF30880EFF3EE
:109FC0000980816911F8021C0229FFD001B508F04F
:109FD000DEFF01BD42F8203C009B0D4942F81C3CCD
:109FE000019B21F0010142F8183C029B42F8081C39
:109FF00042F8143C4FF0807342F8043C002343675E
:10A000004FF43C43203A0265C0F8BC30704700BFB3
:10A010004D8E0100114B9B6883421BD1EFF30580ED
:10A02000C0B94FF02002EFF3118182F31288BFF321
:10A030006F8F1A7B22F002021A73EFF3148323F05E
:10A04000040383F31488BFF36F8F81F31188BFF388
:10A050006F8F70476FF01500704700BFB8D50020B4
:10A060000023E1EE103AEFF3148323F0040383F3AB
:10A070001488BFF36F8FBFF36F8F0A4B046F986024
:10A08000094B1C60036E83F30B88104681F309882B
:10A09000002163B681F31188BFF36F8F0022002384
:10A0A000FEF7D4FEB8D500208CCF002001B5EFF329
:10A0B0000580A0F110004FEAC0000449014409C91D
:10A0C0009847BDE801400249084700002C4F0200B4
:10A0D00031A10100114B124A2DE9F041D518013D83
:10A0E000B5FBF3F5DFF844805D430E4B074608EB04
:10A0F0000304013CB4FBF3F403FB04540E1B304691
:10A1000009490AF02EFE701942460021083E0AF065
:10A1100035FE3E6704F10800BDE8F0810100000053
:10A1200000000000040000002C52020008000000A3
:10A13000044B99689869884203D003494FF08052D4
:10A140000A607047B8D5002004ED00E02DE9F04129
:10A1500086B006460D4600AF0224444B4FF48251B0
:10A160007B6143483C6107F1100208F028FF414B36
:10A170009B6ADB0678D5404B3D484FF48251C7E9D6
:10A18000044307F1100208F01AFF1120394B9B6AB3
:10A190001C070BD5394B36487B6102234FF48251A3
:10A1A0003B6107F1100208F00AFF1220314CA36A4C
:10A1B000990723D5E846324B07F110027B61022351
:10A1C0004FF482513B612A4808F0F9FE636BA26AA2
:10A1D000120612D588B06A462A492548C2E90513F5
:10A1E00003234FF4C25142F8103F08F0E8FEC54681
:10A1F0001EB1A36A23F08003A36213201D4B9B6A48
:10A20000DE070BD5204B1A487B6102234FF48251A5
:10A210003B6107F1100208F0D2FE1420154B9B6A37
:10A220009C060BD5194B12487B6102234FF48251D7
:10A230003B6107F1100208F0C2FE15200D4B1837E4
:10A240009A6AD10658BF9A6A9A6A920642BF5A6AB7
:10A2500022F400525A629A6A42F0FF029A62002384
:10A260002B70BD46BDE8F08110208FE78D6702009E
:10A27000FC51020000ED00E0A3670200D667020077
:10A28000E9670200016802001768020036680200F0
:10A290002DE9F04186B006460D4600AF0224474B3B
:10A2A0004FF482517B6146483C6107F1100208F08F
:10A2B00086FE444B9B6AD9046DD5434B40484FF40E
:10A2C0008251C7E9044307F1100208F078FE172015
:10A2D0003C4B9B6A1A050BD53C4B39487B610223EA
:10A2E0004FF482513B6107F1100208F068FE18201C
:10A2F000344CA36A9B0523D5E846354B30487B6137
:10A30000022307F110023B614FF4825108F057FE1F
:10A31000A36BA26A100412D588B06A462D4928485A
:10A32000C2E9051303234FF4C25142F8103F08F06D
:10A3300046FEC5461EB1A36A23F40043A36219205A
:10A34000204B9B6A59050BD5234B1D487B6102238B
:10A350004FF482513B6107F1100208F030FE1A20E1
:10A36000184B9A6AD20518D51C4B15487B610223FD
:10A370004FF482513B6107F1100208F020FE1B20D0
:10A38000104A1837936A43F47F43936200232B707B
:10A39000BD46BDE8F08116209AE79B6A9B04EFD585
:10A3A0000F4B07487B6102234FF482513B6107F159
:10A3B000100208F004FE1C20E2E700BF65680200FE
:10A3C000FC51020000ED00E07B680200D66702004D
:10A3D0008C680200A5680200BA680200D568020015
:10A3E0003668020010B586B002243E4B4FF482510D
:10A3F0003D4804AA0593049408F0E1FD3B4B9B6A99
:10A4000099016CD53A4B38484FF4825104AACDE9F2
:10A41000044308F0D4FD1E20344B9B6ADA010AD5B0
:10A42000344B3148059302234FF4825104AA04931C
:10A4300008F0C5FD1F202D4B9B6ADB020AD50224C4
:10A440002D4B29484FF4825104AA0593049408F037
:10A45000B6FD2046254B9B6A1C030AD5274B224894
:10A46000059302234FF4825104AA049308F0A7FD38
:10A4700021201E4B9B6A59030AD5214B1A4805938C
:10A4800002234FF4825104AA049308F098FD22207D
:10A49000164B9B6A9A030AD51A4B1348059302235D
:10A4A0004FF4825104AA049308F089FD23200F4B36
:10A4B0009B6ADB030AD5144B0B48059302234FF428
:10A4C000825104AA049308F07AFD2420074A936A73
:10A4D0006FEA03436FEA1343936206B010BD1D2079
:10A4E0009AE700BFED680200FC51020000ED00E0B9
:10A4F0000569020018690200326902005C69020005
:10A500007A6902009F690200B96902002DE9F047EB
:10A510009CB07A4B0546D3F804908A461446002630
:10A5200000AFC9F3080886F31188BFF36F8F02F0FC
:10A530007F43B3F17F4F25D1D30723D4500603D4F3
:10A5400011070FD401260FE06D4B4FF48251FB61D0
:10A5500002236C48BB6107F1180208F030FD14F0CB
:10A56000040400D0554600260023FB71A8F1030324
:10A57000092B00F2A280DFE803F007959891A0A0D4
:10A58000A0A0A09B3546EFE7E9464FF002085E4BDE
:10A5900007F11802FB614FF482515A48C7F818803E
:10A5A00008F00DFD0023554CFB71E36A9A070BD5AB
:10A5B000564BC7E906834FF48251524807F11802FF
:10A5C00008F0FDFC002438E0E36A002B01DA504B70
:10A5D000EFE7E36A5B00F5D54E4B07F11802C7E9D8
:10A5E00006834FF48251474808F0E9FC6369AA6981
:10A5F00043F480736361BFF34F8FBFF36F8F636961
:10A6000032F8022C23F480736361BFF34F8FBFF3E2
:10A610006F8F4DF602739A422BD188B02B686A4631
:10A620003D493848C2E9051303234FF4C25142F8AB
:10A63000103F08F0C4FCCD462C68FB79ABB968220A
:10A64000294607F108000AF08CFB7B6A002E50D0E7
:10A65000C3F3080222B96FEA53236FEA43237B62F4
:10A66000204607F10801FFF721FB7037BD46BDE822
:10A67000F087A36ADBB223B10120F91DFFF766FD65
:10A680000EE0A36A13F47F4F04D00120F91DFFF7F9
:10A69000FFFD05E0A36AB3F5803F93D3FFF7A2FE69
:10A6A0000446CAE70020F91DE8E70020F91DEEE79F
:10A6B0001A4BFB610223BB617DE7194A6C4619F412
:10A6C000F87F8AB0174B18BF13466A4616490D48E3
:10A6D000C2E90513A8F11003D3614FF4007313848A
:10A6E000124B4FF4115142F8103F08F068FCA54698
:10A6F00068E723F4FF7323F00103B0E700ED00E007
:10A70000126A0200FC510200356A02004C6A020023
:10A710006D6A02007B6A02009A6A0200B66A020051
:10A72000F9690200E4690200DA6A0200040000012B
:10A73000044B5A6942F010025A615A6942F480622D
:10A740005A61704700ED00E0EFF30880EFF30981F4
:10A7500001B57246FFF7DAFE01BD00BF00232021DC
:10A760000348C2180133412B82F80013F9D1704716
:10A7700000E100E0002080F31488BFF36F8F002019
:10A7800080F30A8880F30B88FEF79AFC00200E49BC
:10A790000860BFF34F8F0D4880F3088800F03EF843
:10A7A000202080F311880A484FF40061401880F39C
:10A7B0000988EFF314800221084380F31488BFF363
:10A7C0006F8FFFF75DFB000094ED00E090F200203A
:10A7D00050D90020BFF34F8F0549064BCA6802F4D9
:10A7E000E0621343CB60BFF34F8F00BFFDE700BFB4
:10A7F00000ED00E00400FA05002318460649D1F8F0
:10A800009020C2F30722934200DB7047C1F89830D2
:10A81000C1F8A0000133F6E700ED00E010B572B614
:10A82000002484F31388FFF7E7FF23464FF0FF303F
:10A830000C4A03F120010133102B42F82100F8D11A
:10A8400000234FF0FF30074A03F160010133102B62
:10A8500042F82100F8D162B6BFF34F8FBFF36F8F7C
:10A8600010BD00BF00E100E0084B9B6883420BD1A4
:10A87000EFF3058343B1064B5A6842F080525A60A9
:10A880005A6A22F400425A6205F022BFB8D500206D
:10A8900000ED00E01FB5094C094A23460121094893
:10A8A00000F02AF900230393074B0121E41A01A8C1
:10A8B0000193029400F02AF904B010BD00000420B6
:10A8C00080C50020245C020090C8002010B50C7ADE
:10A8D0000B6804F01F0223F01F031A43CB686409BE
:10A8E00023F01F03054943EA440343F00103C1F881
:10A8F0009800C1F89C20C1F8A03010BD00ED00E028
:10A9000080B500AF88B06A46074BC2E90530032323
:10A9100042F8103F00234FF4C2510448FEF760FE96
:10A920006FF01500BD4680BDF16A0200EC510200D7
:10A930002DE9F04F144606464FF0000987B05F4DF1
:10A9400000AF79607B68994535DAD6F80480B8F1B4
:10A95000000F54D0B8F11F0F1BD918F01F0F18D1DA
:10A96000D6F800B01BF01F0F13D1584608F058FB63
:10A97000824608EB0B00013808F052FB82451FD0DD
:10A980006FF0150A6C4688B06A464D49C2E9051A4F
:10A9900005E06C4688B06A464A4BC2E90539032394
:10A9A00042F8103F00234FF4C2514748FEF718FE0B
:10A9B000A5466FF0150420461C37BD46BDE8F08F54
:10A9C0001AF1160FDED05445DCDDC5F898A0D5F895
:10A9D0009C00C5F898A0D5F8A02020F01F0042F0F8
:10A9E0001F08D6E900211144904201F1FF3B1ED11E
:10A9F000D84508D131465FFA8AF008F01AFB09F110
:10AA000001090C369EE7C5F898A0D5F89C3021F0D6
:10AA10001F0103F01F030B433146C5F89C30E0B221
:10AA200008F007FB10F1160FC3D0441CE7E7013A0A
:10AA3000D845E0B222F01F02C5F898A008D1D5F899
:10AA4000A030314603F01F031343C5F8A030E7E7F9
:10AA5000D5F8A01001F01F010A43C5F8A020314627
:10AA600008F0E7FA10F1160FA3D0C5F898A0D5F8B2
:10AA70009C203B7C08F1FF3862F304033B74D5F85B
:10AA8000A0303A7C5B0863F347123A74D6E900328F
:10AA90001344BB6023F01F03441C4344A3EB0B038C
:10AAA000E0B223F01F030F287B6102D9FFF728FFD4
:10AAB000B8E707F10801FFF709FFB6E700ED00E08E
:10AAC0003A6B0200176B0200EC5102000522044BA6
:10AAD000C3F89420BFF34F8FBFF36F8F704700BF51
:10AAE00000ED00E0BFF35F8F0022024BC3F894201B
:10AAF000704700BF00ED00E010B5034C2278FFF76F
:10AB000017FF207010BD00BF22D600202DE9F74F9F
:10AB1000294D8A4606464FF00008AB46274FD045E0
:10AB20001BDAD6F80490B9F1000F3FD0316808461F
:10AB3000019108F075FA0199044609EB010001380A
:10AB400008F06EFA84424FF014021D4B08D002FB4D
:10AB500008F36FF015024BF8032003B0BDE8F08F47
:10AB600014F1160F2C60F8D01978A142F5DD02FB24
:10AB700008B0C7F89840C7F89840D7F89C4000F153
:10AB80000801007B64F304000871D7F8A0000C7979
:10AB9000400860F347140C71D7F89C1021F01F0196
:10ABA0006960D7F8A01021F01F01296108F10108A0
:10ABB00014350C36B3E700BF90CF002000ED00E065
:10ABC00022D6002038B50E4D2C68102C15D8002048
:10ABD000FFF788FF0B4B0C4AC3F8C020844205D115
:10ABE0000A4B00201C70FFF771FF38BD696801EB4C
:10ABF0000011FFF76BFE0130F0E74FF0FF30F4E794
:10AC0000305C020000ED00E0AAFF440022D60020E4
:10AC100008B5024B1B689847002008BDA4CF002050
:10AC2000034B044A1860937843F002039370704713
:10AC3000A4CF002094C50020F0B587B007460E468B
:10AC400014460021102268461D460AF097F8022398
:10AC50008DF80230054B2A4621466846CDE9047638
:10AC6000019306F00BF907B0F0BD00BF733002008E
:10AC700008B50649064821F00701C1F1005202F566
:10AC8000802207F03AFD002008BD00BFA3F4002099
:10AC900090F40020014805F093B900BFA4C500203E
:10ACA00038B505464FF0FF324FF0FF33094805F045
:10ACB0000DF92A460821084807F0ABFC044628B9DC
:10ACC00025B10AF06BF80C22044B1A50FFF7E2FF93
:10ACD000204638BDA4C5002090F400200C000000E0
:10ACE000B0B52E4800AFFEF7B3FF044610B36D4673
:10ACF00088B06A462A4BC2E90534032342F8103F64
:10AD000000234FF4C2512748FEF76AFCAD466D465A
:10AD100088B06A46244BC2E90534032342F8103F49
:10AD200000234FF4C2511F48FEF75AFCAD4620469F
:10AD3000BD46B0BD072008F00EF9044620B16D46AF
:10AD400088B06A46194BD6E71F2008F0FEF8044683
:10AD500020B16D4688B06A46154BCCE7072008F055
:10AD600005F9044620B16D4688B06A46114BC2E72A
:10AD7000012008F0F6F8044620B16D4688B06A4616
:10AD80000D4BB8E70121084608F0F7F80446002803
:10AD9000CDD06D4688B06A46084BACE7A04E0200A5
:10ADA0006C6B02008C510200606C0200956B02001B
:10ADB000C26B0200ED6B0200216C0200406C0200CD
:10ADC00070B50D4606490446411A4911402205480E
:10ADD00008F076F92B4601462046BDE8704018473A
:10ADE000BCCF0020504E020037B540230C460A4924
:10ADF0000093411A491105462346084A084808F0BD
:10AE00008BF9011E05DA2846234603B0BDE8304021
:10AE1000184703B030BD00BFBCCF00208331020013
:10AE2000504E020070B50022012104460520FFF7B4
:10AE30000DF80F4802F0DAFC0E4B984215D102F0E3
:10AE4000E5FC26690C49304607F000FD00280BDBC5
:10AE50000125B5642469084904F1200007F0F6FCD7
:10AE6000002801DB0020656570BD6FF00400FBE782
:10AE7000B1AE01000000AD0B585C020001460C238E
:10AE800000224B4370B50848C41848331844D4E92D
:10AE90001056226408F001F92DB132462B46BDE868
:10AEA00070400248184770BDBCCF0020504E0200D1
:10AEB00010B1012804D07047034B9B6C5B0701D194
:10AEC000FFF7DCBF704700BFBCCF002008B54FF0D4
:10AED0002003EFF3118183F31288BFF36F8F114AC0
:10AEE000136843F002001060DA0708D481F3118878
:10AEF000BFF36F8FBDE80840012002F097BC0A4BFA
:10AF0000D3F80C24D3F80C34DB07EFD5074808F04E
:10AF1000C4F881F31188BFF36F8FBDE808400020AB
:10AF2000FFF7ACBF14D000200050004004D0002038
:10AF30001FB500220123CDE902236B46084ACDF854
:10AF400000D0CDF804D008F015F9002805DB4FF447
:10AF500080420023684605F093F805B05DF804FBD5
:10AF60009B31020010B54FF02003EFF3118483F3FF
:10AF70001288BFF36F8F074A136823F00201DB07C3
:10AF8000116002D4012008F04DFF84F31188BFF353
:10AF90006F8F10BD14D000202DE9F041012207462B
:10AFA0003549D1E8EF3FC1E8E02F0028F9D133B9A6
:10AFB000324933484B60CB608A6007F05AFC7B1EF5
:10AFC000012B28D8012F06D12E4BD3F81C3403F0C7
:10AFD0000303022B1FD009F0C0FB0546E8B92A4B3A
:10AFE0001B78D3B102220646264BC3F80823254C12
:10AFF000DFF89880D4F81824D4F81834D20316D582
:10B0000003F00303022B01D0012F10D175B386F397
:10B010001188BFF36F8FBDE8F0814FF02003EFF38D
:10B02000118683F31288BFF36F8F0125DFE7C5B167
:10B030003046FEF72FFED4F81835DBB2012BD9D1FC
:10B04000D4F80421002AD5D00022C4F80421D4F871
:10B0500004210222C4F818252022C8F88021A36008
:10B06000C8E70021212005F013FBE4E70222054B8D
:10B07000C3F80423CFE700BFB8CF0020A8CF00203B
:10B08000DCCF00200050004049D6002000E100E065
:10B0900008B5074809F0DFFA38B10648FFF7C0FDE8
:10B0A0000448FDF7CDFE002008BD6FF01200FBE75D
:10B0B0008C4E0200B9B001000A2838B50446074D8D
:10B0C00004D1AB680D2128465B689847AB680348FC
:10B0D0005B68E1B29847204638BD00BF8C4E020045
:10B0E00030B5406801F01F04057BB2F5001F85B044
:10B0F00044EA451405D1204602F082FE002005B046
:10B1000030BD0025B2F5800FCDE9025514D1B3F161
:10B11000007F0CBF042305238DF808300023204650
:10B12000194602AA02F09CFC204B984238D101211A
:10B13000204602F01BFEE1E7B3F1C06F25D0B3F16A
:10B14000007F14BF012302238DF80830836823FA9F
:10B1500001F111F00101E1D1B2F1A07FDED104F0E3
:10B160001F03620903F180031DD1114A52F82330F5
:10B17000DB07D3D40DF107052946204602F0A2FDD6
:10B180000C4B984203D00395C8E70323DCE728461D
:10B1900002F0E6FD054B9842F5D06FF00B00AEE7EC
:10B1A0006FF01500ABE751F82330FFDE0000AD0B68
:10B1B000002584400400AD0B10B502F0C1FD04462B
:10B1C00068B902F095FD084B98420AD1214607481C
:10B1D00002F072FD224605213120FEF737FE0020E5
:10B1E00010BD6FF00400FBE70000AD0BF1B10100F2
:10B1F000430970B507D10B4B596821B101250C6883
:10B20000094E854001B970BD8A682A4002D0304697
:10B210004B6898471CB1236821461C46F2E7234639
:10B22000FAE700BF18D00020644E02002DE9FF416C
:10B23000476801F01F053B7B144645EA43150E465F
:10B2400028460DF1070102F03DFD14F4403F804611
:10B250000DD1284602F0FAFD3C4B984503D19DF8EC
:10B26000070002F077FD002004B0BDE8F081002364
:10B270002846194602AACDE9023302F0F1FB334B0E
:10B28000984214D1804503D19DF8070002F062FD79
:10B29000A3034CD540F206332340B3F5837F1AD085
:10B2A0000DD8062B18D005D8B3B1022B32D06FF0D1
:10B2B0001500D9E7B3F5807FF9D101230CE040F206
:10B2C0000222934228D0B3F5407F27D0B3F5007F08
:10B2D000EDD1022300E007238DF8083084F4803399
:10B2E000C3F30043E0068DF809304CBF0323C4F3D9
:10B2F000401321038DF80A3012D501237A68B34038
:10B3000093600022284602A902F05EFC0F4B98428F
:10B31000A9D0CCE70423DFE70523DDE70323DBE740
:10B32000620341BF01237A68B340D360E9E7E306D3
:10B330004FF000034CBF0324C4F340141A462846C0
:10B3400002A98DF8084002F08BFBDFE70000AD0B8F
:10B35000F8B5446800AFE369054606699847206A76
:10B3600007F082FF00281FDB33462046124A04F113
:10B37000080103F07DF9114B984217D06C4688B054
:10B380002B686A460E49C2E905134FF40073938394
:10B390000C4B42F8103F0C4800234FF4E251FEF7EB
:10B3A0001FF96FF00400A546BD46F8BD204603F026
:10B3B000C1F90020F8E700BF09B401000000AD0B9F
:10B3C000D06C020003000001BC51020070B544685B
:10B3D00023682046D3F80855D3F80C6503F0BAF972
:10B3E0003146284603F04CFC0546206A07F03CFF36
:10B3F000204603F09FF9034B9D4214BF6FF00F00EE
:10B40000002070BD0000AD0B0378012B08D0022B8B
:10B4100008D04BB9054B0B6201F1100004F00CBED3
:10B42000034BF8E7034BF6E7034BF4E70000AD0BE3
:10B430000100AE0B0200AE0B0100AD0B7FB511F0A9
:10B44000010342680FD1C1F3420101290ED0022944
:10B4500015D00D4A0592022204924FF482510B48F6
:10B4600004AAFEF7BDF86FF0150005E013684FF071
:10B47000CC720020C3F8242507B05DF804FB1368E4
:10B480004FF0C862F5E700BFF06C0200BC5102004B
:10B490002DE9F04F8DB01D46436800AFD0F81090F5
:10B4A000FB601B8BBA6080460C461422002107F11A
:10B4B0001C00D9F824A03B6109F060FC7D774FF0B7
:10B4C000FF324FF0FF33484604F0DAFD09F1100374
:10B4D0007B61002600220023786904F0D1FD354607
:10B4E000BB689E4201D3002440E0207A020700F1AD
:10B4F000C080BB6806F1010B9B45D4F800E00AD27E
:10B50000830708D4237D80EA030202F0010203F0DE
:10B5100004031A4307D025B90EF06043B3F1005F6E
:10B520003BD0002300E001236268396905EB020C7F
:10B530008C4523D96C468CB0D8F800106B46DA6184
:10B540003A694D48C3E9082140F203521A851A4668
:10B55000C3E90505494B42F8103F00234FF4515110
:10B560004748FEF73DF8A5466FF01B04484604F037
:10B5700063FD20463437BD46BDE8F08FC10706D4D1
:10B5800071460AEB05007B6009F0EBFB7B686268A3
:10B590002A4495B2002B58D1DDB900252368BB623F
:10B5A0006368227A3B6202F0010382F00202C2F376
:10B5B0004002F868520107F11C013B7703F0E8F8FC
:10B5C000304B984209D00B33984221D16FF00F04D1
:10B5D000CCE72B46C7F828A0E3E700234FF48042CE
:10B5E000786904F04DFD0346A8B16C4688B06A4600
:10B5F000254BC2E90536032342F8103F20480023BB
:10B600004FF4C251FDF7ECFF4046A546FFF7DEFEC2
:10B610006FF00404AAE7D9F820101A4A914210D01A
:10B620006C4688B06A461948D661C2E90501042112
:10B6300042F8101F4FF401511148FDF7D1FFA54604
:10B64000E6E7237ADB0703D400255E460C3447E7A0
:10B65000BB6A9A45F8D1264606E0A91A8DB2F06871
:10B660001AFA81F109F07DFB72680C3E9542F4D222
:10B67000EAE76FF0850479E7026D02000600000139
:10B68000BC5102000000AD0BCD6D0200F76D020051
:10B690002DE9F041534D544E00EB8101814202D11E
:10B6A0000020BDE8F081046804F07F03C4F3432761
:10B6B0007F2B4FEA144408BF4FF0FF33192C00F2E0
:10B6C0008280DFE804F00D13191C1F251C80808088
:10B6D00080365F80808080808080808062777A7D05
:10B6E000C2F80C355C1C5AD10430D7E7C2F81435C7
:10B6F0005C1CF9D000245BE0C2F80835F2E7C2F820
:10B700001035F5E75C1CC2F80835EDD0002404E0E4
:10B710005C1CC2F80C35E7D001245FEA531C55D1FC
:10B720004FF0010EDFF8BCC00EFA03F8CCF80C8025
:10B7300008E0C2F80835002FDAD15C1CD4D0002410
:10B740000627A646D0F8008008F4005CBCF1000F84
:10B750001CBF01244FF0000E03F01F0C5B093BD10E
:10B7600005EB8C0CDCF80032C8F3C118334043EA17
:10B77000880343EA072343EA0E0343EA4403CCF871
:10B780000032B1E7C2F80C35D5E7C2F86035B3F145
:10B79000FF3F0468A8D0C4F38034002CBCD05C09FF
:10B7A00017D10124DFF83CC004FA03FECCF808E00E
:10B7B000A646C7E7C2F86435E9E7C2F86835E6E7A8
:10B7C000C2F86C35E3E76FF085006AE70023DB60C1
:10B7D000FFDE00239B60FBE700230CF1800C53F895
:10B7E0002C30F5E700258440F0F8FCFF022ACCBF9E
:10B7F0006FF01502094B10B5D8BF33F9122004467B
:10B800000748D31781FB0001FCF79EFC054A90FB1B
:10B81000F2F3236002FB1303636010BD7464020043
:10B820003AA3950040420F002DE9F04184B0002377
:10B83000456802AF0446BB71286808F00CFF30B9B8
:10B840006FF0150528460837BD46BDE8F081E86869
:10B85000D0B901231F225221606807F0D4FF0546AA
:10B86000B8B16C4688B002AA4E4BC2E9053003233A
:10B8700042F8103F00234FF4C2514B48FDF7B0FE91
:10B88000A5466FF01205DDE708F0E5FE0028E0D1DF
:10B89000D6E74FF001080021A42004F0F9FECDF80E
:10B8A0000080BB1D02220B21606807F087FFBB7977
:10B8B000F22B0AD06C4688B002AA3C49C2E90513B3
:10B8C000032342F8103F2B46D5E766680223202267
:10B8D0004FF47A71304607F096FF00285ED1434658
:10B8E00022224146606807F08EFF002856D1CDF82D
:10B8F000008027220B216068FB1D07F05FFF0028F6
:10B900004CD1F979434601F0FD012722606841F0EE
:10B91000010107F078FF002840D10223232264218F
:10B92000606807F070FF002838D1022325224146C5
:10B93000606807F068FF88BBCDF8008027220B21E4
:10B940006068FB1D07F03AFF40BBF979434601F000
:10B95000F7012722606841F0040107F054FFE8B9BD
:10B96000012328220821606807F04DFFB0B9014685
:10B9700001232922606807F046FF78B90146204676
:10B9800007F04DFF50B90146204607F067FF28B980
:10B9900001232D22317E606807F035FF0028BFF6B5
:10B9A00051AF6EE7426E02004C5102006A6E020017
:10B9B000F0B505460E46144689B02AB1013A012A6F
:10B9C00025D96FF085004EE01B68B3F5C86F16D01F
:10B9D00008DCB3F5C87F14D0B3F5487F13D06FF0FF
:10B9E000150040E0B3F5486F0FD0B3F5C85FF6D14E
:10B9F0000421284609B0BDE8F04007F0ADBF0221A0
:10BA0000F7E71146F5E70121F3E70321F1E747687E
:10BA10005868D3F800E0DFF88CC0C11700231E4A35
:10BA2000CEFB0C01FCF790FB002903460A4602DA24
:10BA3000434261EB4102B3F5006F72F10002CEDACE
:10BA4000ADF80430BB8C022C14BF2A212321ADF8A1
:10BA50000630032E14D8DFE806F002080B0E01AA08
:10BA6000284607F02FFF09B0F0BD01AA0231F7E721
:10BA700001AA0431F4E7284601AA07F050FFF2E7D3
:10BA8000064B07930223069300234FF48251044888
:10BA900006AAFDF7A5FD94E7B9F60E008E6E02002A
:10BAA0005451020040420F002DE9F04F8BB0436823
:10BAB00000AF9B6905469847041E10DA224B7B6253
:10BAC00002233B6200234FF48251204807F12002F9
:10BAD000FDF786FD20462C37BD46BDE8F08FD5F832
:10BAE00010800021D8F8083028469B6807F10F0223
:10BAF0006E6898470446002840F07A81D8F80830EC
:10BB0000022128469B6807F1100298470446002846
:10BB100040F06E81F97B3B7CAD2901D1FA2B19D025
:10BB20006C4688B06A46D36104230948C2E905011E
:10BB300042F8103F00234FF401510448FDF750FD37
:10BB4000A5466FF01204C5E7B76E0200545102001B
:10BB5000D76E02000223014688F81030284607F00D
:10BB6000EFFE0446002840F0438101462846D5F800
:10BB7000109007F0E5FE0446002840F03981D9F81E
:10BB800008305222412128465B689847044621200C
:10BB9000002104F07DFD002C40F02A8196F81D90D4
:10BBA000D5F810A0A9F10401DAF808204B424B4166
:10BBB000D4683F21042228469B00A0470446002861
:10BBC00040F01681DAF80830382128465B6809F021
:10BBD000030298470446002840F00A8196F81C901A
:10BBE000D5F810A0A9F10C0253425341DAF808200D
:10BBF0003F21D46828460822DB00A04704460028DD
:10BC000040F0F680DAF808300722DC683E2128464A
:10BC100009F00703A0470446002840F0E9802846C1
:10BC2000B17F07F099FE0446002840F0E1802A69C0
:10BC300096F8323092689B00D4683D211C22284639
:10BC400003F01C03A0470446002840F0D1802A6975
:10BC500096F8203092689B01D4683E214022284605
:10BC600003F0C003A0470446002840F0C1802A69C1
:10BC700096F8333092685B01D4683F212022284631
:10BC800003F02003A0470446002840F0B1802321A0
:10BC9000284606F1220207F042FE0446002840F042
:10BCA000A7802A21284606F12A0207F038FE04461A
:10BCB000002840F09D802B6929219B6828465B68FD
:10BCC00096F8382098470446002840F09180D5F82F
:10BCD00010A0B6F83690DAF80830302128465B68B4
:10BCE0004FEA192298470446002840F08180DAF88C
:10BCF0000830312128465B685FFA89F2984704468C
:10BD0000002875D12A6996F8343092681B01D468EE
:10BD10003F211022284603F01003A04704460028C4
:10BD200066D1B6F8309096F82E30B9F5007F96F8C7
:10BD30002FB0D5F810A07B603FF603AF0146284630
:10BD400007F0FEFD0446002852D17B684FEACB0283
:10BD5000590001F0060102F038020A43DAF808102F
:10BD6000B9F1FF0F88BF42F001024C6828463A2122
:10BD7000A047044600283BD1DAF80820392154684E
:10BD800028465FFA89F2A047044688BB7B688AF898
:10BD90000DB08AF80C30AAF80E90D5F810903B211F
:10BDA000D9F8083028465B6896F8392096F83AA00A
:10BDB00098470446E0B9D9F8083052463C21284655
:10BDC0005B689847044698B9284696F8351007F0FE
:10BDD000B7FD044660B92A6998F8103092681B01D3
:10BDE000D4683E213022284603F03003A0470446A1
:10BDF000002CFFF6A6AE00246CE600BF30B5036948
:10BE0000032936D8DFE801F002101316B3F9003029
:10BE10004EF66B714B43184893FBF0F100FB113366
:10BE200011605360002030BDB3F90230F0E7B3F980
:10BE30000430EDE74EF66B74B3F900000E49604331
:10BE400090FBF1F501FB150015605060B3F902009D
:10BE5000604390FBF1F501FB15009560D060B3F9EC
:10BE60000430634393FBF1F001FB10331061536125
:10BE7000D8E76FF08500D6E740420F0010B5094AB9
:10BE8000036944689A60206808F0E5FB38B1E0680F
:10BE900008B9002010BD08F0DEFB0028F9D16FF0D2
:10BEA0001200F7E7845E02002DE9FF4700236A468F
:10BEB0000293CDE90033CDF80B301D210F23064648
:10BEC000046907F00AFE0028C0F241819DF80030A5
:10BED00023F07F0284F838209DF80E201B0602F024
:10BEE000100184F8391040F12B819DF807109DF85E
:10BEF00006500909B4F80EC041EA05119DF8055035
:10BF00004FEA4C0C41EA0531CCEBD10C4FEAEC7511
:10BF10004FEA5C0141EAC5714D43A1FB011A0AEBEE
:10BF2000450A94F91250090B41EA0A514FEA0519E2
:10BF3000ED174D434FEA2A3A09FB0A55A1FB099137
:10BF40002944B4F910504FEA993985FB0C5CED0A8D
:10BF500049EA814945EA4C554D44E56305EB8501C5
:10BF60006D10A5F57A454FEAA50A0AFB0AFA94F97D
:10BF70001EC04FEAEA290CFB09F9B4F91CC09DF870
:10BF800004309DF8038005FB0CFC9DF802E01B09C2
:10BF900043EA081343EA0E33B4F91AE04FEA4C0CB3
:10BFA0000CEBA90C4FEA0E4E0EEBAC0CC3F5801354
:10BFB000A3EB2C3340F6354CB4F916904FEA6A3AAD
:10BFC00005FB09F994F918500CFB03F36D010AFB0A
:10BFD00005F5ED1005EB6905AD14B4F8149005F501
:10BFE000004509FB05F5B3F1804F4FEAE535ADBFDC
:10BFF00093FBF5F35B0093FBF5F35B00DD106D4302
:10C000004FEA653CB4F92250B4F9208005FB0CFCE2
:10C010009D1008FB05F54FEA232E6D1305EB2C351B
:10C020000EFB0EFC0EFB0CFC94F824E080310EFBA2
:10C030000CFC05EB6C4594F91FC0091205EBCC15FF
:10C0400003EB25136425E36294F9063094F905C0E7
:10C050004B4393FBF5F34B4301FB0CFC9B119CFB07
:10C06000F5FC93FBF5F3BDF808006344B4F802C097
:10C0700003F580430CFB03F340BAB4F800C080B270
:10C08000A0EB0C1094F904C09B1201FB0CFC9CFB70
:10C09000F5FCA0EB6C00434394F90800A162414316
:10C0A00091FBF5F1E0794FF0050C01EBC01198130D
:10C0B00040430911801248434FF47A7103EB600347
:10C0C0009B124B4323491B1323EAE3738B42D4BFD8
:10C0D0002363216340F23C5500239DF80D7094F9D1
:10C0E000271002F00F00CCFB01531B49920951F8B5
:10C0F000201042EA8702A5FB015C01FB03C12D0C65
:10C10000D20345EA014512F17F4263EB0303521962
:10C1100043EB21434FEA214C10495F1051F82000B6
:10C12000A0FB055100FB0C116D0A500845EAC155F2
:10C1300040EAC370281847EB6121FCF705F86063FB
:10C1400055227421304607F0D0FC00EAE07004B0BC
:10C15000BDE8F087A0860100D45E0200945E020074
:10C160002DE9F0418CB005460669406800AF836850
:10C170001B689847041E18DA2B686D4688B06A461B
:10C180008B49C2E905134FF400739383894B42F83E
:10C19000103F00234FF4E2518748FDF721FAAD46E6
:10C1A00020463037BD46BDE8F0810123D021284626
:10C1B00006F1400207F091FC041EF1DB96F84030D6
:10C1C000612B12D06C4688B06A467C49C2E90513DF
:10C1D000032342F8103F00234FF4C2517648FDF785
:10C1E000FFF9A5466FF08504DAE717238A21284670
:10C1F0003A1DD5F8108007F070FC041ED0DB0E232A
:10C20000E121284607F11B0207F067FC041EC7DB8B
:10C2100005230021284607F1290207F05EFC041ED1
:10C22000BEDBB7F823307221A8F80E30BB88284651
:10C23000A8F81030BB7988F81230BB68C8F8143001
:10C240003B7B88F81830FB897A7FA8F81A303B8A44
:10C25000A8F81C307B8A5BBAA8F81E30FB8AA8F8C5
:10C2600020303B8BA8F82230BB7E88F824303B7FFF
:10C2700003F00F0343EA0213A8F800303B7FFA7E75
:10C280001B0943EA0213A8F80230BB7F012288F899
:10C290000430FB7F88F8053097F8203088F80630A6
:10C2A00097F8213088F8073097F8223088F808305E
:10C2B00097F8273088F80930B7F82530A8F80A3001
:10C2C00097F8283088F80C3097F8293088F826300D
:10C2D00097F82B30C3F3011388F8253097F92D30E8
:10C2E0001B1188F8273007F000FC041EFFF658AF3A
:10C2F00000227521284607F0F8FB041EFFF650AF18
:10C3000010227121284607F0F0FB041EFFF648AF0B
:10C310004FF4A072B6F90A30284603F5163303F23B
:10C32000991302FB03F11423B1FBF3F10A2301F586
:10C330004811B1FBF3F196F9093003F54473594301
:10C3400096F90C3003EB830303EB83024FF47A730B
:10C3500092FBF3F2120202EB6102832196F8253080
:10C360000433B2FBF3F296F926304B4303F58033E6
:10C37000B2FBF3F22223FA3A5A436423323292FB9D
:10C38000F3F25A21D2B207F0B0FB041EFFF608AF59
:10C3900071226421284607F0A8FB041EFFF600AFB7
:10C3A00055227421284607F0A0FB0446F8E600BF9A
:10C3B000076F020003000001845102001E6F02009B
:10C3C000F0B54B79012B26D0032B21D110258B7989
:10C3D000032B1DD1CE790EB1012E19D10A7912B1DC
:10C3E000022A15D10E220B684468B3F5164F276850
:10C3F00067D02DD8B3F5165F66D016D8B3F5966F13
:10C4000064D00AD8B3F5967F63D0B3F5167F63D0B6
:10C410006FF0850054E00025D9E7B3F5166F5ED0C4
:10C42000B3F5965FF4D1384B3CE0B3F5E14F59D00A
:10C4300007D8B3F5615F57D0B3F5964FE8D1334BCA
:10C4400030E047F61224A342E2D14FF4000329E082
:10C45000B3F5613F4AD013D8B3F5963F49D009D818
:10C460004DF6C024A34246D0B3F5614FD0D14FF46E
:10C470006B0317E0B3F5E13FCAD14FF0EB7311E066
:10C48000B3F5612F3AD008D8214CA34239D0B3F587
:10C49000E12FBDD14FF0E86304E01E4CA342B7D1B9
:10C4A0004FF080530469C7F82435436835431B684F
:10C4B0002A43C3F86C25231D03C983E80300002029
:10C4C000F0BD4FF41D03EDE7134BEBE74FF49E2354
:10C4D000E8E74FF4A033E5E74FF41C33E2E74FF40D
:10C4E0001D23DFE70D4BDDE70D4BDBE74FF06C73F2
:10C4F000D8E70C4BD6E74FF46503D3E74FF07063F2
:10C50000D0E74FF08063CDE700B0130000A04E00ED
:10C5100090D0030040420F000050270000C075007B
:10C5200000F03A0000903A012DE9F043804687B0D0
:10C53000002201210820FDF789FC0820FDF756FCA8
:10C540000021D8F80470D8F810603C686A46C4F836
:10C550000015C6F80080D7F80C90484606F094FE07
:10C56000051E25DB009BD9F8002019791868FFF714
:10C570008FF8051E1CDB4046311DFFF721FF0546E5
:10C58000B0B97B68990723D506F1180001F0C0F90E
:10C59000234B984210D0234B0593022304932B4640
:10C5A0006FF004054FF482511F4804AAFDF718F8F4
:10C5B000284607B0BDE8F083307E04F10C0204F594
:10C5C000907107F028FC0120337E984001F0B0F80C
:10C5D0000823C4F800353B7A53B9C4F81031D4F8B5
:10C5E00010317369C4F834350123C4F83835236039
:10C5F0007B689A075CBF4FF48073C4F804337B6890
:10C60000DB0644BF4FF48003C4F804333369C4F835
:10C6100044350023C4F848350123A360E360C7E72D
:10C620000000AD0B486F020014520200F8B504463A
:10C630000D46076908F091F8B0B92E4B1B789BB1F5
:10C640006426606807F0E8FA00BB012007F0E1FB10
:10C65000013EF6D10021212004F01AF8F0E786F31C
:10C660001188BFF36F8FF5E74FF02003EFF31186CA
:10C6700083F31288BFF36F8F6068314607F0CCFAFE
:10C6800090B986F31188BFF36F8FEDE74FF0200369
:10C69000EFF3118683F31288BFF36F8F6068314622
:10C6A00007F0BAFA0028DAD03B691D706268386971
:10C6B0001368C3F844050120C3F848050020C3F8F7
:10C6C0002001D3F82051C3F858015268D3F858011B
:10C6D000D20608D5082062681268C2F800054FF437
:10C6E0008002C3F8042301229A6081F31188BFF30A
:10C6F0006F8FF8BD49D600202DE9F04387B045681B
:10C7000000AFD5F8348006693A460021404606F06D
:10C71000BBFD041E1EDB3B68D8F8002019791868A1
:10C72000FEF7B6FF041E15DBA86B441C25D000F0F5
:10C7300029FB10F1130F044611D1364B4FF48251EF
:10C740007B61022334483B6107F1100207F0C5FA10
:10C750006FF0120420461C37BD46BDE8F083411D32
:10C760000BD12E4B4FF482517B6102232A483B614F
:10C7700007F1100207F0B1FAECE74FF00108EB6A9D
:10C780009847B568D6E9023203EBC2039D4204D351
:10C79000304607F0B9FA0024DCE7286807F05BFFB1
:10C7A000B0B92B686C468AB019686A462B79D36198
:10C7B0004FF400731A4813841A4BC2E905014FF471
:10C7C0001151154842F8103F07F087FAA546BFE718
:10C7D00028682979EB88D0F810C0DA07DCF8004027
:10C7E00054BF43F4B01383F4D01323F4801208FA37
:10C7F00001FEDB07D0F808904CBF44EA0E0424EA9F
:10C800000E04CCF80040D9F800309847041EA1DB94
:10C810000835B7E7816F02000C520200AC6F0200CE
:10C82000C96F020004000001F0B504690646A56C5A
:10C830004768236D85B03DB96BBB1946306905B0BB
:10C84000BDE8F04007F08ABA616C03BB31BB3A8E99
:10C85000636CAA4228BF2A460091A2651BB1A36C53
:10C86000002B18BF13460193E36C02931BB1236D99
:10C87000002B18BF1346002269463846039301F087
:10C88000FBFD0E4B984217D06FF00401D6E79D4296
:10C8900028BF1D46DAE71D46616CD8E701F060430A
:10C8A000B3F1005FD3D0082D28BF0825206E2A469B
:10C8B00008F057FA216ECAE705B0F0BD0000AD0BD5
:10C8C00010B503780C4686B0002B5ED18A6D42B954
:10C8D0004B6D6FF07301186906B0BDE8104007F0AA
:10C8E0003DBA8B6C5BB19A421ED9294B4FF48251F1
:10C8F00005930223274804AA049307F0EEF9236D59
:10C90000A26D5BB19A4227D9214B4FF48251059316
:10C910000223204804AA049307F0DFF9606D06B0F3
:10C92000BDE81040FFF780BF9B1A8B6473B94B6B57
:10C9300001F1480208334B638B6B04F13400013B77
:10C940008B63383107F0B6F96064D8E74B6C002B85
:10C95000D5D013444B64D2E79B1A23657BB9E36BB4
:10C9600004F150020833E363236C04F14001013BFE
:10C97000236404F13C0007F09DF9E064CEE7E36C2A
:10C98000002BCBD01344E364C8E706B010BD00BF52
:10C99000ED6F02000C5202002DE9F04F8DB000AF98
:10C9A000C7E90232436880467B608B8889469A04D7
:10C9B000046939D44FF0FF324FF0FF3304F1100017
:10C9C00003F05EFBC4F80490D8F804B0D8F810A0C7
:10C9D000DBF808303B609AF85D3023B1DAF80030BC
:10C9E000994500F01281B9F804C01CF4006F22D000
:10C9F0006B4B6FF085057B6202234FF482516948CF
:10CA00003B6207F1200207F068F923689B8813F462
:10CA1000005304D1636004F1100003F00DFB2846BD
:10CA20003437BD46BDE8F08FA369002BC2D16368DF
:10CA30009942BFD1C8E71CF0010F16D06D4688B0EF
:10CA4000D8F800306A4658495648C2E905134FF4F1
:10CA500000739383554B4FF4E25142F8103F07F0B7
:10CA60003CF9AD466FF01505CFE71CF0080F0BD071
:10CA70004F4B7B6202234FF482514A483B6207F1DD
:10CA8000200207F02AF9EDE7CCF34513082B01D07B
:10CA9000484BEEE7D9F800E0474B9E4501D8474B9D
:10CAA000E7E707F110050BF10C060FCE0FC596E86E
:10CAB0000F0085E80F003B68734528BF73469E460C
:10CAC0003F4B9E4511D23F4B9E4556D83E4B9E450F
:10CAD00055D83E4B9E4554D83D4B9E4553D83D4975
:10CAE0003D4B3E4A8E4588BF13461CF0020F7B62C9
:10CAF0000CF0040349D0002B14BF0323022387F852
:10CB00002830CCF3001387F82930DBF800301CF014
:10CB1000020FD3F8082532484FF00103CCF340014F
:10CB20004FEA521535D1002D40F021819340C3606A
:10CB30009AF85D302BB1584601F062FC00238AF868
:10CB40005D3053465846274A07F1100101F02AFC90
:10CB5000254B984254D06D4688B06A46234B4FF41B
:10CB6000C251C2E9053003230E4842F8103F07F0D6
:10CB7000B4F8AD466FF0040547E71D4BB5E71D4B14
:10CB8000B3E71D4BB1E71D4BAFE7003B18BF0123D7
:10CB9000B5E7002D40F0ED8093408360C8E700BF0B
:10CBA0000B7002000C52020025700200030000010D
:10CBB000477002006670020047E8010095700200AD
:10CBC00000127A00FF083D007F841E003F420F00E4
:10CBD0001FA107008FD0030048E8010090D0030098
:10CBE00000258440C1C801000000AD0BC6700200E2
:10CBF00000093D0080841E0040420F0020A1070074
:10CC00000123CAF800908AF85D30012384F85C3073
:10CC10007B68986B431C0ED000F0DEF874300AD1AC
:10CC2000554B4FF484517B62022354483B6207F119
:10CC3000200207F052F8FB68002B74D163630023D5
:10CC4000A36304F1480204F1380104F1340007F051
:10CC500031F8BB686064002B6DD1E363002323646B
:10CC600004F1500204F1400104F13C0007F022F805
:10CC70000023E0642068236348B183683BB101214D
:10CC8000083007F02DF82368186907F0DFFC4046EC
:10CC9000FFF7CAFD00221346A06B834253D1002345
:10CCA0001946256CA94255D1934238BF13462646F2
:10CCB0004FF4FA5202FB03F556F8203B4FF4004CB8
:10CCC0001B6840F2E730B5FBF3F50021C8354FF49F
:10CCD0007A720023E5FB0C01FBF786FA02460B464D
:10CCE000304603F0CDF900283BD0254B4FF482515C
:10CCF0007B62022321483B6207F1200206F0EDFF30
:10CD000000257868A56501F07BFB84F85D506FF025
:10CD10007301D8F8100007F021F8304603F0D8F975
:10CD20006FF0730571E6FB681B686363002B86D0A8
:10CD3000FB685B6884E7BB681B68E363002B8DD0EE
:10CD4000BB685B688BE7616B01EBC301496801332A
:10CD50000A44A2E7E06B00EBC100406801310344E4
:10CD6000A0E7256B15F1740F7FF44FAEC8E7C960DB
:10CD7000FFDE00239B60FBE7ED7002000C52020017
:10CD800017710200012330B585B08DF804300223FD
:10CD900005460DF107008DF80830039000F0E0FF24
:10CDA0000C4B044698420FD10023284602AA01A941
:10CDB00000F056FEA0420AD09DF8070000F0CAFF1E
:10CDC0006FF0040005B030BD6FF01200FAE70020EC
:10CDD000F8E700BF0000AD0BF8B5064607F07CF899
:10CDE00000210546304600F0C1FF730906F01F041C
:10CDF00029D1174B05F1804503EB8404D4F80022B8
:10CE0000144B05F54435134043F00C03C4F80032CD
:10CE100006F0CCFF07462B686BB10025304600F0CA
:10CE2000EFFFD4F800220B4B2846134043F00403D5
:10CE3000C4F80032F8BD06F0B9FFC01B0628EAD9D5
:10CE40006FF07305EAE70023803453F82430FFDEE7
:10CE500000258440F0F8FCFF0123834070B5DC43DB
:10CE60000B4AD2E8EF1F01EA0405C2E8E65F002E94
:10CE7000F7D14FF4803282400648C0F80823BFF350
:10CE80005F8FBFF36F8F0B4214BF0120002070BD76
:10CE9000B0D000200050014070B40E4922F07F460F
:10CEA000D1E90034D01AC31844F10004C1E90034B8
:10CEB000A6F50013B3F5400F09D2074B1B681A0AF9
:10CEC0001B069C19054B42F10005C3E9004570BCE7
:10CED00003F038BDA0CD0020B4D00020A8CD0020A4
:10CEE000D9B101230D4A8340D2E8EFCF4CEA030CBD
:10CEF000C2E8E1CF0029F7D14FF48033084A8340DC
:10CF0000C2F80433074BD3E8AF3FC340DB0742BF4F
:10CF10004FF40012044BC3F800217047B0D000203A
:10CF200000500140ACD0002000E100E00D4B18683B
:10CF3000010A0006BFF35F8F0B4BD3F804351818B6
:10CF400041F10001B3F5801F0AD2084BD3E9002359
:10CF5000904271EB030303D210F1807041F10001A4
:10CF6000704700BFB4D0002000500140A8CD002081
:10CF70002DE9F04F85B016461F4604469DF840A0A7
:10CF8000FFF76AFF0190FFF7D1FFB04271EB070393
:10CF900052D23B4B301A67EB0101984271F100010C
:10CFA0004DD2384B03EB0413D3E902239F4208BF51
:10CFB000964258D04FF48038334908FA04F8204696
:10CFC00026F07F4BC1F8488306F0E4FE4FF00309DA
:10CFD000584604F15005AD00ADB205F1804504F5A9
:10CFE000A87305F5A8350293029A20F07F4341F813
:10CFF0002230C1F84483D1F80435244AC01A0338DA
:10D0000020F07F4090422ED9286868B1D1F80435CD
:10D01000A3EB0B0020F07F40B0F5000F039322D963
:10D02000204606F0B7FE039BBAF1000F07D109EBCB
:10D03000030009F10109D7E7BAF1000F09D06FF039
:10D04000150520460199FFF74BFF284605B0BDE8BE
:10D05000F08F01230E4AA340D2E8EF0F1843C2E835
:10D06000E10F0029F8D107490E982301C8500F9B02
:10D0700001EB04120025C2E902675360E1E700BF3B
:10D080000100800090CD002000500140FDFF7F0096
:10D09000ACD000207FB500254FF0FF304FF0FF31BE
:10D0A000194C1A4B0226C4F80833C4F84833184BFD
:10D0B000C4F80855C3E902014FF480334FF400125D
:10D0C000C4F80433134B0121C4F804631520C3F8DA
:10D0D00080212A46FCF7BAFE1520FCF787FE0123C3
:10D0E0000D4AA360236013600C4B0D4A0093284641
:10D0F0000023CDE90155FFF73BFF3046FDF74CFF1C
:10D10000284604B070BD00BF0050014003000F006E
:10D1100090CD002000E100E0B0D0002099CE0100C9
:10D12000FFFF7F002DE9F7432E4BD3F80423900730
:10D130000BD5D3F8042142B10022C3F804212A4AB6
:10D14000D3F80431136801331360264AD2F804334C
:10D15000D90327D5254BD3E8EF1F21F00100C3E801
:10D16000E40F002CF7D1CB0702D4D2F84031CBB179
:10D1700000251C4CC4F84051D4F84031FFF7D6FECE
:10D180004FF02003EFF3118283F31288BFF36F8F08
:10D19000174BD3E90267B042B94106D282F3118836
:10D1A000BFF36F8F03B0BDE8F0834FF0FF38D3E9D2
:10D1B00000104FF0FF391D60C3E902894FF480333E
:10D1C000C4F84833C4F84051D4F8403182F3118890
:10D1D000BFF36F8F0029E5D0009032463B462846CA
:10D1E0008847DFE700500140B4D00020ACD00020D9
:10D1F00090CD00201FB5431C22D0012822DD124A09
:10D20000124B9042D4BF04461C46FFF78FFE104BD2
:10D210000E49D3E90023801AB0F5000F28BF00247F
:10D2200004448C4228BF0C4600200A49A218CDE9CC
:10D230000100009143F10003FFF79AFE04B010BD16
:10D24000024CE2E70124E0E7FEFF7F00FFFF7F00E2
:10D25000A0CD002099CE010008B5FFF767FE024B74
:10D260001B68C01A08BD00BFA0CD0020F0B50F4B51
:10D2700001461A680E4B0B25002618461F46B84279
:10D2800001D3013D04D11846013A19605A60F0BD3E
:10D2900004688C42FBD03CB14468141BA642BCBF5E
:10D2A000034626460830EAE70346ECE728D100208B
:10D2B00034D100200020054BC3E90000044BD3E823
:10D2C000EF2FC3E8E10F0029F9D170472CD10020DE
:10D2D00028D100202DE9F04F87B005460E4607F013
:10D2E000B3F920B96FF06D0007B0BDE8F08F07F01B
:10D2F00073FB33680446002B0F4604D103F046F954
:10D300006FF00A00F0E7BCBF4FF0FF33336001223B
:10D31000002101A807F047FAE84605954FF02003E1
:10D32000EFF3118B83F31288BFF36F8F07F036FD95
:10D33000DFF82CA1DFF82C915AF80000FFF796FFD8
:10D34000D9F8003042689A426FD10023434D0093D0
:10D350006B68002B70D1C5E900888BF31188BFF38F
:10D360006F8F33685A1C6CD04FF4004E40F2E73098
:10D37000002123EAE37C4FF47A720023CCFB0E01F8
:10D38000FAF732FF02460B4601A802F079FE4FF091
:10D390002003EFF3118B83F31288BFF36F8F00220A
:10D3A0002B685BB1434556D10099002A4DD16A687C
:10D3B00029609A4200D169600023009307F0EEFCD7
:10D3C0005AF80000FFF752FFD9F8003043608BF3A2
:10D3D0001188BFF36F8F07F037F9002882D03568C6
:10D3E0006B1C27D007F0F8FA4FF47A7EA0FB0E32C0
:10D3F0000EFB0121A4FB0E420EFB0722DB0BE40B0C
:10D4000043EA414344EA42441B1B4FEAD1314FEA0D
:10D41000E57C61EBD231ED1A6CEB010CBCF1000F35
:10D42000B8BF002535602DB96AE743608BF31188DA
:10D43000BFF36F8F002057E7C3F80080C5F8048062
:10D440008BE74FF0FF3213469EE7116069689942FF
:10D4500008BF6A60B0E71A461B68A2E72CD100201B
:10D460000800000028D10020024600B507F096FC15
:10D47000014B1A505DF804FB0C00000070B4046806
:10D48000094B2CB19C4203D303F17005AC4206D387
:10D49000064D2C78661C03EB04132E7003600068A5
:10D4A00070BC07F080B900BFB8D000203DD6002086
:10D4B00038B505460A4BD3E8EF1F0131C3E8E21F38
:10D4C000002AF8D1074B1C6804B938BD6369AB4228
:10D4D00000D015B9201D02F0AFFD2468F4E700BFAD
:10D4E00028D100202CD10020014600220023014831
:10D4F00007F00CB984D100200146014807F010B9AB
:10D5000084D10020014600220023014807F0FEB824
:10D510009CD100200146014807F002B99CD10020AF
:10D520007FB5FBF779FF074B059302230493064869
:10D5300000234FF4825104AAFCF752F80020FDF7B3
:10D5400049F900BF5E710200AC51020098B516495E
:10D5500000AF164801F086FF78B16C4688B06A4685
:10D56000134BC2E90530032342F8103F00234FF468
:10D57000C2511048FCF734F8A5460F490B4801F09A
:10D5800071FF78B16C4688B06A460C4BC2E9053031
:10D59000032342F8103F00234FF4C2510548FCF723
:10D5A0001FF8A546BD4698BDF4710200ED6C02005F
:10D5B00051720200E45102007E7202009672020073
:10D5C0002DE9F0411F46154B044693F800800D46A7
:10D5D0001646A2B0B8F1000F15D1684605F0F2FC6E
:10D5E0003A4631462846289BA0470446684605F03F
:10D5F00001FDB8F1000F02D0094802F0E1FC20461D
:10D6000022B0BDE8F0814FF0FF324FF0FF33044805
:10D6100002F05CFC0028E0D01F24F0E749D600208F
:10D620006CC8002070B5302692B006AB05460C469B
:10D6300032460021184607F0A1FBCDE90454CDE99C
:10D64000020654B1012304AA009200210448019368
:10D6500002AA00F007F812B070BD2046FBE700BF39
:10D660000001004030B401F50045B5F5803F039C52
:10D670000DD243EA0405FF2D09D844EA03241346DA
:10D6800044EA0142014630BC0348FFF799BF6FF0FE
:10D69000800030BC704700BF217C0100054AD2F8F1
:10D6A000883043F47003C2F88830BFF34F8FBFF364
:10D6B0006F8F704700ED00E030B50468ACB1B4FA8C
:10D6C00084F30122C3F11F03DBB29A4024EA020271
:10D6D000D0E8EF5FA54204D1C0E8EC2FBCF1000F09
:10D6E000F6D1EAD102480B7030BD0248FCE700BF1A
:10D6F0000000AD0B0200AD0B10B50368CB40DB079B
:10D7000010D401238B40026843EA0201D0E8EF4FB6
:10D71000944204D1C0E8EC1FBCF1000FF6D1F2D165
:10D72000014810BD0148FCE70000AD0B0400AD0B43
:10D73000014BC3F80405704700700140F7B504467B
:10D7400018B1012822D003B0F0BD0222264B0646B4
:10D75000C3F80823C3F80401D3F804210122DA60D6
:10D76000012342F21075204F8DF80730D4B1012CFF
:10D77000E9D1D7F80C3403F4803386BB002BE2D018
:10D78000012006F046FB013DF3D1DCE70022164BF9
:10D790000DF10706C3F80803C3F80021D3F80021F0
:10D7A0005860DDE7D7F8183403F480333EB9002B16
:10D7B000C9D0012006F02DFB013DF3D1C3E7D7F816
:10D7C000182402F003023270002BBCD09DF8070031
:10D7D0000128B8D106F01DFB013DC7D1B3E7D7F84A
:10D7E0000C2402F00102EEE700500040044B1A79CD
:10D7F00022B9012218601A71024870470248704726
:10D80000B4D100200000AD0B0C00AD0B08B5052015
:10D81000FCF70EFB10B90520FCF7E8FA0122024BD9
:10D82000C3F8182508BD00BF0050004008B510B16E
:10D8300001282ED008BD1C4AD2F81814D2F818348A
:10D84000C90317D503F00303022B05D0012B02D027
:10D850000020FFF773FF0123134AC2F81835002395
:10D86000C2F80431D2F804310223C2F80433012390
:10D870009360DFE7D2F81434DB07ECD5D2F81C3420
:10D8800003F00303013B012BE2D80223C2F8043367
:10D89000D0E70022044BC3F80021D3F80021C3F8DD
:10D8A00004031860C6E700BF0050004010B5164BD7
:10D8B000D3F8002152B10020C3F80001D3F80021B1
:10D8C0000122C3F80823114B1B6898470E4BD3F86D
:10D8D000042182B10022C3F80421D3F80421D3F833
:10D8E0001824D3F81824022102F00302012A03D1DC
:10D8F000C3F818159A6010BDC3F80813034B012034
:10D90000BDE810401B68184700500040B4D100200B
:10D9100001460148FFF7D0BE60C60020036803F04F
:10D920001F025B090260024818BF0020704700BF59
:10D9300000258440034BC0B2083033F81000C0F318
:10D940004010704764C60020034BC0B2083033F863
:10D950001000C0F34000704764C60020034BC0B203
:10D96000083033F81000400B704700BF64C6002039
:10D9700070B50D4C00F1080334F813300546DA0594
:10D980000E4607D5C3F3432304EBC302526854F891
:10D9900033309847A3682BB131462846E268BDE88A
:10D9A0007040184770BD00BF64C6002010B4134A11
:10D9B000C0B2083032F81030D9051CD5C3F343216A
:10D9C00023F4F85322F81030002002F10E0434F84A
:10D9D000023F13F4807F03D0C3F3432399420AD05C
:10D9E00001302028F3D1002342F8313004485DF89B
:10D9F000044BFFF781BE5DF8044B704764C60020FE
:10DA0000B8C6002001460020F0B501260746104B9D
:10DA1000104D114C5A19920806FA02F2114208D020
:10DA2000D3F800C0BCF1000F03D01F60D3F800C0D2
:10DA300010430433A342EDD1084BD3F87C2132B11B
:10DA40000022C3F87C21D3F87C3140F00040F0BDC7
:10DA50000011034000EFFCBF201103400010034001
:10DA60002DE9FF41044690461D4601B3FFF76CFFC8
:10DA700018B12046FFF75EFF28BB00230DF10F020F
:10DA8000CDE900338DF80E308DF80F3020460B466F
:10DA90000DF10E0106F0C8F94749E3B2083331F839
:10DAA000132022F0020242F0010221F81320B8F103
:10DAB000000F32D0204698F80060D8F80420FFF715
:10DAC00043FF10B1F2B13D4829E03B4FE0B20830CE
:10DAD00037F8101021F02001C904C90C27F81010E4
