:020000021000EC
:10800000F8E90020C18F010061010200958F010095
:10801000958F0100958F0100958F0100958F0100CC
:10802000000000000000000000000000818B010043
:10803000958F010000000000DD8A0100958F01008E
:10804000798C0100798C0100798C0100798C010018
:10805000798C0100798C0100798C0100798C010008
:10806000798C0100798C0100798C0100798C0100F8
:10807000798C0100798C0100798C0100798C0100E8
:10808000798C0100798C0100798C0100798C0100D8
:10809000798C0100798C0100798C0100798C0100C8
:1080A000798C0100798C0100798C0100798C0100B8
:1080B000798C0100798C0100798C0100798C0100A8
:1080C000798C0100798C0100798C0100798C010098
:1080D000798C0100798C0100798C0100798C010088
:1080E000798C0100798C0100798C0100798C010078
:1080F000798C0100798C0100798C0100798C010068
:10810000798C0100798C0100798C0100798C010057
:10811000798C0100798C0100798C0100798C010047
:10812000798C0100798C0100798C0100798C010037
:10813000798C0100798C0100798C0100798C010027
:04814000798C010035
:04814400FFFFFFFF3B
:108148007BB972B90029BEBF00204FF0004106E09C
:1081580008BF00281CBF6FF000414FF0FF3000F04F
:1081680057B8ADF1080C6DE904CE002909DB002BE6
:108178001ADB00F04FF8DDF804E0DDE9022304B073
:108188007047404261EB4101002B1BDB00F042F8D5
:10819800DDF804E0DDE9022304B0404261EB41016F
:1081A800524263EB43037047524263EB430300F0D0
:1081B80031F8DDF804E0DDE9022304B0404261EB68
:1081C80041017047524263EB430300F023F8DDF8A6
:1081D80004E0DDE9022304B0524263EB4303704735
:1081E80053B94AB9002908BF00281CBF4FF0FF3116
:1081F8004FF0FF3000F00CB8ADF1080C6DE904CE7B
:1082080000F008F8DDF804E0DDE9022304B0704767
:10821800704700BF2DE9F04786468C460846089E01
:10822800154674461946002B40F0C1808542B2FAC3
:1082380082F245D94AB1C2F1200300FA02FC954006
:1082480094402EFA03F343EA0C0C4FEA154EA8B2F9
:10825800230CBCFBFEF80EFB18CC08FB00F943EA24
:108268000C43994528D9EB1808F1FF3704D29945F2
:1082780002D9A8F102072B44A3EB0903A4B2B3FB6C
:10828800FEFC0EFB1C330CFB00F044EA0344A04246
:1082980014D92C190CF1FF3304D2A04202D9ACF145
:1082A80002032C44241A43EA07401EB1D440002399
:1082B80034607360BDE8F0874746DDE76346F1E761
:1082C80092BB431B01214FEA154EAFB2200CB3FB02
:1082D800FEFC0EFB1C330CFB07F840EA03439845F1
:1082E80061D9EB180CF1FF3004D2984502D9ACF1F2
:1082F80002002B44A3EB0803A4B2B3FBFEFC0EFB65
:108308001C330CFB07F744EA0344A7424DD92C1948
:108318000CF1FF3304D2A74202D9ACF102032C447A
:10832800E41B43EA0040C0E7C2F1200395409440B3
:1083380020FA03F12EFA03F34FEA154E9040AFB23C
:108348000343B1FBFEFC0EFB1C10190C0CFB07F8D9
:1083580041EA0041884522D969180CF1FF3004D25E
:10836800884502D9ACF102002944A1EB08019BB26F
:10837800B1FBFEFC0EFB1C110CFB07F743EA0143A3
:108388009F420ED9EB180CF1FF3104D29F4202D95B
:10839800ACF102012B44DB1B41EA004193E7604644
:1083A800E3E76146F7E76046A4E76346B8E7834238
:1083B80006D916B9002108467CE7C6E900E0F9E7C6
:1083C800B3FA83F78FB9834201D3724508D8BEEB5D
:1083D800020460EB030301209C461EB9002169E7F3
:1083E8003846FAE7C6E9004CF8E7C7F1200CBB406D
:1083F8000EFA07F522FA0CF42EFA0CF1BA401C43D7
:1084080020FA0CF3B8404FEA144901431FFA84FEDE
:10841800B3FBF9F809FB18300B0C08FB0EFA43EA1A
:1084280000439A4540D9E31808F1FF3004D29A4531
:1084380002D9A8F102002344A3EB0A0389B2B3FBD3
:10844800F9F809FB183308FB0EFE41EA03418E4593
:108458002CD9611808F1FF3304D28E4502D9A8F14E
:108468000203214443EA0040A1EB0E01A0FB02985D
:108478004145CE46434602D306D14D4504D2013884
:10848800B9EB020E68EB0403002EA7D0B5EB0E0281
:1084980061EB030101FA0CFC22FA07F3F9404CEAFC
:1084A8000303C6E9003199E74046C5E74346D9E7E3
:1084B800034613F8012B002AFBD1181A013870471C
:1084C800022A70B504460D46184611D8DAB1022DB5
:1084D80019886DD8B1F5006F6AD2022A4FF00203ED
:1084E80014BF232220226068BDE8704008F075BAE6
:1084F800052A04D003291CD96FF085005AE002230D
:1085080025220188EFE70329F6D84FF47A711D88F0
:108518005B6893FBF1F39BB255EA0301ECD0284961
:10852800088885423AD22046BDE87040D1B208F0AA
:108538007FBA072AE0D15B6805682248D917C5FBCE
:108548000031012B71F100021CDB00F56E1000F602
:108558005D70181841F1000117A3D3E90023FFF754
:10856800EFFD80B2022815D9042815D90828C3D8E8
:108578000222154B2046BDE8704003EB8203997830
:1085880008F037BA1148181861F100010AA3D3E9B5
:108598000023E4E70022ECE70122EAE702D1488859
:1085A8009842C0D20132062A01F10401B8D1A3E7EA
:1085B8006FF0150070BD00BF3AA3950000000000E1
:1085C8003E3C020040420F00323C0200632EB5FFE1
:1085D80038B5044C044DAC4200D338BD54F8043BC4
:1085E8009847F8E7D4290200E029020038B5054C7D
:1085F800256804EB850405B938BD54F80439013DF4
:108608009847F8E7C8290200014B1B68184700BFC4
:1086180080C50020014B1860704700BF80C500204E
:1086280030B585B004460D4610220021684609F091
:10863800EEFF02238DF80230044B2A462146684695
:10864800019306F03FF805B030BD00BF1186010068
:1086580080B505460E461746984605F023FD0346A5
:1086680009F0E6FF0446DFF81890424649F8003062
:1086780039463046A84754F8090000F017FD00BFF6
:10868800080000002DE9F047858B0446280790462E
:1086980011D4022905F0070540F0CD80204607F0E7
:1086A80054FC78B10138A18B042811D8DFE800F018
:1086B800C3106D85950001290CBF45F0100545F0E4
:1086C8002005A58388F31188BFF36F8FBDE8F08775
:1086D80001F0070AAA4500F0A6800027B9463E46E1
:1086E800A368002B00F0BD8041F00801A18388F346
:1086F8001188BFF36F8FA168002900F0BB800D6857
:10870800002900F0B780334652462046D1F804804D
:10871800C047002D76D02B6829461D46F0E701F0AA
:1087280007035A1F012A1BD8002221F00701062B34
:10873800276889B2C4E9002209D13B4603E0E28BED
:108748000132E2831B68002BF9D141F00201204677
:10875800A18307F0FAFB00287BD041F0200177E0E5
:10876800042B0AD121F0070189B22046A18307F022
:10877800ECFB10B141F02001A183A18B01F0070AA5
:10878800AA4550D00027B946AAE7236921F0070176
:1087980041F00601062DD3F80090A1832DD1B9F13F
:1087A800000F40D041F00801A18388F31188BFF37E
:1087B8006F8F20463949C84729E021F0070123690E
:1087C80041F0040189B2042DD3F80490A183E6D0C6
:1087D80000274FF0040A3E4682E721F0070123698B
:1087E80041F0050189B2052DD3F80890A183D6D0B0
:1087F80000274FF0050A3E4672E700274FF0060AA9
:108808003E466DE72B4687E7B9F1000FD1D14FF00F
:108818002003EFF3118883F31288BFF36F8FA38BC4
:1088280023F00803A383A58BEA062ED525F01003B1
:10883800A38305F00705A669A18B002EBFF66FAFCD
:1088480000232768C4E9003321F0070141F0010142
:10885800A183A18B4FF0000901F0070AAA457FF414
:108868003FAF002F9BD041F00801A18388F3118806
:10887800BFF36F8F002FC7D03D6839463346524645
:10888800204607F08EFB2F46F4E7AB067FF51AAFBC
:1088980025F02003A38305F00705FFE6D7FF0100B5
:1088A8000122024B0020C3F8402570470090034086
:1088B80020B1034B800143F001031847704700BF04
:1088C800A02A020002F06EBC034610B588B08DF8ED
:1088D80007300DF1070302930123094ACDE9051377
:1088E80010680393002207238DF810208DF81C30A0
:1088F800836802229C6802A94623A04708B010BDDD
:10890800F4C9002070B586B00E460DF10701054682
:108918001446FFF7D9FFC8B99DF807308DF80850FD
:1089280023EA06010A4B44EA0102186802AB0393E2
:1089380002238DF807208DF8092004938DF8143050
:10894800836801229C6803A94623A04706B070BD2E
:10895800F4C9002010B5044609F01DFB18B1002029
:10896800024B1C6010BD6FF01200FBE7F4C9002039
:10897800014910220A60704710ED00E072B64040CD
:1089880080F31188BFF36F8FBFF34F8F30BF62B68C
:10899800BFF36F8F704700BF72B6494081F31188EB
:1089A800BFF34F8F20BF80F3118862B6704700BFB6
:1089B80040B2002807DB01234109034A00F01F00E9
:1089C800834042F82130704700E100E040B20028BF
:1089D8000CDB01220649430900F01F0082402033C6
:1089E80041F82320BFF34F8FBFF36F8F704700BF4D
:1089F80000E100E0054B420953F82220012300F072
:108A08001F0003FA00F01040704700BF00E100E0CB
:108A180040B2002801F10101ACBF00F16040064BF3
:108A28004FEA4111C9B2ABBF00F5614000F00F0039
:108A380080F800131954704714ED00E030BFFFF7B9
:108A4800FDBF00BF144A08B5144B22F07F029A609C
:108A5800BFF34F8FBFF36F8FD3F8882022F47002D3
:108A6800C3F88820D3F8882042F4A002C3F88820ED
:108A78004FF04042C3F83422BFF34F8FBFF36F8FDC
:108A88000023E1EE103A04F0ABFD05F075FB00F0B1
:108A980087FA04F0EFFD00BF0080010000ED00E060
:108AA800094A0A49936809685867996708494B68E9
:108AB80043F080534B60002383F31188BFF36F8F1B
:108AC8009368986F704700BF24D00020BC3902001B
:108AD80000ED00E025498A6882F8BDE04FF03000DB
:108AE8001044EFF3098C80E8F01F1EF0100F03D13B
:108AF80002F17C0080EC108A202080F31288BFF3FA
:108B08006F8F1B4F4FF000668A698A603E604FF096
:108B1800700414192068174C206092F9BDE0506F5A
:108B28000023536780F311881EF0100F03D0002331
:108B3800E1EE103A03E002F17C0090EC108AEFF3CA
:108B4800148323F0040383F31488BFF36F8F02F1B7
:108B5800300090E8F01F8CF3098802F1000004B59A
:108B680007F001FBBDE804407047000024D0002056
:108B780004ED00E0F8C900201EF0040F0CBFEFF36D
:108B88000880EFF30980816911F8021C0229FFD0DF
:108B980001B507F0D9FA01BD42F8203C009B0D4908
:108BA80042F81C3C019B21F0010142F8183C029B51
:108BB80042F8081C42F8143C4FF0807342F8043C19
:108BC800002343674FF43C43203A0265C0F8BC30A9
:108BD800704700BF59860100114B9B6883421BD127
:108BE800EFF30580C0B94FF02002EFF3118182F353
:108BF8001288BFF36F8F1A7B22F002021A73EFF309
:108C0800148323F0040383F31488BFF36F8F81F375
:108C18001188BFF36F8F70476FF01500704700BF62
:108C280024D000200023E1EE103AEFF3148323F060
:108C3800040383F31488BFF36F8FBFF36F8F0A4B5E
:108C4800046F9860094B1C60036E83F30B88104611
:108C580081F30988002163B681F31188BFF36F8F10
:108C680000220023FFF7F4FC24D00020F8C90020DC
:108C780001B5EFF30580A0F110004FEAC0000449E8
:108C8800014409C99847BDE8014002490847000066
:108C9800C0270200FD8C0100114B124A2DE9F0415A
:108CA800D518013DB5FBF3F5DFF844805D430E4B65
:108CB800074608EB0304013CB4FBF3F403FB04543C
:108CC8000E1B3046094909F095FC701942460021EF
:108CD800083E09F09CFC3E6704F10800BDE8F081FD
:108CE800010000000000000004000000902A0200BB
:108CF80008000000044B99689869884203D003492A
:108D08004FF080520A60704724D0002004ED00E044
:108D1800154B9A6A12F0007F9A6A14BF1E201D2014
:108D280012F0807F9A6A18BF1F2012F4801F9A6A77
:108D380018BF022012F4002F9A6A18BF212012F4DB
:108D4800802F9A6A18BF222012F4003F9A6A18BF2F
:108D5800232012F4803F9A6A18BF24206FEA024247
:108D68006FEA12429A62704700ED00E010B5194BA5
:108D78000246986A9C6A10F4805F14BF1720162078
:108D880014F4006F9C6A18BF1820A40509D5986BC5
:108D9800986A000404D51AB19A6A22F400429A62C9
:108DA80019200C4B9A6A12F4806F9A6A18BF1A201D
:108DB800D2050CD49B6A13F4005F18BF1C20054A27
:108DC800936A43F47F43936200230B7010BD1B200A
:108DD800F5E700BF00ED00E010B51C4B0246986AAD
:108DE8009C6A10F0100F14BF1120102014F0080F07
:108DF8009C6A18BF1220A40709D5586B986A000608
:108E080004D51AB19A6A22F080029A6213200F4B95
:108E18009A6A12F0010F9A6A18BF142012F0200FF4
:108E28009A6A18BF1520D40658BF9B6A074B9A6ADE
:108E3800920642BF5A6A22F400525A629A6A42F073
:108E4800FF029A6200230B7010BD00BF00ED00E026
:108E580070B5474B05465B6800269CB0C3F3080312
:108E680086F31188BFF36F8F02F07F40B0F17F4F18
:108E780016D1D00714D4540603D4100704D40126FD
:108E880004E012F0040200D00D4600260022033B45
:108E98008DF80720032B05D8DFE803F01E5C605926
:108EA8003546F3E700249DF807309BB96822294628
:108EB80002A809F09FFB099B002E53D0C3F30802B8
:108EC80022B96FEA53236FEA43230993204602A984
:108ED80007F038F91CB070BD254BDA6A9107E1D468
:108EE800DA6A002ADEDBDA6A5200DBD55A69A96938
:108EF80042F480725A61BFF34F8FBFF36F8F5A6984
:108F080031F8021C22F480725A61BFF34F8FBFF30D
:108F18006F8F4DF60272914201D12C68C3E79A6AAD
:108F2800D2B232B101200DF10701FFF755FF044617
:108F3800B9E79A6A12F47F4F05D001200DF10701B5
:108F4800FFF714FFF3E79B6AB3F5803FAAD3FFF757
:108F5800DFFEECE700200DF10701E6E700200DF148
:108F68000701EDE723F4FF7323F00103ADE700BF2A
:108F780000ED00E0044B5A6942F010025A615A6948
:108F880042F480625A61704700ED00E0EFF3088018
:108F9800EFF3098101B57246FFF75AFF01BD00BF23
:108FA800002320210348C2180133412B82F8001303
:108FB800F9D1704700E100E0002080F31488BFF386
:108FC8006F8F002080F30A8880F30B88FFF77AFC04
:108FD80000200E490860BFF34F8F0D4880F30888C2
:108FE80000F03EF8202080F311880A484FF4006111
:108FF800401880F30988EFF314800221084380F3B6
:109008001488BFF36F8FFFF71DFD000094ED00E09B
:10901800F8E90020B8D00020BFF34F8F0549064B70
:10902800CA6802F4E0621343CB60BFF34F8F00BFFE
:10903800FDE700BF00ED00E00400FA050023184634
:109048000649D1F89020C2F30722934200DB70470B
:10905800C1F89830C1F8A0000133F6E700ED00E050
:1090680010B572B6002484F31388FFF7E7FF234690
:109078004FF0FF300C4A03F120010133102B42F866
:109088002100F8D100234FF0FF30074A03F16001B7
:109098000133102B42F82100F8D162B6BFF34F8F8D
:1090A800BFF36F8F10BD00BF00E100E0084B9B6865
:1090B80083420BD1EFF3058343B1064B5A6842F064
:1090C80080525A605A6A22F400425A6204F0F0BF91
:1090D80024D0002000ED00E01FB5094C094A2346C2
:1090E8000121094800F0EAF800230393074B012106
:1090F800E41A01A80193029400F0EAF804B010BD44
:109108000000042080C50020F833020030C8002089
:1091180010B50C7A0B6804F01F0223F01F031A43E2
:10912800CB68640923F01F03054943EA440343F06D
:109138000103C1F89800C1F89C20C1F8A03010BD07
:1091480000ED00E02DE9F04F0F46144606464FF0BB
:1091580000084E4D85B0B84580F29480D6F804904A
:10916800B9F1000F36D0B9F11F0F40F2898019F01C
:109178001F0F40F08580D6F800A01AF01F0F7FD18E
:10918800504607F027F8834609EB0A00013807F034
:1091980021F8834574D11BF1160F71D05C456FDD42
:1091A800C5F898B0D5F89C10C5F898B0D5F8A03097
:1091B80021F01F0143F01F0AD6E900321A449942F0
:1091C80002F1FF391ED1CA4508D131465FFA8BF04A
:1091D80007F009F808F101080C36BCE73146C5F874
:1091E80098B0D5F89C3022F01F0203F01F031343F8
:1091F800C5F89C30E0B206F0F6FF10F1160F3FD02C
:10920800441CE7E7C5F898B0D5F8A020013B23F047
:109218001F0302F01F021343CA453146E0B2C5F8E6
:10922800A030E8D006F0DFFF10F1160F28D0C5F8FF
:1092380098B0D5F89C209DF808300AF1FF3A62F3FF
:1092480004038DF80830D5F8A0309DF808205B0895
:1092580063F347128DF80820D6E9003213440093CF
:1092680023F01F03411C5344A3EB0903C8B223F0A6
:109278001F030F28039303D86946FFF749FFBFE789
:109288006FF01504204605B0BDE8F08F00ED00E052
:109298000522044BC3F89420BFF34F8FBFF36F8FA1
:1092A800704700BF00ED00E0BFF35F8F0022024B64
:1092B800C3F89420704700BF00ED00E010B5034CE0
:1092C8002278FFF73FFF207010BD00BF8AD0002032
:1092D8002DE9F74F294D8A4606464FF00008AB4660
:1092E800274FD0451BDAD6F80490B9F1000F3FD0CC
:1092F80031680846019106F06DFF0199044609EBB3
:109308000100013806F066FF84424FF014021D4B3D
:1093180008D002FB08F36FF015024BF8032003B0E6
:10932800BDE8F08F14F1160F2C60F8D01978A1421F
:10933800F5DD02FB08B0C7F89840C7F89840D7F8A1
:109348009C4000F10801007B64F304000871D7F821
:10935800A0000C79400860F347140C71D7F89C10F2
:1093680021F01F016960D7F8A01021F01F012961C1
:1093780008F1010814350C36B3E700BFFCC900201A
:1093880000ED00E08AD0002038B50E4D2C68102C76
:1093980015D80020FFF788FF0B4B0C4AC3F8C020F4
:1093A800844205D10A4B00201C70FFF771FF38BDBD
:1093B800696801EB0011FFF7ABFE0130F0E74FF0F1
:1093C800FF30F4E70434020000ED00E0AAFF440097
:1093D8008AD0002008B5024B1B689847002008BDBA
:1093E80010CA0020034B044A1860937843F0020324
:1093F8009370704710CA002084C5002008B506493C
:10940800064821F00701C1F1005202F5802206F05A
:1094180044FD002008BD00BF0BEC0020F8EB002045
:10942800014804F0BDBA00BF94C5002038B5054610
:109438004FF0FF324FF0FF33094804F037FA2A465D
:109448000821084806F0B5FC044628B925B109F0FA
:10945800EFF80C22044B1A50FFF7E2FF204638BD04
:1094680094C50020F8EB00200C00000008B50D485A
:10947800FFF770FAA8B9072006F048FE88B91F2040
:1094880006F03EFE68B9072006F04BFE48B90120F9
:1094980006F042FE28B9BDE808400121084606F05A
:1094A80047BE08BD3427020070B50D46064904467C
:1094B800411A49114022054806F0D3FE2B460146C1
:1094C8002046BDE87040184728CA0020E42602005C
:1094D80037B540230C460A490093411A49110546FD
:1094E8002346084A084806F0E9FE011E05DA284620
:1094F800234603B0BDE83040184703B030BD00BF75
:1095080028CA002031030200E426020070B50022B8
:10951800012104460520FFF77BFA0F4801F0EAFE17
:109528000E4B984215D101F0F5FE26690C493046DC
:1095380006F05CFD00280BDB0125B56424690849A9
:1095480004F1200006F052FD002801DB00206565CB
:1095580070BD6FF00400FBE7A19501000000AD0BA2
:109568002C34020001460C2300224B4370B50848F6
:10957800C41848331844D4E91056226406F05EFE35
:109588002DB132462B46BDE870400248184770BDE1
:1095980028CA0020E426020010B1012804D0704730
:1095A800034B9B6C5B0701D1FFF7DCBF704700BF23
:1095B80028CA002008B54FF02003EFF3118183F388
:1095C8001288BFF36F8F114A136843F002001060CE
:1095D800DA0708D481F31188BFF36F8FBDE808401C
:1095E800012001F0A7BE0A4BD3F80C24D3F80C34A1
:1095F800DB07EFD5074806F021FE81F31188BFF39A
:109608006F8FBDE808400020FFF7ACBF80CA00207C
:109618000050004070CA00201FB500220123CDE988
:1096280002236B46084ACDF800D0CDF804D006F0E6
:1096380074FE002805DB4FF480420023684604F0DE
:109648000FFA05B05DF804FB4903020010B54FF0AE
:109658002003EFF3118483F31288BFF36F8F074A57
:10966800136823F00201DB07116002D4012008F01F
:1096780079F884F31188BFF36F8F10BD80CA00207A
:109688002DE9F041012207463549D1E8EF3FC1E80D
:10969800E02F0028F9D133B9324933484B60CB6009
:1096A8008A6006F0B6FC7B1E012B28D8012F06D154
:1096B8002E4BD3F81C3403F00303022B1FD008F001
:1096C800ECFC0546E8B92A4B1B78D3B102220646C2
:1096D800264BC3F80823254CDFF89880D4F81824C3
:1096E800D4F81834D20316D503F00303022B01D0A3
:1096F800012F10D175B386F31188BFF36F8FBDE8C2
:10970800F0814FF02003EFF3118683F31288BFF343
:109718006F8F0125DFE7C5B13046FFF73DF9D4F873
:109728001835DBB2012BD9D1D4F80421002AD5D0C1
:109738000022C4F80421D4F804210222C4F8182510
:109748002022C8F88021A360C8E70021212004F066
:109758008FFCE4E70222054BC3F80423CFE700BFE0
:1097680024CA002014CA002048CA00200050004023
:10977800B1D0002000E100E008B5074808F00BFC74
:1097880038B10648FFF72EFE0448FEF743FF0020D5
:1097980008BD6FF01200FBE720270200A99701001F
:1097A8000A2838B50446074D04D1AB680D21284670
:1097B8005B689847AB6803485B68E1B29847204606
:1097C80038BD00BF2027020030B5406801F01F04F3
:1097D800057BB2F5001F85B044EA451405D1204643
:1097E80002F092F8002005B030BD0025B2F5800FD8
:1097F800CDE9025514D1B3F1007F0CBF0423052332
:109808008DF8083000232046194602AA01F0ACFE64
:10981800204B984238D10121204602F02BF8E1E78D
:10982800B3F1C06F25D0B3F1007F14BF0123022329
:109838008DF80830836823FA01F111F00101E1D1B4
:10984800B2F1A07FDED104F01F03620903F18003A7
:109858001DD1114A52F82330DB07D3D40DF1070587
:109868002946204601F0B2FF0C4B984203D00395DD
:10987800C8E70323DCE7284601F0F6FF054B9842CA
:10988800F5D06FF00B00AEE76FF01500ABE751F8BD
:109898002330FFDE0000AD0B002584400400AD0B33
:1098A80010B501F0D1FF044668B901F0A5FF084BD7
:1098B80098420AD12146074801F082FF2246052135
:1098C8003120FFF7A5F8002010BD6FF00400FBE77A
:1098D8000000AD0BE1980100430970B507D10B4BAF
:1098E800596821B101250C68094E854001B970BD40
:1098F8008A682A4002D030464B6898471CB12368D2
:1099080021461C46F2E72346FAE700BF84CA002036
:10991800F82602002DE9FF41476801F01F053B7B4F
:10992800144645EA43150E4628460DF1070101F095
:109938004DFF14F4403F80460DD1284602F00AF846
:109948003C4B984503D19DF8070001F087FF0020A4
:1099580004B0BDE8F08100232846194602AACDE9E3
:10996800023301F001FE334B984214D1804503D1F4
:109978009DF8070001F072FFA3034CD540F20633AF
:109988002340B3F5837F1AD00DD8062B18D005D8FD
:10999800B3B1022B32D06FF01500D9E7B3F5807F51
:1099A800F9D101230CE040F20222934228D0B3F50A
:1099B800407F27D0B3F5007FEDD1022300E00723D5
:1099C8008DF8083084F48033C3F30043E0068DF843
:1099D80009304CBF0323C4F3401321038DF80A3028
:1099E80012D501237A68B34093600022284602A961
:1099F80001F06EFE0F4B9842A9D0CCE70423DFE7B5
:109A08000523DDE70323DBE7620341BF01237A680F
:109A1800B340D360E9E7E3064FF000034CBF0324EB
:109A2800C4F340141A46284602A98DF8084001F0EC
:109A38009BFDDFE70000AD0B38B544680569E369B5
:109A48009847206A06F0FAFC00280DDB2B462046D2
:109A5800074A04F1080102F08FFB064B984204D133
:109A6800204602F0EBFB002038BD6FF00400FBE756
:109A7800BD9A01000000AD0B70B54468236820460C
:109A8800D3F80855D3F80C6502F0E8FB31462846B0
:109A980002F07AFE0546206A06F0D0FC204602F065
:109AA800CDFB034B9D4214BF6FF00F00002070BD2B
:109AB8000000AD0B0378012B08D0022B08D04BB95E
:109AC800054B0B6201F1100003F0A6BF034BF8E74A
:109AD800034BF6E7034BF4E70000AD0B0100AE0BB8
:109AE8000200AE0B0100AD0B2DE9F04F9146142298
:109AF8001D4643688BB0066901931B8B80460C4654
:109B08000DEB02000021D6F824A0029308F07FFD97
:109B18008DF815504FF0FF324FF0FF33304603F009
:109B28009FFF06F1100300930027002200230098EE
:109B380003F096FF3D46DFF818B14F4501D30024E6
:109B48005BE0207A02077BD401374F4521680AD2AF
:109B5800830708D4237D80EA030202F0010203F0A0
:109B680004031A4307D025B901F06043B3F1005F3D
:109B780018D0002300E00123D4F804E0029A05EB92
:109B88000E0C94455FD8C20706D472460AEB05004E
:109B9800039308F02FFD039B62682A4495B2002BBB
:109BA80039D1D5B90025236808936368227A0693CA
:109BB80002F0010382F00202C2F34002019852014E
:109BC80005A98DF8143002F067FB584509D01F4BE2
:109BD800984210D16FF00F040FE02B46CDF820A06B
:109BE800E4E74FF480420023009803F039FF58B1AE
:109BF8004046FFF741FF6FF00404304603F00CFFC6
:109C080020460BB0BDE8F08F336A5B45F3D1237A69
:109C1800DB0702D400250C348FE7089B9A45F9D15D
:109C2800234608E0A91AD8688DB21AFA81F103937D
:109C380008F0E0FC039B5A680C3B9542F2D2E9E736
:109C48006FF08504D9E76FF01B04D6E70B00AD0B66
:109C58000000AD0B2DE9F041534D544E00EB81014E
:109C6800814202D10020BDE8F081046804F07F033E
:109C7800C4F343277F2B4FEA144408BF4FF0FF3348
:109C8800192C00F28280DFE804F00D13191C1F253F
:109C98001C80808080365F8080808080808080808B
:109CA80062777A7DC2F80C355C1C5AD10430D7E74C
:109CB800C2F814355C1CF9D000245BE0C2F8083502
:109CC800F2E7C2F81035F5E75C1CC2F80835EDD0AC
:109CD800002404E05C1CC2F80C35E7D001245FEADC
:109CE800531C55D14FF0010EDFF8BCC00EFA03F833
:109CF800CCF80C8008E0C2F80835002FDAD15C1CDB
:109D0800D4D000240627A646D0F8008008F4005CCA
:109D1800BCF1000F1CBF01244FF0000E03F01F0C14
:109D28005B093BD105EB8C0CDCF80032C8F3C11899
:109D3800334043EA880343EA072343EA0E0343EA2E
:109D48004403CCF80032B1E7C2F80C35D5E7C2F8C5
:109D58006035B3F1FF3F0468A8D0C4F38034002C09
:109D6800BCD05C0917D10124DFF83CC004FA03FE1B
:109D7800CCF808E0A646C7E7C2F86435E9E7C2F8B8
:109D88006835E6E7C2F86C35E3E76FF085006AE707
:109D98000023DB60FFDE00239B60FBE700230CF160
:109DA800800C53F82C30F5E700258440F0F8FCFFD0
:109DB800022ACCBF6FF01502094B10B5D8BF33F992
:109DC800122004460748D31781FB0001FEF7B8F9B3
:109DD800054A90FBF2F3236002FB1303636010BD96
:109DE8002C3C02003AA3950040420F00F7B5054607
:109DF8000E4614462AB1013A012A25D96FF085008A
:109E08004EE01B68B3F5C86F16D008DCB3F5C87F01
:109E180014D0B3F5487F13D06FF0150040E0B3F5C8
:109E2800486F0FD0B3F5C85FF6D10421284603B0B8
:109E3800BDE8F04006F01BBF0221F7E71146F5E741
:109E48000121F3E70321F1E747685868D3F800E0F8
:109E5800DFF86CC0C1170023184ACEFB0C01FEF7CF
:109E68006FF9002903460A4602DA434261EB4102D0
:109E7800B3F5006F72F10002CEDAADF80430BB8C96
:109E8800022C14BF2A212321ADF80630032EB5D8A1
:109E9800DFE806F002080B0E01AA284606F09DFE30
:109EA80003B0F0BD01AA0231F7E701AA0431F4E7D3
:109EB800284601AA06F0BEFEF2E700BFB9F60E007A
:109EC80040420F0030B50369032936D8DFE801F0B6
:109ED80002101316B3F900304EF66B714B43184855
:109EE80093FBF0F100FB113311605360002030BD8B
:109EF800B3F90230F0E7B3F90430EDE74EF66B74CE
:109F0800B3F900000E49604390FBF1F501FB150021
:109F180015605060B3F90200604390FBF1F501FB56
:109F280015009560D060B3F90430634393FBF1F0FA
:109F380001FB103310615361D8E76FF08500D6E755
:109F480040420F0010B5094A036944689A602068C6
:109F580008F021F838B1E06808B9002010BD08F011
:109F68001AF80028F9D16FF01200F7E7503602000E
:109F78002DE9FF4700236A460293CDE90033CDF867
:109F88000B301D210F230646046907F0A3F80028AB
:109F9800C0F241819DF8003023F07F0284F8382018
:109FA8009DF80E201B0602F0100184F8391040F1CC
:109FB8002B819DF807109DF806500909B4F80EC0CA
:109FC80041EA05119DF805504FEA4C0C41EA05316C
:109FD800CCEBD10C4FEAEC754FEA5C0141EAC57154
:109FE8004D43A1FB011A0AEB450A94F91250090BDB
:109FF80041EA0A514FEA0519ED174D434FEA2A3A4B
:10A0080009FB0A55A1FB09912944B4F910504FEAFC
:10A01800993985FB0C5CED0A49EA814945EA4C55BA
:10A028004D44E56305EB85016D10A5F57A454FEACA
:10A03800A50A0AFB0AFA94F91EC04FEAEA290CFBA2
:10A0480009F9B4F91CC09DF804309DF8038005FB9C
:10A058000CFC9DF802E01B0943EA081343EA0E339F
:10A06800B4F91AE04FEA4C0C0CEBA90C4FEA0E4E6F
:10A078000EEBAC0CC3F58013A3EB2C3340F6354C38
:10A08800B4F916904FEA6A3A05FB09F994F91850A1
:10A098000CFB03F36D010AFB05F5ED1005EB6905F3
:10A0A800AD14B4F8149005F5004509FB05F5B3F1B6
:10A0B800804F4FEAE535ADBF93FBF5F35B0093FBAB
:10A0C800F5F35B00DD106D434FEA653CB4F92250AF
:10A0D800B4F9208005FB0CFC9D1008FB05F54FEA40
:10A0E800232E6D1305EB2C350EFB0EFC0EFB0CFC22
:10A0F80094F824E080310EFB0CFC05EB6C4594F9D8
:10A108001FC0091205EBCC1503EB25136425E36288
:10A1180094F9063094F905C04B4393FBF5F34B4390
:10A1280001FB0CFC9B119CFBF5FC93FBF5F3BDF8C4
:10A1380008006344B4F802C003F580430CFB03F342
:10A1480040BAB4F800C080B2A0EB0C1094F904C077
:10A158009B1201FB0CFC9CFBF5FCA0EB6C00434341
:10A1680094F90800A162414391FBF5F1E0794FF0C1
:10A17800050C01EBC01198134043091180124843A4
:10A188004FF47A7103EB60039B124B4323491B1373
:10A1980023EAE3738B42D4BF2363216340F23C5527
:10A1A80000239DF80D7094F9271002F00F00CCFBE6
:10A1B80001531B49920951F8201042EA8702A5FB76
:10A1C800015C01FB03C12D0CD20345EA014512F1E4
:10A1D8007F4263EB0303521943EB21434FEA214CBF
:10A1E80010495F1051F82000A0FB055100FB0C112D
:10A1F8006D0A500845EAC15540EAC370281847EB74
:10A208006121FDF79DFF606355227421304606F0F9
:10A2180069FF00EAE07004B0BDE8F087A08601009D
:10A22800A036020060360200F0B54B79012B26D02B
:10A23800032B21D110258B79032B1DD1CE790EB19B
:10A24800012E19D10A7912B1022A15D10E220B68F2
:10A258004468B3F5164F276867D02DD8B3F5165F55
:10A2680066D016D8B3F5966F64D00AD8B3F5967F42
:10A2780063D0B3F5167F63D06FF0850054E00025F6
:10A28800D9E7B3F5166F5ED0B3F5965FF4D1384BC6
:10A298003CE0B3F5E14F59D007D8B3F5615F57D02B
:10A2A800B3F5964FE8D1334B30E047F61224A3427A
:10A2B800E2D14FF4000329E0B3F5613F4AD013D847
:10A2C800B3F5963F49D009D84DF6C024A34246D0ED
:10A2D800B3F5614FD0D14FF46B0317E0B3F5E13F0D
:10A2E800CAD14FF0EB7311E0B3F5612F3AD008D81B
:10A2F800214CA34239D0B3F5E12FBDD14FF0E8632B
:10A3080004E01E4CA342B7D14FF080530469C7F84C
:10A318002435436835431B682A43C3F86C25231D3D
:10A3280003C983E803000020F0BD4FF41D03EDE7E7
:10A33800134BEBE74FF49E23E8E74FF4A033E5E730
:10A348004FF41C33E2E74FF41D23DFE70D4BDDE745
:10A358000D4BDBE74FF06C73D8E70C4BD6E74FF4A7
:10A368006503D3E74FF07063D0E74FF08063CDE724
:10A3780000B0130000A04E0090D0030040420F0030
:10A388000050270000C0750000F03A0000903A0124
:10A398002DE9F7438046002201210820FEF738FB0B
:10A3A8000820FEF705FB0021D8F80470D8F81060E3
:10A3B8003C6801AAC4F80015C6F80080D7F80C90CC
:10A3C800484606F04BF8051E4CDB019BD9F80020E7
:10A3D80019791868FFF73EFC051E43DB4046311D1E
:10A3E800FFF722FF054600283CD17B68990712D564
:10A3F80006F1180001F010F81E4B984236D1307E55
:10A4080004F10C0204F5907107F0A5F90120337EE0
:10A41800984000F011FF0823C4F800353B7A53B97F
:10A42800C4F81031D4F810317369C4F834350123F5
:10A43800C4F8383523607B689A075CBF4FF4807393
:10A44800C4F804337B68DB0644BF4FF48003C4F8C8
:10A4580004333369C4F844350023C4F8483501236C
:10A46800A360E360284603B0BDE8F0836FF00405FD
:10A47800F8E700BF0000AD0BF8B504460D460769C4
:10A4880007F00BFEB0B92E4B1B789BB164266068B1
:10A4980006F0B8FF00BB012007F05BF9013EF6D1DA
:10A4A8000021212003F0E4FDF0E786F31188BFF3D3
:10A4B8006F8FF5E74FF02003EFF3118683F31288CF
:10A4C800BFF36F8F6068314606F09CFF90B986F342
:10A4D8001188BFF36F8FEDE74FF02003EFF311867C
:10A4E80083F31288BFF36F8F6068314606F08AFFE6
:10A4F8000028DAD03B691D70626838691368C3F8B0
:10A5080044050120C3F848050020C3F82001D3F80A
:10A518002051C3F858015268D3F85801D20608D51B
:10A52800082062681268C2F800054FF48002C3F878
:10A53800042301229A6081F31188BFF36F8FF8BD5D
:10A54800B1D00020F0B504690646A56C4768236DB4
:10A5580085B03DB96BBB1946306905B0BDE8F04020
:10A5680007F050B8616C03BB31BB3A8E636CAA42EA
:10A5780028BF2A460091A2651BB1A36C002B18BF07
:10A5880013460193E36C02931BB1236D002B18BF94
:10A598001346002269463846039301F0F1FC0E4B3E
:10A5A800984217D06FF00401D6E79D4228BF1D4698
:10A5B800DAE71D46616CD8E701F06043B3F1005F4C
:10A5C800D3D0082D28BF0825206E2A4608F012F897
:10A5D800216ECAE705B0F0BD0000AD0B2DE9F04FC4
:10A5E800994643688DB001938B8892469A04074632
:10A5F8000E46046900F111814FF0FF324FF0FF332E
:10A6080004F1100003F02CFA6660D7F804B0D7F80C
:10A618001080DBF80830039398F85D301BB1D8F848
:10A6280000309E427AD0B6F804E01EF4006F40F085
:10A6380021811EF0090F40F01A81CEF34513082B33
:10A6480040F0158133680293029A9E4B9A4240F279
:10A658000E8104AD0BF10C0CBCE80F000FC59CE893
:10A668000F0085E80F00DDE902329A4228BF1A463A
:10A67800954B9A4215D2954B9A4200F2D780944B4B
:10A688009A4200F2D580934B9A4200F2D380924BC3
:10A698009A4200F2D1809148914B9249824288BFF8
:10A6A8000B461EF0020F09930EF0040300F0C6805B
:10A6B800002B14BF032302238DF82830CEF3001398
:10A6C8008DF82930DBF800301EF0020FD3F808258A
:10A6D80085484FF00103CEF340014FEA521540F090
:10A6E800B180002D40F0E9809340C36098F85D3058
:10A6F8002BB1584601F008FC002388F85D3043462A
:10A7080058467A4A04A901F0D1FB794B984240F0A7
:10A718009E800123C8F8006088F85D30012384F822
:10A728005C30019B986B431C01D000F015F9BAF11D
:10A73800000F40F0A280C4F834A00023A36304F102
:10A74800480204F1380104F1340006F0A9FE6064FF
:10A75800B9F1000F40F09A80C4F83C9000232364BC
:10A7680004F1500204F1400104F13C0006F098FEA7
:10A778000023E0642068236348B183683BB101216A
:10A78800083006F0A0FE2368186907F0FFFB38467A
:10A79800FFF7D8FE00221346A06B83427FD1002327
:10A7A8001946256CA94240F08180934238BF134670
:10A7B80026464FF4FA524FF0000802FB03F556F80C
:10A7C800203B4FF4004C1B684146B5FBF3F540F2C3
:10A7D800E730C8354FF47A720023E5FB0C01FDF72A
:10A7E800FFFC02460B46304603F03AF918B9256BD0
:10A7F80015F1740F2DD10198C4F8588001F084FB2D
:10A8080084F85D806FF07301386906F0FBFE30460E
:10A8180003F04EF96FF073051BE0A369002B7FF47A
:10A82800EBAE636899427FF4E7AEEEE6314B38E76A
:10A83800314B36E7314B34E7314B32E7003B18BF39
:10A84800012339E7002D3AD1934083604EE76FF03A
:10A85800040523689B8813F4005304D1636004F152
:10A86800100003F0D9F828460DB0BDE8F08F6FF05E
:10A878001505EEE76FF08505EBE7DAF8003063635E
:10A88800002B3FF45AAFDAF8043057E7D9F8003014
:10A89800E363002B3FF462AFD9F804305FE7616BE4
:10A8A80001EBC301496801330A4476E7E06B00EB2A
:10A8B800C10040680131034474E7C960FFDE00232A
:10A8C8009B60FBE747E8010000127A00FF083D00A3
:10A8D8007F841E003F420F001FA107008FD0030096
:10A8E80048E8010090D00300002584404516020086
:10A8F8000000AD0B00093D0080841E0040420F009F
:10A9080020A10700012330B585B08DF8043002235B
:10A9180005460DF107008DF80830039000F0A4FFFC
:10A928000C4B044698420FD10023284602AA01A9DD
:10A9380000F01AFEA0420AD09DF8070000F08EFF32
:10A948006FF0040005B030BD6FF01200FAE7002088
:10A95800F8E700BF0000AD0BF8B5064606F05CFF4F
:10A9680000210546304600F085FF730906F01F04F4
:10A9780029D1174B05F1804503EB8404D4F8002254
:10A98800144B05F54435134043F00C03C4F800326A
:10A9980006F0ACFE07462B686BB10025304600F088
:10A9A800B3FFD4F800220B4B2846134043F00403AE
:10A9B800C4F80032F8BD06F099FEC01B0628EAD993
:10A9C8006FF07305EAE70023803453F82430FFDE84
:10A9D80000258440F0F8FCFF0123834070B5DC4378
:10A9E8000B4AD2E8EF1F01EA0405C2E8E65F002E31
:10A9F800F7D14FF4803282400648C0F80823BFF3ED
:10AA08005F8FBFF36F8F0B4214BF0120002070BD12
:10AA18001CCB00200050014070B40E4922F07F4644
:10AA2800D1E90034D01AC31844F10004C1E9003454
:10AA3800A6F50013B3F5400F09D2074B1B681A0A95
:10AA48001B069C19054B42F10005C3E9004570BC83
:10AA580003F068BC40C8002020CB002048C8002074
:10AA6800D9B101230D4A8340D2E8EFCF4CEA030C59
:10AA7800C2E8E1CF0029F7D14FF48033084A834078
:10AA8800C2F80433074BD3E8AF3FC340DB0742BFEC
:10AA98004FF40012044BC3F8002170471CCB002070
:10AAA8000050014018CB002000E100E00D4B186871
:10AAB800010A0006BFF35F8F0B4BD3F80435181853
:10AAC80041F10001B3F5801F0AD2084BD3E90023F6
:10AAD800904271EB030303D210F1807041F1000141
:10AAE800704700BF20CB00200050014048C800201C
:10AAF8002DE9F04F85B016461F4604469DF840A044
:10AB0800FFF76AFF0190FFF7D1FFB04271EB07032F
:10AB180052D23B4B301A67EB0101984271F10001A8
:10AB28004DD2384B03EB0413D3E902239F4208BFED
:10AB3800964258D04FF48038334908FA04F8204632
:10AB480026F07F4BC1F8488306F0C4FD4FF0030997
:10AB5800584604F15005AD00ADB205F1804504F545
:10AB6800A87305F5A8350293029A20F07F4341F8AF
:10AB78002230C1F84483D1F80435244AC01A033876
:10AB880020F07F4090422ED9286868B1D1F804356A
:10AB9800A3EB0B0020F07F40B0F5000F039322D900
:10ABA800204606F097FD039BBAF1000F07D109EB89
:10ABB800030009F10109D7E7BAF1000F09D06FF0D6
:10ABC800150520460199FFF74BFF284605B0BDE85B
:10ABD800F08F01230E4AA340D2E8EF0F1843C2E8D2
:10ABE800E10F0029F8D107490E982301C8500F9B9F
:10ABF80001EB04120025C2E902675360E1E700BFD8
:10AC08000100800030C8002000500140FDFF7F0097
:10AC180018CB00207FB500254FF0FF304FF0FF31F3
:10AC2800194C1A4B0226C4F80833C4F84833184B99
:10AC3800C4F80855C3E902014FF480334FF40012F9
:10AC4800C4F80433134B0121C4F804631520C3F876
:10AC580080212A46FDF7DCFE1520FDF7A9FE012319
:10AC68000D4AA360236013600C4B0D4A00932846DD
:10AC78000023CDE90155FFF73BFF3046FEF700FD05
:10AC8800284604B070BD00BF0050014003000F000B
:10AC980030C8002000E100E01CCB002021AA010000
:10ACA800FFFF7F002DE9F7432E4BD3F804239007CD
:10ACB8000BD5D3F8042142B10022C3F804212A4A53
:10ACC800D3F80431136801331360264AD2F80433E9
:10ACD800D90327D5254BD3E8EF1F21F00100C3E89E
:10ACE800E40F002CF7D1CB0702D4D2F84031CBB116
:10ACF80000251C4CC4F84051D4F84031FFF7D6FE6B
:10AD08004FF02003EFF3118283F31288BFF36F8FA4
:10AD1800174BD3E90267B042B94106D282F31188D2
:10AD2800BFF36F8F03B0BDE8F0834FF0FF38D3E96E
:10AD380000104FF0FF391D60C3E902894FF48033DA
:10AD4800C4F84833C4F84051D4F8403182F311882C
:10AD5800BFF36F8F0029E5D0009032463B46284666
:10AD68008847DFE70050014020CB002018CB0020A7
:10AD780030C800201FB5431C22D0012822DD124A0A
:10AD8800124B9042D4BF04461C46FFF78FFE104B6F
:10AD98000E49D3E90023801AB0F5000F28BF00241C
:10ADA80004448C4228BF0C4600200A49A218CDE969
:10ADB8000100009143F10003FFF79AFE04B010BDB3
:10ADC800024CE2E70124E0E7FEFF7F00FFFF7F007F
:10ADD80040C8002021AA010008B5FFF767FE024B12
:10ADE8001B68C01A08BD00BF40C80020F0B50F4B53
:10ADF80001461A680E4B0B25002618461F46B84216
:10AE080001D3013D04D11846013A19605A60F0BDDA
:10AE180004688C42FBD03CB14468141BA642BCBFFA
:10AE2800034626460830EAE70346ECE794CB0020C1
:10AE3800A0CB00200020054BC3E90000044BD3E859
:10AE4800EF2FC3E8E10F0029F9D1704798CB002014
:10AE580094CB00202DE9F04F87B005460E4607F049
:10AE680093F820B96FF06D0007B0BDE8F08F07F0D8
:10AE780025FA33680446002B0F4604D103F076F810
:10AE88006FF00A00F0E7BCBF4FF0FF3333600122D8
:10AE9800002101A807F022F9E84605954FF02003A4
:10AEA800EFF3118B83F31288BFF36F8F07F0C0FBAA
:10AEB800DFF82CA1DFF82C915AF80000FFF796FF75
:10AEC800D9F8003042689A426FD10023434D00936D
:10AED8006B68002B70D1C5E900888BF31188BFF32C
:10AEE8006F8F33685A1C6CD04FF4004E40F2E73035
:10AEF800002123EAE37C4FF47A720023CCFB0E0195
:10AF0800FDF76EF902460B4601A802F0A9FD4FF0C5
:10AF18002003EFF3118B83F31288BFF36F8F0022A6
:10AF28002B685BB1434556D10099002A4DD16A6818
:10AF380029609A4200D169600023009307F078FBEA
:10AF48005AF80000FFF752FFD9F8003043608BF33E
:10AF58001188BFF36F8F07F017F8002882D0356883
:10AF68006B1C27D007F0AAF94FF47A7EA0FB0E32AB
:10AF78000EFB0121A4FB0E420EFB0722DB0BE40BA8
:10AF880043EA414344EA42441B1B4FEAD1314FEAAA
:10AF9800E57C61EBD231ED1A6CEB010CBCF1000FD2
:10AFA800B8BF002535602DB96AE743608BF3118877
:10AFB800BFF36F8F002057E7C3F80080C5F80480FF
:10AFC8008BE74FF0FF3213469EE71160696899429C
:10AFD80008BF6A60B0E71A461B68A2E798CB002052
:10AFE8000800000094CB0020024600B507F020FBC3
:10AFF800014B1A505DF804FB0C00000070B40468A3
:10B00800094B2CB19C4203D303F17005AC4206D323
:10B01800064D2C78661C03EB04132E700360006841
:10B0280070BC07F05BB800BF24CB0020A5D000207F
:10B0380038B505460A4BD3E8EF1F0131C3E8E21FD4
:10B04800002AF8D1074B1C6804B938BD6369AB42C4
:10B0580000D015B9201D02F0DFFC2468F4E700BF1A
:10B0680094CB002098CB0020014600220023014801
:10B0780006F0ECBFF0CB00200146014806F0F0BF17
:10B08800F0CB0020014600220023014806F0DEBF75
:10B0980008CC00200146014806F0E2BF08CC002099
:10B0A80008B548B90549064801F060FFBDE8084001
:10B0B8000449034801F05ABF08BD00BFD73D02004C
:10B0C800343E0200373E02002DE9F0411F46154B81
:10B0D800044693F800800D461646A2B0B8F1000F5A
:10B0E80015D1684605F048F83A4631462846289B67
:10B0F800A0470446684605F057F8B8F1000F02D09B
:10B10800094802F04DFC204622B0BDE8F0814FF01E
:10B11800FF324FF0FF33044802F0C8FB0028E0D0AC
:10B128001F24F0E7B1D000201CC8002070B53026DD
:10B1380092B006AB05460C4632460021184607F089
:10B1480066FACDE90454CDE9020654B1012304AAF4
:10B15800009200210448019302AA00F007F812B0F7
:10B1680070BD2046FBE700BF0001004030B401F588
:10B178000045B5F5803F039C0DD243EA0405FF2D39
:10B1880009D844EA0324134644EA0142014630BC84
:10B198000348FFF799BF6FF0800030BC704700BFCD
:10B1A800217C0100054AD2F8883043F47003C2F8C4
:10B1B8008830BFF34F8FBFF36F8F704700ED00E00B
:10B1C80030B50468ACB1B4FA84F30122C3F11F03AB
:10B1D800DBB29A4024EA0202D0E8EF5FA54204D12C
:10B1E800C0E8EC2FBCF1000FF6D1EAD102480B7091
:10B1F80030BD0248FCE700BF0000AD0B0200AD0BFC
:10B2080010B50368CB40DB0710D401238B400268DC
:10B2180043EA0201D0E8EF4F944204D1C0E8EC1FA2
:10B22800BCF1000FF6D1F2D1014810BD0148FCE78E
:10B238000000AD0B0400AD0B014BC3F804057047CB
:10B2480000700140F7B5044618B1012822D003B0B8
:10B25800F0BD0222264B0646C3F80823C3F80401B2
:10B26800D3F804210122DA60012342F21075204F3D
:10B278008DF80730D4B1012CE9D1D7F80C3403F498
:10B28800803386BB002BE2D0012006F062FA013D34
:10B29800F3D1DCE70022164B0DF10706C3F80803CB
:10B2A800C3F80021D3F800215860DDE7D7F8183437
:10B2B80003F480333EB9002BC9D0012006F049FAC7
:10B2C800013DF3D1C3E7D7F8182402F00302327026
:10B2D800002BBCD09DF807000128B8D106F039FA38
:10B2E800013DC7D1B3E7D7F80C2402F00102EEE71D
:10B2F80000500040044B1A7922B9012218601A71D3
:10B30800024870470248704720CC00200000AD0B6F
:10B318000C00AD0B08B50520FDF76CFB10B9052036
:10B32800FDF746FB0122024BC3F8182508BD00BFF4
:10B338000050004008B510B101282ED008BD1C4AA5
:10B34800D2F81814D2F81834C90317D503F0030338
:10B35800022B05D0012B02D00020FFF773FF012339
:10B36800134AC2F818350023C2F80431D2F8043160
:10B378000223C2F8043301239360DFE7D2F81434C0
:10B38800DB07ECD5D2F81C3403F00303013B012B97
:10B39800E2D80223C2F80433D0E70022044BC3F8F2
:10B3A8000021D3F80021C3F804031860C6E700BFE2
:10B3B8000050004010B5164BD3F8002152B10020C0
:10B3C800C3F80001D3F800210122C3F80823114B68
:10B3D8001B6898470E4BD3F8042182B10022C3F8AA
:10B3E8000421D3F80421D3F81824D3F8182402210F
:10B3F80002F00302012A03D1C3F818159A6010BDA0
:10B40800C3F80813034B0120BDE810401B68184718
:10B418000050004020CC002001460148FFF7D0BE74
:10B4280050C60020036803F01F025B09026002484F
:10B4380018BF0020704700BF00258440034BC0B2EE
:10B44800083033F81000C0F34010704754C600208D
:10B45800034BC0B2083033F81000C0F34000704707
:10B4680054C60020034BC0B2083033F81000400B1C
:10B47800704700BF54C6002070B50D4C00F108039A
:10B4880034F813300546DA050E4607D5C3F34323CF
:10B4980004EBC302526854F833309847A3682BB1C1
:10B4A80031462846E268BDE87040184770BD00BFC5
:10B4B80054C6002010B4134AC0B2083032F8103015
:10B4C800D9051CD5C3F3432123F4F85322F81030CF
:10B4D800002002F10E0434F8023F13F4807F03D0F9
:10B4E800C3F3432399420AD001302028F3D1002323
:10B4F80042F8313004485DF8044BFFF781BE5DF82F
:10B50800044B704754C60020A8C6002001460020FE
:10B51800F0B501260746104B104D114C5A199208E8
:10B5280006FA02F2114208D0D3F800C0BCF1000FAD
:10B5380003D01F60D3F800C010430433A342EDD1F9
:10B54800084BD3F87C2132B10022C3F87C21D3F810
:10B558007C3140F00040F0BD0011034000EFFCBF1B
:10B5680020110340001003402DE9FF410446904696
:10B578001D4601B3FFF76CFF18B12046FFF75EFFC9
:10B5880028BB00230DF10F02CDE900338DF80E30F2
:10B598008DF80F3020460B460DF10E0106F0E4F849
:10B5A8004749E3B2083331F8132022F0020242F08F
:10B5B800010221F81320B8F1000F32D0204698F884
:10B5C8000060D8F80420FFF743FF10B1F2B13D48FE
:10B5D80029E03B4FE0B2083037F8101021F0200185
:10B5E800C904C90C27F8101082B1032EEFD8D8F877
:10B5F800043093F800C06246920002F1804202F5DE
:10B6080044329EB9C2F81065C2F810652C49E3B2FD
:10B61800083331F8132022F01C0242EA860221F88E
:10B6280013201DBB284804B0BDE8F081D2F81035BE
:10B6380041EA4C3123F00303C2F81035D2F8103533
:10B6480041F0200123F4473323F44073C2F8103546
:10B65800D2F810E5230203F4F85343EA0E0343EA51
:10B668000643C2F8103527F81010CFE72046D5E971
:10B678000067FFF71FFF002ED4D0114DD5E9002336
:10B68800964201D19F4219D010480DF10F01FFF7E2
:10B6980097FD0D4B9842C6D19DF80F20E0B205EBFF
:10B6A800C20308305F6035F8103045F8326043EA6D
:10B6B800422343F4807325F81030B3E70022EDE706
:10B6C80054C600200400AD0B0000AD0BA8C6002036
:10B6D800F0B50446164685B029B3FFF7B9FE20B980
:10B6E8002046FFF7ABFE002862D1324FE5B208359D
:10B6F80037F8153013F01C0F02D04B78012B57D0B8
:10B7080001238DF80F3000234A1CCDE90013204691
:10B718008B1C0DF10F0106F027F837F8153043F0B0
:10B72800030327F8153016B9234805B0F0BD2046A5
:10B73800FFF78EFE00283BD096F800C00023614634
:10B748001C4FE5B2083537F81500890020F02000B5
:10B7580001F18041C00401F54431C00CC1F8103535
:10B7680027F81500C1F810357278002ADCD0D1F816
:10B778001035B67823F4981323F4F853C1F810352C
:10B7880012042302D1F810E502F4403203F4F8530E
:10B798001343320543EA0E0302F4801240EA4C30A8
:10B7A800134340F02000C1F8103527F81500BBE717
:10B7B8000248BAE754C600200000AD0B0400AD0BE8
:10B7C800014BC3E90201704754C6002008B5024680
:10B7D800FFF734FE40B1054BD2B2083233F81230CD
:10B7E80003485B0B0B7008BD0248FCE754C60020F9
:10B7F8000000AD0B0400AD0B70B50F4C94F8586009
:10B80800BEB90E4D4022314604F1100006F0FFFE8D
:10B818003120C5F87C61D5F87C31FDF7C9F84FF0C7
:10B828000043C5F804330123054884F8583063659C
:10B8380070BD0448FCE700BF54C600200010034058
:10B848000000AD0B0500AD0B034B93F85800003812
:10B8580018BF0120704700BF54C6002001460148A8
:10B86800FFF7CEBCA4C6002001460148FFF7A8BCDC
:10B87800A4C6002037B50446FFF7E0FDF0B1204626
:10B88800FFF7E6FD0546C8B92046FFF7EBFD1B4A62
:10B8980003B29B00D550D25803F1804303F54433DB
:10B8A800D3F8102542F00102C3F8102521B1012375
:10B8B800134A8340C2F8043303B030BD114AE3B2DF
:10B8C800083332F81330C3F38203042B11D0052B4D
:10B8D80011D001A80194FFF7A5FD019B0169D9408A
:10B8E80001F001010231204603B0BDE8304005F007
:10B8F80084BF0321F7E70221F5E700BF00110340E9
:10B908000010034054C6002008B50246FFF796FD14
:10B91800C0B11046FFF79CFDA0B91046FFF7A2FD85
:10B9280001230B4A8340C2F8083303B29B0003F19A
:10B93800804303F54433D3F8102522F00302C3F8FB
:10B94800102508BD0021BDE80840104605F055BF88
:10B958000010034073B51B4EC5B2083536F81530D4
:10B968000446DB072BD5FFF7CFFF2046FFF766FD20
:10B9780068B12046FFF776FD002203B29B0003F171
:10B98800804303F54433C3F81025C3F81025204637
:10B99800FFF790FD002301A826F815300194FFF762
:10B9A80041FD019B00EB8300D0F80022064B1340B9
:10B9B80043F00203C0F80032044802B070BD0448E6
:10B9C800FBE700BF54C60020F0F8FCFF0000AD0BF9
:10B9D8000400AD0B2DE9F74F4E4BD3F80403C0B26A
:10B9E80040F00040FFF792FD051E14DA4A4FDFF8D9
:10B9F8002C913B6A00933B624FF00108009C84B98C
:10BA08004FF00040FFF782FD3B6A00933B62002B3A
:10BA1800F2D125F000450124002D63D103B0BDE823
:10BA2800F08F94FAA4F4B4FA84F4E00804F108035B
:10BA380039F813A004F007021DF8003008FA02F2E2
:10BA480023EA02030DF8003001A80194FFF7EAFC8D
:10BA5800019B4FEA9A01803350F82360CAF3820BA6
:10BA68004B07DA46C6F3014621D520465946FFF76B
:10BA780003FD01A80194FFF7D5FC019BF6B28033C2
:10BA880050F82330C3F301439E4207D100212046DA
:10BA980005F0B3FE3146204605F0AFFE01A801943B
:10BAA800FFF7C0FC019B08FA03F30362A6E7022E26
:10BAB8000CD10321204605F0A0FE0BF00503012B55
:10BAC800ECD151462046FFF7D7FCE7E70221204694
:10BAD80005F093FEBBF1030FF3D0032EDED1BBF1CB
:10BAE800020FEDE795FAA5F3B3FA83F304FA03F22C
:10BAF8009B0003F1804303F54433D3F81005D3F8D2
:10BB08001015C0F30420C1F3014125EA0205FFF72F
:10BB1800B3FC81E7001003400025844054C6002090
:10BB280070B5084C0E462379154643B92A20FCF710
:10BB38003FFF0123044823712660A56070BD0348B8
:10BB4800FCE700BF28CC00200000AD0B0C00AD0BBB
:10BB5800002330B50D4A50F8234003F5A271013394
:10BB6800082B42F82140F6D10023084A00F11C01B5
:10BB780003F5B27451F8045F0133082B42F82450DE
:10BB8800F6D1036CC2F8043330BD00BF00A00240F8
:10BB980000234FF0FF31134AC2F81035C2F81435AC
:10BBA800C2F81835C2F81C35C2F82035C2F8243559
:10BBB800C2F82835C2F82C35C2F89035C2F8943549
:10BBC800C2F89835C2F89C35C2F8A035C2F8A43539
:10BBD800C2F8A835C2F8AC35C2F80813024A137186
:10BBE800704700BF00A0024028CC00200123024A71
:10BBF8008340C2F80433704700A002400123024A80
:10BC08008340C2F80833704700A00240F8B5012607
:10BC180000270B4B0B4DD3F80C4304B9F8BD94FA2D
:10BC2800A4F0B0FA80F006FA00F324EA0304064B05
:10BC380082009F502B68002BEFD0A9689847ECE74B
:10BC480000A0024028CC002000A10240430904D1F2
:10BC58000123034A83409360704700239B60FFDE03
:10BC6800002584400C4B984213D00AD80B4B9842BD
:10BC78000FD00B4B98420CD00A4BC31A584258416C
:10BC88007047094B984204D0084B984201D0084BA2
:10BC9800F3E70120704700BF40420F0090D0030037
:10BCA80020A1070048E8010000093D0000127A00C1
:10BCB80080841E00431C14D000F01F0340090BD1E0
:10BCC800084A02EB8302D2F80012074B0B4043F0FC
:10BCD8000203C2F8003270470022803352F8233042
:10BCE800FFDE704700258440F0F8FCFF430904D1CB
:10BCF8000123034A8340D36070470023DB60FFDEE3
:10BD08000025844038B51446421C054616D0012942
:10BD180002D1A3B1FFF79AFF05F01F036D0911D1F6
:10BD28000B4A41EA840402EB8303D3F80002094A70
:10BD38000240144344EA4101C3F8001238BDFFF73A
:10BD4800D5FFE9E70022803352F82330FFDE00BF39
:10BD580000258440F0F8FCFF2DE9F8434C4B4D6971
:10BD680007469D420C4690F804907DD071D8494B07
:10BD78009D427CD0484B9D427CD0484B9D420CBF95
:10BD88004FF000754FF080452422DFF81C81E07EDB
:10BD980002FB0983997F60F3000199773B79217C45
:10BDA80002FB0383D977E67EEEB9237E3246012B68
:10BDB80094BF0023012301212068FFF7A3FF334626
:10BDC800324601216068FFF79DFF33463146A27E67
:10BDD800A068FFF797FF237C32460121E06883F0D3
:10BDE8000103FFF78FFF242202FB0989E368C9F8E2
:10BDF8002030237C89F81F30267FA07C217E637E3B
:10BE08003A6846B9D4E900C6A468C2F808C5C2F8B9
:10BE18000C65C2F81045003B18BF01230229C2F87F
:10BE2800C005C2F824552BD003292CD0012901D1F3
:10BE380043F00203C2F8543524223B79534358F89F
:10BE480003301BB33868BDE8F84340F30730FCF70C
:10BE5800AFBD134B9D4210D0124B9D420CBF4FF00B
:10BE680000454FF080458FE74FF080558CE74FF045
:10BE7800806589E74FF0006586E74FF0005583E756
:10BE880043F00403D6E743F00603D3E7BDE8F8839D
:10BE980040420F0090D0030020A1070048E80100AD
:10BEA80080841E0000127A0034CC0020F8B50546C4
:10BEB80024262F79104C7E4304EB060C9CF81CE0DA
:10BEC800BEF1000F13D1A251CCF8043031B148694A
:10BED800FFF7C8FE68B12846FFF73EFF242303FB9F
:10BEE800074400236377012304482377F8BD0448F7
:10BEF800FCE70448FAE700BF34CC00200000AD0B93
:10BF08000500AD0B0400AD0B2DE9F04104460679A0
:10BF18000068194D40F30730FCF758FD242373439C
:10BF2800EB5853B12368154A06EBC601C3F808233A
:10BF3800206805EB810105F0D3FC2368242404FB69
:10BF48000654D3F80805D3F80C75D3F81085A37FE9
:10BF5800DB070AD4FFF7AEFE4046FFF7ABFE3846D4
:10BF6800FFF7A8FE206AFFF7A5FE242303FB06556A
:10BF780000232B77BDE8F08134CC00205201080063
:10BF880024232DE9F0430779524D7B439046EA1864
:10BF98000E46517F814685B0002940F09880EB58C5
:10BFA80023B118F0140F04BF01235377242496E813
:10BFB8000F0004FB075404F10C0C8CE80F00206AF6
:10BFC800431C03D0E37FD3B1FFF740FE3368D9F8B1
:10BFD800004023B103F06043B3F1005F06D1B368BA
:10BFE80083B103F06043B3F1005F0BD02423002238
:10BFF80003FB075338485A7705B0BDE8F083FFF7CD
:10C0080075FEE3E718F0010318BF0123C4F85035A3
:10C0180018F0020318BF0123EC46C4F8403596E82F
:10C028000F008CE80F00039BC4F84405C4F84815BA
:10C03800C4F83425C4F838350023C4F81831D4F8C6
:10C0480018310723C4F8003524237B4318F0080F60
:10C0580005EB03021DD10121E858216158B9D4F834
:10C068001831002BFBD062464021204605F0FAFB30
:10C0780024237B43EA18EB5803BB106A411C12D1F6
:10C0880007EBC707204605EB870105F029FC134895
:10C09800B2E7EB5893B9106A431CF8D0D37F53B179
:10C0A800FFF724FEF3E7D37F13B1FFF71FFEE7E79F
:10C0B800FFF7CCFDE4E7FFF7C9FDE8E7402318F0F8
:10C0C800040F14BFC4F80833C4F80433DFE7044886
:10C0D80092E700BF34CC00200A00AD0B0000AD0B86
:10C0E8000B00AD0B10B540210F4A104805F0BAFB04
:10C0F800C0B10F4C206A431C03D0E37F7BB1FFF72C
:10C10800F5FD637F1BB10A49084805F0E9FB0023E8
:10C1180023720848D4E90031BDE810401847FFF7FA
:10C1280095FDEEE710BD00BF40CC002000B00040F8
:10C1380034CC00203CCC002010B4CC7B8A68036847
:10C148002CB9D1E90041C3F80845C3F80C15C3F868
:10C158002425282203795343064AD35833B100686B
:10C168005DF8044B40F30730FCF722BC5DF8044B44
:10C17800704700BF58CC00204FF0280CF8B506795E
:10C18800294C0CFB06FC04EB0C0595F82270002FDB
:10C198003FD1AF6044F80C206B6085F8257085F8B6
:10C1A800247071B38F7B85F8277017BB0A6802F07B
:10C1B8001F0352092FD140F20C6C1C4DDFF878E0B8
:10C1C80005EB8303D3F8007207EA0E0747EA0C076A
:10C1D800C3F800724F6807F01F037F091FD105EBF2
:10C1E8008303D3F8002202EA0E0242EA0C02C3F8E3
:10C1F8000022282303FB06434A7B83F82620FFF707
:10C208009BFF282303FB06440123094884F82230B6
:10C21800F8BD0848FCE7803357F82330FFDE803349
:10C2280052F82330FAE700BF58CC0020002584409C
:10C238000000AD0B0500AD0BF0F8FCFF062103680C
:10C248000279C3F800152821034B01FB02330222AF
:10C2580083F82220704700BF58CC0020282102799B
:10C268000B4B01FB02330021996002680948C2F8B0
:10C278000803D2F8000220F4BC50C2F80002C2F849
:10C288000015012283F8241083F82220704700BF8C
:10C2980058CC002002029C012DE9F84F2823904633
:10C2A800002290F80490AE4D046803FB095383F80C
:10C2B80023204B680E4633B1CB6803F06043B3F1DB
:10C2C800005F40F085813378023B012B06D8336943
:10C2D80003F06043B3F1005F40F07A81A14BC4F8EA
:10C2E8000833282303FB095393F8241001F0FF02B5
:10C2F80039B19B68DFF878B2C4F804335846BDE812
:10C30800F88F18F0140F0CBF0121002183F82410B6
:10C31800317809EB890783F82010717805EBC70796
:10C3280083F82110F168D960716819613169596120
:10C33800B168C3F81C809961C8F3001183F825100F
:10C348007378C4F88835C4F86021D4F86031C4F82B
:10C358004821D4F84831C4F82421D4F82431C4F849
:10C368000421D4F8043118F0010318BF0123C4F8DC
:10C37800503518F0020318BF0123C4F8403533784C
:10C38800032B00F2A480DFE803F0799962024FF4EE
:10C398008073C4F80032D7E90323C4F84425C4F8ED
:10C3A80048350123A3604FF48011204605F0F0FAC8
:10C3B8000028F8D1D7E90523C4F84425C4F848353E
:10C3C80028234FF4802203FB09539A60DFF8A4B1B5
:10C3D800282202FB09F218F0080AAB5805EB020004
:10C3E80013D13178032910D0012940F086802160CB
:10C3F800002B6FD0282202FB09F27168AA5821B9D4
:10C40800002A00F0BB8001226261282202FB09F2A7
:10C41800A918AA58002A00F0B18018F0040F1CBF10
:10C4280000228A6018F0400F06D1282202FB095228
:10C43800916841F002019160282202FB095291683B
:10C4480041F4007191609268C4F8042356E7D7E973
:10C458000323C4F84425C4F84835D7E90523C4F8AC
:10C468003425C4F838354FF48453C4F80032012316
:10C4780023622823022203FB0953A6E718F0200FA2
:10C48800D7E90323C4F8442514BF4FF480724FF44E
:10C498000072C4F848354FF0280315BFC4F80022CD
:10C4A800C4F800224FF48022022214BF03FB095370
:10C4B80003FB09539A600123236287E7D7E9032323
:10C4C800C4F83425C4F838354FF48053CDE7DFF885
:10C4D800A8B07DE7026902B961612349DFF88CA041
:10C4E800204605F055FA012210F4007F18BF62615A
:10C4F80010EA0A0F1C49F3D07CE70121A160002B48
:10C508007FF478AF006918B3184B1AEA030F7FF469
:10C5180071AF2046144905F03BFA10F4007F8246BB
:10C52800F2D04FF08071204605F032FAD4F80012AC
:10C5380080B111F4007003D1012282462262626147
:10C54800CB05E1D54FF48021204605F021FA04E01F
:10C558006161D9E70122226262614FF0000AD3E7E4
:10C5680058CC002002029C010202040002000400D0
:10C578000B00AD0B0000AD0B0400AD0B282101FB37
:10C5880009550021D4F8C424C4F8C42485F824101B
:10C598008AB11149114B12F0010F14BF8B469B460B
:10C5A800013112F0020F18BF8B4612F0040F0C4A2B
:10C5B80018BF9346A2E618F0400F7FF49FAE3946A5
:10C5C800204605F0A3F9054A002808BF934695E6DA
:10C5D800DFF810B092E600BF0000AE0B0100AD0B13
:10C5E8000200AE0B0A00AD0B70B55D4D022186B09E
:10C5F800284605F0CDF94FF400710646284605F0A7
:10C60800C7F9584CD8B1E6B9A3684FF08071C5F89E
:10C6180008330223A360A3682846C5F8043305F04D
:10C62800B7F918B1D5F800329B0503D401224C4B59
:10C638001A625A61012384F8233006B070BD002EB7
:10C6480058D0E5696E060AD494F823303BB94549B9
:10C65800434805F05BF980F0010084F8230015F0E9
:10C66800040525D13E4B94F82520C3F86051D3F832
:10C678006011C3F85C51D3F85C1112B194F823200F
:10C688005AB10022C3F80022A260374AC3F808232F
:10C698004FF48062354BC3F88021238CADF8043009
:10C6A800E36804932369029363690593A369039379
:10C6B8002B4AD2F8C4349807C2F8C4344AD459076C
:10C6C8004AD4DA074AD494F823309B00DBB28DF8B9
:10C6D800003094F825300BB984F82430E3695B07FF
:10C6E80003D594F82330002BA7D0D4E9003168464D
:10C6F8009847A2E74FF48021284605F049F994F8B5
:10C708002030ABB994F8253053B94FF48062C5F89E
:10C718000032A360144BC5F80833144BC3F88021CA
:10C7280000238DF8043094F821308DF80530B7E7F0
:10C738004FF40073C5F8003240F20223A36003F1FE
:10C74800CE73C5F80833A368C5F804330123AB607A
:10C758002B6272E70123BAE70223B8E70323B6E79F
:10C7680000A0004058CC002002029C0100E100E03B
:10C77800036803F01F025B090260024818BF00202B
:10C78800704700BF00258440F7B5064605F02AF932
:10C79800084605F027F901A80196FFF7E9FF0C46BE
:10C7A80040F20D61019B2B4D00EB8300D0F8003265
:10C7B80001942B400B43C0F8003201A8FFF7D8FFC3
:10C7C800019B012700EB8300D0F800322B400B437C
:10C7D800C0F80032042004F0BCFF092501A8019428
:10C7E800FFF7C6FF019A0369D340DB0714D401A8F9
:10C7F8000196FFF7BDFF019B013D07FA03F3C360F4
:10C80800042004F0A6FF304605F0ECF8042004F0FC
:10C81800A0FF15F0FF05E1D101A80194FFF7A8FFDB
:10C828000123019A9340C360042004F092FF20463C
:10C8380005F0D8F8042004F08CFF01A80194FFF754
:10C8480097FF019A03690448D34003F00103C01A13
:10C8580003B0F0BDF0F8FCFF0100AD0B70B5036844
:10C868000446033BDBB2052B03D8094A52F8235090
:10C878002DB9A06808B100F019F8002070BD05F0C6
:10C8880012F921682B46BDE87040090C184700BF13
:10C89800D0370200014B1B68184700BFB0C6002004
:10C8A800014BDB68184700BFB0C60020014B5B692D
:10C8B800184700BFB0C60020014B9B68184700BF4F
:10C8C800B0C60020014B1B68D868704780CC002098
:10C8D800002330B510490A681468A3420BD100231D
:10C8E8004A6811688B4215D002EBC304A468A042C1
:10C8F80008D00133F6E702EBC305AD68A84201D0C2
:10C908000133EAE702EBC302536823F0FF0343F065
:10C918000303536030BD00BFA0CC0020002230B517
:10C928000B4B19680C6894420FD001EBC2039D6849
:10C93800A8420BD14FF003020433D3E8CF1F0029DC
:10C9480003D1C3E8C02F0028F7D130BD0132EAE790
:10C9580098CC00202DE9F041002506460F462846D0
:10C96800DFF864803368AB4201D8BDE8F08106EB9C
:10C97800C5046368DBB2012B17D16268B8F80030D0
:10C98800B3EB124F11D1022FA06810D1FFF766FF49
:10C9980090B9636823F0FF0343F003036360012049
:10C9A800B8F800300133A8F800300135DAE701683B
:10C9B800090C05F023F8EBE70128F0D1636823F0B0
:10C9C800FF0343F00203E9E786D0002038B5074D9E
:10C9D80001212868FFF7BEFF022104466868FFF7B7
:10C9E800B9FF0028F4D1002CF2D138BDA0CC00202A
:10C9F80070B5072868D8DFE800F00B674F674B670A
:10CA0800400400F02DFD0320BDE87040FEF710BB88
:10CA180003202E4BD3F81446D3F818662C4B1D78F8
:10CA2800187000F0F3FC2B4BEDB2186804F066FEAA
:10CA3800012D1CD1284B9C4210D009D8023B9C42A6
:10CA48000FD001339C420FD0244B1C600020DBE741
:10CA5800234B9C42F8D16FF00C04F5E76FF00B0400
:10CA6800F2E76FF01504EFE76FF08504ECE7314665
:10CA7800C4F30B0000F0BEFCE8E70222144B0020D0
:10CA88001A7000F0C3FC134B186804F037FEDDE79A
:10CA9800FFF79CFF0220B7E70D4B1A78012AD0B2A6
:10CAA8000ED1104A1168104A8C68546049681160A8
:10CAB80000221A7000F0AAFC064B186804F01EFE4B
:10CAC800FFF784FF01209FE770BD00BF00A0024070
:10CAD800A7D0002088CC0020220001009CCC002098
:10CAE8003230010084CC0020A0CC002070B5164B59
:10CAF80042681B6822F0FF0242F00202C31A426039
:10CB08001248134A0168C3F38913D2E8DF4F651C42
:10CB1800C2E8D65F002EF8D101EBC3014A6892B291
:10CB280042EA04424A600268032002EBC3025368E7
:10CB380023F0FF0343F00103536004F0DBFD0122FF
:10CB4800044BDA6070BD00BF90CC002098CC002068
:10CB580088D0002000A002400A23F7B54FF47A7568
:10CB68000C4E0D4F01933168386804F077FF044686
:10CB780040B904F0C1FD40B9012001A9FEF76AF9E6
:10CB88006E30F0D1204603B0F0BD0198684304F040
:10CB9800B1FDE8E78CCC002094CC0020054B1B7835
:10CBA8002BB9054B1968054B186804F057BF0020CE
:10CBB800704700BFA6D0002090CC002098CC002061
:10CBC8002DE9F04F95B038220021064603A805F05C
:10CBD8001EFD0223049308230693202308930423AD
:10CBE8000D93102340250F9380230122CDE9115383
:10CBF800D523002155480B921393FEF7FFF90546FC
:10CC0800002840F0A080024651493079FEF788FF9D
:10CC180003A8FEF79DFF34686268B2F59D6F40F087
:10CC28008A806169E3680B44E16903F59D630B44FD
:10CC3800B3F5003F7FD82068294605F0E8FC336843
:10CC48001C68D3F81C9004F1E802009204F53A72CB
:10CC5800019204F160073F4A04F1A40804F1200B93
:10CC6800B9F1000F5AD1C2F800B000254FF0010AFF
:10CC78002570657084F802A0E570336840461B692A
:10CC8800636033685B69C4F814B0A360324BC4F8BE
:10CC98001890C3F80080314BE7601F600823C4F880
:10CCA800108084F8A43088F8015088F8025088F879
:10CCB800035084F860307D70BD70FD7004F0B6FEDE
:10CCC800384604F0B3FE019A254B31681A60009A81
:10CCD800244B1A60244B1960244B2549C3F810468D
:10CCE800C3F81456234B244C1D80244B25601D800B
:10CCF800234B83F800A0234B02951D611B69029307
:10CD0800029B124B186804F0FBFCC8B92468A4B94C
:10CD18001D4B1C70204615B0BDE8F08F9B6904F1CF
:10CD28004009636433684846DB69C2F800B023648D
:10CD380000F07AFB99E76FF01504FEF729FFE9E7A1
:10CD48006FF07304F9E76FF02D04E3E788CC002057
:10CD5800F9C9010084CC002098CC002094CC002094
:10CD680090CC00208CCC002080CC002000A0024079
:10CD7800F049020088D000209CCC002086D00020FA
:10CD8800A7D0002000560040A6D0002070B5164B52
:10CD980042681B6822F0FF0242F00102C31A426097
:10CDA8001248134A0168C3F38913D2E8DF4F651CA0
:10CDB800C2E8D65F002EF8D101EBC3014A6892B2EF
:10CDC80042EA04424A600268032002EBC302536845
:10CDD80023F0FF0343F00103536004F08BFC0122AE
:10CDE800044B5A6070BD00BF8CCC002094CC00204E
:10CDF80088D0002000A0024010B5FFF7ADFE012446
:10CE080000220321047081704270C270FFF7BEFFD8
:10CE1800054B1C7004F01DFEBDE81040034B47F2A3
:10CE28003051186804F06CBCA6D0002088CC0020D3
:10CE380010B50A4B04461B78032B0ED0FFF78CFE67
:10CE480058B1012100220170022184604270817072
:10CE5800C270BDE81040FFF799BF10BDA7D00020F1
:10CE68002DE9F34105460020174688461E4604F082
:10CE78001CFE024640B915B1284604F040FE6FF08A
:10CE88000B0002B0BDE8F0816FF058030024037373
:10CE9800042305600E4D037244738473C473447293
:10CEA8008472C472C0F80480394603202C7004F0E0
:10CEB80018FE4FF0FF3301932B78B34201D10020C5
:10CEC800DFE7022001A9FDF7C5FF0028F4D0D8E765
:10CED800A8D00020F8B5054600240F4F57F8046B7A
:10CEE8002846314605F04FFA28B90134042CF5D10B
:10CEF8004FF480300DE06CB1A31E012BF8D83046FA
:10CF0800FBF7D6FA0A220021284401F0D1FA40EAB8
:10CF18000440F8BD2046FCE7E83702002DE9F74356
:10CF2800002581460F461048294690461E46019323
:10CF380002F092F9041E11DB0134204604F0DDFDF5
:10CF4800C9F8000068B1334642462146019602F00E
:10CF580083F928463C6003B0BDE8F0836FF0150004
:10CF6800F9E76FF00B00F6E7902A02000FB47FB5DF
:10CF7800089C00F051FA00282FD0002C30D01B4E0E
:10CF88001B4B3068196804F0BBFB60BB224609AB39
:10CF980003A902A80193FFF7C1FF0446A0B9DDE980
:10CFA800020102230122FFF75BFF044660B9114D1D
:10CFB8002B681868FFF78EFF2B680446186804F082
:10CFC8009AFD286804F094FD306804F097FB204629
:10CFD80004B0BDE8704004B070474FF0FF34F6E786
:10CFE8006FF00D04F3E76FF00A04F0E7B4CC00200B
:10CFF800B8CC0020B0CC002038B5C3680446A72BB5
:10D0080003D0206804F077FD08E0032908D004293C
:10D0180026D0022902BF0122154B1A70002038BD04
:10D02800134B1A78022A06D1006808B104F063FD90
:10D038000020C0B2F3E70F4D2A685AB10068904744
:10D04800002320682B6004F056FD0B4B186804F091
:10D0580055FBEDE7094A1060022201201A70E8E743
:10D06800074B1B68002BCCD000689847C9E700BF66
:10D07800A8D00020A8CC0020B4CC0020B0CC002040
:10D08800ACCC002030B5024600236425054905FBD9
:10D0980003F460180C59944203D00133082BF6D1DD
:10D0A800002030BDBCCC00202DE9F843021E104CF6
:10D0B80018BF012206460025A0464FF064090D4B13
:10D0C8000D4F1A702368BB420AD009FB05831A7FEB
:10D0D80066F386121A77636B13B1204604F04BFD92
:10D0E8000135082D04F16404ECD1BDE8F88300BFD4
:10D0F800BCCC0020A9D000201EF1AD1B70B50023C8
:10D108006426074A06FB03F5AC18555901338542D6
:10D1180002BF257F61F3C7152577082BF2D170BDB3
:10D12800BCCC00200123034A1370034A1060184640
:10D13800704700BFAAD00020DCCF002010B543699B
:10D148000C465BB10B7F6FF304130B77406900F05B
:10D158009BF8034BA061186804F0D0FA002010BDBA
:10D16800E0CF002010B50B7F0C466FF304130B774C
:10D17800006958B9DBB223F0280343F028030B7782
:10D18800044B186804F0BAFA002010BD00F07CF8CF
:10D19800A061F5E7E0CF00202DE9F341DFF8E48056
:10D1A8000546D8F80000019104F0AAFA074650B1E4
:10D1B800019B002B63D11023AB614FF0FF3738463A
:10D1C80002B0BDE8F081286CA8B1FBF771F9461CE4
:10D1D800304604F06AFC044678B9284604F007FD96
:10D1E80008B16923AB61D8F8000004F087FA692018
:10D1F800FDF7FAFEE1E73E46EAE72B680422036101
:10D208000023027243728372C37295F8472005F1B6
:10D218004401013292008260143005F0EBF9E6B166
:10D228003246296C206805F092F866602B7F04204E
:10D2380043F01003224647F281012B7704F051FC9A
:10D24800284604F0D4FC0028B9D1284604F0CBFCC9
:10D2580040B9A8690028B2D0CAE726706670A670DF
:10D26800E670E2E7022001A9FDF7F4FD10F10B0FCB
:10D2780005D00028E9D00028B8BF4042B8E774209C
:10D28800B6E700BFE0CF002070289ABF024B53F8E2
:10D2980020000248704700BFF8370200ADBAADBAA7
:10D2A8002DE9F041056807460C463DB101F470438D
:10D2B800B3F5005F05D13F4BC3E900150020BDE879
:10D2C800F0813D4E336863B144F20402914260D06C
:10D2D8000BD844F2020399424AD044F2030399421C
:10D2E8004FD0386804F007FCE8E744F2012221F443
:10D2F800807393420FD044F203139942F1D12F4C1B
:10D30800206808B104F0F7FB01222D4B1A70256044
:10D318000420336824E0DFF8B880D8F8000008B1AA
:10D3280004F0E9FB44F201339C420CBF03220222C1
:10D3380095F85170234B244C1A70C8F8005017F018
:10D348000805336822780DD01AB9052098470123BB
:10D358002370FB0702D50220336898470120336801
:10D368009847ABE7002AF4D0062098472570F0E7E5
:10D37800164C206808B104F0BEFB03203368256012
:10D38800EEE70E4C206808B104F0B5FB00220C4B08
:10D39800BCE72A78032AA4D8DFE802F002050709C7
:10D3A800072098479DE70820FBE70920F9E70A20AE
:10D3B800F7E700BFF4CF0020E4CF0020E8CF00203B
:10D3C800ABD00020ACD00020ADD00020ECCF0020A6
:10D3D800F0CF002038B5064B1C6834B14368858906
:10D3E8000268C1899BB2E8B2A047002038BD00BFDF
:10D3F800FCCF002007B5044BCDE900011B68684647
:10D40800984703B05DF804FB00D00020014B18706A
:10D41800704700BFAED00020024B1878431E584218
:10D4280058417047AED000200021074B01221970E7
:10D43800064B1970064B1960064B1960064B1860AD
:10D448000648FDF7DBBD00BFAFD00020B0D00020FC
:10D4580008D000200CD000201CD0002004D00020D0
:10D4680070B42D4B1B68196958691A7C00221A740C
:10D478005C7C5A749C7C9A74DC7CDA741C7D1A750A
:10D488005C7D5A759C7D03299A75DC7DDA7529D0F7
:10D49800042933D001292FD18568204E954210D117
:10D4A80001211A7A00221972597A5A72997A9A7253
:10D4B800DA7A6FF05F02DA72194B70BC186804F000
:10D4C8001DB9911C00EB81014C682178622907D0B5
:10D4D800633918BF0121490046F821400132DDE7D0
:10D4E8000121F9E7187A1972597A5A72997A9A7257
:10D4F800DA7A6FF05F02DA7270BC7047187A1972C4
:10D50800597A5A72997A9A72DA7A6FF05F02DA72F5
:10D518000122044B1A70EFE71CD0002010D0002025
:10D5280004D00020B0D0002038B503464FF02002C8
:10D53800EFF3118582F31288BFF36F8F05F078F847
:10D54800064A1458184604F0FBF885F31188BFF30F
:10D558006F8F2046BDE83840FBF7A8BD08000000E3
:10D56800104B70B553F82040013053F82060A642A4
:10D5780000D870BDD4E9003595B153B12846984715
:10D5880038B10028B8BF4042FF28A8BFFF20EB6889
:10D598001870EA68537843F0010353700834E6E7DB
:10D5A8009847FBE7C0390200012208B50A4B03205F
:10D5B8001A70FFF7D5FF00F03FFF02F001FA0420D0
:10D5C800FFF7CEFF00F016F902F0F8F9034A137BD3
:10D5D80023F00103137308BDB1D0002010C9002047
:10D5E80008B50348034A0021121A04F0DFFC08BDFD
:10D5F80030C80020B8D00020C02370B5174E0122D3
:10D6080003FB0066002386B0CDE904230F220193B3
:10D61800CDE9023218234FF4A0720446104D114987
:10D6280003FB005502FB00110F4B3046009500F03C
:10D63800A3F8737B2C7423F0040373730B4B01342E
:10D6480003EBC4236B600A4BEE60D3E8EF1F013194
:10D65800C3E8E21F002AF8D106B070BD50C8002008
:10D6680024D00020B8D80020AF200200B8D0002075
:10D6780020D0002080B50020B6B0FFF771FF2E4BF8
:10D6880003F5006282F3088883F30A880024E02304
:10D698002A4D2B4E85F82230EC772C766C76AC76BA
:10D6A80085F820406B6A274F43F4E0236B6285F8C6
:10D6B8002340FBF75FFCFBF75BF94FF0FF33AB62EE
:10D6C800EB62FBF761FEFBF707FD40F2011306ADC5
:10D6D8002846ADF82430CDE91E4400F0A7FEB56019
:10D6E80004F058FC0120FFF73BFF0220164DFFF71E
:10D6F80037FF00F033FC154BB5610593012314493E
:10D708004FF48052CDE9034328463B46CDE9014416
:10D71800009400F031F806466A7B284622F004029D
:10D728006A7304F021FD2046FFF766FF3A4631464A
:10D738002846FBF777FA00BFB8D0002000ED00E0DC
:10D7480024D00020B1D5010010C90020B73E020046
:10D75800F8D9002038B5064C064DAC4201D300205C
:10D7680038BD2046D4E9011204F024FC1834F4E74B
:10D7780004C800201CC800202DE9F043984685B055
:10D7880000F15803C0E91633109B002603730423E5
:10D79800073222F0070543730F9B01EB05090F467B
:10D7A80083734946C0E906668660C6730446FBF77C
:10D7B80073FA0E9B073020F00700A066C4E91875BD
:10D7C80002930D9BA9EB000901930C9B4A46009319
:10D7D800394643462046FBF7DFF9054B66659B68EB
:10D7E80003B1DB6E4846E36605B0BDE8F08300BFD1
:10D7F80024D000202DE9F043294C2A4D87B0264635
:10D80800AE4204F12C040FD300F078FB4FF400462D
:10D8180040F2E737224CDFF89090AC4220D307B0B3
:10D82800BDE8F04300F07EBB54F8043C059354F87F
:10D838000C3C049354F8103C039354F8143C0293A2
:10D8480054F8183C019354F81C3C009354E90923FC
:10D8580054E90B01FFF790FF54F82C3C5E65CEE7C6
:10D86800636A5A1C0DD00021384623EAE373C3FBD0
:10D87800060151EAC333D4F8008004D1404600F0D1
:10D88800EDFA2C34C9E74FF47A720023FAF7A8FCB2
:10D8980002460B4608F11800494600F0CDFCF0E7B7
:10D8A800C8290200C8290200D52102002DE9F34148
:10D8B800044617461E464FF02003EFF3118883F302
:10D8C8001288BFF36F8FC368334A7BB18068916851
:10D8D800884219D057EA060318D188F31188BFF394
:10D8E8006F8F6FF00F0002B0BDE8F081916891F979
:10D8F8000E100133E36093682161A36088F31188F7
:10D90800BFF36F8F0020EEE72169F2E791F90E105F
:10D9180090F90E306FF07E029942A8BF19469142E5
:10D92800B8BF11468B422EDD04F0C9FB05462246DE
:10D938004146CDE90076194800F01AFA0028E1D0EE
:10D948004FF02003EFF3118683F31288BFF36F8F34
:10D95800A068D0B1236821699C420AD04BB193F9E1
:10D968000E309942A8BF19466FF07E039942B8BF9E
:10D97800194604F0A4FB40B13146084800F05CFAAF
:10D988006FF00A00AFE70025D1E7002DF4D186F348
:10D998001188BFF36F8FF3E724D00020B2D00020A6
:10D9A80038B5836804466BB3194A926893422CD100
:10D9B800C368012B03D9013BC360002038BD4FF079
:10D9C8002003EFF3118583F31288BFF36F8F01698A
:10D9D800806804F074FB204604F0FCFBA06058B19A
:10D9E80090F90E2022610022826704F0BDFB2946CF
:10D9F800084800F021FAE0E7E06085F31188BFF3FA
:10DA08006F8FDAE76FF01500D8E74FF0FF30D5E7F2
:10DA180024D00020B2D0002038B504464FF02003AF
:10DA2800EFF3118583F31288BFF36F8F04F0D2FBF5
:10DA380048B10022826704F097FB2946BDE83840C8
:10DA4800064800F0F9B9D4E902329A4218BF013306
:10DA5800A36085F31188BFF36F8F38BDB3D0002062
:10DA680013B54FF02004EFF3118184F31288BFF34C
:10DA78006F8F846844B1013C846081F31188BFF3DF
:10DA88006F8F002002B010BD52EA030406D181F363
:10DA98001188BFF36F8F6FF00F00F3E7CDE9002314
:10DAA8000246024800F064F9ECE700BFB3D000205A
:10DAB80070B504464FF02003EFF3118583F3128805
:10DAC800BFF36F8F6FF00A06204604F083FB18B18E
