:020000021000EC
:1080000060E80020B19C0100BB1B0200859C0100C0
:10801000859C0100859C0100859C0100859C0100D8
:108020000000000000000000000000009195010029
:10803000859C01000000000021950100859C010045
:108040002196010021960100219601002196010050
:108050002196010021960100219601002196010040
:108060002196010021960100219601002196010030
:108070002196010021960100219601002196010020
:108080002196010021960100219601002196010010
:108090002196010021960100219601002196010000
:1080A00021960100219601002196010021960100F0
:1080B00021960100219601002196010021960100E0
:1080C00021960100219601002196010021960100D0
:1080D00021960100219601002196010021960100C0
:1080E00021960100219601002196010021960100B0
:1080F00021960100219601002196010021960100A0
:10810000219601002196010021960100219601008F
:10811000219601002196010021960100219601007F
:10812000219601002196010021960100219601006F
:10813000219601002196010021960100219601005F
:048140002196010083
:04814400FFFFFFFF3B
:108148007BB972B90029BEBF00204FF0004106E09C
:1081580008BF00281CBF6FF000414FF0FF3000F04F
:1081680057B8ADF1080C6DE904CE002909DB002BE6
:108178001ADB00F04FF8DDF804E0DDE9022304B073
:108188007047404261EB4101002B1BDB00F042F8D5
:10819800DDF804E0DDE9022304B0404261EB41016F
:1081A800524263EB43037047524263EB430300F0D0
:1081B80031F8DDF804E0DDE9022304B0404261EB68
:1081C80041017047524263EB430300F023F8DDF8A6
:1081D80004E0DDE9022304B0524263EB4303704735
:1081E80053B94AB9002908BF00281CBF4FF0FF3116
:1081F8004FF0FF3000F00CB8ADF1080C6DE904CE7B
:1082080000F008F8DDF804E0DDE9022304B0704767
:10821800704700BF2DE9F04786468C460846089E01
:10822800154674461946002B40F0C1808542B2FAC3
:1082380082F245D94AB1C2F1200300FA02FC954006
:1082480094402EFA03F343EA0C0C4FEA154EA8B2F9
:10825800230CBCFBFEF80EFB18CC08FB00F943EA24
:108268000C43994528D9EB1808F1FF3704D29945F2
:1082780002D9A8F102072B44A3EB0903A4B2B3FB6C
:10828800FEFC0EFB1C330CFB00F044EA0344A04246
:1082980014D92C190CF1FF3304D2A04202D9ACF145
:1082A80002032C44241A43EA07401EB1D440002399
:1082B80034607360BDE8F0874746DDE76346F1E761
:1082C80092BB431B01214FEA154EAFB2200CB3FB02
:1082D800FEFC0EFB1C330CFB07F840EA03439845F1
:1082E80061D9EB180CF1FF3004D2984502D9ACF1F2
:1082F80002002B44A3EB0803A4B2B3FBFEFC0EFB65
:108308001C330CFB07F744EA0344A7424DD92C1948
:108318000CF1FF3304D2A74202D9ACF102032C447A
:10832800E41B43EA0040C0E7C2F1200395409440B3
:1083380020FA03F12EFA03F34FEA154E9040AFB23C
:108348000343B1FBFEFC0EFB1C10190C0CFB07F8D9
:1083580041EA0041884522D969180CF1FF3004D25E
:10836800884502D9ACF102002944A1EB08019BB26F
:10837800B1FBFEFC0EFB1C110CFB07F743EA0143A3
:108388009F420ED9EB180CF1FF3104D29F4202D95B
:10839800ACF102012B44DB1B41EA004193E7604644
:1083A800E3E76146F7E76046A4E76346B8E7834238
:1083B80006D916B9002108467CE7C6E900E0F9E7C6
:1083C800B3FA83F78FB9834201D3724508D8BEEB5D
:1083D800020460EB030301209C461EB9002169E7F3
:1083E8003846FAE7C6E9004CF8E7C7F1200CBB406D
:1083F8000EFA07F522FA0CF42EFA0CF1BA401C43D7
:1084080020FA0CF3B8404FEA144901431FFA84FEDE
:10841800B3FBF9F809FB18300B0C08FB0EFA43EA1A
:1084280000439A4540D9E31808F1FF3004D29A4531
:1084380002D9A8F102002344A3EB0A0389B2B3FBD3
:10844800F9F809FB183308FB0EFE41EA03418E4593
:108458002CD9611808F1FF3304D28E4502D9A8F14E
:108468000203214443EA0040A1EB0E01A0FB02985D
:108478004145CE46434602D306D14D4504D2013884
:10848800B9EB020E68EB0403002EA7D0B5EB0E0281
:1084980061EB030101FA0CFC22FA07F3F9404CEAFC
:1084A8000303C6E9003199E74046C5E74346D9E7E3
:1084B800034613F8012B002AFBD1181A013870471C
:1084C800022A70B504460D46184611D8DAB1022DB5
:1084D80019886DD8B1F5006F6AD2022A4FF00203ED
:1084E80014BF232220226068BDE8704009F0AABFAB
:1084F800052A04D003291CD96FF085005AE002230D
:1085080025220188EFE70329F6D84FF47A711D88F0
:108518005B6893FBF1F39BB255EA0301ECD0284961
:10852800088885423AD22046BDE87040D1B209F0A9
:10853800B4BF072AE0D15B6805682248D917C5FB94
:108548000031012B71F100021CDB00F56E1000F602
:108558005D70181841F1000117A3D3E90023FFF754
:10856800EFFD80B2022815D9042815D90828C3D8E8
:108578000222154B2046BDE8704003EB8203997830
:1085880009F06CBF1148181861F100010AA3D3E97A
:108598000023E4E70022ECE70122EAE702D1488859
:1085A8009842C0D20132062A01F10401B8D1A3E7EA
:1085B8006FF0150070BD00BF3AA3950000000000E1
:1085C8001648020040420F000A480200632EB5FF19
:1085D80010B402460B46034881680C680249A44659
:1085E80010BC6047103B0200E84002002DE9F04F44
:1085F80091B0009302F004030293C2F3C203013363
:10860800840705460E46DDF868900392059340F00E
:10861800BB81041D30B1072909D86FF01B0011B0C8
:10862800BDE8F08F01F00706341DC6F10806009B6F
:108638004FF000084FF0040A591E4FF0FF33474629
:108648000193C3465346CDF810800DB1009A2260BD
:108658000598002800F3E8809848009A824203D3DE
:1086680097488242C0F0E080039AA4EB050E920777
:108678004FEA9E0000F103810F2F00F2B180002D18
:1086880000F0058107F140020DEB020C019A0CF88D
:10869800200C0CF8102C049801300490E7E07A289C
:1086A8005DD84B280ED8472859D829282DD82528F1
:1086B80052D054D820287AD02338D0F1000B4BEB75
:1086C800000B74E04C382E2849D8DFE800F07048D9
:1086D800484848484848484848484B48484848480F
:1086E80048484859484B4B595959704B6D48704840
:1086F800184B184848827F4B48484B487F00002059
:108708004FF0000B4FF0040A38E001222A38C0B2BB
:1087180002FA00F010EA0E0F49D110F0625C2FD176
:1087280010EA020B43D06046013C5444B4FBFAF40F
:108738000AFB04F4002D61D0A3EB050CA4446645A4
:10874800FFF46BAF002868D1042B47D159F8043BDC
:108758002360042304342AE0019A013A01924FF07D
:10876800000B24E011F8010C6C2834D1002011F81A
:10877800023C83466C2BC5D14FF0080A5346D3E719
:1087880009F1070929F00709073424F00704F9E873
:1087980002AB35B106982044B0423FF63EAFC4E97B
:1087A80000AB4FF0000B08344FF0080A534611F89D
:1087B800010F002878D0BBF1000F7FF470AF252897
:1087C800F5D14FF0010B019B013301934FF0040ADF
:1087D800ECE7584694E700208346A5E7082B02D02B
:1087E8006FF015001BE709F1070929F00709F9E8F7
:1087F8000223C4E9002308230834D8E768B9042B06
:1088080002D109F10409A4E7082BE9D109F1070904
:1088180029F0070909F10809EDE7059A013A0592D7
:1088280059F8042B009210E7039A900720D54FF0CF
:10883800010CA4EB050E4FEA9E00BEF5007FCFD2D7
:108848000F2FCDD8F5B107F140020DEB020E019ABA
:10885800C0B20EF8200C0EF8102CBCF1000F3FF43B
:108868001AAF60F07F000EF8200C08F101080137FC
:10887800C5F108024FF6DA7E0434069297E74FF006
:10888800000CDAE7BCF1000F01D00136EFE70298DF
:1088980002360028EBD10098CDE90631FFF708FE33
:1088A800DDE906310644E2E7631BB3F5806F97D232
:1088B80045B9A6F10804E018B1E600BFD0390200B6
:1088C800AC560200029A9B0828602B709DF8103065
:1088D800C2B1EB7085F80280B8F1000F05D0002214
:1088E80008A8C5F1010C97420ED14FF0000AC5F156
:1088F80001030DF1200901930DF1300B574512D1F9
:10890800601B8CE66B70E5E710F8013B190608D58B
:1089180004EB0C0E764503F07F03FFF47EAE04F8FB
:10892800013B0132DFE7B8F1000F03D099F90020CD
:10893800002A17DB029BD3B11AF80B2004F8012B8D
:108948000022019B981820448642FFF466AE99F8ED
:108958000000009904F8010B204603920BF00CF874
:10896800039A14440AF1010A09F10109C6E799F8C2
:10897800002055F822300093029B009845F82230D9
:10898800FFF796FD421CDCE76FF00D0047E600BFDD
:10899800014B1860704700BF8CC5002080B50546A4
:1089A8000E461746984607F01FF803460BF002F8E4
:1089B8000446DFF81890424649F8003039463046F8
:1089C800A84754F8090001F0E9F900BF08000000C1
:1089D8002DE9F047058B04462807904611D4022953
:1089E80005F0070540F0CD80204608F059FF78B122
:1089F8000138218B042811D8DFE800F0C3106D85F9
:108A0800950001290CBF45F0100545F02005258388
:108A180088F31188BFF36F8FBDE8F08701F0070A6C
:108A2800AA4500F0A6800027B9463E46A368002B59
:108A380000F0BD8041F00801218388F31188BFF35D
:108A48006F8FA168002900F0BB800D68002900F035
:108A5800B780334652462046D1F80480C047002DDF
:108A680076D02B6829461D46F0E701F007035A1F08
:108A7800012A1BD8002221F00701062B276889B29A
:108A8800C4E9002209D13B4603E0628B01326283CC
:108A98001B68002BF9D141F002012046218308F020
:108AA800FFFE00287BD041F0200177E0042B0AD19B
:108AB80021F0070189B22046218308F0F1FE10B1A8
:108AC80041F020012183218B01F0070AAA4550D0EB
:108AD8000027B946AAE7236921F0070141F00601FA
:108AE800062DD3F8009021832DD1B9F1000F40D085
:108AF80041F00801218388F31188BFF36F8F204666
:108B08003949C84729E021F00701236941F00401E8
:108B180089B2042DD3F804902183E6D000274FF0C2
:108B2800040A3E4682E721F00701236941F0050166
:108B380089B2052DD3F808902183D6D000274FF0AD
:108B4800050A3E4672E700274FF0060A3E466DE7E3
:108B58002B4687E7B9F1000FD1D14FF02003EFF38F
:108B6800118883F31288BFF36F8F238B23F00803D8
:108B78002383258BEA062ED525F01003238305F0E1
:108B880007056669218B002EBFF66FAF00232768A3
:108B9800C4E9003321F0070141F001012183218B51
:108BA8004FF0000901F0070AAA457FF43FAF002FF4
:108BB8009BD041F00801218388F31188BFF36F8FA0
:108BC800002FC7D03D68394633465246204608F044
:108BD80093FE2F46F4E7AB067FF51AAF25F0200386
:108BE800238305F00705FFE62D1902000122024B39
:108BF8000020C3F8402570470090034020B1034B84
:108C0800800143F001031847704700BF503E02003F
:108C180009F052BF2DE9F84F81462F480F4608F05A
:108C28001DFF064670B92D4C0546A0464FF0010BB6
:108C3800DFF8ACA0544507D3B9F1000F02D04FF0CC
:108C4800010AE5B9BDE8F88F237B73B12368DB68B7
:108C58000BB12046984723681B6943B9636804220F
:108C68002046196800F0C4F801361034E2E72046BF
:108C780098470028F2D00BFA06F31D43F4E7A946FB
:108C880095FAA5F4B4FA84F40AFA04F3260108EB79
:108C980004146FEA030B25EA0305237B63B158F834
:108CA80006301B6993B94644736804222046196844
:108CB80009EA0B0900F09CF8002DE1D127B14FF427
:108CC800A470002106F076FE4D46BAE72046984784
:108CD8000028F1D1E7E700BF70C80020243E020059
:108CE800343E0200014B53F820007047FC4002005C
:108CF80008B5034608462BB1044A136000F07EFA13
:108D0800002008BD6FF01500FBE700BF90C50020EC
:108D18000023054A4FF400411370044A04481360C5
:108D2800044A1360FFF7E4BFF2CE002068C80020B1
:108D3800611A02006CC8002070B50B4D297841B942
:108D48000120FFF767FF094C094EB44202D3012303
:108D58002B7070BD63685B791BB1236820469B68E4
:108D680098471034F1E700BFF2CE0020243E0200FD
:108D7800343E020010B50446064808F06FFE3CB1C8
:108D8800054BD3E8EF1F0139C3E8E21F002AF8D1E9
:108D980010BD00BF68C800206CC8002070B50A4B21
:108DA80005461B689847094C094EA860B44200D391
:108DB80070BD63685B7923B12368294620461B6828
:108DC80098471034F2E700BF90C50020243E020007
:108DD800343E0200044A054B9B1AB1EBD30F34BF53
:108DE80052F8310000207047543D0200243E020032
:108DF800084B10B4C31A44681B110133237143682C
:108E08009A7101224368196043685A7110BC08F0CE
:108E180043BE00BF243E02002DE9F04F85B002AFEB
:108E28000446D7E90EA90E46934698463D6BBAF11B
:108E3800000F33D0C7F80490CDF8009010215346A6
:108E480000207A6BFFF7D2FB0146154A04F00704AD
:108E58000BF0070BE40044EA8B1402EA41221443A6
:108E680044EA055417350D4425F00705ADEB050D0B
:108E780002ADBAF1000F07D0CDF8009053467A6BD7
:108E880005F11000FFF7B2FB43462246314628465B
:108E980008F005FE0C37BD46BDE8F08F5146D4E713
:108EA80000FE0F000EB403B503AB53F8042B0146C4
:108EB8000448019301F048F902B05DF804EB03B0EF
:108EC800704700BFD91A0200CA0605D48B064CBFEA
:108ED80002490349FFF7E6BF704700BF8A54020002
:108EE800895402002DE9F04F89B09A46DDE91473E0
:108EF8009DF84CB00593169B04460D46179E0692A6
:108F08000493BBF1000F00F0858006F00803079377
:108F180008F0C3FD06F002090246002849D02046A1
:108F28008549FFF7BFFF8046B9F1000F08D016F05A
:108F3800440F40D12A4620468049FFF7B3FF8044BA
:108F480006F0010353B17E4B204653F82B207D4B8E
:108F58007D49002A08BF1A46FFF7A4FF06F0080358
:108F6800002B54D0794B204653F82B207849FFF733
:108F780099FF0546069B2BB11A4620467549FFF70F
:108F880091FF0544BAF1000F05D0524620467249B8
:108F9800FFF788FF05444544002F49D1049B002B67
:108FA8004FD1F30700F1C18031462046FFF78CFF0F
:108FB800B5E08046B8E7694B18680028BFD0684B11
:108FC8004FF47A791B684FF46161B5FBF3F5B5FB93
:108FD800F0F300FB135509FB05F5B3FBF1F2B5FB04
:108FE800F0FE4FF03C0C01FB123100FB1E55B1FBAB
:108FF800FCF309FB05F5B5FBF0F50CFB1311204656
:109008000091CDE901E55749FFF74CFF97E706F0D6
:109018000805AFE7BAF1010F06D1002F65D1049B0F
:10902800002B7CD000250CE0002FF8D04E485DE0E6
:109038004E483B4622464E4908F045F9049B002B12
:1090480069D0DFF83081DFF83091049F3146102F66
:10905800204628BF10274FF0000AFFF735FF554577
:1090680046DC059B494620461A78FFF71BFF4FF060
:10907800010A1AF0070F03D141462046FFF712FFF5
:1090880057453CD9059B4946204613F80A20FFF767
:1090980009FF0AF1010ABAF1100FEAD14FF0000AEC
:1090A80020463649FFF7FEFE5246059B20469A5C4D
:1090B800334B995C11F0970F08BF2E223149FFF707
:1090C800F1FE0AF1010ABAF1100F1DD01AF0070FCC
:1090D80003D141462046FFF7E5FE57455246E4D8FE
:1090E80041462046FFF7DEFEEBE720485D46A0E755
:1090F80041462046FFF7D6FE0AF1010AAFE72046AF
:109108002149FFF7CFFEC4E7059B3B440593049B29
:10911800DB1B049399D1BBF1000F7FF442AF2046CB
:1091280009B0BDE8F04F08F0FCBC2046054A0649E6
:10913800FFF7B8FE38E700BF6C480200704802002D
:109148000C41020067480200FA4E0200204102006A
:10915800954802009B4802009F48020078C80020FA
:1091680074C8002079480200F51A0200D91A0200D2
:1091780051A10100AC480200A4480200AE48020018
:1091880099550200B0480200AA4802002DE9F041B2
:109198000F884B6805460C4690468E6886B0C7F324
:1091A80082175BB1144A9B1A43F3CF01002920DBD5
:1091B8002078C0F3C200FFF70DFE0346214651F8A0
:1091C800102B6088C2F34A22002A01EB020408BF70
:1091D80000210022C0F30B10CDE90408CDE90214E8
:1091E8002846314601970092FFF77CFE06B0BDE89D
:1091F800F0810023E2E700BF543D02000021012373
:10920800064A904206D8064A01B901231360054B65
:1092180018607047012140085B00F2E740420F00E8
:1092280074C8002078C80020014B002019607047DE
:1092380090C800200122024B02481A7008F071BC45
:10924800F4CE00205041020010B5064B0C461868B9
:10925800FFF748FD2146BDE8104003460F220248AB
:10926800184700BF90C8002050410200F8B50D46CD
:109278000446064F4618B44201D12846F8BD14F8F2
:10928800011BBB6801485B689847F4E7AC3A0200E9
:10929800034610B588B08DF807300DF10703029327
:1092A8000123094ACDE90513106803930022072317
:1092B8008DF810208DF81C30836802229C6802A962
:1092C8004623A04708B010BD94C8002070B586B0EA
:1092D8000E460DF1070105461446FFF7D9FFC8B938
:1092E8009DF807308DF8085023EA06010A4B44EA36
:1092F8000102186802AB039302238DF807208DF84A
:10930800092004938DF81430836801229C6803A90E
:109318004623A04706B070BD94C8002010B5044687
:1093280009F0EEFF18B10020024B1C6010BD6FF071
:109338001200FBE794C80020014910220A60704718
:1093480010ED00E072B6404080F31188BFF36F8FD4
:10935800BFF34F8F30BF62B6BFF36F8F704700BF48
:1093680072B6494081F31188BFF34F8F20BF80F355
:10937800118862B6704700BF70B506460D4686B0C4
:10938800002938D000248B68012205934B682046B9
:1093980004930B681B4903931B4BCDE900440293CC
:1093A800234608F0EEFB6B69012205932B692046E2
:1093B8000493EB6813490393144B0094CDE90143DC
:1093C800234608F0DEFBEB6901220393104B20468D
:1093D800CDE901430B492346009408F0D2FBAB6961
:1093E800012203930B4B2046CDE90143054923464F
:1093F800009408F0C6FB2946304606B0BDE8704028
:1094080005F0EABC043E0200ED4802001C490200D7
:109418004B4902005A49020040B2002807DB0123E9
:109428004109034A00F01F00834042F82130704789
:1094380000E100E040B200280CDB012206494309A4
:1094480000F01F008240203341F82320BFF34F8FE4
:10945800BFF36F8F704700BF00E100E0054B420982
:1094680053F82220012300F01F0003FA00F01040F7
:10947800704700BF00E100E040B2002801F101019F
:10948800ACBF00F16040064B4FEA4111C9B2ABBF17
:1094980000F5614000F00F0080F800131954704780
:1094A80014ED00E030BFFFF7FDBF00BF0B4A08B561
:1094B8000B4B22F07F029A60BFF34F8FBFF36F8F81
:1094C800D3F8882022F47002C3F8882005F028FD1C
:1094D80006F0F0FA00F0DCFB05F06CFD00800100FE
:1094E80000ED00E0094A0A499368096858679967D6
:1094F80008494B6843F080534B60002383F311887D
:10950800BFF36F8F9368986F704700BFB4CE002089
:109518002C47020000ED00E018498A6882F87DE0D7
:109528004FF030001044EFF3098C80E8F01F202042
:1095380080F31288BFF36F8F114F4FF000664A69AE
:109548008A603E604FF07004141920680D4C20604A
:1095580092F97DE0506F0023536780F3118802F180
:10956800300090E8F01F8CF3098802F1000004B580
:1095780008F026FBBDE8044070470000B4CE002088
:1095880004ED00E098C800201EF0040F0CBFEFF3B4
:109598000880EFF30980816911F8021C0229FFD0C5
:1095A80001B508F0FEFA01BD42F8203C009B0C49C9
:1095B80042F81C3C019B21F0010142F8183C029B37
:1095C80042F8081C42F8143C4FF0807342F8043CFF
:1095D800002343674FF43C43203A0265C367704752
:1095E800A58901000A4B046F98600A4B1C60036E42
:1095F80083F30B88104681F30988002163B681F351
:109608001188BFF36F8F00220023FFF7C7F900BF4F
:10961800B4CE002098C8002001B5EFF30580A0F172
:1096280010004FEAC0000449014409C99847BDE841
:1096380001400249084700004C3B0200A596010082
:10964800114B124A2DE9F041D518013DB5FBF3F550
:10965800DFF83C805D430F4B074608EB0304013CF1
:10966800B4FBF3F403FB04540E1B30460A490AF01A
:1096780083F9701942460021083E0AF08AF93E67CC
:1096880004F10800BDE8F0810100000000000000BE
:109698000800000004000000343E0200044B9968F2
:1096A8005869884203D003494FF080520A607047D6
:1096B800B4CE002004ED00E0F0B50024414B85B0A5
:1096C8000293074623460E4601222046CDE9004470
:1096D8003D4908F079FA3D4B9B6ADD066FD53C4B56
:1096E8002046CDE90143012223463749009408F07A
:1096F8006BFA1120354B9B6A1C070AD5354B0122A2
:109708000293002330491846CDE9003308F05CFA8B
:1097180012202E4DAB6A99071FD500242E4B01222B
:10972800029320462346CDE90044274908F04CFA25
:109738006B6BAA6A12060FD50393284B0122CDE959
:109748000143204623462049009408F03DFA1FB102
:10975800AB6A23F08003AB6213201C4B9B6ADD07C6
:109768000AD51F4B01220293002317491846CDE959
:10977800003308F029FA1420144B9B6A9C060AD57A
:10978800184B0122029300230F491846CDE90033F4
:1097980008F01AFA15200D4B9A6AD10658BF9A6A32
:1097A8009A6A920642BF5A6A22F400525A629A6A28
:1097B80042F0FF029A620023337005B0F0BD10201A
:1097C80098E700BF88490200043E020000ED00E06F
:1097D8009E490200D1490200E4490200FC49020006
:1097E800124A0200314A0200F0B50024434B85B00A
:1097F8000293074623460E4601222046CDE900443F
:109808003F4908F0E1F93F4B9B6ADB0465D53E4BC5
:109818002046CDE90143012223463949009408F046
:10982800D3F91720374B9B6A1D050AD5374B012200
:109838000293002332491846CDE9003308F0C4F9F1
:109848001820304DAB6A9C051FD50024304B0122EF
:1098580020460293CDE900442346294908F0B4F98B
:10986800AB6BAA6A10040FD503932A4B0122CDE9EA
:109878000143204623462249009408F0A5F91FB168
:10988800AB6A23F40043AB6219201E4B9B6A59054F
:109898000AD5214B01220293002319491846CDE924
:1098A800003308F091F91A20164A936A13F480736A
:1098B80015D01A4B01220293002311491846CDE90D
:1098C800003308F081F91B200E4A936A43F47F4362
:1098D80093620023337005B0F0BD1620A2E7926AA8
:1098E8009204F1D50E4A1846CDE901320449012205
:1098F800009308F069F91C20E6E700BF604A0200FF
:10990800043E020000ED00E0764A0200D149020060
:10991800874A0200A04A0200B54A0200D04A020063
:10992800314A02001FB500243E4B3F4902930122F1
:1099380023462046CDE9004408F046F93B4B9B6A94
:1099480099016DD53A4B2046CDE9014301222346C2
:109958003549009408F038F91E20344B9B6ADA0127
:109968000AD5344B0122029300232F491846CDE92A
:10997800003308F029F91F202C4B9B6ADB020AD51B
:109988002D4B01220293002327491846CDE90033C5
:1099980008F01AF90220254B9B6A1C030AD5274BAD
:1099A80001220293002320491846CDE9003308F02C
:1099B8000BF921201D4B9B6A59030AD5204B012224
:1099C8000293002318491846CDE9003308F0FCF843
:1099D8002220164B9B6A9A030AD51A4B012202933E
:1099E800002311491846CDE9003308F0EDF823208B
:1099F8000E4B9B6ADB030AD5134B0122029300230B
:109A080009491846CDE9003308F0DEF82420074A52
:109A1800936A6FEA03436FEA1343936204B010BD7D
:109A28001D209AE7E84A0200043E020000ED00E02B
:109A3800004B0200134B02002D4B0200574B020053
:109A4800754B02009A4B0200B44B02002DE9F0431B
:109A5800784B0446D3F8048089461646002591B011
:109A6800C8F3080785F31188BFF36F8F02F07F43AF
:109A7800B3F17F4F25D112F0010322D1510603D44F
:109A880032070DD401250DE06B4A1846CDE90132A5
:109A98006A490122009308F097F816F0040600D0EE
:109AA8004C4600254FF00009FB1E8DF81F90092B2E
:109AB80000F2A680DFE803F0079A9E96A4A4A4A467
:109AC800A4A22C46EEE75E4B0122CDE901930023C8
:109AD8005A491846574FCDF8009008F075F88DF898
:109AE8001F90FE6A16F0020605D0564BCDE9019389
:109AF800CDF8009006E0FB6A002B0BDA524B00967B
:109B0800CDE901630023012218464C4908F05CF8AE
:109B1800002330E0FB6A5B00FAD54C4B0122CDE90B
:109B28000163304633464549009608F04DF87B6995
:109B3800A26943F480737B61BFF34F8FBFF36F8FCC
:109B48007B6932F8022C23F480737B61BFF34F8F5B
:109B5800BFF36F8F4DF602739A422CD1236801220E
:109B680003933B4B3046CDE90163344933460096B5
:109B780008F02AF823689DF81F20CAB908AE04F136
:109B88002007324620686168083403C2BC42164682
:109B9800F7D10F9A002D47D0C2F3080121B96FEA17
:109BA80052226FEA42220F92184608A9FFF7E4FBF7
:109BB80011B0BDE8F083BB6ADBB22BB101200DF117
:109BC8001F01FFF779FD0FE0BB6A13F47F4F05D043
:109BD80001200DF11F01FFF707FE05E0BB6AB3F591
:109BE800803F95D3FFF79EFE0346C4E700200DF1A2
:109BF8001F01E6E700200DF11F01ECE7154B75E7A3
:109C0800154A18F4F87F154B18BF1346103FCDE9D5
:109C18000337134B01220293002308491846CDE964
:109C2800003307F0D1FF73E722F4FF7222F001023C
:109C3800B9E700BF00ED00E00D4C0200043E020051
:109C4800304C0200474C0200684C0200764C02007F
:109C5800954C0200B14C0200F44B0200DF4B0200AD
:109C6800D54C0200044B5A6942F010025A615A69F5
:109C780042F480625A61704700ED00E0EFF308801B
:109C8800EFF3098101B57246FFF7E0FE01BD00BFA1
:109C9800002320210348C2180133412B82F8001306
:109CA800F9D1704700E100E0002080F31488BFF389
:109CB8006F8F002080F30A8880F30B88FEF7A8FFD7
:109CC80000200E490860BFF34F8F0D4880F30888C5
:109CD80000F03EF8202080F311880A484FF4006114
:109CE800401880F30988EFF314800221084380F3B9
:109CF8001488BFF36F8FFFF7D9FB000094ED00E0E5
:109D080060E8002020CF0020BFF34F8F0549064BA5
:109D1800CA6802F4E0621343CB60BFF34F8F00BF01
:109D2800FDE700BF00ED00E00400FA050023184637
:109D38000649D1F89020C2F30722934200DB70470E
:109D4800C1F89830C1F8A0000133F6E700ED00E053
:109D580010B572B6002484F31388FFF7E7FF234693
:109D68004FF0FF300C4A03F120010133102B42F869
:109D78002100F8D100234FF0FF30074A03F16001BA
:109D88000133102B42F82100F8D162B6BFF34F8F90
:109D9800BFF36F8F10BD00BF00E100E0084B9B6868
:109DA80083420BD1EFF3058343B1064B5A6842F067
:109DB80080525A605A6A22F400425A6205F01ABE6A
:109DC800B4CE002000ED00E01FB5094C094A234637
:109DD8000121094800F018F900230393074B0121DA
:109DE800E41A01A80193029400F018F904B010BD18
:109DF8000000042080C500206041020028C7002020
:109E080010B50C7A0B6804F01F0223F01F031A43E5
:109E1800CB68640923F01F03054943EA440343F070
:109E28000103C1F89800C1F89C20C1F8A03010BD0A
:109E380000ED00E00F281FB504460FD9094B039029
:109E48000293002301221846CDE90033064907F0A2
:109E5800D6FE6FF01504204604B010BDFFF7D0FF02
:109E6800F9E700BFEC4C0200F43D02002DE9F04F89
:109E78008946144606464FF00008544D89B0C84537
:109E88002DDAD6F804A0BAF1000F4AD0BAF11F0FA4
:109E980017D91AF01F0F14D1D6F800B01BF01F0FF6
:109EA8000FD1584607F0A2FE07460AEB0B0001380F
:109EB80007F09CFE874216D06FF01507444B0397B6
:109EC80002E0444BCDF80C8002930023012218468F
:109ED800CDE90033404907F092FE6FF015042046A3
:109EE80009B0BDE8F08F17F1160FE7D0BC42E5DDE9
:109EF800C5F89870D5F89C10C5F89870D5F8A030BA
:109F080021F01F0143F01F0BD6E900321A44994291
:109F180002F1FF3A1DD1D34507D13146F8B207F017
:109F28007EFE08F101080C36A9E73146C5F898709D
:109F3800D5F89C3022F01F0203F01F031343C5F825
:109F48009C30E0B207F06BFE10F1160FC5D0441C30
:109F5800E7E7C5F89870D5F8A020013B23F01F0368
:109F680002F01F021343D3453146E0B2C5F8A030D2
:109F7800E8D007F054FE10F1160FAED0C5F898706F
:109F8800D5F89C209DF818300BF1FF3B62F30403D1
:109F98008DF81830D5F8A0309DF818205B0863F3C9
:109FA80047128DF81820D6E900321344049323F0A1
:109FB8001F035B44A3EB0A03013023F01F0304A92A
:109FC800C0B20793FFF736FFBEE700BF00ED00E021
:109FD800354D0200124D0200F43D02000522044BEB
:109FE800C3F89420BFF34F8FBFF36F8F704700BF44
:109FF80000ED00E0BFF35F8F0022024BC3F894200E
:10A00800704700BF00ED00E010B5034C2278FFF761
:10A018002DFF207010BD00BFF5CE00202DE9F74FB1
:10A02800294D8A4606464FF00008AB46274FD045D3
:10A038001BDAD6F80490B9F1000F3FD03168084612
:10A04800019107F0D3FD0199044609EB010001389D
:10A0580007F0CCFD84424FF014021D4B08D002FBE0
:10A0680008F36FF015024BF8032003B0BDE8F08F3A
:10A0780014F1160F2C60F8D01978A142F5DD02FB17
:10A0880008B0C7F89840C7F89840D7F89C4000F146
:10A098000801007B64F304000871D7F8A0000C796C
:10A0A800400860F347140C71D7F89C1021F01F0189
:10A0B8006960D7F8A01021F01F01296108F1010893
:10A0C80014350C36B3E700BF9CC8002000ED00E053
:10A0D800F5CE002038B50E4D2C68102C15D8002070
:10A0E800FFF788FF0B4B0C4AC3F8C020844205D108
:10A0F8000A4B00201C70FFF771FF38BD696801EB3F
:10A108000011FFF77DFE0130F0E74FF0FF30F4E774
:10A118006C41020000ED00E0AAFF4400F5CE0020EB
:10A1280008B5024B1B689847002008BDB0C800203E
:10A13800034B044A1860937843F002039370704706
:10A14800B0C8002094C50020F0B587B007460E4679
:10A1580014460021102268461D4609F01AFC022305
:10A168008DF80230054B2A4621466846CDE904762B
:10A17800019305F00FFF07B0F0BD00BF591C0200A6
:10A1880008B50649064821F00701C1F1005202F559
:10A19800802207F02DFB002008BD00BF73EA0020D5
:10A1A80060EA00201FB52448FFF7B8F80446C0B19C
:10A1B800224B03900293002301221846CDE9003375
:10A1C8001F4907F050FD1F4B0122029300231C4931
:10A1D8001846CDE90033039407F045FD204604B046
:10A1E80010BD072007F0B1FC044610B1164B0390D0
:10A1F800E0E71F2007F0A3FC044610B1134B0390BF
:10A20800D8E7072007F0ACFC044610B1104B0390C8
:10A21800D0E7012007F09FFC044610B10D4B0390D6
:10A22800C8E70121084607F0A2FC04460028D5D05B
:10A23800094B0390BEE700BFC03A0200674D020019
:10A248009C3D02005B4E0200904D0200BD4D020095
:10A25800E84D02001C4E02003B4E0200084B70B550
:10A26800C31A0D4607499B10044659434022064825
:10A2780007F025FD2B4601462046BDE870401847EB
:10A28800C8C80020B76DDBB6703A0200402373B52A
:10A298000B4C0093041B0B460D460A49A41061435E
:10A2A8000646094A094807F036FD011E05DA304618
:10A2B8002B4602B0BDE87040184702B070BD00BF21
:10A2C800C8C80020B76DDBB6891D0200703A0200CD
:10A2D80070B50022012104460520FFF7CDF80F488C
:10A2E80002F064FC0E4B984215D102F06FFC26690F
:10A2F8000C49304607F024FB00280BDB01253564A8
:10A308002469084904F11C0007F01AFB002801DB46
:10A318000020E56470BD6FF00400FBE765A3010051
:10A328000000AD0B9441020001460C2300224B4370
:10A3380070B50848C41840331844D4E90E56A263CF
:10A3480007F0AAFC2DB132462B46BDE87040024802
:10A35800184770BDC8C80020703A020010B1012823
:10A3680004D07047034B1B6C5B0701D1FFF7DCBFC0
:10A37800704700BFC8C8002008B54FF02003EFF3AE
:10A38800118183F31288BFF36F8F114A136843F06A
:10A3980002001060DA0708D481F31188BFF36F8FC9
:10A3A800BDE80840012002F021BC0A4BD3F80C2478
:10A3B800D3F80C34DB07EFD5074807F06DFC81F3C1
:10A3C8001188BFF36F8FBDE808400020FFF7ACBFCE
:10A3D80018C900200050004008C900201FB50022FD
:10A3E8000123CDE902236B46084ACDF800D0CDF809
:10A3F80004D007F0BEFC002805DB4FF480420023A0
:10A40800684604F0CFFF05B05DF804FBA71D020005
:10A4180010B54FF02003EFF3118483F31288BFF3D4
:10A428006F8F074A136823F00201DB07116002D41B
:10A43800012008F04CFB84F31188BFF36F8F10BD27
:10A4480018C900202DE9F041012207463549D1E815
:10A45800EF3FC1E8E02F0028F9D133B9324933483A
:10A468004B60CB608A6007F07EFA7B1E012B28D8F0
:10A47800012F06D12E4BD3F81C3403F00303022B13
:10A488001FD008F0CEFF0546E8B92A4B1B78D3B198
:10A4980002220646264BC3F80823254CDFF898808D
:10A4A800D4F81824D4F81834D20316D503F00303CB
:10A4B800022B01D0012F10D175B386F31188BFF399
:10A4C8006F8FBDE8F0814FF02003EFF3118683F31F
:10A4D8001288BFF36F8F0125DFE7C5B13046FEF75D
:10A4E8003FFFD4F81835DBB2012BD9D1D4F80421B9
:10A4F800002AD5D00022C4F80421D4F8042102226D
:10A50800C4F818252022C8F88021A360C8E70021D4
:10A51800212005F04FFAE4E70222054BC3F8042393
:10A52800CFE700BFC4C80020B4C80020E4C800209A
:10A53800005000401CCF002000E100E008B50748AB
:10A5480008F0DEFE38B10648FFF7F2FD0448FEF7D2
:10A558001FFA002008BD6FF01200FBE7AC3A0200BA
:10A568006DA501000A2838B50446074D04D1AB682B
:10A578000D2128465B689847AB6803485B68E1B2E1
:10A588009847204638BD00BFAC3A020030B5406855
:10A5980001F01F04057BB2F5001F85B044EA45149D
:10A5A80005D1204602F00AFE002005B030BD002586
:10A5B800B2F5800FCDE9025514D1B3F1007F0CBF7D
:10A5C800042305238DF8083000232046194602AAE3
:10A5D80002F024FC204B984238D10121204602F099
:10A5E800A3FDE1E7B3F1C06F25D0B3F1007F14BF3D
:10A5F800012302238DF80830836823FA01F111F052
:10A608000101E1D1B2F1A07FDED104F01F0362099C
:10A6180003F180031DD1114A52F82330DB07D3D44C
:10A628000DF107052946204602F02AFD0C4B9842F9
:10A6380003D00395C8E70323DCE7284602F06EFD44
:10A64800054B9842F5D06FF00B00AEE76FF01500A0
:10A65800ABE751F82330FFDE0000AD0B0025844046
:10A668000400AD0B10B502F049FD044668B902F0CC
:10A678001DFD084B98420AD12146074802F0FAFC12
:10A68800224605213120FEF7F7FE002010BD6FF0AD
:10A698000400FBE70000AD0BA5A60100430970B557
:10A6A80007D10B4B596821B101250C68094E85402B
:10A6B80001B970BD8A682A4002D030464B68984775
:10A6C8001CB1236821461C46F2E72346FAE700BF7F
:10A6D8001CC90020843A02002DE9FF41476801F0B7
:10A6E8001F053B7B144645EA43150E4628460DF1E7
:10A6F800070102F0C5FC14F4403F80460DD12846FE
:10A7080002F082FD3C4B984503D19DF8070002F00A
:10A71800FFFC002004B0BDE8F0810023284619465C
:10A7280002AACDE9023302F079FB334B984214D1E7
:10A73800804503D19DF8070002F0EAFCA3034CD53D
:10A7480040F206332340B3F5837F1AD00DD8062B89
:10A7580018D005D8B3B1022B32D06FF01500D9E765
:10A76800B3F5807FF9D101230CE040F20222934235
:10A7780028D0B3F5407F27D0B3F5007FEDD1022371
:10A7880000E007238DF8083084F48033C3F30043D6
:10A79800E0068DF809304CBF0323C4F340132103AE
:10A7A8008DF80A3012D501237A68B34093600022ED
:10A7B800284602A902F0E6FB0F4B9842A9D0CCE745
:10A7C8000423DFE70523DDE70323DBE7620341BF5B
:10A7D80001237A68B340D360E9E7E3064FF000034A
:10A7E8004CBF0324C4F340141A46284602A98DF826
:10A7F800084002F013FBDFE70000AD0B1FB511F0B6
:10A80800010342680ED1C1F3420101290DD002298A
:10A8180014D00C4A1846CDE901320B4901220093A5
:10A8280007F024FB6FF0150005E013684FF0CC72B9
:10A838000020C3F8242505B05DF804FB13684FF029
:10A84800C862F5E7CB4E0200C43D02007FB54468FC
:10A858000546E36906699847206A07F017FB002850
:10A8680017DB334620460E4A04F1080103F0DCF8F2
:10A878000C4B98420FD02B68012203930A4B0B49CB
:10A88800029300231846CDE9003307F0EFFA6FF082
:10A89800040004B070BD204603F028F90020F8E752
:10A8A800F5A801000000AD0BDD4E0200C43D02001A
:10A8B80070B5446823682046D3F80855D3F80C656A
:10A8C80003F024F93146284603F0B6FB0546206A12
:10A8D80007F0DCFA204603F009F9034B9D4214BF48
:10A8E8006FF00F00002070BD0000AD0B0378012B46
:10A8F80008D0022B08D04BB9054B0B6201F11000B0
:10A9080004F02CBD034BF8E7034BF6E7034BF4E7E1
:10A918000000AD0B0100AE0B0200AE0B0100AD0B49
:10A928002DE9F04F1D46436893B0D0F81080089386
:10A938001B8B07460C469246002114220DA8D8F816
:10A948002490099309F025F88DF835504FF0FF321F
:10A958004FF0FF33404604F025FD08F110030A9339
:10A9680000260022002308F1100004F01BFD3546E4
:10A97800564501D3002434E0207A020700F1A7806D
:10A9880006F1010BD34521680AD2830708D4237D39
:10A9980080EA030202F0010203F004031A4307D01D
:10A9A80025B901F06043B3F1005F2FD0002300E028
:10A9B80001236268DDF824E005EB020CF44517D9A1
:10A9C8003B6844490693444BCDE9042E0293002387
:10A9D80001221846CDE90033039507F047FA6FF0D6
:10A9E8001B04404604F0BAFC204613B0BDE8F08FC3
:10A9F800C00705D409EB05000B9308F0BDFF0B9BBE
:10AA080062682A4495B2002B4DD1DDB90025236830
:10AA180010936368227A0E9302F0010382F0020217
:10AA2800C2F34002089852010DA98DF8343003F0A2
:10AA38008BF82A4B984209D00B3398421CD16FF0FF
:10AA48000F04CEE72B46CDF84090E3E700234FF400
:10AA580080420A9804F0A6FC034680B1204B0122EC
:10AA6800029300231B491846CDE90033039607F0EB
:10AA7800FDF93846FFF71CFF6FF00404B1E7D8F87A
:10AA8800202016498A420AD0CDE90326154A1149E1
:10AA9800CDE901020090012207F0E8F9ECE7237AFA
:10AAA800DB0703D400255E460C3461E7109B4B4559
:10AAB800F8D1264606E0A91A8DB2F06819FA81F194
:10AAC80008F05AFF72680C3E9542F4D2EAE76FF03C
:10AAD800850486E7C43D0200FD4E02000000AD0B70
:10AAE800C84F0200F24F02002DE9F041534D544E79
:10AAF80000EB8101814202D10020BDE8F0810468A9
:10AB080004F07F03C4F343277F2B4FEA144408BFA4
:10AB18004FF0FF33192C00F28280DFE804F00D13A8
:10AB2800191C1F251C80808080365F808080808073
:10AB38008080808062777A7DC2F80C355C1C5AD19F
:10AB48000430D7E7C2F814355C1CF9D000245BE068
:10AB5800C2F80835F2E7C2F81035F5E75C1CC2F810
:10AB68000835EDD0002404E05C1CC2F80C35E7D0B1
:10AB780001245FEA531C55D14FF0010EDFF8BCC029
:10AB88000EFA03F8CCF80C8008E0C2F80835002F5C
:10AB9800DAD15C1CD4D000240627A646D0F8008061
:10ABA80008F4005CBCF1000F1CBF01244FF0000E3C
:10ABB80003F01F0C5B093BD105EB8C0CDCF8003271
:10ABC800C8F3C118334043EA880343EA072343EA3A
:10ABD8000E0343EA4403CCF80032B1E7C2F80C355F
:10ABE800D5E7C2F86035B3F1FF3F0468A8D0C4F3D5
:10ABF8008034002CBCD05C0917D10124DFF83CC09C
:10AC080004FA03FECCF808E0A646C7E7C2F86435A4
:10AC1800E9E7C2F86835E6E7C2F86C35E3E76FF0B4
:10AC280085006AE70023DB60FFDE00239B60FBE70B
:10AC380000230CF1800C53F82C30F5E700258440F4
:10AC4800F0F8FCFF022ACCBF6FF01502094B10B5D3
:10AC5800D8BF33F9122004460748D31781FB0001F7
:10AC6800FDF76EFA054A90FBF2F3236002FB13032B
:10AC7800636010BD044802003AA3950040420F00EB
:10AC88000023F0B5456887B004468DF8163028686B
:10AC980008F036FB20B96FF01505284607B0F0BD5F
:10ACA800E868A8B901231F225221606807F0CAFB8F
:10ACB800054690B14D4B012202930023CDE90033A4
:10ACC800039018464A4907F088FB6FF01205E4E73D
:10ACD80008F016FB0028E5D1DDE701270021A420B4
:10ACE80004F068FE00970DF1160302220B2160683C
:10ACF80007F083FB9DF81630F22B07D003933D4BEA
:10AD08003A46CDE9015300952B46DAE766680223F7
:10AD180020224FF47A71304607F094FB002860D166
:10AD28003B4622223946606807F08CFB002858D140
:10AD3800009727220B2160680DF1170307F05DFBD0
:10AD480000284ED19DF817103B4601F0FD0127223F
:10AD5800606841F0010107F075FB002841D102232A
:10AD680023226421606807F06DFB002839D1022393
:10AD780025223946606807F065FB90BB00972722BB
:10AD88000B2160680DF1170307F037FB48BB9DF8EE
:10AD980017103B4601F0F7012722606841F00401D3
:10ADA80007F050FBE8B9012328220821606807F062
:10ADB80049FBB0B9014601232922606807F042FB2C
:10ADC80078B90146204607F049FB50B901462046AC
:10ADD80007F063FB28B901232D22317E606807F054
:10ADE80031FB0028BFF659AF6FE700BF3D500200A6
:10ADF800543D0200655002002DE9F04F436889B0C8
:10AE08009B6905469847041E0DDA204B01220293E0
:10AE180000231F491846CDE9003307F0C7FB204639
:10AE280009B0BDE8F08FD5F810800021D8F80830B7
:10AE380028469B680DF11E026E6898470446002854
:10AE480040F06781D8F80830022128469B680DF148
:10AE58001F0298470446002840F05B819DF81E3089
:10AE68009DF81F20AD2B01D1FA2A15D0CDE9033268
:10AE7800084B01220293002305491846CDE9003307
:10AE880007F094FB6FF01204C9E700BF8950020075
:10AE98005C3D0200A95002000223014688F81030E8
:10AEA800284607F06CFB0446002840F03281014632
:10AEB80028462F6907F063FB0446002840F02981E3
:10AEC800BB685222412128465B68984704462120E6
:10AED800002104F06FFD002C40F01B81777FD5F82E
:10AEE8001090391FD9F808204B424B41D4683F21B4
:10AEF800042228469B00A0470446002840F0098108
:10AF0800D9F80830382128465B6807F003029847CB
:10AF18000446002840F0FD80377FD5F81090A7F14F
:10AF28000C0253425341D9F808203F21D4682846DF
:10AF38000822DB00A0470446002840F0EA80D9F840
:10AF480008300722DC683E21284607F00703A0479F
:10AF58000446002840F0DD802846B17F07F01AFB40
:10AF68000446002840F0D5802A6996F83230926865
:10AF78009B00D4683D211C22284603F01C03A047EF
:10AF88000446002840F0C5802A6996F82030926867
:10AF98009B01D4683E214022284603F0C003A04705
:10AFA8000446002840F0B5802A6996F83330926844
:10AFB8005B01D4683F212022284603F02003A047E4
:10AFC8000446002840F0A5802321284606F12202E5
:10AFD80007F0C4FA0446002840F09B802A2128463E
:10AFE80006F12A0207F0BAFA0446002840F09180D8
:10AFF8002B6929219B6828465B6896F83820984772
:10B008000446002840F08580D5F81090F78ED9F8CE
:10B018000830302128465B683A0A984704460028D9
:10B0280077D1D9F80830312128465B68FAB29847B9
:10B03800044600286DD12A6996F8343092681B01BD
:10B04800D4683F211022284603F01003A047044685
:10B0580000285ED1B6F8309096F82EA0B9F5007F9A
:10B0680096F82FB02F693FF60DAF0146284607F036
:10B0780086FA044600284CD14FEACB024FEA4A032D
:10B0880003F0060302F038021A43BB68B9F1FF0F58
:10B0980088BF42F001023A2128465B689847044677
:10B0A800002836D1BB68392128465B685FFA89F2E7
:10B0B8009847044668BB87F80DB087F80CA0A7F836
:10B0C8000E902F693B21BB6828465B6896F83920AB
:10B0D80096F83A9098470446D8B9BB684A463C2146
:10B0E80028465B689847044698B9284696F835106C
:10B0F80007F045FA044660B92A6998F81030926852
:10B108001B01D4683E213022284603F03003A047B3
:10B118000446002CFFF6B6AE002480E6F0B50546DE
:10B128000E46144687B02AB1013A012A25D96FF094
:10B1380085004EE01B68B3F5C86F16D008DCB3F580
:10B14800C87F14D0B3F5487F13D06FF0150040E0E6
:10B15800B3F5486F0FD0B3F5C85FF6D10421284680
:10B1680007B0BDE8F04007F015BA0221F7E711462D
:10B17800F5E70121F3E70321F1E747685868D3F8B9
:10B1880000E0DFF880C0C11700231F4ACEFB0C0186
:10B19800FCF7D6FF002903460A4602DA434261EB70
:10B1A8004102B3F5006F72F10002CEDAADF8143047
:10B1B800BB8C022C14BF2A212321ADF81630032E94
:10B1C80014D8DFE806F002080B0E05AA284607F097
:10B1D80098F907B0F0BD05AA0231F7E705AA0431CE
:10B1E800F4E7284605AA07F0B9F9F2E7074B012268
:10B1F8000293002306491846CDE9003307F0D6F933
:10B2080095E700BF40420F00B9F60E00C750020094
:10B218005C3D020030B50369032936D8DFE801F048
:10B2280002101316B3F900304EF66B714B431848F1
:10B2380093FBF0F100FB113311605360002030BD27
:10B24800B3F90230F0E7B3F90430EDE74EF66B746A
:10B25800B3F900000E49604390FBF1F501FB1500BE
:10B2680015605060B3F90200604390FBF1F501FBF3
:10B2780015009560D060B3F90430634393FBF1F097
:10B2880001FB103310615361D8E76FF08500D6E7F2
:10B2980040420F0010B5094A036944689A60206863
:10B2A80008F02EF838B1E06808B9002010BD08F0A1
:10B2B80027F80028F9D16FF01200F7E7C043020021
:10B2C8002DE9FF4700236A460293CDE90033CDF804
:10B2D8000B301D210F230646046907F02BFA0028BE
:10B2E800C0F241819DF8003023F07F0284F83820B5
:10B2F8009DF80E201B0602F0100184F8391040F169
:10B308002B819DF807109DF806500909B4F80EC066
:10B3180041EA05119DF805504FEA4C0C41EA053108
:10B32800CCEBD10C4FEAEC754FEA5C0141EAC571F0
:10B338004D43A1FB011A0AEB450A94F91250090B77
:10B3480041EA0A514FEA0519ED174D434FEA2A3AE7
:10B3580009FB0A55A1FB09912944B4F910504FEA99
:10B36800993985FB0C5CED0A49EA814945EA4C5557
:10B378004D44E56305EB85016D10A5F57A454FEA67
:10B38800A50A0AFB0AFA94F91EC04FEAEA290CFB3F
:10B3980009F9B4F91CC09DF804309DF8038005FB39
:10B3A8000CFC9DF802E01B0943EA081343EA0E333C
:10B3B800B4F91AE04FEA4C0C0CEBA90C4FEA0E4E0C
:10B3C8000EEBAC0CC3F58013A3EB2C3340F6354CD5
:10B3D800B4F916904FEA6A3A05FB09F994F918503E
:10B3E8000CFB03F36D010AFB05F5ED1005EB690590
:10B3F800AD14B4F8149005F5004509FB05F5B3F153
:10B40800804F4FEAE535ADBF93FBF5F35B0093FB47
:10B41800F5F35B00DD106D434FEA653CB4F922504B
:10B42800B4F9208005FB0CFC9D1008FB05F54FEADC
:10B43800232E6D1305EB2C350EFB0EFC0EFB0CFCBE
:10B4480094F824E080310EFB0CFC05EB6C4594F974
:10B458001FC0091205EBCC1503EB25136425E36225
:10B4680094F9063094F905C04B4393FBF5F34B432D
:10B4780001FB0CFC9B119CFBF5FC93FBF5F3BDF861
:10B4880008006344B4F802C003F580430CFB03F3DF
:10B4980040BAB4F800C080B2A0EB0C1094F904C014
:10B4A8009B1201FB0CFC9CFBF5FCA0EB6C004343DE
:10B4B80094F90800A162414391FBF5F1E0794FF05E
:10B4C800050C01EBC0119813404309118012484341
:10B4D8004FF47A7103EB60039B124B4323491B1310
:10B4E80023EAE3738B42D4BF2363216340F23C55C4
:10B4F80000239DF80D7094F9271002F00F00CCFB83
:10B5080001531B49920951F8201042EA8702A5FB12
:10B51800015C01FB03C12D0CD20345EA014512F180
:10B528007F4263EB0303521943EB21434FEA214C5B
:10B5380010495F1051F82000A0FB055100FB0C11C9
:10B548006D0A500845EAC15540EAC370281847EB10
:10B558006121FCF7F5FD606355227421304607F040
:10B56800F0F800EAE07004B0BDE8F087A0860100BA
:10B5780010440200D0430200F0B505460669406851
:10B5880091B083681B689847041E0EDA2B68012265
:10B598000393824B8249029300231846CDE9003376
:10B5A80007F008F9204611B0F0BD0123D021284644
:10B5B80006F1400207F0BEF8041EF3DB96F84030AF
:10B5C800612B0DD00393774B01220293002374491A
:10B5D8001846CDE9003307F0EDF86FF08504E1E790
:10B5E80017238A21284605AA2F6907F0A3F8041E05
:10B5F800D8DB0E23E12128460DF12B0207F09AF83B
:10B60800041ECFDB0523002128460DF1390207F07F
:10B6180091F8041EC6DBBDF833307221FB81BDF8FA
:10B62800143028463B829DF81630BB74069B7B611C
:10B638009DF81C303B76BDF81E309DF82D207B838D
:10B64800BDF82030BB83BDF822305BBAFB83BDF860
:10B6580026303B84BDF828307B849DF82A3087F853
:10B6680024309DF82C3003F00F0343EA02133B808B
:10B678009DF82C309DF82B201B0943EA02137B8090
:10B688009DF82E3001223B719DF82F307B719DF87B
:10B698003030BB719DF83130FB719DF832303B7210
:10B6A8009DF837307B72BDF835307B819DF8383096
:10B6B8003B739DF8393087F826309DF83B30C3F34B
:10B6C800011387F825309DF93D301B1187F8273085
:10B6D80007F037F8041EFFF665AF002275212846EB
:10B6E80007F02FF8041EFFF65DAF102271212846DF
:10B6F80007F027F8041EFFF655AF4FF4A072B6F90D
:10B708000A30284603F5163303F2991302FB03F1B6
:10B718001423B1FBF3F10A2301F54811B1FBF3F14E
:10B7280096F9093003F54473594396F90C3003EB45
:10B73800830303EB83024FF47A7392FBF3F2120252
:10B7480002EB6102832196F825300433B2FBF3F251
:10B7580096F926304B4303F58033B2FBF3F22223EC
:10B76800FA3A5A436423323292FBF3F25A21D2B2A4
:10B7780006F0E7FF041EFFF615AF71226421284684
:10B7880006F0DFFF041EFFF60DAF55227421284690
:10B7980011B0BDE8F04006F0D4BF00BF025102006E
:10B7A800943D0200195102007FB50BAB059303933A
:10B7B800054B0122029300231846CDE90033FDF71B
:10B7C8002BFB07B05DF804FB43510200F0B54B7941
:10B7D800012B26D0032B21D110258B79032B1DD1CA
:10B7E800CE790EB1012E19D10A7912B1022A15D1DA
:10B7F8000E220B684468B3F5164F276867D02DD81A
:10B80800B3F5165F66D016D8B3F5966F64D00AD82C
:10B81800B3F5967F63D0B3F5167F63D06FF08500DC
:10B8280054E00025D9E7B3F5166F5ED0B3F5965FFF
:10B83800F4D1384B3CE0B3F5E14F59D007D8B3F514
:10B84800615F57D0B3F5964FE8D1334B30E047F6F8
:10B858001224A342E2D14FF4000329E0B3F5613F7B
:10B868004AD013D8B3F5963F49D009D84DF6C0242D
:10B87800A34246D0B3F5614FD0D14FF46B0317E024
:10B88800B3F5E13FCAD14FF0EB7311E0B3F5612F87
:10B898003AD008D8214CA34239D0B3F5E12FBDD115
:10B8A8004FF0E86304E01E4CA342B7D14FF0805339
:10B8B8000469C7F82435436835431B682A43C3F82D
:10B8C8006C25231D03C983E803000020F0BD4FF455
:10B8D8001D03EDE7134BEBE74FF49E23E8E74FF426
:10B8E800A033E5E74FF41C33E2E74FF41D23DFE70D
:10B8F8000D4BDDE70D4BDBE74FF06C73D8E70C4BD6
:10B90800D6E74FF46503D3E74FF07063D0E74FF005
:10B918008063CDE700B0130000A04E0090D0030074
:10B9280040420F000050270000C0750000F03A00A8
:10B9380000903A012DE9F043804687B000220121AA
:10B948000820FDF799FD0820FDF766FD0021D8F8CD
:10B958000470D8F810603D6805AAC5F80015C6F847
:10B968000080D7F80C90484606F0A0FA041E24DBA5
:10B97800059BD9F8002019791868FFF7B5F8041E57
:10B988001BDB4046311DFFF721FF0446A8B97B6841
:10B99800990722D506F1180001F09AF9234B98422D
:10B9A8000FD0234B2046CDE90143009423460122C2
:10B9B8002049FFF7F9FE6FF00404204607B0BDE800
:10B9C800F083307E05F10C0205F5907107F078F8E8
:10B9D8000120337E984001F08BF80823C5F8003524
:10B9E8003B7A53B9C5F81031D5F810317369C5F8E9
:10B9F80034350123C5F838352B607B689A075CBF5E
:10BA08004FF48073C5F804337B68DB0644BF4FF4FA
:10BA18008003C5F804333369C5F844350023C5F8F5
:10BA280048350123AB60EB60C7E700BF0000AD0BF2
:10BA3800435102001C3E0200F8B504460D46076952
:10BA480007F0EFFCB0B92E4B1B789BB164266068F9
:10BA580006F01EFF00BB012007F030F8013EF6D1CA
:10BA68000021212003F0A6FFF0E786F31188BFF339
:10BA78006F8FF5E74FF02003EFF3118683F31288F9
:10BA8800BFF36F8F6068314606F002FF90B986F306
:10BA98001188BFF36F8FEDE74FF02003EFF31186A6
:10BAA80083F31288BFF36F8F6068314606F0F0FEAB
:10BAB8000028DAD03B691D70626838691368C3F8DA
:10BAC80044050120C3F848050020C3F82001D3F835
:10BAD8002051C3F858015268D3F85801D20608D546
:10BAE800082062681268C2F800054FF48002C3F8A3
:10BAF800042301229A6081F31188BFF36F8FF8BD88
:10BB08001CCF00202DE9F041456888B06F6B0669AD
:10BB18000021384607AA06F0C9F9041E1CDB079B5A
:10BB28003A6819791868FEF7DFFF041E14DBA86B62
:10BB3800441C22D000F00AFB10F1130F04460FD169
:10BB4800304B0122029300232F491846CDE90033D8
:10BB580006F0FFFE6FF01204204608B0BDE8F08141
:10BB6800411D0AD1294B0122029300232649184678
:10BB7800CDE9003306F0EDFEEEE70127EB6A9847C2
:10BB8800B568D6E9023203EBC2039D4204D33046BE
:10BB980006F002FF0024DFE7286807F0B1FB034640
:10BBA80068B92A79184904922A68126800900392A1
:10BBB800174ACDE90102012206F0CBFECAE7286840
:10BBC8002979EB88D0F810C0DA07DCF8004054BFB8
:10BBD80043F4B01383F4D01323F4801207FA01FE60
:10BBE800DB07D0F808804CBF44EA0E0424EA0E04B0
:10BBF800CCF80040D8F800309847041EACDB083574
:10BC0800BFE700BF7C510200143E0200A7510200AA
:10BC1800C4510200F0B504690646A56C4768236D57
:10BC280085B03DB96BBB1946306905B0BDE8F04039
:10BC380006F0DCBE616C03BB31BB3A8E636CAA4272
:10BC480028BF2A460091A2651BB1A36C002B18BF20
:10BC580013460193E36C02931BB1236D002B18BFAD
:10BC68001346002269463846039301F0E3FD0E4B64
:10BC7800984217D06FF00401D6E79D4228BF1D46B1
:10BC8800DAE71D46616CD8E701F06043B3F1005F65
:10BC9800D3D0082D28BF0825206E2A4607F06CFE51
:10BCA800216ECAE705B0F0BD0000AD0B1FB50378E3
:10BCB8000C46002B5ED1896D41B96FF07301636D3D
:10BCC800186904B0BDE8104006F090BEA26C52B1ED
:10BCD80091421DD9284A1846CDE901322749012247
:10BCE800009306F036FE236DA26D5BB19A4228D907
:10BCF800214B01220293002320491846CDE9003345
:10BD080006F027FE606D04B0BDE81040FFF782BF63
:10BD1800521AA2647AB9636B04F148020833636368
:10BD2800A36B04F13801013BA36304F1340006F06E
:10BD3800FDFD6064D7E7636C002BD4D00B446364CB
:10BD4800D1E79B1A23657BB9E36B04F150020833F2
:10BD5800E363236C04F14001013B236404F13C00DC
:10BD680006F0E4FDE064CDE7E36C002BCAD0134491
:10BD7800E364C7E704B010BDE8510200143E0200B6
:10BD88002DE9F04F91B005934368884606938B8858
:10BD9800074699049246046937D44FF0FF324FF0B2
:10BDA800FF3304F1100003F0FDFAC4F80480D7F85B
:10BDB80004B0D7F81090DBF80830079399F85D3095
:10BDC80023B1D9F80030984500F0D280B8F8045073
:10BDD80015F4006320D0B34B012202930023B2492B
:10BDE8001846CDE9003306F0B4FD6FF085052368E9
:10BDF8009B8813F4005304D1636004F1100003F02E
:10BE0800ADFA284611B0BDE8F08FA369002BC4D164
:10BE180063689845C1D1CAE715F001020DD03A68A8
:10BE280018460392A14AA049CDE9013200930122A4
:10BE380006F08FFD6FF01505D9E715F008030AD055
:10BE48009B4B0092CDE901231346012218469649DF
:10BE580006F07FFDEEE7C5F34512082A04D0954A9F
:10BE6800CDE901320093F0E7D8F800E0924A964510
:10BE780001D8924AF4E708AE0BF10C0CBCE80F00AD
:10BE88000FC69CE80F0086E80F00079B734528BF84
:10BE980073469E468A4B9E4511D28A4B9E4550D882
:10BEA800894B9E454FD8894B9E454ED8884B9E4519
:10BEB8004DD88849884B894A8E4588BF1346AA07BA
:10BEC8000D9305F0040344D5002B14BF032302236C
:10BED8008DF83830C5F300138DF83930DBF80030B1
:10BEE80015F0020FD3F80825C5F340014FF0010300
:10BEF8007B484FEA521530D1002D40F02281934003
:10BF0800C36099F85D302BB1584601F057FC002307
:10BF180089F85D304B465846724A08A901F020FC62
:10BF2800714B98421FD0714B03900293002301225A
:10BF38001846CDE900335C4906F00BFD6FF00405A7
:10BF480055E76B4BBBE76B4BB9E76B4BB7E76B4BF5
:10BF5800B5E7003B18BF0123BAE7002D40F0F38096
:10BF680093408360CDE70123C9F8008089F85D30EC
:10BF7800012384F85C30069B986B431C0DD000F0BD
:10BF88000FF9743009D15E4B02220293002346490F
:10BF98001846CDE9003306F0DCFCBAF1000F79D180
:10BFA800C4F834A00023A36304F1480204F1380163
:10BFB80004F1340006F0BAFC059B6064002B40F0E5
:10BFC800A380E3630023236404F1500204F14001D9
:10BFD80004F13C0006F0AAFC0023E0642068236317
:10BFE80048B183683BB10121083006F0C1FC2368E1
:10BFF800186907F080F93846FFF70CFE002213464F
:10C00800A06B834240F0898000231946256CA94221
:10C0180040F08A80934238BF134626464FF4FA52BE
:10C028004FF0000802FB03F556F8203B4FF4004C94
:10C038001B684146B5FBF3F540F2E730C8354FF4CD
:10C048007A720023E5FB0C01FCF7CAF802460B469E
:10C05800304603F0A7F900286DD02A4B0122CDE91C
:10C068000183404643461049CDF8008006F071FC34
:10C0780000250698A56501F0A1FB84F85D506FF0D6
:10C088007301386906F0B2FC304603F0B3F96FF07B
:10C098007305ACE6DAF800306363002B82D0DAF877
:10C0A800043080E706520200143E020020520200CB
:10C0B800425202006152020047E801009052020019
:10C0C80000127A00FF083D007F841E003F420F00E7
:10C0D8001FA107008FD0030048E8010090D003009B
:10C0E80000258440B5BC01000000AD0BC152020020
:10C0F80000093D0080841E0040420F0020A1070077
:10C10800E852020012530200059B1B68E363002BF0
:10C118003FF458AF059B5B6855E7616B01EBC301C2
:10C12800496801330A446CE7E06B00EBC1004068E2
:10C13800013103446BE7256B15F1740F7FF457AE9B
:10C1480096E7C960FFDE00239B60FBE7012330B55B
:10C1580085B08DF80430022305460DF107008DF8EF
:10C168000830039000F0DAFF0C4B044698420FD1D8
:10C178000023284602AA01A900F050FEA0420AD0D6
:10C188009DF8070000F0C4FF6FF0040005B030BD53
:10C198006FF01200FAE70020F8E700BF0000AD0BCF
:10C1A800F8B5064606F0EDFC00210546304600F0DD
:10C1B800BBFF730906F01F0429D1174B05F1804511
:10C1C80003EB8404D4F80022144B05F544351340DE
:10C1D80043F00C03C4F8003206F030FC07462B6825
:10C1E8006BB10025304600F0E9FFD4F800220B4B74
:10C1F8002846134043F00403C4F80032F8BD06F0A3
:10C208001DFCC01B0628EAD96FF07305EAE7002376
:10C21800803453F82430FFDE00258440F0F8FCFF1A
:10C228000123834070B5DC430B4AD2E8EF1F01EAD3
:10C238000405C2E8E65F002EF7D14FF48032824051
:10C248000648C0F80823BFF35F8FBFF36F8F0B4218
:10C2580014BF0120002070BDB4C900200050014067
:10C2680070B40E4922F07F46D1E90034D01AC318C1
:10C2780044F10004C1E90034A6F50013B3F5400FFA
:10C2880009D2074B1B681A0A1B069C19054B42F179
:10C298000005C3E9004570BC03F0E2BC38C70020C4
:10C2A800B8C9002040C70020D9B101230D4A8340F6
:10C2B800D2E8EFCF4CEA030CC2E8E1CF0029F7D16E
:10C2C8004FF48033084A8340C2F80433074BD3E85D
:10C2D800AF3FC340DB0742BF4FF40012044BC3F823
:10C2E80000217047B4C9002000500140B0C90020A7
:10C2F80000E100E00D4B1868010A0006BFF35F8FEC
:10C308000B4BD3F80435181841F10001B3F5801F21
:10C318000AD2084BD3E90023904271EB030303D2FE
:10C3280010F1807041F10001704700BFB8C90020CA
:10C338000050014040C700202DE9F04F85B0164657
:10C348001F4604469DF840A0FFF76AFF0190FFF7DB
:10C35800D1FFB04271EB070352D23B4B301A67EB67
:10C368000101984271F100014DD2384B03EB0413DF
:10C37800D3E902239F4208BF964258D04FF4803831
:10C38800334908FA04F8204626F07F4BC1F8488361
:10C3980006F048FB4FF00309584604F15005AD007C
:10C3A800ADB205F1804504F5A87305F5A8350293EB
:10C3B800029A20F07F4341F82230C1F84483D1F833
:10C3C8000435244AC01A033820F07F4090422ED901
:10C3D800286868B1D1F80435A3EB0B0020F07F4042
:10C3E800B0F5000F039322D9204606F01BFB039BF0
:10C3F800BAF1000F07D109EB030009F10109D7E7EA
:10C40800BAF1000F09D06FF0150520460199FFF722
:10C418004BFF284605B0BDE8F08F01230E4AA34024
:10C42800D2E8EF0F1843C2E8E10F0029F8D1074915
:10C438000E982301C8500F9B01EB04120025C2E996
:10C4480002675360E1E700BF0100800028C70020B1
:10C4580000500140FDFF7F00B0C900207FB50025D6
:10C468004FF0FF304FF0FF31194C1A4B0226C4F839
:10C478000833C4F84833184BC4F80855C3E9020117
:10C488004FF480334FF40012C4F80433134B0121E6
:10C49800C4F804631520C3F880212A46FCF7ECFF92
:10C4A8001520FCF7B9FF01230D4AA3602360136030
:10C4B8000C4B0D4A009328460023CDE90155FFF7A0
:10C4C8003BFF3046FDF7BEFF284604B070BD00BFF5
:10C4D8000050014003000F0028C7002000E100E0E1
:10C4E800B4C9002069C20100FFFF7F002DE9F743AE
:10C4F8002E4BD3F8042390070BD5D3F8042142B16F
:10C508000022C3F804212A4AD3F8043113680133FE
:10C518001360264AD2F80433D90327D5254BD3E82C
:10C52800EF1F21F00100C3E8E40F002CF7D1CB077F
:10C5380002D4D2F84031CBB100251C4CC4F840518C
:10C54800D4F84031FFF7D6FE4FF02003EFF3118205
:10C5580083F31288BFF36F8F174BD3E90267B0429A
:10C56800B94106D282F31188BFF36F8F03B0BDE8DB
:10C57800F0834FF0FF38D3E900104FF0FF391D600A
:10C58800C3E902894FF48033C4F84833C4F84051F2
:10C59800D4F8403182F31188BFF36F8F0029E5D0BA
:10C5A800009032463B4628468847DFE70050014066
:10C5B800B8C90020B0C9002028C700201FB5431CF7
:10C5C80022D0012822DD124A124B9042D4BF0446E1
:10C5D8001C46FFF78FFE104B0E49D3E90023801A43
:10C5E800B0F5000F28BF002404448C4228BF0C4635
:10C5F80000200A49A218CDE90100009143F1000387
:10C60800FFF79AFE04B010BD024CE2E70124E0E710
:10C61800FEFF7F00FFFF7F0038C7002069C20100CE
:10C6280008B5FFF767FE024B1B68C01A08BD00BFBC
:10C6380038C70020F0B50F4B01461A680E4B0B2582
:10C64800002618461F46B84201D3013D04D11846BA
:10C65800013A19605A60F0BD04688C42FBD03CB1C5
:10C668004468141BA642BCBF034626460830EAE7C6
:10C678000346ECE72CCA002038CA00200020054BEE
:10C68800C3E90000044BD3E8EF2FC3E8E10F00290A
:10C69800F9D1704730CA00202CCA00202DE9F04F8C
:10C6A80087B005460E4606F024FE20B96FF06D00EF
:10C6B80007B0BDE8F08F06F0C7FF33680446002BCB
:10C6C8000F4604D103F0F4F86FF00A00F0E7BCBF9E
:10C6D8004FF0FF3333600122002101A806F0C4FEA9
:10C6E800E84605954FF02003EFF3118B83F312888A
:10C6F800BFF36F8F07F05EF9DFF828A1DFF8289104
:10C708005AF80000FFF796FFD9F8003042689A42BD
:10C718006FD10023454D00936B68002B70D1C5E99C
:10C7280000888BF31188BFF36F8F33685A1C6CD065
:10C738004FF4004E40F2E730002123EAE37C4FF447
:10C748007A720023CCFB0E01FBF74AFD02460B462A
:10C7580001A802F027FE4FF02003EFF3118B83F3BB
:10C768001288BFF36F8F00222B685BB1434556D107
:10C778000099002A4DD16A6829609A4200D16960FF
:10C788000023009307F016F95AF80000FFF752FF4C
:10C79800D9F8003043608BF31188BFF36F8F06F030
:10C7A800A8FD002882D035686B1C27D006F04CFF06
:10C7B8004FF47A7EA0FB0E320EFB0121A4FB0E4241
:10C7C8000EFB0722DB0BE40B43EA414344EA4244F5
:10C7D8001B1B4FEAD1314FEAE57C61EBD231ED1AF0
:10C7E8006CEB010CBCF1000FB8BF002535602DB90A
:10C7F8006AE743608BF31188BFF36F8F002057E718
:10C80800C3F80080C5F804808BE74FF0FF32134669
:10C818009EE711606968994208BF6A60B0E71A46E6
:10C828001B68A2E7080000002CCA002030CA0020BC
:10C83800024600B507F0BEF8014B1A505DF804FB3C
:10C848000C00000070B40468094B2CB19C4203D35F
:10C8580003F17005AC4206D3064D2C78661C03EB39
:10C8680004132E700360006870BC06F0FDBD00BFA5
:10C87800BCC9002010CF002038B505460A4BD3E8C4
:10C88800EF1F0131C3E8E21F002AF8D1074B1C68EB
:10C8980004B938BD6369AB4200D015B9201D02F058
:10C8A8005DFD2468F4E700BF2CCA002030CA0020D0
:10C8B800014600220023014806F08CBD88CA0020EA
:10C8C8000146014806F090BD88CA002001460022B2
:10C8D8000023014806F07EBD9CCA0020014601489D
:10C8E80006F082BD9CCA00207FB50BAB059303936D
:10C8F800054B0122029300231846CDE90033FCF7CB
:10C908008BFA07B05DF804FB595302001FB50024E9
:10C91800FCF712FA064B2046029301222346CDE982
:10C9280000440449FFF7E0FF2046FDF7EDF900BF9A
:10C9380059530200B43D02001FB50446F8B9114925
:10C94800114801F06BFF50B1104B0390CDE9014342
:10C958000122234620460E49009406F099F80D4915
:10C96800094801F05BFF50B10B4B03900293002381
:10C9780001221846CDE90033054906F089F804B0CC
:10C9880010BD00BF76530200FA4E0200D3530200D6
:10C99800EC3D020000540200185402002DE9F04159
:10C9A8001F46154B044693F800800D461646A2B064
:10C9B800B8F1000F15D1684605F016F93A46314628
:10C9C8002846289BA0470446684605F00EF9B8F1AA
:10C9D800000F02D0094802F085FC204622B0BDE8CD
:10C9E800F0814FF0FF324FF0FF33044802F000FCB3
:10C9F8000028E0D01F24F0E71CCF002010C700203B
:10CA080070B5302692B006AB05460C46324600217A
:10CA1800184606F0BEFFCDE90454CDE9020654B12C
:10CA2800012304AA009200210448019302AA00F0FD
:10CA380007F812B070BD2046FBE700BF00010040B8
:10CA480030B401F50045B5F5803F039C0DD243EAAB
:10CA58000405FF2D09D844EA0324134644EA014299
:10CA6800014630BC0348FFF799BF6FF0800030BC27
:10CA7800704700BF217C010030B50468ACB1B4FA3E
:10CA880084F30122C3F11F03DBB29A4024EA0202B5
:10CA9800D0E8EF5FA54204D1C0E8EC2FBCF1000F4D
:10CAA800F6D1EAD102480B7030BD0248FCE700BF5E
:10CAB8000000AD0B0200AD0B10B50368CB40DB07DF
:10CAC80010D401238B40026843EA0201D0E8EF4FFB
:10CAD800944204D1C0E8EC1FBCF1000FF6D1F2D1AA
:10CAE800014810BD0148FCE70000AD0B0400AD0B88
:10CAF800014BC3F80405704700700140F7B50446C0
:10CB080018B1012822D003B0F0BD0222264B0646F8
:10CB1800C3F80823C3F80401D3F804210122DA601A
:10CB2800012342F21075204F8DF80730D4B1012C43
:10CB3800E9D1D7F80C3403F4803386BB002BE2D05C
:10CB4800012005F0BBFF013DF3D1DCE70022164BC5
:10CB58000DF10706C3F80803C3F80021D3F8002134
:10CB68005860DDE7D7F8183403F480333EB9002B5A
:10CB7800C9D0012005F0A2FF013DF3D1C3E7D7F8E2
:10CB8800182402F003023270002BBCD09DF8070075
:10CB98000128B8D105F092FF013DC7D1B3E7D7F816
:10CBA8000C2402F00102EEE700500040044B1A7911
:10CBB80022B9012218601A7102487047024870476A
:10CBC800B0CA00200000AD0B0C00AD0B08B5052065
:10CBD800FCF744FC10B90520FCF71EFC0122024BAF
:10CBE800C3F8182508BD00BF0050004008B510B1B3
:10CBF80001282ED008BD1C4AD2F81814D2F81834CF
:10CC0800C90317D503F00303022B05D0012B02D06B
:10CC18000020FFF773FF0123134AC2F818350023D9
:10CC2800C2F80431D2F804310223C2F804330123D4
:10CC38009360DFE7D2F81434DB07ECD5D2F81C3464
:10CC480003F00303013B012BE2D80223C2F80433AB
:10CC5800D0E70022044BC3F80021D3F80021C3F821
:10CC680004031860C6E700BF0050004010B5164B1B
:10CC7800D3F8002152B10020C3F80001D3F80021F5
:10CC88000122C3F80823114B1B6898470E4BD3F8B1
:10CC9800042182B10022C3F80421D3F80421D3F877
:10CCA8001824D3F81824022102F00302012A03D120
:10CCB800C3F818159A6010BDC3F80813034B012078
:10CCC800BDE810401B68184700500040B0CA00205B
:10CCD80001460148FFF7D0BE4CC60020036803F0A8
:10CCE8001F025B090260024818BF0020704700BF9E
:10CCF80000258440034BC0B2083033F81000C0F35D
:10CD08004010704750C60020034BC0B2083033F8BB
:10CD18001000C0F34000704750C60020034BC0B25B
:10CD2800083033F81000400B704700BF50C6002091
:10CD380070B50D4C00F1080334F813300546DA05D8
:10CD48000E4607D5C3F3432304EBC302526854F8D5
:10CD580033309847A3682BB131462846E268BDE8CE
:10CD68007040184770BD00BF50C6002010B4124A6A
:10CD7800C0B2083032F81030D9051BD5C3F34321AF
:10CD880023F4F85322F81030002002F10E0434F88E
:10CD9800023F13F4807F03D0C3F34323994209D0A1
:10CDA80001302028F3D1002342F83130034810BC69
:10CDB800FFF782BE10BC704750C60020A4C60020F2
:10CDC80001460020F0B501260746104B104D114CC6
:10CDD8005A19920806FA02F2114208D0D3F800C094
:10CDE800BCF1000F03D01F60D3F800C01043043318
:10CDF800A342EDD1084BD3F87C2132B10022C3F80D
:10CE08007C21D3F87C3140F00040F0BD0011034094
:10CE180000EFFCBF20110340001003402DE9FF4143
:10CE2800044690461D4601B3FFF76EFF18B1204631
:10CE3800FFF760FF28BB00230DF10F02CDE9003397
:10CE48008DF80E308DF80F3020460B460DF10E018F
:10CE580005F03FFE4749E3B2083331F8132022F0CA
:10CE6800020242F0010221F81320B8F1000F32D07B
:10CE7800204698F80060D8F80420FFF745FF10B165
:10CE8800F2B13D4829E03B4FE0B2083037F81010C6
:10CE980021F02001C904C90C27F8101082B1032E13
:10CEA800EFD8D8F8043093F800C06246920002F137
:10CEB800804202F544329EB9C2F81065C2F8106586
:10CEC8002C49E3B2083331F8132022F01C0242EA5D
:10CED800860221F813201DBB284804B0BDE8F08164
:10CEE800D2F8103541EA4C3123F00303C2F810356B
:10CEF800D2F8103541F0200123F4473323F440736E
:10CF0800C2F81035D2F810E5230203F4F85343EAC7
:10CF18000E0343EA0643C2F8103527F81010CFE78E
:10CF28002046D5E90067FFF721FF002ED4D0114D28
:10CF3800D5E90023964201D19F4219D010480DF13E
:10CF48000F01FFF799FD0D4B9842C6D19DF80F20B0
:10CF5800E0B205EBC20308305F6035F8103045F8E1
:10CF6800326043EA422343F4807325F81030B3E774
:10CF78000022EDE750C600200400AD0B0000AD0B09
:10CF8800A4C60020F0B50446164685B029B3FFF7BD
:10CF9800BBFE20B92046FFF7ADFE002862D1324F14
:10CFA800E5B2083537F8153013F01C0F02D04B786E
:10CFB800012B57D001238DF80F3000234A1CCDE9EF
:10CFC800001320468B1C0DF10F0105F082FD37F888
:10CFD800153043F0030327F8153016B9234805B078
:10CFE800F0BD2046FFF790FE00283BD096F800C021
:10CFF800002361461C4FE5B2083537F81500890053
:10D0080020F0200001F18041C00401F54431C00C3A
:10D01800C1F8103527F81500C1F810357278002AC4
:10D02800DCD0D1F81035B67823F4981323F4F853EC
:10D03800C1F8103512042302D1F810E502F4403289
:10D0480003F4F8531343320543EA0E0302F4801243
:10D0580040EA4C30134340F02000C1F8103527F85F
:10D068001500BBE70248BAE750C600200000AD0B28
:10D078000400AD0B014BC3E90201704750C6002004
:10D0880008B50246FFF736FE40B1054BD2B208326A
:10D0980033F8123003485B0B0B7008BD0248FCE7FD
:10D0A80050C600200000AD0B0400AD0B70B50F4C4E
:10D0B80094F85860BEB90E4D4022314604F1100074
:10D0C80006F067FC3120C5F87C61D5F87C31FCF7A7
:10D0D800A3F94FF00043C5F804330123054884F849
:10D0E8005830636570BD0448FCE700BF50C6002097
:10D0F800001003400000AD0B0500AD0B034B93F887
:10D108005800003818BF0120704700BF50C60020E3
:10D1180001460148FFF7D0BCA0C6002001460148DF
:10D12800FFF7AABCA0C6002037B50446FFF7E2FD0A
:10D13800F0B12046FFF7E8FD0546C8B92046FFF7DD
:10D14800EDFD1B4A03B29B00D550D25803F1804332
:10D1580003F54433D3F8102542F00102C3F8102533
:10D1680021B10123134A8340C2F8043303B030BD10
:10D17800114AE3B2083332F81330C3F38203042BA5
:10D1880011D0052B11D001A80194FFF7A7FD019B31
:10D198000169D94001F001010231204603B0BDE820
:10D1A800304005F0DFBC0321F7E70221F5E700BFB7
:10D1B800001103400010034050C6002008B5024685
:10D1C800FFF798FDC0B11046FFF79EFDA0B91046C5
:10D1D800FFF7A4FD01230B4A8340C2F8083303B2CA
:10D1E8009B0003F1804303F54433D3F8102522F064
:10D1F8000302C3F8102508BD0021BDE80840104609
:10D2080005F0B0BC0010034073B51B4EC5B208351D
:10D2180036F815300446DB072BD5FFF7CFFF20463D
:10D22800FFF768FD68B12046FFF778FD002203B2DA
:10D238009B0003F1804303F54433C3F81025C3F87A
:10D2480010252046FFF792FD002301A826F8153087
:10D258000194FFF743FD019B00EB8300D0F8002207
:10D26800064B134043F00203C0F80032044802B0F2
:10D2780070BD0448FBE700BF50C60020F0F8FCFF73
:10D288000000AD0B0400AD0B2DE9F74F4E4BD3F862
:10D298000403C0B240F00040FFF792FD051E14DA07
:10D2A8004A4FDFF82C913B6A00933B624FF001082C
:10D2B800009C84B94FF00040FFF782FD3B6A009361
:10D2C8003B62002BF2D125F000450124002D63D1EB
:10D2D80003B0BDE8F08F94FAA4F4B4FA84F4E0083B
:10D2E80004F1080339F813A004F007021DF8003010
:10D2F80008FA02F223EA02030DF8003001A80194AB
:10D30800FFF7ECFC019B4FEA9A01803350F8236049
:10D31800CAF3820B4B07DA46C6F3014621D52046ED
:10D328005946FFF705FD01A80194FFF7D7FC019BBB
:10D33800F6B2803350F82330C3F301439E4207D13D
:10D348000021204605F00EFC3146204605F00AFC77
:10D3580001A80194FFF7C2FC019B08FA03F30362DA
:10D36800A6E7022E0CD10321204605F0FBFB0BF0AB
:10D378000503012BECD151462046FFF7D9FCE7E71E
:10D388000221204605F0EEFBBBF1030FF3D0032E7C
:10D39800DED1BBF1020FEDE795FAA5F3B3FA83F3FB
:10D3A80004FA03F29B0003F1804303F54433D3F8F6
:10D3B8001005D3F81015C0F30420C1F3014125EA84
:10D3C8000205FFF7B5FC81E7001003400025844003
:10D3D80050C6002070B5084C0E462379154643B94F
:10D3E8002A20FCF719F80123044823712660A56058
:10D3F80070BD0348FCE700BFB8CA00200000AD0BB1
:10D408000C00AD0B002330B50D4A50F8234003F54E
:10D41800A2710133082B42F82140F6D10023084AB3
:10D4280000F11C0103F5B27451F8045F0133082BB5
:10D4380042F82450F6D1036CC2F8043330BD00BF63
:10D4480000A0024000234FF0FF31134AC2F8103504
:10D45800C2F81435C2F81835C2F81C35C2F82035A0
:10D46800C2F82435C2F82835C2F82C35C2F89035F0
:10D47800C2F89435C2F89835C2F89C35C2F8A03580
:10D48800C2F8A435C2F8A835C2F8AC35C2F80813FA
:10D49800024A1371704700BF00A00240B8CA0020BA
:10D4A8000123024A8340C2F80433704700A00240B7
:10D4B8000123024A8340C2F80833704700A00240A3
:10D4C800F8B5012600270B4B0B4DD3F80C4304B9D4
:10D4D800F8BD94FAA4F0B0FA80F006FA00F324EA52
:10D4E8000304064B82009F502B68002BEFD0A968DD
:10D4F8009847ECE700A00240B8CA002000A102400B
:10D50800430904D10123034A8340936070470023F1
:10D518009B60FFDE002584400C4B984213D00AD84C
:10D528000B4B98420FD00B4B98420CD00A4BC31AA6
:10D53800584258417047094B984204D0084B9842CA
:10D5480001D0084BF3E70120704700BF40420F00AD
:10D5580090D0030020A1070048E8010000093D0021
:10D5680000127A0080841E00431C14D000F01F03B0
:10D5780040090BD1084A02EB8302D2F80012074B8C
:10D588000B4043F00203C2F8003270470022803398
:10D5980052F82330FFDE704700258440F0F8FCFF86
:10D5A800430904D10123034A8340D3607047002311
:10D5B800DB60FFDE0025844038B51446421C054672
:10D5C80016D0012902D1A3B1FFF79AFF05F01F0376
:10D5D8006D0911D10B4A41EA840402EB8303D3F8A5
:10D5E8000002094A0240144344EA4101C3F8001208
:10D5F80038BDFFF7D5FFE9E70022803352F8233022
:10D60800FFDE00BF00258440F0F8FCFF2DE9F84359
:10D618004C4B4D6907469D420C4690F804907DD0CE
:10D6280071D8494B9D427CD0484B9D427CD0484B99
:10D638009D420CBF4FF000754FF080452422DFF863
:10D648001481E07E02FB0983997F60F300019977DA
:10D658003B79217C02FB0383D977E67EEEB9237EF2
:10D668003246012B94BF0023012301212068FFF7D4
:10D67800A3FF3346324601216068FFF79DFF33461A
:10D688003146A27EA068FFF797FF237C324601212E
:10D69800E06883F00103FFF78FFF242202FB09896A
:10D6A800E368C9F82030237C89F81F30267FA07CE6
:10D6B800217E637E3A6846B9D4E900C6A468C2F8F8
:10D6C80008C5C2F80C65C2F81045003B18BF012315
:10D6D8000229C2F8C005C2F824552BD003292CD042
:10D6E800012901D143F00203C2F8543524223B79C1
:10D6F800534358F803301BB33868BDE8F84340F388
:10D708000730FBF789BE144B9D4210D0134B9D4246
:10D718000CBF4FF000454FF080458FE74FF0805524
:10D728008CE74FF0806589E74FF0006586E74FF09A
:10D73800005583E743F00403D6E743F00603D3E735
:10D74800BDE8F88340420F0090D0030020A10700F5
:10D7580048E80100C4CA002080841E0000127A0034
:10D76800F8B5054624262F79104C7E4304EB060CA9
:10D778009CF81CE0BEF1000F13D1A251CCF8043084
:10D7880031B14869FFF7C8FE68B12846FFF73EFF88
:10D79800242303FB074400236377012304482377EA
:10D7A800F8BD0448FCE70448FAE700BFC4CA0020F3
:10D7B8000000AD0B0500AD0B0400AD0B2DE9F041E9
:10D7C800044606790068194D40F30730FBF732FE2E
:10D7D80024237343EB5853B12368154A06EBC6015B
:10D7E800C3F80823206805EB810105F02EFA2368A9
:10D7F800242404FB0654D3F80805D3F80C75D3F891
:10D808001085A37FDB070AD4FFF7AEFE4046FFF77B
:10D81800ABFE3846FFF7A8FE206AFFF7A5FE2423D3
:10D8280003FB065500232B77BDE8F081C4CA00200E
:10D838005201080024232DE9F0430779524D7B4318
:10D848009046EA180E46517F814685B0002940F07F
:10D858009880EB5823B118F0140F04BF01235377B5
:10D86800242496E80F0004FB075404F10C0C8CE800
:10D878000F00206A431C03D0E37FD3B1FFF740FEBB
:10D888003368D9F8004023B103F06043B3F1005F77
:10D8980006D1B36883B103F06043B3F1005F0BD0E6
:10D8A8002423002203FB075338485A7705B0BDE804
:10D8B800F083FFF775FEE3E718F0010318BF0123B3
:10D8C800C4F8503518F0020318BF0123EC46C4F819
:10D8D800403596E80F008CE80F00039BC4F8440518
:10D8E800C4F84815C4F83425C4F838350023C4F8FA
:10D8F8001831D4F818310723C4F8003524237B43A2
:10D9080018F0080F05EB03021DD10121E858216129
:10D9180058B9D4F81831002BFBD062464021204674
:10D9280005F055F924237B43EA18EB5803BB106A2A
:10D93800411C12D107EBC707204605EB870105F00C
:10D9480084F91348B2E7EB5893B9106A431CF8D02E
:10D95800D37F53B1FFF724FEF3E7D37F13B1FFF76B
:10D968001FFEE7E7FFF7CCFDE4E7FFF7C9FDE8E7AF
:10D97800402318F0040F14BFC4F80833C4F8043364
:10D98800DFE7044892E700BFC4CA00200A00AD0BD5
:10D998000000AD0B0B00AD0B10B540210F4A10482D
:10D9A80005F015F9C0B10F4C206A431C03D0E37F82
:10D9B8007BB1FFF7F5FD637F1BB10A49084805F005
:10D9C80044F9002323720848D4E90031BDE8104027
:10D9D8001847FFF795FDEEE710BD00BFD0CA00203D
:10D9E80000B00040C4CA0020CCCA002010B4CC7BD0
:10D9F8008A6803682CB9D1E90041C3F80845C3F81F
:10DA08000C15C3F82425282203795343054AD35813
:10DA18002BB1006810BC40F30730FBF7FDBC10BC0D
:10DA2800704700BFE8CA00204FF0280CF8B5067907
:10DA3800294C0CFB06FC04EB0C0595F82270002F12
:10DA48003FD1AF6044F80C206B6085F8257085F8ED
:10DA5800247071B38F7B85F8277017BB0A6802F0B2
:10DA68001F0352092FD140F20C6C1C4DDFF870E0F7
:10DA780005EB8303D3F8007207EA0E0747EA0C07A1
:10DA8800C3F800724F6807F01F037F091FD105EB29
:10DA98008303D3F8002202EA0E0242EA0C02C3F81A
:10DAA8000022282303FB06434A7B83F82620FFF73E
:10DAB8009DFF282303FB064401230A4884F82230EB
:10DAC800F8BD0948FCE7803357F82330FFDE803380
