:020000040000FA
:1000000080890020093E000051AD0000DD3D000068
:10001000DD3D0000DD3D0000DD3D00000000000092
:100020000000000000000000000000005D3A000039
:10003000DD3D000000000000093A0000DD3D000049
:100040000D3B00000D3B00000D3B00000D3B000090
:100050000D3B00000D3B00000D3B00000D3B000080
:100060000D3B00000D3B00000D3B00000D3B000070
:100070000D3B00000D3B00000D3B00000D3B000060
:100080000D3B00000D3B00000D3B00000D3B000050
:100090000D3B00000D3B00000D3B00000D3B000040
:1000A0000D3B00000D3B00000D3B00000D3B000030
:1000B0000D3B00000D3B00000D3B00000D3B000020
:1000C0000D3B00000D3B00000D3B00000D3B000010
:1000D0000D3B00000D3B00000D3B00000D3B000000
:1000E0000D3B00000D3B00000D3B00000D3B0000F0
:1000F0000D3B00000D3B00000D3B00000D3B0000E0
:1001000053B94AB9002908BF00281CBF4FF0FF317E
:100110004FF0FF3000F00CB8ADF1080C6DE904CEE3
:1001200000F008F8DDF804E0DDE9022304B07047D0
:10013000704700BF2DE9F04786468C460846089E6A
:10014000154674461946002B40F0C2808542B2FA2B
:1001500082F245D94AB1C2F1200300FA02FC2EFA1C
:1001600003F3954043EA0C0C94404FEA154EA8B2B5
:10017000BCFBFEF8230C0EFB18CC08FB00F943EA8D
:100180000C43994528D9EB1808F1FF3704D299455B
:1001900002D9A8F102072B44A3EB0903A4B2B3FBD5
:1001A000FEFC0EFB1C330CFB00F044EA0344A042AF
:1001B00014D92C190CF1FF3304D2A04202D9ACF1AE
:1001C00002032C44241A43EA07401EB1D440002302
:1001D00034607360BDE8F0874746DDE76346F1E7CA
:1001E00092BB431B01214FEA154EAFB2B3FBFEFC9D
:1001F000200C0EFB1C330CFB07F840EA0343984528
:1002000062D9EB180CF1FF3004D2984502D9ACF159
:1002100002002B44A3EB0803A4B2B3FBFEFC0EFBCD
:100220001C330CFB07F744EA0344A7424ED92C19B0
:100230000CF1FF3304D2A74202D9ACF102032C44E3
:10024000E41B43EA0040C0E7C2F1200320FA03F1B7
:10025000954090402EFA03F303434FEA154EAFB298
:10026000B1FBFEFC0EFB1C10190C0CFB07F841EA5D
:100270000041884504FA02F422D969180CF1FF30D4
:1002800004D2884502D9ACF102002944A1EB08014F
:100290009BB2B1FBFEFC0EFB1C110CFB07F743EA03
:1002A00001439F420ED9EB180CF1FF3104D29F425B
:1002B00002D9ACF102012B44DB1B41EA004192E779
:1002C0006046E3E76146F7E76046A3E76346B7E7C2
:1002D000834206D916B9002108467BE7C6E900E04B
:1002E000F9E7B3FA83F78FB9834201D3724508D88F
:1002F000BEEB020460EB030301209C461EB9002103
:1003000068E73846FAE7C6E9004CF8E7C7F1200C81
:10031000BB4022FA0CF41C432EFA0CF120FA0CF329
:10032000B84001434FEA14490EFA07F5B3FBF9F858
:100330001FFA84FE09FB18300B0C08FB0EFA43EA87
:1003400000439A4502FA07F240D9E31808F1FF305A
:1003500004D29A4502D9A8F102002344A3EB0A0370
:1003600089B2B3FBF9F809FB183308FB0EFE41EA2A
:1003700003418E452CD9611808F1FF3304D28E4514
:1003800002D9A8F10203214443EA0040A0FB0298ED
:10039000A1EB0E014145CE46434602D306D14D4561
:1003A00004D2B9EB020E68EB04030138002EA6D08C
:1003B000B5EB0E0261EB030101FA0CFC22FA07F324
:1003C0004CEA0303F940C6E9003198E74046C5E727
:1003D0004346D9E7F0B5364B364AC3F8002685B018
:1003E000C3F80426C3F80826C3F80C26C3F8102661
:1003F000C3F81426C3F81826C3F81C2600F076F8B4
:100400002D4C20460DF04AF900B32569A6682B68EB
:100410002A4A43F400532B6033680D212046984745
:10042000736801A92046984720B92A68019B534068
:100430009A040BD54FF08043D3F800340BB1DB079F
:1004400004D502F01DFE1E4803F0DEF901A800F0FD
:100450006BFC1C4B1B68834200D0FEE74FF49031CD
:1004600000200BF099F8044600B1FEE769469DF8BC
:10047000080009F053FA009B039D1D44019B1E894F
:1004800005F0B8FBAF1901F02BFE00F02FFE00F0D5
:1004900003FE03F0F5FCAB5983F3088884F314885A
:1004A000BFF36F8FBFF36F8F7B689847FEE700BF86
:1004B000000001403546526ED4DD000011000100FD
:1004C00078E000003807002021B1012906D06FF044
:1004D00015007047044B53F830007047024B03EB94
:1004E000C0035868704700BF80E0000002484FF426
:1004F000C05105F0F9BD00BF022D00202DE9F04FDD
:10050000F9B0DDE98489DFF8BCB1869FDBF80050E3
:1005100038A816461C460CF06EFB002138A805F0E2
:10052000F7FEB8F1000F07D0B9F1000F04DD4A461D
:10053000414638A80CF063FB33897289D6F80CA0C9
:1005400013449A444FF00008C24544D80DA938A876
:100550000CF099FB27B120220DA938460AF02DFC9A
:100560000023009322464FF6FF73314607A809F097
:10057000F6F9804660BB20460C9E09F0B9FA864227
:1005800026D8DFF844914FF0FF370DF1160305AA86
:1005900006A907A809F031FA002819DB40F08A8083
:1005A000BDF81660102E2ED1BDF81460202E0FD18C
:1005B0000699334638AA20460AF05CF940B932461B
:1005C00038A90DA809F065FA404B1B68834217D083
:1005D000DBF8005071E0839B829AAAEB08099945E9
:1005E00028BF99464B46414620460AF043F9002869
:1005F000EED182994A4638A80CF001FBC844A3E723
:100600004FF00108C1E7012E35D1BDF81430202B81
:10061000DED8069938AA20460AF02CF907460028A9
:10062000D6D19DF814A0BAF1200F02D94FF0FF37B0
:10063000ABE7D9F80030264E0393039B9F42F5DACF
:100640001DA80CF0D8FA00211DA805F061FE726803
:1006500056F8081B12681DA80CF0D1FA15A91DA8A0
:100660000CF011FB524638A915A80AF07FFB0028B0
:100670008BD00137E1E7202E87D17B1C85D0D9F8BC
:100680000030BB42D2DDBDF81430B3F5807F9FD17E
:10069000069938AA20460AF0EDF8002898D1FFB252
:1006A000BDF81430009738AA31460DA800F012F8B2
:1006B0000546BBE7B8F1000F8AD0284679B0BDE8FF
:1006C000F08F00BFB400002088E000003807002051
:1006D0008CE000002DE9F04FDFF8D4A1ADF54D7DA1
:1006E000074629A89DF858B3DAF800501E468946F7
:1006F00090460CF03BFA0422012129A805F084FD64
:100700006C4B53F83B40049403EBCB038CAA5B681F
:100710001B681C442146302304A80BF04EF8002827
:1007200040F0BE80049B8C9A13449C4240F0B880F9
:100730002BAA214604A80BF054F8002840F0B08002
:100740000DF1B80B5A46214604A80BF04AF8039065
:10075000002840F0A5802BA80BF039F9049A2A90C4
:10076000944240F09D80039BCDF804B000931A465C
:100770002BA929A80CF0B7F9002840F0918029A8EE
:1007800005F058FD002840F08B802BA80BF01FF9D6
:100790002A9029A80CF0F4F9864240F08180B6F541
:1007A000807FDAF800507BD1B9F1200F78D18CAA84
:1007B000414629A805F064FD0446002870D19DF843
:1007C0002F33BC2B6CD105900DF5A879DF260EA830
:1007D0000CF011FA00210EA805F09AFD20220DF26E
:1007E0000F310EA80CF00BFA042205A90EA80CF08C
:1007F00006FA06A90EA80CF046FA202E9DF817302E
:10080000B046A8BF4FF0200801334846424606A92B
:10081000A6EB08068DF817300AF0CFFA002EC14477
:10082000D5DC54AB8CAA184600219C46067812F8F9
:1008300001EB013186EA0E06DF2900F8016BF5D1E4
:100840001A7802F07F021A7013F8016B46BB01346C
:10085000BE2CF9D19CF8BE30012B21D10EA80CF092
:10086000CAF931460EA805F053FD134908220EA817
:100870000CF0C5F9394620220EA80CF0C0F9202250
:100880000DF20F210EA80CF0BAF906A90EA80CF073
:10089000FAF920220DF20F3106A809F0FAF8054600
:1008A00029A80CF06FF928460DF54D7DBDE8F08FB5
:1008B000B40000208CE000006CE50000094A0B78D1
:1008C000400052F820108B4209D0013052F820002D
:1008D000834214BF4FF0FF304FF4C07070474FF4A5
:1008E000C070704794E000001FB50F4B13F8300044
:1008F0000C4601F0A9F850B92068816810236A46B7
:10090000103909F0B7FF28B1206809F0B2FF4FF0A5
:10091000FF3006E00549102268460AF027FA002851
:10092000F2D104B010BD00BF94E0000038E5000033
:100930002DE9F041324B88B0064600200D461C6878
:10094000FFF7C2FD06A9C0B201F07EF8002853D11E
:100950002946FFF7B9FD2C2407A9C0B204FB0564A2
:1009600001F072F800282ED02C276F4306EB070801
:10097000069BD8F8101011F0100133D14FF480729B
:100980000192204A0092CDE90311224602910846C5
:10099000FFF7B4FD04461C4BF25906989A420CD15D
:1009A000D8F80C20B8F808309B1806D28268934219
:1009B00003D2164B1B68A3421BD0C5B1826800212D
:1009C00009F082FF13E0079809F099FF074607989E
:1009D00009F04FFF631EE21C13F8011FB942C3D197
:1009E0009342F9D11DB10699304609F052F9084BEE
:1009F0001C68069809F03DFF204608B0BDE8F0816C
:100A0000B4000020024500203DB8F39638070020CE
:100A1000B00000207FB50D46044600212846CDE9F0
:100A2000021109F0F5F8E8B12368154EB34203D17D
:100A300003AA204609F081F8E36AB34204D102AA6E
:100A40000121204609F079F8DDE90232934288BF9E
:100A50000393039BAB60039A2946204600F03AFAC1
:100A600004B070BD01A9FFF73FFF019805F108012F
:100A700009F021F8AB680198039309F0FAFEEAE760
:100A80003DB8F3962DE9F84FDFF870B01C4C1D4DC2
:100A9000884691469A4600260B9B9E4201D3002031
:100AA0000FE00B9B154A9F1BB7F5806F28BF4FF4D3
:100AB00080673B4606EB0A01404609F0DBFE10B1B9
:100AC0000120BDE8F88F0A993B465A4671184846FE
:100AD00009F0E5FE0028F3D1C4F800563E44C4F8FE
:100AE0000456C4F80856C4F80C56C4F81056C4F896
:100AF0001456C4F81856C4F81C56CDE73C0F002015
:100B0000000001403546526EF0B5824B43620E46FE
:100B1000814B0365002187B004460846FFF7D4FCEB
:100B200004F12001C0B200F08FFF01210020FFF787
:100B3000CBFC04F14C01C0B200F086FF204609F066
:100B40003DF8002849D100221146204608F0DFFF79
:100B5000002859D1204609F096F9002854D002A85F
:100B600009F04DF80146204609F0E7F800284BD17E
:100B700002A809F04DF880F0010102AAC9B220468E
:100B800008F0C5FF024600283ED102A809F040F84F
:100B90000546E8BB02A92046FFF73CFF9DF80F3051
:100BA00084F85830033B012B06D8284600F0E2F8C1
:100BB00010B1FF2384F858309DF80F30023B022B10
:100BC00006D8002000F0C0F810B1FF2384F8583098
:100BD00094F85830FF2B12D1FEE70123984284F895
:100BE0005830B0D194F858308DF80F30042B37D8E6
:100BF000012B3BD84DD0FF2384F8583049E002AA9E
:100C00000021204608F083FF012384F85830E9E7EB
:100C10009DF80F70012F17D1104605F097F8831E2D
:100C2000022B05460DD839462046FFF781FE3B4B87
:100C30001B68984205D03A4B1D68A84214BF052591
:100C4000012584F85850CDE701212046FFF770FEBA
:100C5000324B1B6898420CBF9DF80F300523D4E738
:100C6000052BC8D1002000F085F810E002A920462D
:100C7000FFF7D0FE94F85830DA1E012A0ED8002073
:100C800000F078F80028B6D1002000F05DF80028C8
:100C9000B1D194F85830FF2B03D1FEE7022BF8D1E5
:100CA000F2E70021012B1F4D019113D002AA20462B
:100CB00008F02DFF70B12D681022002102A80AF063
:100CC00087F8E06C09F0D5FD206A09F0D2FD2846CE
:100CD00007B0F0BD00212046FFF72AFE0F4F3B680A
:100CE0008342E8D12A689A42E5D00D4A12689A42B6
:100CF000E1D0019B01330193019B012B00D0FEE762
:100D0000206A08F011FE3071236A5B6834603D6828
:100D1000B360D1E73C0B00203C07002038070020DF
:100D2000B0000020B400002038B5064D0446602213
:100D3000002128460AF04CF821462846FFF7E4FE39
:100D400038BD00BF3C13002013B5094B01A913F8AF
:100D5000300000F079FE48B901980AF0DAFC044648
:100D6000019809F086FD204602B010BD0124FAE783
:100D70009CE000001FB50F4B01A913F8300000F0F4
:100D800063FEA8B9019802A904F08AFF044668B975
:100D90009DF80B30032B03D101980AF088FC044620
:100DA000019809F066FD204604B010BD0124F7E764
:100DB0000124F8E79CE000002DE9F34106460C46CB
:100DC00017461D460BB9002628E0184608F020FFFC
:100DD0000028F8D16946FFF787FD009838B901244B
:100DE000009809F046FD204602B0BDE8F08101A957
:100DF00008F061FE0028F2D1009809F03AFD304673
:100E0000019908F0D6FF736A5E686B79012B21D1D6
:100E1000002CD8D12B68834298BF002621460020A1
:100E2000FFF752FB6946C0B200F00EFE0028D6D193
:100E3000009820233A46314609F01CFD044600285C
:100E4000CDD1002DCCD03C680D4BE41A18BF4FF02B
:100E5000FF34C5E7022BB6D12B68012B05D983429D
:100E6000B1D8B4FA84F46409ADE7ACD1002CD5D084
:100E7000012CA8D12C79023C18BF0124A3E700BFA4
:100E80003DB8F39673B54B681446114A03F0FF233F
:100E9000934206460D4618D10B68012B15D16946C1
:100EA000204604F0FDFE9DF80030032B0DD12146B5
:100EB000304608F0EEFE20460AF0F9FBA96820460D
:100EC00008F007FE204604F0CBFE02B070BD00BF64
:100ED000000100042DE9F04F0C4689B0114605468B
:100EE00008F067FF6B6A039020465E6808F090FE8A
:100EF00090B1E86D08F0CFFDAB6A0022013B3244AF
:100F0000904201D9013BFAE7039A934204D80123A6
:100F1000E37109B0BDE8F08F06A9022000F094FD4E
:100F200007A9052000F090FD079A21462846FFF703
:100F3000A9FF6379012B4BD1039FDFF858B141E042
:100F400022680399C2F101030B44BB4239D36B6A97
:100F5000196853F8370003EBC703012A53F8083C1C
:100F6000A0EB0109A3EB010A11D1079B0493E368ED
:100F7000022B08D04146284608F08BFE2246414607
:100F8000284608F0BBFE0499284608F082FE324647
:100F90004946404608F07BFE534642464146CDE96D
:100FA00000962846FFF76EFD2146284608F03DFED4
:100FB00023680133236020B1DBF800300133CBF824
:100FC0000030013FDDF81880002FB9D101232360E4
:100FD000022363710127039BDDF818909F4206D915
:100FE000484609F046FC079809F043FC91E723685E
:100FF000BB424DD86A6ADDF81CA052F83710D2F80F
:1010000000B00491FB00083BD1582A6DD0581368FA
:10101000A0EB03082379012B38D1A1EB0B01324659
:101020004846059108F033FE0599009143464A462B
:10103000514601962846FFF725FD2146284608F02F
:10104000F4FD0223237118B1124A136801331360AF
:1010500032464146504608F01AFE049B5246A3EB26
:101060000B034946CDE900862846FFF70BFD2146D4
:10107000284608F0DAFD2368013323600123237139
:1010800030B1044A13680133136001E0022BDFD052
:101090000137A0E79C130020BFF36F8F72B6124B8D
:1010A0004FF0FF32C3F88020C3F88420C3F88820B3
:1010B000C3F88C20C3F89020C3F89420C3F898207C
:1010C000C3F89C20C3F88021C3F88421C3F8882189
:1010D000C3F88C21C3F89021C3F89421C3F8982158
:1010E000C3F89C21704700BF00E100E0164A4FF0B2
:1010F000FF3301215160C2F84833C2F8083302F5CA
:10110000C0425160C2F84833C2F8083302F5983241
:101110005160C2F84833C2F80833A2F50832002102
:10112000C2F80015C2F8083302F51832C2F80015EB
:10113000C2F80833A2F51042C2F808354FF08042D9
:10114000C2F80833704700BF00B000402DE9F043FB
:10115000079D15B91560002012E00324B5FBF4F4D7
:1011600004EB4407BD4218BF0134B4F1804F09D2EB
:10117000A40001348C4200D838B914606FF00B0021
:10118000BDE8F0834FF0FF34F7E7DFF8BCE004463A
:101190000021B94203F1030C04F104062CD3A94247
:1011A000274624D21F7801F1010CAC45264938BFEF
:1011B0005B784FEAA70E28BF002311F80EE084F8F1
:1011C00000E0AC4501EB131E3CBF9B0003F03C0369
:1011D0004FEA071707F0300738BFCB5C1EF80770DF
:1011E000677028BF3D23A3703D23E3703746381A4C
:1011F000002310603B70AEE71CF8034C1CF8023C67
:101200001CF8018C4FEAA40924011EF8099006F885
:10121000049C04F030040EEB13199B0019F80440F1
:1012200006F8034C03F03C030EEB981408F03F085B
:10123000E35C06F8023C1EF8083006F8013C033176
:1012400034466346A5E700BF02E700002DE9F043FE
:10125000DDF81CE0DFF82C8100273C463D46754553
:101260001FD3E4BB14600020BDE8F083013676454F
:1012700033D013F806C0BCF1200FF7D0AEEB06094F
:10128000B9F1010FA6EB05050DD0BCF10D0F0AD188
:1012900003EB060999F80190B9F10A0F6ED1751C9C
:1012A000DDE72E46E3E7BCF10A0FF8D02DB9BCF11B
:1012B0003D0F05D10137022F0DD96FF01500D3E78F
:1012C0001CF0800FF9D118F80C507F2DF5D03F2D70
:1012D00001D8002FF1D10134E1E73546C1E704F030
:1012E00007064FF0060CE4080CFB06F60CFB04F4B2
:1012F0000736E41B04EBD60470B18C420CD80027EF
:10130000DFF880E0DFF880801D44014603263C467C
:101310009D4205D10C1AA5E714606FF00B00A3E7FE
:1013200013F8019BA9F10A0C5FFA8CFCBCF1160FB3
:1013300004D848FA0CFC1CF0010FE9D01EF809C0D3
:101340000134BCF1400F08BF013E0CF03F0C042CEF
:101350004CEA8717DCD17EB13C0C012E0C7002D117
:1013600001310024D4E7022E4FEA17244C7016BF37
:101370008F7002310331F4E73446C9E7002DA2D063
:101380009BE700BF82E60000F6FFBFFF014B1B6832
:10139000184700BFB800002007B50B4600210246E1
:1013A0000091034800F014F903B05DF804FB00BF9E
:1013B0008D1300002DE9F047058B04462807904661
:1013C00011D4022905F0070540F0CD80204609F030
:1013D0008DF878B10138218B042811D8DFE800F0AE
:1013E000C3106D85950001290CBF45F0100545F02F
:1013F0002005258388F31188BFF36F8FBDE8F08740
:1014000001F0070AAA4500F0A6800027B9463E462B
:10141000A368002B00F0BD8041F00801218388F310
:101420001188BFF36F8FA168002900F0BB800D68A1
:10143000002900F0B780D1F8048033465246204698
:10144000C047002D76D02B6829461D46F0E701F0F5
:1014500007035A1F012A1BD8002221F00701062B7F
:10146000276889B2C4E9002209D13B4603E0628BB8
:10147000013262831B68002BF9D141F00201218304
:10148000204609F033F800287BD041F0200177E0B6
:10149000042B0AD121F0070189B22183204609F0EB
:1014A00025F810B141F020012183218B01F0070ABA
:1014B000AA4550D00027B946AAE7236921F00701C1
:1014C00041F00601062DD3F8009021832DD1B9F10A
:1014D000000F40D041F00801218388F31188BFF349
:1014E0006F8F3A492046C84729E021F00701236958
:1014F00041F0040189B2042DD3F804902183E6D091
:1015000000273E464FF0040A82E721F007012369D5
:1015100041F0050189B2052DD3F808902183D6D07A
:1015200000273E464FF0050A72E700273E464FF07F
:10153000060A6DE72B4687E7B9F1000FD1D14FF0CE
:101540002003EFF3118883F31288BFF36F8F238B8F
:1015500023F008032383258BEA062ED525F01003FC
:10156000238305F007056669218B002EBFF66FAF58
:1015700000232768C4E9003321F0070141F001018D
:101580002183218B01F0070AAA454FF000097FF45F
:101590003FAF002F9BD041F00801218388F31188D1
:1015A000BFF36F8F002FC7D03D6839463346524690
:1015B000204608F0C7FF2F46F4E7AB067FF51AAFC9
:1015C00025F02003238305F00705FFE671A5000041
:1015D0002DE9F04F8DB01D46531E824601910393B5
:1015E0004FF00009039B5878252803F1010419D115
:1015F0001E4600204FF0FF38023603460290444654
:1016000031780396392954D81F2914D8002900F0BD
:10161000EE8101992520D04701993078D04709F112
:101620000209DFE7002800F0E2810199D04709F1C3
:1016300001090394D6E7A1F12002192AE9D801A7EC
:1016400057F822F0AD160000131600001316000024
:10165000AD160000131600002D1700001316000031
:10166000131600001316000013160000791700006F
:10167000AD160000131600008D170000391700008A
:1016800013160000471700006717000067170000D7
:101690006717000067170000671700006717000052
:1016A000671700006717000067170000084601363B
:1016B000A6E7582900F0EB80A1F16302D7B2172FFB
:1016C000A7D8172AA5D801A757F822F03519000086
:1016D000B3170000131600001316000013160000C5
:1016E00093170000B3170000131600001316000034
:1016F00093170000131600001316000013160000C5
:1017000069180000131600001316000009190000E4
:1017100013160000B3170000131600001316000084
:101720006918000013160000931700000199252086
:10173000D04709F1010955E7029A02F0FE02029230
:101740004FF00008B3E7002C0DDAB8F1000F0DDA06
:10175000029A002A00F0438124EAE4740A2202FB80
:101760000414303CA3E7B8F1000FF5DB0A2202FBBA
:101770000812A2F130089AE7B8F1000F55F8042BCF
:1017800080F22F81002A80F22E815442022202929E
:101790008DE7682903D1682B06D1482387E76C2998
:1017A00002D16C2B00F02181002B7FF432AF0B466D
:1017B0007DE77A2B06D1752955F8046B14D14FF0CB
:1017C000000B0CE06C2BF6D04C2BF4D1073525F038
:1017D00007037529D3E9006B03F1080506D120281A
:1017E0003BD1854F013C09E04FEAE67BBBF1000F9E
:1017F000F5DA7642814F6BEB4B0B013C0DF12D037B
:10180000059300230493304659460A220023FEF72D
:1018100077FC059B303203F8012DB4460593049BF9
:101820005A46BCF10A0F8B4672F1000203F1FF31F8
:1018300006460491E7D2C3F1010B30330DEB0306EA
:10184000B8F1000FA6F104066DDA029BD9077DD42A
:10185000A8EB0B03A4EB0B0413E02B280ABF684F83
:10186000684F04F1FF34C9E770290FD155F8042BF4
:101870000023FAB9634F644E053C6FF004034FF048
:10188000050B029A920770D4A04666E078216C2B73
:1018900003D155F8042B002308E04C2BF9D1073570
:1018A00025F007031D465B6855F8082B232825D132
:1018B000880621D5554F023C01F06001A1F1390B9A
:1018C0000DF12D0E002602F00F01092988BF5944A1
:1018D00030310EF8011D102A4FEA121141EA03714E
:1018E0004FEA131C73F1000306F1FF3008D2C6F172
:1018F000010B06F13003A1E7454FDCE7414FDBE781
:1019000006460A466346DEE755F8046B304609F0A2
:1019100026FAB8F1000F834602DB4045A8BFC34654
:10192000384F4FF00008A8EB0B03002B92DDA4EB1F
:101930000804A6E755F8043B8DF81830314F013CF8
:101940004FF0FF334FF0010B06AE9AE7A046EAE7EF
:10195000029301992020D047029BB8F10108F7D5E6
:1019600024EAE472013C9144A41AB84606E00493C8
:1019700002920199D047029A049B9046424612F87F
:10198000010B0028F3D11A46013A15D5002BACBF44
:10199000C7EB03077F425B46013B15D5BBF1000F48
:1019A000A8BF5F444F442646013E14D5002CA8BF73
:1019B0003F1907EB080915E60493029201993020BC
:1019C000D047049B029ADFE70293019916F8010BB6
:1019D000D047029BE0E701992020D047E4E70122AD
:1019E000D5E6904663E6144661E64C235FE648463A
:1019F0000DB0BDE8F08F00BF55E7000053E70000D1
:101A000057E70000F5E900005FE7000059E7000034
:101A10005CE7000008B504464FF02002EFF31183A5
:101A200082F31288BFF36F8F04F0E4F8204602F0CF
:101A300015FA034808F081FA01F04AFFFCE700BFFD
:101A400065E7000004F07EBD70B5114B1C680D46C3
:101A5000DCB1104B196800238B4202DB6FF00100F0
:101A600070BD224612F8106B864202D00133144634
:101A7000F2E7E06810B96FF01200F1E70BF00EFE2C
:101A80000028F8D02C600020EAE76FF00C00E7E7B0
:101A900014010020FCE0000070B588B005460C463B
:101AA000C0B269461646FFF7CFFF00281BDB00983F
:101AB000C8B143680293836822680195CDE9033673
:101AC0000023CDE906230593C56808F0D2FE6DB169
:101AD0002846084901AA09F0D3FA079808B9059BD6
:101AE000236008B070BD6FF01500FAE76FF01200C8
:101AF000F7E700BF0DA90000F0B40C4B0C4E5F6A75
:101B00000C4BB34203D36FF08500F0BC70475D68A7
:101B1000BD4209D31C693CB195F802C00579AC45BA
:101B200002D12346F0BC18472433EAE7A013002073
:101B300018040020F40300202DE9F047134CDFF8CF
:101B40005080DFF8509005460E461746444503D3B3
:101B50006FF08500BDE8F0876268D9F824309A42BA
:101B600012D3A36983B190782979884205D13A4686
:101B700031462846BDE8F04718475279012A03D17B
:101B80003A463146284698472434DFE7F4030020DC
:101B900018040020A01300202DE9F0410B4CDFF8C1
:101BA000308005460E461746444502D36FF0850047
:101BB00009E063690BB92434F6E73A463146284612
:101BC00098470028F7D1BDE8F08100BFF40300205A
:101BD0001804002010B5044609F03FF910F1780F01
:101BE00000D050B9054A204608F0B2FED2F8C43001
:101BF00023EA0003C2F8C430002010BDA013002067
:101C000002480822002109F0E3B800BF5B1400205D
:101C100070B50B4B0B4CA34201D3002070BD196A69
:101C20001E7F00220439D5B2AE4201D82433F2E738
:101C3000013211F832508542F5D10120EEE700BFA4
:101C4000F40300201804002008B509480378C3F302
:101C500041130A3350F823303BB100F1080200F180
:101C600010019847C043C00F08BD1846FCE700BFED
:101C7000A013002004282DE9F14FDFF898900446C6
:101C80000F4616D001282DD1DFF88C8098F8B93096
:101C900043B300F037FE214D4D4520D2D5F820B09A
:101CA0004FF0000A2B7F5FFA8AF6B34204D824353E
:101CB000F2E7FFF7A5FFE7E70BEBC6060AF1010A1B
:101CC000307909F0CAF80246307908F041FED8F8B8
:101CD000C430002A23EA0003C8F8C430E2DA002343
:101CE00088F8B9300D4D4D4508D30B4B1B6A6BB1CD
:101CF0003946204601B0BDE8F04F1847EB681BB1EC
:101D00003A462146284698472435ECE701B0BDE81D
:101D1000F08F00BF18040020A0130020F40300205F
:101D200073B5C4B263060D468DF8074007D0204650
:101D3000FFF76EFF78B10D4B93F8BA0058B10B4E18
:101D4000204655B102F0E6FDF3691BB10DF1070124
:101D500008209847012002B070BD02F003FEF3692D
:101D6000002BF7D00DF107010920F2E7A0130020A6
:101D700073B586788DF80060037942791C4C43EA8C
:101D80000223ADF80230C378304603F003038DF828
:101D9000043008F0DDFDD4F8C430184205460BD0FD
:101DA000304600F091FD3046FFF714FF0BF0EAFCDF
:101DB00010B9962007F07AF9684602F087FD10F115
:101DC000780F03D010B1002002B070BD9DF8000064
:101DD00002F004FE10F1780F01D00028F3D1D4F8FE
:101DE000C43001202B4384F8B900C4F8C430EBE7B9
:101DF000A01300202DE9F047A34EB36904460F4617
:101E00001546FBB9237803F01F03012B00F09D80DA
:101E1000022B00F0048133BB94F900002A6861783A
:101E2000002834DA062912D008292BD0D9B9012389
:101E30001370517096F8C3305B0043F001031370C8
:101E400002232AE198470028DCD100200DE06288B7
:101E5000100A011F0129844605D9072803D8716A91
:101E6000D2B20C781CB96FF01500BDE8F0874E783F
:101E7000664503D19A4200F00B8101332144F0E71B
:101E80000B780AE196F8BA301370012305E10139A5
:101E90000829E8D801A353F821F000BF351F00003E
:101EA000671E0000431F0000671E0000C11E0000E7
:101EB000671E0000671E0000671E0000CD1E0000A8
:101EC000A07802F0F1FC0028BFD0CCE76388756AE7
:101ED00063BBFFF795FE638886F8BA30F369002B81
:101EE000B3D06A4903209847AFE76B78042B10D032
:101EF000052B11D0022B04D16F796388BB4208BF38
:101F000001202B781D442B78002BEED10028AAD07D
:101F1000DFE795F80380F4E76388BB42F1D1B8F1BD
:101F2000000FEED12846FFF723FFEAE7FF27002046
:101F3000B846E8E76388012B95D1002386F8C330C3
:101F400083E76388012B8ED1F8E796F8BA30D5F88D
:101F500000C0002B87D0756AA38894F804E02A4655
:101F6000107800283FF47FAF5178022904D192F80D
:101F70000480F04500F293800244F1E78CF80020E1
:101F80008CF80120396060E7154494E00B2A7FF457
:101F90006AAF00274FF0FF08C146BA4606E06B78EB
:101FA000042B0FD0052B21D02B781D442B78002B30
:101FB000F5D1F36913B1514607209847002F7FF4FC
:101FC00044AF50E795F80280A38895F803909845B0
:101FD000EAD163889945E7D1B8F1070F1CD806EB21
:101FE0000803AA4683F8BB900127DDE7A388434591
:101FF000DAD1A3784B450AD0AF78384600F064FCBC
:102000003846FFF7E7FDB0FA80F77F09CCE72846AE
:10201000FFF7AEFE0746C7E7AA460027C4E794F9D4
:1020200000206378002A18DA002B7FF41CAF247993
:102030002D6863060AD02046FFF7EAFD00283FF42A
:1020400012AF96F8BA30002B3FF40DAF2946204668
:1020500002F0A8FC00236B70F2E6012B08D0032BE2
:102060007FF401AF6388002B7FF4FDAE012103E014
:10207000618800297FF4F7AEA088FFF751FE0028A1
:102080007FF4E3AEEFE600BFA01300205A14002057
:10209000022829607FF4F4AE4B883B60D5E694F9C2
:1020A000000062780028BFF671AF002A3FF466AFE7
:1020B0000A2A7FF4D8AE2A78002A3FF4D4AE697891
:1020C00004297FF461AFA9788B427FF45DAF072BC1
:1020D00096BF9B19002393F8BB308CF80030D4E6F0
:1020E00070B5164D95F8B830FBB102F0BDFB002875
:1020F00022DB00F007FC0024D5F8C430E340DA0707
:10210000E6B214D4D5F8C43004F11002D340DB0792
:1021100005D546F08000FFF75DFD00280CDB01349B
:10212000102CE9D1002385F8B830002004E03046B7
:10213000FFF750FD0028E5DA70BD00BFA0130020B6
:1021400013B5164C237DF3B9E268A168019201AB87
:10215000802008F00BFC019AA3681344A360E36895
:102160009B1AE3606BB962B12369E2889A4208DD89
:1021700094F8C82093FBF2F102FB11330BB9012351
:10218000237502B010BD00231A461946802023751E
:1021900002B0BDE8104002F04BBC00BFA01300200D
:1021A00030B585B0002302460D460193002858D172
:1021B000002935D108220B460DEB020108F066FE1E
:1021C000002804DA802002F0A5FB05B030BD2A4CBF
:1021D000029A2260039A626004F13802A2609DF9BB
:1021E0000820BDF80E302575002AC4E903550ADB26
:1021F000802B04D9802002F08DFB0020E3E713B18F
:10220000C4E90333E1E7FFF71FFD0028DAD0E288D5
:1022100023699A42D4BFE260E360FFF791FFD4E7FD
:10222000154CD4E90215002D01AB04DC08F02EFE9C
:102230000028CADAC6E72A4608F028FE0028D9DBBB
:10224000019AA3681344A360E3689B1AE360002B20
:10225000BBD104F13803A360FFF7F6FC0028DCD102
:10226000B0E78028B1D1044BDA68002AD5D11B7DB4
:10227000002BD2D1A9E700BFA0130020054B064ACE
:102280009A62064ADA62064A1A63064A58629A61F4
:1022900000207047A0130020F51D0000F91A00006F
:1022A000991B0000391B000010B5084B93F8B8408B
:1022B00034B900F0E3F830B1FFF7E0FF204610BD7D
:1022C0006FF07700FBE74FF0FF30F8E7A013002036
:1022D0002DE9F341414D04466F6A41484FF0FF320A
:1022E0004FF0FF3306F078F995F8B860002E6ED104
:1022F0003C482C62E86102F0B5FC02F083FA041E4F
:1023000049DB00F023FB041E45DB7B78012B61D108
:10231000FB79002B5ED0684685F8C830ADF80230F6
:102320008DF804608DF8006002F0D0FA041E32DBF4
:10233000802768468DF8007002F0C8FA041E2ADB78
:102340002949304602F07AFC041E24DB264938462F
:1023500002F074FC041E1EDB244CDFF8948044451C
:1023600020D3002002F03AFB041E14DBD5F8C43061
:10237000802043F00103C5F8C43002F02FFB041E97
:1023800009DBD5F8C43043F48033C5F8C4300123E9
:1023900085F8B8300024124806F098F9204602B0BB
:1023A000BDE8F081276A0026227FF3B29A4201D865
:1023B0002434D4E707EBC30257F83310107902F046
:1023C0003DFC01360028EFD04FF0FF34E3E76FF01B
:1023D0007704E0E76FF01504DDE700BFA0130020ED
:1023E00010030020751C0000A1210000F403002050
:1023F0001804002030B51F4B8BB005AA03F110055F
:1024000018685968144603C40833AB422246F7D112
:102410001B7823701022002101A808F0D9FC122299
:102420000021154808F0D4FC102101A808F0A9FEED
:1024300000281BDD0828B8BF0820093801AB0E4969
:102440001A18002012F8013F0AAC04EB131403F031
:102450000F0328336B44013014F8144C13F8143C68
:102460000C7008284B7001F10201EBD102480BB04F
:1024700030BD00BF99E70000024600202DE9F04F73
:10248000704C87B04FF0000B00264FF0011AB04699
:102490003546B14623782BB96B4B02349C42F3D1BD
:1024A000684832E06378052B1BD8DFE803F090031F
:1024B000C8901D3B402304A88DF810B0ADF8123031
:1024C0008DF814B008F0B1FC40B1082304A8ADF8B1
:1024D000123008F0AAFC08B1ADF812B0BDF8123005
:1024E000E37123781C44D5E7E378002BF9D1A37876
:1024F00073B108F101085FFA88F8F2E76A6894425C
:1025000009D024359D42F9D3002007B0BDE8F08FF3
:102510004E4D4F4BF6E7AB68002BEAD041462046C4
:102520009847E6E7002DEFD000222B7F9A42EBD2AE
:10253000296AA07801EBC2010B79984201D00132DF
:10254000F3E70127E07800F003008DF8140020790C
:1025500094F805C040EA0C20ADF8120094F902008E
:102560000028FBB228DA07F110004FF0010C0CFA3A
:1025700000F010EA0A0F26D143F080008DF8100019
:1025800004A8CDE90213019208F04FFCDDE9012116
:10259000039BC0B99DF81020A27012F0800F18BFE5
:1025A00010330A7118BFDBB24FF0010214BF9A401A
:1025B000BA404AEA020A94E70120B84010EA0A0F3A
:1025C00001D11846DAE70137102FBBD1B7E7032E48
:1025D0001DD1FFF70FFF074668B108F0C0FB01905F
:1025E00048B11C4808F0BBFB019A824203D139462E
:1025F000A01C08F0E2FB23786FF00201E218091B2F
:1026000004EB5303D14213D50136F6B269E7002E2D
:10261000F1D1B9F1000F3FF477AFA4EB090389F8CA
:102620000230C3F3072389F8033089F80480EBE70D
:1026300002F801BC13F8010902F8020DE2E7A14615
:102640004FE700BF34030020F3030020F403002011
:102650001804002099E7000010B5094B00211A4624
:102660001C78844204D15C6814B102EB811010BD67
:102670000131042903F14003F2D10020F7E700BF44
:102680006C1400202DE9F34150F8283C10F82C6C14
:102690001033044610D1036950F8202C990739D51E
:1026A000EAB913F0040304D11A461946304608F07B
:1026B0005DF9002344F8283C54F8283C10330BD033
:1026C00054E9077554F8148C0BF05CF800284CD0D2
:1026D0002C4821460BF04FF902B0BDE8F08150F8CC
:1026E000241C01AB304608F041F910B16FF015031E
:1026F000E0E7019A54F8243C134444F8243C54F88D
:10270000203C9B1A44F8203C54F81C3C134444F8E9
:102710001C3CD1E750F8241C01AB304602F004FA0F
:102720000028E3D1019D54F8243C2B4444F8243C78
:1027300054F8203C5B1B44F8203C54F81C3C2B44D0
:1027400044F81C3C002DB4D0304602F091FAB5FBA1
:10275000F0F303FB1055002DABD154F8203C002BB7
:10276000A7D0304602F028FAA6E744F8180CA4F1E6
:10277000100006F01BF8002DAED042463946304618
:10278000A847A9E7180400204B1E012B73B5064685
:102790000D460FD8FFF760FF044668B9012D09D137
:1027A00001AB01220DF10301304602F0BDF9019B9E
:1027B000002BF5D102B070BD0AF0E4FF04F12C014A
:1027C00008B1012D05D1084602B0BDE87040FFF701
:1027D00059BF034802B0BDE870400BF0CCB800BF51
:1027E000180400202DE9F74F06460191154698463A
:1027F00008F004F9044600285CD14FF02003EFF301
:10280000118A83F31288BFF36F8FDFF8B0B0002214
:102810000023584605F0EEFF70B9DFF8A490A70139
:1028200009EB8414636813F1100F14D10193584617
:1028300005F0BCFF019B06E00134042C0BF1400BBA
:10284000E5D16FF00B038AF31188BFF36F8F184641
:1028500003B0BDE8F08F019B2061C4E902350C9BF9
:1028600063610D9BA36130466FF00F0309F80760A9
:10287000C4F83C80636002F0FBF958B1304602F0C6
:10288000F7F9B5FBF0F303FB10551DB1E36B43F013
:102890000403E36318F0020F07D007F12C01094885
:1028A00049440BF068F80023CDE7304602F084F984
:1028B0000346C8E76FF00F03C9E700BF8814002084
:1028C0006C1400201804002010B54FF02003EFF323
:1028D000118483F31288BFF36F8FFFF7BDFE50B1F1
:1028E0004368103307D16FF08B03436000F12C0174
:1028F00003480BF040F884F31188BFF36F8F10BDCD
:102900001804002070B50F4C04254FF02003EFF39E
:10291000118683F31288BFF36F8F6368103307D17A
:102920006FF08B030848636004F12C010BF023F86F
:1029300086F31188BFF36F8F013D04F14004E4D1A9
:1029400070BD00BF6C1400201804002070B50A4C44
:102950000A4E0025314620460AF0F0FF0122A4F17C
:102960001000114601350AF0ACFF042D04F14004BB
:10297000F0D1002070BD00BF981400208526000013
:1029800070B504460E4601791248154608F012F853
:10299000E8B194F900206378002A11DB202B04D0E1
:1029A000222B09D06FF0850005E029680722103836
:1029B00008F003FA002070BD638800F8093CF9E7CD
:1029C000212BEFD11038072328603360F2E76FF036
:1029D0001200F0E76C15002008B50146034807F027
:1029E000F7FF10B1012300F8073C08BD6C1500206B
:1029F0000169012381F84B300B6833B191F84930FC
:102A00001BB1024808310AF0B6BF70471804002015
:102A10000169012381F84A300B6833B191F84830DD
:102A20001BB1024808310AF0A6BF70471804002005
:102A30000D4A03460021A0F848101068C3F894001E
:102A400090889279A3F8980083F89A2083F89C10D4
:102A500083F89B10A3F89E1083F8A010402203F186
:102A60004C0008F0B5B900BF60E0000038B505695A
:102A700095F89E0088B195F89F307BB985F848306D
:102A8000D5F8900007F080FE002204460023044899
:102A900005F1180106F004F8204638BD0020FCE7D7
:102AA0001804002013B504698DF8071094F89E30BF
:102AB000A3B194F89F308BB90DF10701D4F89000C1
:102AC00084F84830012207F05FFE014640B10D480E
:102AD0002122002304F1180105F0E2FF02B010BD2D
:102AE000D4F89000012207F0A3FE0028F6D0D4F815
:102AF000900001220DF1070107F046FE0028E6D103
:102B0000ECE700BF18040020F0B5D0F88C305B680B
:102B10001B6A1F7D85B00546384607F06FFF0646E5
:102B2000E0B9A86F4FF4806203A907F04CFE044699
:102B3000A0B18306A5F1180308BF00F1FF3485F8A2
:102B400030600193064B03990093224602233846D6
:102B5000FFF748FEA86F214607F055FE05B0F0BD0F
:102B6000652B000010B5012382F848301368144625
:102B70003BB192F84A3023B10A4802F108010AF049
:102B8000FAFED4F890309A681B699A4208D004F192
:102B900018010448BDE810400022002305F080BF62
:102BA00010BD00BF1804002010B504690023C4F84C
:102BB000A8300C4BC4F8A400596804F1A80269B904
:102BC000C3E9002204F1080007490AF0B7FE04F146
:102BD000180006490AF0E0FE002010BD0A605A60A5
:102BE000F0E700BF6C15002027AA0000092B0000A9
:102BF00030B54FF40033426805690D4C85B042F2A0
:102C0000A100CDE90103002385F89D30106AADF8DD
:102C10000C1000790A2201A907F0A8FE95F89D3052
:102C200023B901200AF035FD013CF7D105B030BDD4
:102C3000A186010073B5144602F14C060A1E054632
:102C40001FDDD4F88C00314607F09EFD012384F887
:102C5000493023683BB194F84B3023B10E4804F15E
:102C600008010AF088FED4F88C104B684A699A1A59
:102C7000CB699B1A3F2B04D8012384F8A03002B003
:102C800070BD064B00930194012340223146284633
:102C9000FFF7A8FDF3E700BF18040020352C000063
:102CA00038B50D4601461E4807F078FE044680B34D
:102CB0000246691E52F8A4395B68052929D8DFE865
:102CC00001F020280320252914F8061C31B91B6ABD
:102CD000187BFFF7AFFF012304F8063C14F85C3CB7
:102CE000BBB9012304F85C3C54F8A43C8BB114F844
:102CF0005A3C73B1A4F19C010A48BDE838400AF07F
:102D00003ABEBDE838401046FFF792BE012304F8F2
:102D1000053C38BD14F8053C002BFAD00023F6E73B
:102D20006C1500201804002037B5094D094900240E
:102D300000944FF0FF334FF48062284605F078FE90
:102D4000054928460AF024FD204603B030BD00BFE7
:102D500018040020404F0020E0E70000014806F082
:102D60002BBC00BF60E1000038B5044618B90F4B1A
:102D70000F485B6898476168B1F5683F10D0B1F5BE
:102D8000680F0DD00B4DA9420AD011F4686120687C
:102D900007D0014608480AF0CFFC00232360656095
:102DA00038BD142208F014F8F9E700BF34020020FF
:102DB000E9E700002C5F5CA9741A002008B520B375
:102DC0004368B3F5683F10D101220368BFF35B8FFE
:102DD00053E8001F002903D143E800200028F7D161
:102DE000BFF35B8F0DD1002008BD094A93420AD082
:102DF00000684FF0FF324FF0FF3305F0EDFB002885
:102E0000F1D00448F0E70448EEE76FF4E040EBE768
:102E10002C5F5CA9E98FFFFFEA8FFFFF08B5D8B1EF
:102E20004368B3F5683F10D100220368BFF35B8F9E
:102E300053E8001F012903D143E800200028F7D1FF
:102E4000BFF35B8F0BD1002008BD074A934208D027
:102E5000006805F03BFCF6E76FF4E040F4E7034858
:102E6000F2E70348F0E700BF2C5F5CA9E98FFFFFA2
:102E7000EA8FFFFF10B5044618B91D4B1D485B686B
:102E800098476368B3F5683F2FD0B3F5680F2CD02F
:102E9000194A934219D1236803BB18484FF0FF32F7
:102EA0004FF0FF33214605F0AFFA08B923681BB98C
:102EB0000F4B13485B68984720681422002107F0E5
:102EC00087FF4FF46863636008E0B3F5683F0DD88F
:102ED0003A2B03D040F6BA629342DED120680AF062
:102EE00070FC636843F03A03636010BD054AF3E782
:102EF00034020020E9E700002C5F5CA9741A00206E
:102F00000FE800003A00003A08B506490648402399
:102F100014220AF003FCBDE808400449044806F006
:102F2000BDBB00BF74150020741A002068E10000CA
:102F30007CE10000F7B5224E306883685B6C03B11A
:102F40009847306883685B6B002B31D11D4C1E4D58
:102F5000306883689B69002B2DD001220DF1070199
:102F60009847012827D1236843B92B681BB36968A8
:102F70001A682A608B4208BF6A602360134A9DF872
:102F8000070011887F2904D823680B444F1C178041
:102F900018720A28DCD123681188596000200C4976
:102FA00018604D684DB9C1E9003310802060CEE74C
:102FB00098470028CAD103B0F0BD2B604B60F4E7FE
:102FC000E81E0020901A0020A01A0020002D0020EA
:102FD000981A002010B5044B044618688368E1B2C3
:102FE0005B689847204610BDE81E0020F8B50546EE
:102FF000164608464FF02003EFF3118783F312883B
:10300000BFF36F8F1B490B684BB11B4C62689A4230
:1030100005D000221A60626862B9C4E90033174A19
:10302000136853B987F31188BFF36F8F0B6018468D
:103030003360F8BD13606360F1E7D2F804C01C6828
:103040001460634508BF546087F31188BFF36F8F26
:103050005C680B60A042D8BF00F1FF3403F10801A7
:103060002246284607F0A9FE00232B55601C0123A9
:10307000DEE700BF941A0020A01A0020981A002052
:1030800037B52449244A0023C1E90033C2E900339B
:10309000224A1C464868146088B9C1E900220133FD
:1030A000082B02F18802F5D11D4D1E4828600AF058
:1030B000F5FA38B94FF0FF34204603B030BD026056
:1030C0004A60ECE70020FFF703F904460028F1D13D
:1030D0002868836823B19B6C13B113492246984733
:1030E000286883685B6B0BB1984748B12868836890
:1030F0009B69002BFAD001220DF107019847F4E7F4
:103100000A4B286800221A8083689B6A002BD3D060
:103110009847D1E7A01A0020981A0020A81A00208A
:10312000E81E0020FCDD0000352F0000002D0020EF
:103130002DE9F043EFB041F20443ADF8083040F61A
:103140000613ADF80C30DFF80C91434BD9F80010A2
:103150001B68424EA3EB06080B785A1C62F302036D
:103160000B7098FA98F34B808B8800255BBA8B80A4
:103170004D700822284606F0CAFE31464246ADF898
:10318000100006F0C4FE1FFA88F440BA04F10A03E6
:103190005BBAADF8100002220DF1120106A8022759
:1031A000ADF8123007F009FED9F80010ADF8127032
:1031B00008220DF11A0007F000FEBDF812000830D9
:1031C00006AB80B23146ADF812004246184407F013
:1031D000F4FDBDF81230224E1C44A0B206AB3A46B4
:1031E000ADF8120004A9184407F0E7FDBDF812304D
:1031F0003B449BB2ADF81230009305AA06ABED211B
:1032000032A8FDF7A3FF174F059BADF812302C46EF
:10321000BDF81230A34202DC6FB0BDE8F083336822
:1032200002215B68A4B903A89847BDF8125033681F
:103230002D1B7C2DA8BF7C2532AA101929465B685E
:103240009847336801215B6838462C449847DFE78C
:1032500002A8E9E7341F0020041F002014460020C4
:10326000381F0020F4E90000F0B50C68164F174B2A
:1032700085B002380D46C4F58061009003AA381964
:103280000131FDF7E3FF0446D0B92B68039A1344DC
:10329000022B2B6011D93E8876BAB6B2023B9E4211
:1032A0000BD13246B91C06F032FE30B9022E04D9D9
:1032B0002B689A1E2A60FC540124204605B0F0BDFC
:1032C0004FF0FF34F9E700BFB9460020BC4A0020A8
:1032D00007B5CDE90001694602480AF0C7F903B015
:1032E0005DF804FB041F002038B50B4C05460A218D
:1032F00020460AF0C2F909480221FFF7E9FF2946F2
:1033000020460AF09CF920460A210AF0BEF9BDE8E1
:103310003840FFF70DBF00BF041F00203CE800004D
:103320002DE9F047C6B003AE0DF1100805AD0B4610
:103330004FF0FF34012102463460C8F800402C6091
:103340002EA8002400910421CDE9064409F0EDFEE9
:10335000402221461EA807F03BFD894B1A93052306
:103360001B93884B8848CDE91C38884B1F93884BAA
:10337000219308AB2293874B2493874B0321CDE9FC
:103380002901CDE92635CDE92B360422259107AB5D
:103390001AA92EA8209207F07FFC10B303240A215B
:1033A0007E480AF06AF97E480221FFF791FF7B48C8
:1033B00021460AF044F944B973480321FFF788FF16
:1033C000784B764819680AF044F90A2173480AF0E4
:1033D0005CF9FFF7ADFE069807F04BFA46B0BDE882
:1033E000F08733685A1CDDE90874D7D0002FD5D098
:1033F0006D4A33B9D8F80010B1F1FF3F18BF0B4642
:10340000136000211068FDF75FF806A9C0B2FEF74F
:103410001BFB0028C2D13368624E002B4AD1DDF875
:10342000188033604046D8F8089006F039FB5F4AB0
:103430000146404606F07AFA002840F09F802B684B
:103440004B45ABD85A4A10605A4A13603268584DFF
:10345000069829682244013A07F0FFFB00282860FB
:103460009CDB0698DFF84C9107F042FAB4FBF0F3CE
:1034700003FB10403368C5B2651B1C44D9F800300B
:103480009C4238BF00205FFA80FA069807F030FAB5
:10349000012805D9069807F02BFA013807424DD1CB
:1034A000316806982B463A4607F0F9F900287FF470
:1034B00075AF30E03268934201D000246FE73D4A97
:1034C000126823449342C1D968E7A845069888BF8B
:1034D0005FFA85F807F013FA402201460AA807F0C0
:1034E00077FC424639460AA807F067FC316806981F
:1034F00043460AAA07F0D3F9044600287FF44FAFE9
:103500003368434433604744A5EB0805069807F049
:10351000EFF9A842D9D9BAF1000F12D13368D9F81E
:10352000002053442B4493423360C6D11F4B06986E
:103530001A68114607F091FBC40F30E74FF04008BE
:10354000E4E7069807F0DBF9082201460AA807F02D
:103550003FFC524679190AA807F02FFC069F3168F4
:1035600038466C1807F0C4F90AAA034621463846C3
:1035700007F095F900287FF411AFCFE701240EE79B
:103580003FE8000091D300004EE8000045E800004D
:103590009BD300004AE8000097D30000041F0020DE
:1035A0003CE80000FC1E0020001F0020F41E00204C
:1035B000F01E0020EC1E002007B500230093044AF3
:1035C0000448A42302210AF062F803B05DF804FB6A
:1035D00014460020041F00202DE9F0430729B1B054
:1035E00004466AD9037813F0050F66D143885BBAA5
:1035F000A1F108059BB2AB425FD3784B186083887A
:103600005BBA8380FFF7D8FFA088012840F0CF8005
:10361000E37943B1012B00F0C280082031B0BDE84E
:10362000F043FFF761BE247814F00704F5D101469A
:103630006B486C4E6C4FDFF8B4810AF01EF86C4892
:103640000621FFF745FE664805210AF012F82146DB
:103650000020D6F80090FCF737FF08A9C0B2FEF7AB
:10366000F3F90546F0B92023014610AA089807F09F
:1036700001F9109BBB420DD14023019320AB009375
:10368000CDE90355089B029510AA29462846FCF768
:1036900035FF8146D8F80030089D4B4512D02846AA
:1036A00007F0E7F864B105214D4809F0EAFF012170
:1036B0004B4809F0EAFFFFF73BFD31B0BDE8F0836E
:1036C0000124C4E7002300932A464FF6FF7310A994
:1036D0000AA806F044F9002846D04FF0FF350898B4
:1036E00007F0C7F814213E4809F0C7FF41480421FC
:1036F000FFF7EEFD3A48214609F0ABFF5DB93E48C1
:103700000421FFF7E5FD18AB0A93354820230AA9E9
:103710000B9309F0A8FF39480721FFF7D9FDBDF841
:10372000563001939DF855300093354A9DF854303A
:10373000402120A800F0C6FC169B4BB1421E3E2A39
:1037400006D820ADC0F140012E4A284400F0BAFC52
:1037500020A807F004FB014620A8FFF7B9FD1421BB
:103760001F4809F092FF9DE70DF11E0307AA09A962
:103770000AA806F042F90028AFD1BDF81E30102B80
:10378000F2D1BDF81C30202BA7D12846099918AAE0
:1037900007F070F8051E18BF01256D429FE7294606
:1037A00004F1080031B0BDE8F043FFF7B9BD0028CF
:1037B0007FF433AFE379012B3FF430AF052B03D017
:1037C000002B7FF42AAF78E7FFF78EFD4FF400500F
:1037D000002105F051FC0120FEF71CF9341F0020E8
:1037E000041F0020B40000203DB8F39638070020E5
:1037F00052E8000059E800005EE8000063E80000BD
:103800006BE8000077E800002DE9F341274FDFF86F
:10381000A080284E01233B70274B002405460094CE
:1038200018603B7813B902B0BDE8F081234BC4F5B2
:103830008061C3F80086C3F80486C3F80886C3F81D
:103840000C86C3F81086C3F81486C3F81886C3F82C
:103850001C862B6801AA0131301998470028019B6A
:1038600001DC002BDDD004442BB940F201439C4223
:10387000D7D10024D5E73378062B09D17378092BEB
:103880000BD1002300936946A01EFFF7EDFC04E076
:10389000042B02D17378142BF5D00128E9D10099BB
:1038A00007480239FFF798FEE3E700BFB84600205B
:1038B0003546526EBA4A0020381F002000000140F1
:1038C000BB460020014910220A60704710ED00E05D
:1038D00072B6404080F31188BFF36F8FBFF34F8FF4
:1038E00030BF62B6BFF36F8F704700BF72B64940FA
:1038F00081F31188BFF34F8F20BF80F3118862B628
:10390000704700BF40B2002807DB044A4109012389
:1039100000F01F00834042F82130704700E100E0D2
:1039200040B200280CDB4309064900F01F00203399
:103930000122824041F82320BFF34F8FBFF36F8FE6
:10394000704700BF00E100E0054B420900F01F0096
:1039500053F82220012303FA00F01040704700BF03
:1039600000E100E040B20028A8BF00F1604001F192
:103970000101B8BF064B4FEA4111ACBF00F56140F1
:1039800000F00F00C9B2B4BF195480F8001370479B
:1039900014ED00E030BFFFF7FDBF00BF0B4A08B5D4
:1039A0000B4B22F07F029A60BFF34F8FBFF36F8FF4
:1039B000D3F8882022F47002C3F8882004F052FC67
:1039C00005F006FC00F014FA04F09EFC0000000074
:1039D00000ED00E0094A0A499368096899670949B6
:1039E00058674B6843F080534B60002383F3118882
:1039F000BFF36F8F9368986F704700BFF02A002065
:103A000094E4000000ED00E012498A684FF03000B5
:103A10001044EFF3098C80E8F01F202080F3128817
:103A2000BFF36F8F0C4F4FF000664A698A603E60AB
:103A3000506F0023536780F3118804B5104600F0DF
:103A400085FABDE8044002F1300090E8F01F8CF3E5
:103A500009887047F02A002004ED00E01EF0040FF2
:103A60000CBFEFF30880EFF30980816911F8021CA5
:103A70000229FFD001B507F063F901BD42F8203CEF
:103A8000009B42F81C3C0A49019B42F8183C029BEF
:103A900042F8143C21F001014FF0807342F8043CDD
:103AA00042F8081C0023203A02654367704700BFB4
:103AB000559F0000094A0346906870B113F1160F34
:103AC000406E05D0A0F140029A4205D8834203D24D
:103AD000814228BF0020704700207047F02A002054
:103AE00008B5094B0D461446986000F02FFA2046A1
:103AF00085F30988002163B681F31188BFF36F8FC6
:103B00000022002306F026FAF02A002001B5EFF388
:103B10000580A0F110004FEAC0000449014409C922
:103B20009847BDE801400249084700004CDE00000C
:103B3000353B0000044B99685869884203D003491B
:103B40004FF080520A607047F02A002004ED00E038
:103B500070B5264B15469A6A12F0100F9A6A14BF78
:103B60001124102412F0080F9A6A18BF1224920729
:103B700006460AD5586B9A6A140634D519B19A6A62
:103B800022F080029A62132401E06FF01500174BB7
:103B90009A6A12F0010F9A6A18BF142412F0200FCB
:103BA0009A6A18BF1524D20602D49B6A9B070AD5CD
:103BB0000E4B5B68190506D53146FFF77BFF10B148
:103BC00080F309880224094B9A6A920642BF5A6A16
:103BD00022F400525A629A6A42F0FF029A6200236B
:103BE0002B70204670BD6FF01500CCE700ED00E0B3
:103BF000134B9A6A12F0007F9A6A14BF1E201D2090
:103C000012F0807F9A6A18BF1F2012F4002F9A6A60
:103C100018BF212012F4802F9A6A18BF222012F4B4
:103C2000003F9A6A18BF232012F4803F9A6A6FEA15
:103C300002426FEA12429A6218BF2420704700BF06
:103C400000ED00E010B5194B0246986A9C6A10F42A
:103C5000805F14BF1720162014F4006F9C6A18BFF1
:103C60001820A40509D5986B986A000404D51AB1E8
:103C70009A6A22F400429A6219200C4B9A6A12F452
:103C8000806F9A6A18BF1A20D2050CD49B6A13F46D
:103C9000005F18BF1C20054A936A43F47F43936278
:103CA00000230B7010BD1B20F5E700BF00ED00E006
:103CB00070B5454B5B688AB00546C3F30803002620
:103CC00086F31188BFF36F8F02F07F40B0F17F4F12
:103CD00011D102F00C0008280DD010074CBF0D4682
:103CE00001260022033B8DF80720032B05D8DFE8CF
:103CF00003F01E5D615A3546F3E700249DF8073056
:103D00009BB92022294602A807F057F8099B002EEC
:103D100054D0C3F3080222B96FEA53236FEA432356
:103D2000099302A9204607F009F80AB070BD264B96
:103D3000DA6A9107E1D4DA6A002ADEDBDA6A520035
:103D4000DBD55A69A96942F480725A61BFF34F8F7B
:103D5000BFF36F8F5A6931F8021C22F480725A61E6
:103D6000BFF34F8FBFF36F8F4DF6027291420AD0AF
:103D70009A6AD2B24AB10DF1070201212846FFF733
:103D8000E7FE0446BAE72C68B8E79A6A12F47F4F58
:103D900005D00DF107010120FFF754FFF1E79B6A01
:103DA000B3F5803FA9D3FFF723FFEAE70DF1070240
:103DB0000021E3E70DF107010020EDE723F4FF7395
:103DC00023F00103ACE700BF00ED00E0024A5369B5
:103DD00043F010035361704700ED00E0EFF30880FB
:103DE000EFF3098101B57246FFF762FF01BD00BF25
:103DF000044800232021C2180133302B82F800131D
:103E0000F9D1704700E100E0002080F31488BFF38F
:103E10006F8FFDF717FE00200D490860BFF34F8F2D
:103E20000C4880F3088800F03DF8202080F31188CA
:103E300009484FF40461401880F30988EFF31480B7
:103E40000221084380F31488BFF36F8FFFF7A6FDAC
:103E500094ED00E080890020C0570020BFF34F8F11
:103E60000549064BCA6802F4E0621343CB60BFF316
:103E70004F8F00BFFDE700BF00ED00E00400FA0532
:103E80000749D1F890200023C2F307221846934235
:103E900000DB7047C1F89830C1F8A0000133F6E7A5
:103EA00000ED00E008B572B6002383F31388FFF736
:103EB000E7FF144B4FF0FF32C3F88020C3F8842093
:103EC000C3F88820C3F88C20C3F89020C3F894204E
:103ED000C3F89820C3F89C20C3F88021C3F884213C
:103EE000C3F88821C3F88C21C3F89021C3F894212A
:103EF000C3F89821C3F89C2162B6BFF34F8FBFF37C
:103F00006F8F08BD00E100E0084B9B6883420BD136
:103F1000EFF3058343B1064B5A6842F080525A6072
:103F20005A6A22F400425A6205F0E0B8F02A0020F2
:103F300000ED00E0024B034A0348012100F070B895
:103F400000000420000000208CE10000426E054BC0
:103F5000403A1A60044A4021C3E90112184601217F
:103F600000F068B83C1F002000000B15F0B5204E93
:103F700000258D4239DA446874B353B104F1FF3C33
:103F800014EA0C0F2FD11F2C2DD907681CEA070F3C
:103F900029D1202C0768D0F808C05FFA82FE1ED90C
:103FA000B4F1004F1DD8013CB4FA84F4C4F11F04ED
:103FB0006400BEF1070F4CEA040C14D827F01F046C
:103FC000144344F01004C6F89820C6F89C404CF006
:103FD0000104C6F8A040013201350C30C9E70824BD
:103FE000E7E73E24E5E76FF015021046F0BD00BF9D
:103FF00000ED00E0044B0522C3F89420BFF34F8F7F
:10400000BFF36F8F704700BF00ED00E0BFF35F8F1D
:10401000024B0022C3F89420704700BF00ED00E07F
:1040200010B5034C01232278FFF7A0FF207010BDCC
:10403000BB4E002008B5094A00231278FFF796FF0F
:1040400010F1160F02D0064A072800DD08BDC2F89D
:104050009800C2F8A0300130F6E700BFBB4E002048
:1040600000ED00E014490868082810B521D8FFF7D2
:10407000CDFF124C49680022904201F10C0105D19C
:104080000F4B1870FFF7B6FF002010BDC4F8982042
:1040900051F80C3C23F01F03134343F01003C4F802
:1040A0009C3051F8043C43F00103C4F8A0300132C5
:1040B000E2E74FF0FF30E8E798E1000000ED00E0B4
:1040C000BB4E00200CB410B586B009B90DF10B0041
:1040D0000024CDE9040109AB089A009404A905481D
:1040E0000393FDF775FA049B1C7006B0BDE8104001
:1040F00002B07047E3AD0000044A0123C2F8403526
:104100004FF080420020C2F87835704700E001404F
:1041100020B1034B800143F001031847704700BFF3
:1041200070E00000020600F07F0312D5082B05D1D5
:10413000010700F00F0306D50E48704710F0780F06
:1041400012D100F00F034C2000EB43100A4B18442F
:104150007047082B05D1020700F00F0306D507486A
:10416000704710F0780FF6D000207047044800EB3D
:104170004310704794200020481F0020B4210020E5
:10418000B42000200149024809F0F5BB701F00204F
:10419000B80400200146014809F088BB2403002030
:1041A00002480022002304F0CDBA00BF24030020FF
:1041B00013B5124803F010FB114B98421AD1114865
:1041C00002F078FF0024104802F0BAFF0F491048AF
:1041D00000944FF0FF334FF4806204F029FC0D4946
:1041E0000B4809F0D5FA0C480C4909F0A7FB20460A
:1041F00002B010BD6FF00400FAE700BF05440000F4
:104200000000AD0B9FE80000B8E1000080530020E3
:10421000B804002091E80000701F00202145000034
:1042200010B50E49BFF35B8F002351E8002F012A20
:1042300003D141E800300028F7D1BFF35B8F0CD1E8
:1042400051F8044C1439204606F030FA783004D185
:104250002046BDE8104006F004BA10BD681F0020DB
:1042600038B5002464F07F00C0B2FFF75BFF013473
:1042700006F0C4FD082CF5D10E4D0024E0B2FFF786
:1042800051FF036903B90561013406F0B7FD082C3D
:1042900005F14005F2D1084806F0B0FD074BD3F810
:1042A0007C2212B9064AC3F87C22064806F0A6FD15
:1042B000002038BDD825002094200020481F002071
:1042C000D8210020B421002010B5054CFFF768FF6D
:1042D00020B14168204609F02FFAF7E710BD00BF72
:1042E000A402002007B500230E48002201A904F013
:1042F0008BF890B1FFF7E8FF0A480022002301A9DC
:1043000004F082F838B90198042340600374FFF781
:1043100041FFFFF737FF002001E00198406003B044
:104320005DF804FBA4020020022810B511D8094B47
:104330001C5CFFF7D7FF60B1002202740472FFF724
:1043400029FF054B93F824301BB1BDE81040FFF75F
:1043500019BF10BD9CE80000481F0020F8B5877801
:1043600006463846FFF7DEFE3B06F578044612D5D2
:10437000002D43D1FFF7B6FF034600283ED00122AF
:10438000A5770274032202739C60FFF703FFBDE868
:10439000F840FFF7F7BE4DB1012D2FD1FFF7A2FF77
:1043A000034658B3657705740573EDE7FFF79AFF89
:1043B00020B3B278124B12F0800F02F0080111D036
:1043C00041B1D3F8A836E3600123037402230373D9
:1043D0008460DAE702F00F02142101FB0233D3F804
:1043E0000836F0E711B1D3F8A837ECE702F00F0276
:1043F000142101FB0233D3F80837E4E7F8BD00BF0E
:1044000000700240F0B5064689B01422002103A8CE
:1044100006F0DEFC3378013B052B21D8DFE803F002
:104420007A0314146A1603238DF814300024FFF75E
:1044300059FF0346A0B1047400F10802DDE905014B
:1044400082E8030018461DE00423EDE7B7783846FC
:10445000FFF768FE837A044623B1013B022B43D960
:1044600009B0F0BD3B06F57813D5002DF8D1FFF764
:1044700039FF03460028F3D00122A57702740322F6
:1044800002739C60FFF786FE09B0BDE8F040FFF7BD
:1044900079BE55B1012DE3D1FFF724FF0346002873
:1044A000DED0657705740573EBE7FFF71BFF074662
:1044B0000028D5D00123037402230373846004F120
:1044C0000C01B07808F0B0FD134AE168B2F88C3204
:1044D0008B4206D95B1AA2F88C3203F0D5FB384622
:1044E000D0E7A2F88C52FAE7304609B0BDE8F040B8
:1044F000FFF734BF01A803F0A1FB9DF80530052BA1
:1045000004D19DF8043013F0600FA9D0034B05933C
:1045100001248CE702248AE7481F0020B4200020F1
:104520002DE9F043A74CDFF8A09285B08046FFF755
:1045300037FE064610B905B0BDE8F08394F8253083
:10454000327C3BB9002A00F0888071689E4809F0EF
:10455000F3F8ECE7042A44D8DFE812F07F00050006
:10456000020118014201337BB568032B39D8DFE81B
:1045700003F0023F5C616F6908220021384606F0B3
:1045800027FC924B9248D3F880243A70D3F88424C5
:104590007A70D3F88824D3F88C1442EA01227A8006
:1045A000D3F89024D3F8941442EA0122BA80D3F8C5
:1045B0009824D3F89C3442EA03230822FB8039462E
:1045C000EA6006F0FAFB2B68687A0021984797F9B1
:1045D0000030002B08DBFB8833B1A4F88C3203F0E9
:1045E00053FB71684846B2E70023A4F88C32F8E721
:1045F0006B7F002BF5D02B7F002BF2D000276F773D
:104600004FF0FF3273482F774FF0FF3306F009FC6D
:104610006B6901936B68CDE9023701A9687A03F0F1
:104620001DF96C4806F0FFFBDBE72B680121687A77
:104630009847D6E7AB7A6BB9EB7F5BB965484FF02B
:10464000FF324FF0FF3306F0ECFB03F04DFB614807
:1046500006F0E9FB2B680221E9E7327A042AC0D888
:10466000DFE802F059032367730003F07FF8054683
:104670000028B6D102F0B0FFBFF35B8F564901238B
:1046800051E8002F002A03D141E800300028F7D17B
:10469000BFF35B8FA5D141F8085C41F8105CE0697D
:1046A0006361143905F085FF9BE7002565F07F0005
:1046B000C0B2FFF737FD037A13B1407A03F0DCFC98
:1046C0000135082DF2D194F854311BB194F85501FD
:1046D00003F0D2FC0025E8B2FFF724FD037A13B102
:1046E000407A03F0C9FC0135082DF4D194F87432F6
:1046F0001BB194F8750203F0BFFC002003F018F81A
:10470000012384F825302368002B3FF46AAF002191
:104710000220984765E7002584F8255003F050FCF7
:10472000FFF77EFD2368002B3FF45BAF2946042092
:10473000EFE7002B3FF455AF03F022F82368002B7E
:104740003FF44FAF00210520E3E72268002A3FF441
:1047500048AF002B3FF445AF00210620904740E7CB
:1047600008F110054FF0FF334FF0FF32284606F0F6
:1047700058FBFFF775FD284606F055FB58F8283C16
:10478000002B3FF42EAF00210120C2E794F87432D1
:104790007BB1012584F8895284F88852FFF7A2FD85
:1047A00038B10E4A057405738260FFF7F3FCFFF71A
:1047B000E9FC58F8283C002B3FF413AF00210A20F5
:1047C000A7E700BF481F0020A4020020007002409D
:1047D0004C1F0020801F0020681F0020B4210020F3
:1047E00008F099FB03F0ECFB02F0ECFEFFF76CFD28
:1047F000FFF736FD08F088FB014802F0EDFFF0E618
:104800000544000038B5164D95F824402CBB05F141
:10481000380008F0D6FF204600F030FB2246012188
:10482000E8612720FFF79EF808F06EFBFFF718FD00
:10483000044610B9012385F824300A4B1B680BB1DC
:10484000FFF7A0FC4FF08043D3F83834DB0702D5E4
:104850000020FFF769FD204638BD0024FBE700BFBC
:10486000481F00202403002010B50D484FF0FF32F0
:104870004FF0FF3306F0D5FAFFF726FD02F076FF82
:1048800008B103F09DFBFFF7CBFC08F044FB0548A3
:10489000002480F82440383006F0C5FA204610BDC8
:1048A000801F0020481F0020074B93F824203AB1B6
:1048B00093F82530002B14BF00206FF012007047D2
:1048C0006FF01200704700BF481F002038B5104B32
:1048D00093F824300446C3B105782846FFF722FC3C
:1048E00010B96FF0150038BD457223798372638863
:1048F00043602078618810F0080F02D14B1E0B42F4
:10490000EFD108F08CFB0020EDE76FF01200EAE732
:10491000481F002038B5124B93F824200546CAB131
:1049200093F82530B3B1FFF7FDFB0446A8B1837AB5
:10493000012B12D007D9023B012B07D96369A36170
:104940000020E06038BD03F0D7F9F7E7284603F010
:1049500047F9F3E76FF01200F4E76FF01500F1E7A5
:10496000481F002038B50E4B93F82420054682B12D
:1049700093F825306BB1FFF7D5FB68B115F008044B
:104980000AD1284603F04EF9284603F0C9FB204619
:1049900038BD6FF01200FBE76FF01500F8E700BFBD
:1049A000481F002038B50C4B93F8242005460C46D0
:1049B00062B193F825304BB1FFF7B4FB48B144B175
:1049C000284603F015F92070002038BD6FF0120062
:1049D000FBE76FF01500F8E7481F002070B5134E95
:1049E00096F824300446C3B1FFF79CFB0546B8B1E6
:1049F000230705D4204603F015F9204603F090FB69
:104A00002B7A83B901232B7296F825300BB900203D
:104A100070BD204603F030FBF9E76FF01200F7E7B6
:104A20006FF01500F4E76FF07700F1E7481F002002
:104A30002DE9F043DFF8E4801E4698F8243085B075
:104A4000074689461546002B61D098F82530002B83
:104A50005DD003065ED5FFF765FB0446002859D0FC
:104A6000037A002B56D04FF0FF334FF0FF3208F19E
:104A7000380006F0D6F9A37F4BB108F1380006F0F4
:104A8000D2F96FF00A04204605B0BDE8F083A37A9E
:104A9000C5B13BB30123A3774FF0000801A9384605
:104AA000CDE90195CDF80C8002F0D8FE1C4B984260
:104AB00029D084F81E801EBB6FF00404194806F04C
:104AC000B2F9E0E7E27F02B1E577002BE2D103F033
:104AD0001BF9B842DED003F007F9124806F0A3F93B
:104AE0000024D0E7B8F80A30AB42F0D96268B5FBD1
:104AF000F2F302FB1353002BE9D10123E377E6E73E
:104B0000C6F80080D8E706B135600024D6E76FF01C
:104B10001204B8E76FF01504B5E700BF481F002086
:104B20000000AD0B801F00202DE9F0411D46204BF9
:104B3000174693F824200E46002A33D093F82530E8
:104B400083B3030631D401B97FBBFFF7EBFA044608
:104B500058B3037A4BB34FF0FF3316484FF0FF3290
:104B600006F05FF9E3689F42B84628BF984646B909
:104B70003FB905B12B600F4806F055F90020BDE89C
:104B8000F081A1694246304606F017F9A369434413
:104B9000A361E368A3EB0803E360002DEBD0C5F845
:104BA0000080E8E76FF01200E9E76FF01500E6E734
:104BB000481F0020801F002070B51E4D95F824204E
:104BC000034682B395F825206AB31B062ED4FFF75F
:104BD000A9FA044650B3037A43B34FF0FF334FF0C2
:104BE000FF3205F1380006F01CF9E368B3B901267D
:104BF00063692677A361637F83B1FFF773FB30B9E5
:104C000005F1380006F00FF96FF00B0070BD067467
:104C100084600673FFF7BEFAFFF7B4FA064806F0A1
:104C200002F90020F2E76FF01200EFE76FF01500D5
:104C3000ECE700BF481F0020801F002010B5084B84
:104C400093F824300C462BB1FFF76CFA28B10460BE
:104C5000002010BD6FF01200FBE76FF01500F8E7C1
:104C6000481F0020014B1860704700BF481F0020FC
:104C700008B5074B93F8243023B1FFF753FA20B15E
:104C8000406808BD6FF01200FBE76FF01500F8E711
:104C9000481F0020084B70B5C31A0D4607499B10EA
:104CA000044659430648402206F01BF92B460146AC
:104CB0002046BDE870401847EC270020B76DDBB6F2
:104CC000C0DD000073B50C4C0C4A4023041B00935C
:104CD0000D460B460A49A41061430646094806F0F2
:104CE0002DF9011E05DA30462B4602B0BDE87040B2
:104CF000184702B070BD00BFEC270020A9AF00002C
:104D0000B76DDBB6C0DD0000002270B5012104469E
:104D10001046FEF727FE0F4801F06AFD0E4B984241
:104D200015D101F075FD26690C49304605F02EFCC1
:104D300000280BDB012535642469084904F11C00B7
:104D400005F024FC002801DBE564002070BD6FF055
:104D50000400FBE7954D00000000AD0BBCE1000036
:104D600070B501460C2309484B43C418D4E90E56CC
:104D7000403300221844A26306F0A0F82DB1324659
:104D80002B460348BDE87040184770BDEC27002053
:104D9000C0DD000010B1012804D07047034B1B6C2C
:104DA0005B0701D1FFF7DCBF704700BFEC27002095
:104DB00008B54FF02003EFF3118183F31288BFF39E
:104DC0006F8F124A136843F002001060DA0708D4AC
:104DD00081F31188BFF36F8F0120BDE8084007F011
:104DE000E3BF4FF08043D3F80C24D3F80C34DB0737
:104DF000EED5074806F062F881F31188BFF36F8F94
:104E00000020BDE80840FFF7ABBF00BF3C280020F2
:104E10002C2800201FB500220123CDE90223094AD6
:104E2000CDF800D06B46CDF804D006F0B6F80028D7
:104E300005DB4FF480420023684603F0DBFC05B03D
:104E40005DF804FBC7AF000010B54FF02003EFF38F
:104E5000118483F31288BFF36F8F074A136823F01E
:104E60000201DB07116002D4012007F0D9FF84F3AF
:104E70001188BFF36F8F10BD3C280020024AC3B2D7
:104E80001C2003FB00207047EC2700202DE9F04197
:104E90003849BFF35B8F0746012251E8003F41E8E4
:104EA00000200028F9D1BFF35B8F33B93249334872
:104EB0004B60CB608A6005F07CFB7B1E012B2BD8FE
:104EC000012F07D14FF08043D3F81C3403F00303C4
:104ED000012B21D008F056FC0546F8B9284B1B7869
:104EE000E3B14FF080430222C3F808230646DFF8FF
:104EF00094804FF08044D4F81824D4F81834D203A6
:104F000016D503F00303012B01D0012F10D15DB39F
:104F100086F31188BFF36F8FBDE8F0814FF0200357
:104F2000EFF3118683F31288BFF36F8F0125DEE75D
:104F3000ADB13046FEF7DAFCD4F81835002BDAD1E3
:104F4000D4F80421002AD6D0C4F80431D4F80431AE
:104F50000123C4F81835C8F88031A360CBE70021DD
:104F6000212004F089F8E7E74FF080430222C3F8DC
:104F70000423D1E7E8270020D827002008280020B4
:104F8000084F002000E100E0024B0B60012313609A
:104F9000704700BF402800200048704708E200002A
:104FA00010B5012211460648064C08F08AFC07F0AD
:104FB0009BFF206007F094FF6060002010BD00BFE1
:104FC00048280020402800204FF08042D2F81015D9
:104FD000D2F8103501F01E0123F01F030B4343F0FC
:104FE0000103C2F81035024B00221A70704700BF4F
:104FF000BC4E00204FF08053D3F83031082B20D125
:105000004FF08042D2F81015CB071AD5D2F81035E0
:1050100001F01E0123F01F030B43C2F81035D2F834
:1050200008315BB1D2F8103523F01F030B4343F076
:105030000103C2F810356FF08B007047024B01225C
:105040001A700020704700BFBC4E00202DE9F041CF
:105050000D46164607F044FF31460746284605F040
:10506000B5FF78B3B5FBF7F307FB135353BBB6FBA0
:10507000F7F407FB14642CBBB7421DD84FF0FF3286
:105080004FF0FF331148DFF8488003F0B3FB07F01F
:1050900027FF0746FFF7AEFF044680B9284601F018
:1050A000DBFF98F800300BB1FFF78EFFF61B3D4495
:1050B000F0D1064803F07AFB2046BDE8F0816FF09E
:1050C0008B04F6E76FF01504F6E700BF48280020D0
:1050D000BC4E00202DE9F8430E46304619461746CF
:1050E0001C4605F073FF88B344EA060515F0030576
:1050F0002CD1BCB11748DFF860904FF0FF324FF071
:10510000FF3303F077FB24F00304AC4206EB050801
:105110000BD1124AD2F80034DB07FBD500240D482E
:1051200003F044FB2046BDE8F883FFF763FF50B966
:105130007959404601F0B0FF99F800300BB1FFF704
:1051400043FF0435E1E76FF08B04E8E76FF01504E7
:10515000E8E700BF48280020BC4E002000E00140E6
:1051600030B54068057B01F01F04B2F5001F85B023
:1051700044EA451405D1204601F028FE002005B080
:1051800030BD0025B2F5800FCDE9025514D1B3F141
:10519000007F0CBF042305238DF808300023194637
:1051A00002AA204601F02EFC234B98423DD101215A
:1051B000204601F0BDFDE1E7B3F1C06F27D0B3F1A8
:1051C000007F14BF012302238DF80830836823FA7F
:1051D00001F111F00101E1D1B2F1A07FDED104F0C3
:1051E0001F03620903F5E07313D0012A20D1134A8B
:1051F00052F82330DB07D1D40DF1070529462046AC
:1052000001F040FD0E4B984206D00395C6E70323FC
:10521000DAE74FF0A042EBE7284601F083FD064BAA
:105220009842F2D06FF00B00A9E76FF01500A6E7E7
:1052300051F82330FFDE00BF0000AD0B000300502B
:105240000400AD0B10B501F05DFD044668B901F036
:1052500031FD084B98420AD10748214601F00CFD68
:10526000224605210620FEF77DFB002010BD6FF0D1
:105270000400FBE70000AD0B7D520000420970B551
:10528000034602D0012A17D070BD0D4E3269516815
:105290000029F9D003F01F0301250C689D40002967
:1052A000F2D08A682A4002D04B68304698472CB129
:1052B000236821461C46F2E7024EE7E72346F8E75B
:1052C000E8DD0000D4DD00002DE9FF4147683B7BAD
:1052D00001F01F0545EA43150E4628460DF107016A
:1052E000144601F0CFFC14F4403F80460DD128460F
:1052F00001F092FD3D4B984503D19DF8070001F068
:105300000BFD002004B0BDE8F0810023194602AA7D
:105310002846CDE9023301F075FB344B984214D195
:10532000804503D19DF8070001F0F6FCA3034ED59C
:1053300040F206332340B3F5837F1AD00DD8062BF5
:1053400018D005D8B3B1022B33D06FF01500D9E7D0
:10535000B3F5807FF9D101230CE040F202229342A1
:1053600029D0B3F5407F28D0B3F5007FEDD10223DB
:1053700000E007238DF8083084F48033C3F3004342
:10538000E0068DF8093054BFC4F340130323210312
:105390008DF80A3013D57A680123B340C2F8083576
:1053A000002202A9284601F0EDFB104B9842A8D03C
:1053B000CBE70423DEE70523DCE70323DAE7620318
:1053C00041BF01237A68B340C2F80C35E8E7E30631
:1053D0004FF0000354BFC4F3401403241A4602A93B
:1053E00028468DF8084001F00DFBDEE70000AD0B0C
:1053F0002DE9F047DFF8E4C0394F0026F3B29942B7
:1054000002D80020BDE8F08750F8264004F07F0362
:105410007F2B4FEA144508BF4FF0FF33032D50D8C0
:10542000DFE805F002083437C2F80C355D1C33D1D3
:105430000136E3E7C2F814355D1CF9D0002550F8B9
:1054400026A00AF4005EBEF1000F0EBFA8464FF082
:105450000108002503F01F0E5B092FD0012B37D167
:105460003B4603EB8E0ECAF3C11ADEF8003703EA9F
:105470000C09C4F343231B0243EA8A032B4343EA88
:10548000480343EA0903CEF80037D1E7C2F80835EC
:10549000CCE7C2F81035CFE75D090CD0012D13D150
:1054A000B9464FF0010803F01F0E08FA0EF5C9F8CF
:1054B00008554546C3E74FF0A049F2E74FF0A04337
:1054C000CFE76FF085009DE70023C3F80835FFDEC6
:1054D0000EF5E07E002353F82E30F8E7F0F8FCFFDD
:1054E00000030050F0B54B79012B26D0032B21D1BE
:1054F00010258B79032B1DD1CE790EB1012E19D138
:105500000A7912B1022A15D10E220B684468B3F54C
:10551000164F276867D02DD8B3F5165F66D016D81A
:10552000B3F5966F64D00AD8B3F5967F63D0B3F520
:10553000167F63D06FF0850054E00025D9E7B3F5FE
:10554000166F5ED0B3F5965FF4D1384B3CE0B3F5FF
:10555000E14F59D007D8B3F5615F57D0B3F5964FF7
:10556000E8D1334B30E047F61224A342E2D14FF4A6
:10557000000329E0B3F5613F4AD013D8B3F5963F55
:1055800049D009D84DF6C024A34246D0B3F5614FA7
:10559000D0D14FF46B0317E0B3F5E13FCAD14FF020
:1055A000EB7311E0B3F5612F3AD008D8214CA34238
:1055B00039D0B3F5E12FBDD14FF0E86304E01E4CC4
:1055C000A342B7D14FF080530469C7F8243543682C
:1055D00035431B682A43C3F86C2503C9231D83E8A0
:1055E00003000020F0BD4FF41D03EDE7134BEBE784
:1055F0004FF49E23E8E74FF4A033E5E74FF41C3364
:10560000E2E74FF41D23DFE70D4BDDE70D4BDBE752
:105610004FF06C73D8E70C4BD6E74FF46503D3E734
:105620004FF07063D0E74FF08063CDE700B0130018
:1056300000A04E0090D0030040420F000050270011
:1056400000C0750000F03A0000903A012DE9F743E0
:10565000476806693C680021C4F800153060D7F837
:105660000C80814601AA404605F09FFD051E4CDBDB
:10567000019BD8F8002019791868FFF7B9FE051EBC
:1056800043DB311D4846FFF72DFF054600283CD17E
:105690007B68990712D506F11C0001F0ABFD1E4B8B
:1056A000984236D1307F04F10C0204F5907107F076
:1056B00071FB337F0120984001F032F80823C4F8D1
:1056C00000353B7A53B9C4F81031D4F81031B369BE
:1056D000C4F834350123C4F8383523607B689A0751
:1056E0005CBF4FF48073C4F804337B68DB0644BFAF
:1056F0004FF48003C4F804337369C4F844350023BD
:10570000C4F848350123A360E360284603B0BDE830
:10571000F0836FF00405F8E70000AD0BF8B5044620
:1057200007690D4608F02EF8B0B9214B1B789BB1E4
:105730006426606805F01BFE00BB012007F028FB13
:10574000013EF6D10021212003F096FCF0E781F321
:105750001188BFF36F8FF5E74FF02003EFF311814E
:1057600083F31288BFF36F8F60680E4605F0FFFD6C
:1057700090B981F31188BFF36F8FEDE74FF02003ED
:10578000EFF3118183F31288BFF36F8F60680E46C9
:1057900005F0EDFD0028DAD07B691D7079690122E2
:1057A000204605F024FD86F31188BFF36F8FF8BD06
:1057B000084F002070B5012383400E4ABFF35B8F72
:1057C000DC4352E8001F01EA040542E80056002EBF
:1057D000F7D1BFF35B8F4FF4803282400648C0F8A8
:1057E0000823BFF35F8FBFF36F8F0B4214BF0120FD
:1057F000002070BD742800200010014070B40E49D4
:10580000D1E90034D01AC31844F1000422F07F46D5
:10581000C1E90034A6F50013B3F5400F09D2074BD8
:105820001B681A0A1B069C19054B42F10005C3E9C7
:10583000004570BC03F0A2BD680500207828002058
:105840007005002011B3BFF35B8F0123104A834022
:1058500052E800CF4CEA030C42E800C10029F7D11E
:10586000BFF35B8F0B4A4FF480338340C2F804339D
:10587000094BBFF35B8F1B68BFF35B8FC340DB0734
:1058800042BF064B4FF40032C3F80021704700BFFF
:1058900074280020001001407028002000E100E082
:1058A0000D4B1868010A0006BFF35F8F0B4BD3F84E
:1058B0000435181841F10001B3F5801F0AD2084BD6
:1058C000D3E90023904271EB030303D210F18070FF
:1058D00041F10001704700BF78280020001001400E
:1058E000700500202DE9F04F85B016461F469DF843
:1058F00040A00446FFF75EFF0190FFF7D1FFB042E2
:1059000071EB070354D23E4B301A67EB010198420A
:1059100071F100014FD23B4B03EB0413D3E9022397
:105920009F4208BF96425ED037494FF4803804F159
:10593000500508FA04F8AD00C1F848832046ADB21E
:1059400005F0DFFD26F07F4B05F1804504F5A873D7
:1059500005F58835DC464FF003090293029A2CF0D6
:105960007F4341F82230C1F84483D1F80435274AF7
:105970006FF00200C01A604420F07F40904232D99C
:10598000286868B1D1F804350393A3EB0B0020F02D
:105990007F40B0F5000F26D9204605F0B2FD039BED
:1059A000BAF1000F07D109EB030C09F10109D5E7A2
:1059B000BAF1000F09D06FF0150520460199FFF7E5
:1059C00041FF284605B0BDE8F08F0123104ABFF320
:1059D0005B8FA34052E8000F184342E80001002902
:1059E000F8D1BFF35B8F07490E98230101EB041236
:1059F000C8500F9B5360C2E902670025DDE700BF76
:105A0000010080005805002000100140FDFF7F00CC
:105A1000702800207FB51C4C1C4BC4F80833C4F818
:105A200048331B4B00254FF0FF304FF0FF31C4F8D7
:105A30000855C3E902014FF48033C4F80433154B11
:105A400002264FF400320121C4F804631120C3F888
:105A500080212A46FDF786FF1120FDF753FF0E4AED
:105A60000123A360236013600C4B0D4A0093CDE922
:105A7000015500232846FFF735FF3046FFF706FAA9
:105A8000284604B070BD00BF0010014003000F00A5
:105A90005805002000E100E074280020FD570000B8
:105AA000FFFF7F002DE9F7432F4CD4F8043399070B
:105AB0000BD5D4F8043143B12C4A0023C4F8043187
:105AC000D4F80431136801331360D4F80433DA03D3
:105AD0002AD5BFF35B8F264B53E8002F22F001013C
